{"abi":[{"type":"constructor","inputs":[],"stateMutability":"nonpayable"},{"type":"function","name":"BPS_DENOMINATOR","inputs":[],"outputs":[{"name":"","type":"uint256","internalType":"uint256"}],"stateMutability":"view"},{"type":"function","name":"MAX_FEE_BPS","inputs":[],"outputs":[{"name":"","type":"uint256","internalType":"uint256"}],"stateMutability":"view"},{"type":"function","name":"SUITE_PER_USDC","inputs":[],"outputs":[{"name":"","type":"uint256","internalType":"uint256"}],"stateMutability":"view"},{"type":"function","name":"accumulatedFees","inputs":[],"outputs":[{"name":"","type":"uint256","internalType":"uint256"}],"stateMutability":"view"},{"type":"function","name":"authorizeApp","inputs":[{"name":"app","type":"address","internalType":"address"}],"outputs":[],"stateMutability":"nonpayable"},{"type":"function","name":"authorizedApps","inputs":[{"name":"","type":"address","internalType":"address"}],"outputs":[{"name":"","type":"bool","internalType":"bool"}],"stateMutability":"view"},{"type":"function","name":"chargeUser","inputs":[{"name":"user","type":"address","internalType":"address"},{"name":"suiteAmount","type":"uint256","internalType":"uint256"}],"outputs":[],"stateMutability":"nonpayable"},{"type":"function","name":"depositFeeBps","inputs":[],"outputs":[{"name":"","type":"uint256","internalType":"uint256"}],"stateMutability":"view"},{"type":"function","name":"depositToken","inputs":[{"name":"tokenIn","type":"address","internalType":"address"},{"name":"amount","type":"uint256","internalType":"uint256"},{"name":"minUsdcOut","type":"uint256","internalType":"uint256"},{"name":"swapData","type":"bytes","internalType":"bytes"}],"outputs":[],"stateMutability":"nonpayable"},{"type":"function","name":"depositUSDC","inputs":[{"name":"amount","type":"uint256","internalType":"uint256"}],"outputs":[],"stateMutability":"nonpayable"},{"type":"function","name":"depositYield","inputs":[{"name":"amount","type":"uint256","internalType":"uint256"}],"outputs":[],"stateMutability":"nonpayable"},{"type":"function","name":"getBackingRate","inputs":[],"outputs":[{"name":"","type":"uint256","internalType":"uint256"}],"stateMutability":"view"},{"type":"function","name":"getTotalSupply","inputs":[],"outputs":[{"name":"","type":"uint256","internalType":"uint256"}],"stateMutability":"view"},{"type":"function","name":"getTreasuryValue","inputs":[],"outputs":[{"name":"","type":"uint256","internalType":"uint256"}],"stateMutability":"view"},{"type":"function","name":"initialize","inputs":[{"name":"_suiteToken","type":"address","internalType":"address"},{"name":"_usdc","type":"address","internalType":"address"},{"name":"_owner","type":"address","internalType":"address"}],"outputs":[],"stateMutability":"nonpayable"},{"type":"function","name":"maxDepositPerTx","inputs":[],"outputs":[{"name":"","type":"uint256","internalType":"uint256"}],"stateMutability":"view"},{"type":"function","name":"maxWithdrawPerTx","inputs":[],"outputs":[{"name":"","type":"uint256","internalType":"uint256"}],"stateMutability":"view"},{"type":"function","name":"owner","inputs":[],"outputs":[{"name":"","type":"address","internalType":"address"}],"stateMutability":"view"},{"type":"function","name":"pause","inputs":[],"outputs":[],"stateMutability":"nonpayable"},{"type":"function","name":"paused","inputs":[],"outputs":[{"name":"","type":"bool","internalType":"bool"}],"stateMutability":"view"},{"type":"function","name":"renounceOwnership","inputs":[],"outputs":[],"stateMutability":"nonpayable"},{"type":"function","name":"revokeApp","inputs":[{"name":"app","type":"address","internalType":"address"}],"outputs":[],"stateMutability":"nonpayable"},{"type":"function","name":"setFees","inputs":[{"name":"_depositFeeBps","type":"uint256","internalType":"uint256"},{"name":"_withdrawFeeBps","type":"uint256","internalType":"uint256"}],"outputs":[],"stateMutability":"nonpayable"},{"type":"function","name":"setLimits","inputs":[{"name":"_maxDeposit","type":"uint256","internalType":"uint256"},{"name":"_maxWithdraw","type":"uint256","internalType":"uint256"}],"outputs":[],"stateMutability":"nonpayable"},{"type":"function","name":"setSwapRouter","inputs":[{"name":"_router","type":"address","internalType":"address"}],"outputs":[],"stateMutability":"nonpayable"},{"type":"function","name":"suiteToken","inputs":[],"outputs":[{"name":"","type":"address","internalType":"contract ISuiteToken"}],"stateMutability":"view"},{"type":"function","name":"swapRouter","inputs":[],"outputs":[{"name":"","type":"address","internalType":"address"}],"stateMutability":"view"},{"type":"function","name":"transferOwnership","inputs":[{"name":"newOwner","type":"address","internalType":"address"}],"outputs":[],"stateMutability":"nonpayable"},{"type":"function","name":"unpause","inputs":[],"outputs":[],"stateMutability":"nonpayable"},{"type":"function","name":"usdc","inputs":[],"outputs":[{"name":"","type":"address","internalType":"contract IERC20"}],"stateMutability":"view"},{"type":"function","name":"withdraw","inputs":[{"name":"suiteAmount","type":"uint256","internalType":"uint256"}],"outputs":[],"stateMutability":"nonpayable"},{"type":"function","name":"withdrawFeeBps","inputs":[],"outputs":[{"name":"","type":"uint256","internalType":"uint256"}],"stateMutability":"view"},{"type":"function","name":"withdrawFees","inputs":[{"name":"to","type":"address","internalType":"address"}],"outputs":[],"stateMutability":"nonpayable"},{"type":"function","name":"withdrawForYield","inputs":[{"name":"to","type":"address","internalType":"address"},{"name":"amount","type":"uint256","internalType":"uint256"}],"outputs":[],"stateMutability":"nonpayable"},{"type":"event","name":"AppAuthorized","inputs":[{"name":"app","type":"address","indexed":true,"internalType":"address"}],"anonymous":false},{"type":"event","name":"AppRevoked","inputs":[{"name":"app","type":"address","indexed":true,"internalType":"address"}],"anonymous":false},{"type":"event","name":"Deposited","inputs":[{"name":"user","type":"address","indexed":true,"internalType":"address"},{"name":"tokenIn","type":"address","indexed":true,"internalType":"address"},{"name":"amountIn","type":"uint256","indexed":false,"internalType":"uint256"},{"name":"usdcReceived","type":"uint256","indexed":false,"internalType":"uint256"},{"name":"suitesMinted","type":"uint256","indexed":false,"internalType":"uint256"},{"name":"fee","type":"uint256","indexed":false,"internalType":"uint256"}],"anonymous":false},{"type":"event","name":"FeesUpdated","inputs":[{"name":"depositFeeBps","type":"uint256","indexed":false,"internalType":"uint256"},{"name":"withdrawFeeBps","type":"uint256","indexed":false,"internalType":"uint256"}],"anonymous":false},{"type":"event","name":"FeesWithdrawn","inputs":[{"name":"to","type":"address","indexed":true,"internalType":"address"},{"name":"amount","type":"uint256","indexed":false,"internalType":"uint256"}],"anonymous":false},{"type":"event","name":"Initialized","inputs":[{"name":"version","type":"uint64","indexed":false,"internalType":"uint64"}],"anonymous":false},{"type":"event","name":"OwnershipTransferred","inputs":[{"name":"previousOwner","type":"address","indexed":true,"internalType":"address"},{"name":"newOwner","type":"address","indexed":true,"internalType":"address"}],"anonymous":false},{"type":"event","name":"Paused","inputs":[{"name":"account","type":"address","indexed":false,"internalType":"address"}],"anonymous":false},{"type":"event","name":"SwapRouterUpdated","inputs":[{"name":"newRouter","type":"address","indexed":true,"internalType":"address"}],"anonymous":false},{"type":"event","name":"Unpaused","inputs":[{"name":"account","type":"address","indexed":false,"internalType":"address"}],"anonymous":false},{"type":"event","name":"Withdrawn","inputs":[{"name":"user","type":"address","indexed":true,"internalType":"address"},{"name":"suitesBurned","type":"uint256","indexed":false,"internalType":"uint256"},{"name":"usdcSent","type":"uint256","indexed":false,"internalType":"uint256"},{"name":"fee","type":"uint256","indexed":false,"internalType":"uint256"}],"anonymous":false},{"type":"error","name":"EnforcedPause","inputs":[]},{"type":"error","name":"ExpectedPause","inputs":[]},{"type":"error","name":"InvalidInitialization","inputs":[]},{"type":"error","name":"NotInitializing","inputs":[]},{"type":"error","name":"OwnableInvalidOwner","inputs":[{"name":"owner","type":"address","internalType":"address"}]},{"type":"error","name":"OwnableUnauthorizedAccount","inputs":[{"name":"account","type":"address","internalType":"address"}]},{"type":"error","name":"ReentrancyGuardReentrantCall","inputs":[]},{"type":"error","name":"SafeERC20FailedOperation","inputs":[{"name":"token","type":"address","internalType":"address"}]}],"bytecode":{"object":"0x608060405234801561000f575f80fd5b5061001861001d565b6100cf565b7ff0c57e16840df040f15088dc2f81fe391c3923bec73e23a9662efc9c229c6a00805468010000000000000000900460ff161561006d5760405163f92ee8a960e01b815260040160405180910390fd5b80546001600160401b03908116146100cc5780546001600160401b0319166001600160401b0390811782556040519081527fc7f505b2f371ae2175ee4913f4499e1f2633a7b5936321eed1cdaeb6115181d29060200160405180910390a15b50565b611c1d806100dc5f395ff3fe608060405234801561000f575f80fd5b50600436106101fc575f3560e01c80637adb241c11610114578063c31c9c07116100a9578063e1a4521811610079578063e1a4521814610415578063f2fde38b1461041e578063f688bcfb14610431578063fd0ae7f014610444578063fef5ebb914610457575f80fd5b8063c31c9c07146103de578063c4590d3f146103f1578063c4e41b2214610404578063d55be8c61461040c575f80fd5b8063a22b6e8f116100e4578063a22b6e8f146103a8578063a2ea7b88146103ba578063ab879827146103c2578063c0c53b8b146103cb575f80fd5b80637adb241c1461034a5780637cf4c01b1461035d5780638456cb59146103705780638da5cb5b14610378575f80fd5b80633f4e46a011610195578063587f5ed711610165578063587f5ed7146103105780635c975abb146103195780635d926ced14610330578063715018a6146103395780637aca2b5914610341575f80fd5b80633f4e46a0146102af57806341273657146102e157806344086669146102f45780634e2e8d6014610307575f80fd5b8063200ae02b116101d0578063200ae02b1461024e5780632e1a7d4d146102695780633e413bee1461027c5780633f4ba83a146102a7575f80fd5b806218ff551461020057806306ef4e28146102155780630b78f9c014610228578063164e68de1461023b575b5f80fd5b61021361020e36600461194f565b610460565b005b61021361022336600461196f565b610504565b6102136102363660046119fb565b610850565b61021361024936600461194f565b610932565b6102566109e2565b6040519081526020015b60405180910390f35b610213610277366004611a1b565b610a5f565b60015461028f906001600160a01b031681565b6040516001600160a01b039091168152602001610260565b610213610cfe565b6102d16102bd36600461194f565b60056020525f908152604090205460ff1681565b6040519015158152602001610260565b6102136102ef36600461194f565b610d10565b610213610302366004611a32565b610d61565b61025660065481565b61025660085481565b5f80516020611ba88339815191525460ff166102d1565b61025660075481565b610213610e18565b61025660045481565b610213610358366004611a32565b610e29565b61021361036b366004611a1b565b610e94565b610213610eb4565b7f9016d09d72d40fdae2fd8ceac6b6234c7706214fd39c1cd1e609a0528c199300546001600160a01b031661028f565b5f5461028f906001600160a01b031681565b610256610ec4565b61025660035481565b6102136103d9366004611a5a565b610fe9565b60025461028f906001600160a01b031681565b6102136103ff3660046119fb565b61113b565b61025661114e565b6102566101f481565b61025661271081565b61021361042c36600461194f565b6111c2565b61021361043f366004611a1b565b6111fc565b61021361045236600461194f565b6113ba565b6102566103e881565b61046861140a565b6001600160a01b0381166104b95760405162461bcd60e51b8152602060048201526013602482015272496e76616c696420617070206164647265737360681b60448201526064015b60405180910390fd5b6001600160a01b0381165f81815260056020526040808220805460ff19166001179055517febdf8e738c573e0b1b5071d0c2c3fdd4a06bd9de13f5d0c4eb8150e0fd01626a9190a250565b61050c611465565b61051461149c565b5f84116105335760405162461bcd60e51b81526004016104b090611a9a565b6002546001600160a01b03166105815760405162461bcd60e51b815260206004820152601360248201527214ddd85c081c9bdd5d195c881b9bdd081cd95d606a1b60448201526064016104b0565b6001546001600160a01b03908116908616036105df5760405162461bcd60e51b815260206004820152601860248201527f557365206465706f7369745553444320666f722055534443000000000000000060448201526064016104b0565b6105f46001600160a01b0386163330876114cc565b60025461060e906001600160a01b03878116911686611539565b6002546001546040516304a0d80360e31b81525f926001600160a01b0390811692632506c0189261064d928b9216908a908a908a908a90600401611ac6565b6020604051808303815f875af1158015610669573d5f803e3d5ffd5b505050506040513d601f19601f8201168201806040525081019061068d9190611b20565b9050838110156106d55760405162461bcd60e51b8152602060048201526013602482015272125b9cdd59999a58da595b9d081bdd5d1c1d5d606a1b60448201526064016104b0565b60065481111561071d5760405162461bcd60e51b8152602060048201526013602482015272115e18d959591cc81b585e0819195c1bdcda5d606a1b60448201526064016104b0565b5f6127106003548361072f9190611b4b565b6107399190611b62565b90505f6107468284611b81565b90508160085f8282546107599190611b94565b909155505f905061076c6103e883611b4b565b61077b9064e8d4a51000611b4b565b5f546040516340c10f1960e01b8152336004820152602481018390529192506001600160a01b0316906340c10f19906044015f604051808303815f87803b1580156107c4575f80fd5b505af11580156107d6573d5f803e3d5ffd5b5050604080518b815260208101869052908101849052606081018690526001600160a01b038c1692503391507ff3b2a76575670b4eff5a4ad3639d40d32f7ca987adac169e6f9b89a3ab857d279060800160405180910390a35050505061084960015f80516020611bc883398151915255565b5050505050565b61085861140a565b6101f48211156108a15760405162461bcd60e51b8152602060048201526014602482015273088cae0dee6d2e840cccaca40e8dede40d0d2ced60631b60448201526064016104b0565b6101f48111156108eb5760405162461bcd60e51b81526020600482015260156024820152740aed2e8d0c8e4c2ee40cccaca40e8dede40d0d2ced605b1b60448201526064016104b0565b6003829055600481905560408051838152602081018390527f5c6323bf1c2d7aaea2c091a4751c1c87af7f2864650c336507a77d0557af37a1910160405180910390a15050565b61093a61140a565b600854806109805760405162461bcd60e51b81526020600482015260136024820152724e6f206665657320746f20776974686472617760681b60448201526064016104b0565b5f60085560015461099b906001600160a01b031683836115d3565b816001600160a01b03167fc0819c13be868895eb93e40eaceb96de976442fa1d404e5c55f14bb65a8c489a826040516109d691815260200190565b60405180910390a25050565b6008546001546040516370a0823160e01b81523060048201525f92916001600160a01b0316906370a0823190602401602060405180830381865afa158015610a2c573d5f803e3d5ffd5b505050506040513d601f19601f82011682018060405250810190610a509190611b20565b610a5a9190611b81565b905090565b610a67611465565b610a6f61149c565b5f8111610a8e5760405162461bcd60e51b81526004016104b090611a9a565b5f64e8d4a51000610aa16103e884611b62565b610aab9190611b62565b90505f8111610aef5760405162461bcd60e51b815260206004820152601060248201526f105b5bdd5b9d081d1bdbc81cdb585b1b60821b60448201526064016104b0565b600754811115610b385760405162461bcd60e51b815260206004820152601460248201527345786365656473206d617820776974686472617760601b60448201526064016104b0565b5f61271060045483610b4a9190611b4b565b610b549190611b62565b90505f610b618284611b81565b90508160085f828254610b749190611b94565b90915550506001546040516370a0823160e01b815230600482015284916001600160a01b0316906370a0823190602401602060405180830381865afa158015610bbf573d5f803e3d5ffd5b505050506040513d601f19601f82011682018060405250810190610be39190611b20565b1015610c295760405162461bcd60e51b8152602060048201526015602482015274496e73756666696369656e7420747265617375727960581b60448201526064016104b0565b5f5460405163079cc67960e41b8152336004820152602481018690526001600160a01b03909116906379cc6790906044015f604051808303815f87803b158015610c71575f80fd5b505af1158015610c83573d5f803e3d5ffd5b5050600154610c9f92506001600160a01b0316905033836115d3565b604080518581526020810183905290810183905233907f75e161b3e824b114fc1a33274bd7091918dd4e639cede50b78b15a4eea956a219060600160405180910390a2505050610cfb60015f80516020611bc883398151915255565b50565b610d0661140a565b610d0e611609565b565b610d1861140a565b600280546001600160a01b0319166001600160a01b0383169081179091556040517f36db479a3b4d3672bd6f5fca4484283f60b5ac70647b1ceec13ecbb1d030a2df905f90a250565b335f9081526005602052604090205460ff16610db45760405162461bcd60e51b815260206004820152601260248201527104e6f7420617574686f72697a6564206170760741b60448201526064016104b0565b5f5460405163079cc67960e41b81526001600160a01b03848116600483015260248201849052909116906379cc6790906044015f604051808303815f87803b158015610dfe575f80fd5b505af1158015610e10573d5f803e3d5ffd5b505050505050565b610e2061140a565b610d0e5f611668565b610e3161140a565b6001600160a01b038216610e795760405162461bcd60e51b815260206004820152600f60248201526e496e76616c6964206164647265737360881b60448201526064016104b0565b600154610e90906001600160a01b031683836115d3565b5050565b610e9c61140a565b600154610cfb906001600160a01b03163330846114cc565b610ebc61140a565b610d0e6116d8565b5f8054604080516318160ddd60e01b8152905183926001600160a01b0316916318160ddd9160048083019260209291908290030181865afa158015610f0b573d5f803e3d5ffd5b505050506040513d601f19601f82011682018060405250810190610f2f9190611b20565b9050805f03610f4257620f424091505090565b6008546001546040516370a0823160e01b81523060048201525f92916001600160a01b0316906370a0823190602401602060405180830381865afa158015610f8c573d5f803e3d5ffd5b505050506040513d601f19601f82011682018060405250810190610fb09190611b20565b610fba9190611b81565b905081610fc96103e883611b4b565b610fd89064e8d4a51000611b4b565b610fe29190611b62565b9250505090565b5f610ff2611720565b805490915060ff600160401b820416159067ffffffffffffffff165f811580156110195750825b90505f8267ffffffffffffffff1660011480156110355750303b155b905081158015611043575080155b156110615760405163f92ee8a960e01b815260040160405180910390fd5b845467ffffffffffffffff19166001178555831561108b57845460ff60401b1916600160401b1785555b6110948661174a565b61109c61175b565b6110a4611763565b5f80546001600160a01b03808b166001600160a01b03199283161790925560018054928a16929091169190911790556032600381905560045564174876e8006006819055600755831561113157845460ff60401b19168555604051600181527fc7f505b2f371ae2175ee4913f4499e1f2633a7b5936321eed1cdaeb6115181d29060200160405180910390a15b5050505050505050565b61114361140a565b600691909155600755565b5f805f9054906101000a90046001600160a01b03166001600160a01b03166318160ddd6040518163ffffffff1660e01b8152600401602060405180830381865afa15801561119e573d5f803e3d5ffd5b505050506040513d601f19601f82011682018060405250810190610a5a9190611b20565b6111ca61140a565b6001600160a01b0381166111f357604051631e4fbdf760e01b81525f60048201526024016104b0565b610cfb81611668565b611204611465565b61120c61149c565b5f811161122b5760405162461bcd60e51b81526004016104b090611a9a565b6006548111156112735760405162461bcd60e51b8152602060048201526013602482015272115e18d959591cc81b585e0819195c1bdcda5d606a1b60448201526064016104b0565b60015461128b906001600160a01b03163330846114cc565b5f6127106003548361129d9190611b4b565b6112a79190611b62565b90505f6112b48284611b81565b90508160085f8282546112c79190611b94565b909155505f90506112da6103e883611b4b565b6112e99064e8d4a51000611b4b565b5f546040516340c10f1960e01b8152336004820152602481018390529192506001600160a01b0316906340c10f19906044015f604051808303815f87803b158015611332575f80fd5b505af1158015611344573d5f803e3d5ffd5b50506001546040805188815260208101879052908101859052606081018790526001600160a01b0390911692503391507ff3b2a76575670b4eff5a4ad3639d40d32f7ca987adac169e6f9b89a3ab857d279060800160405180910390a3505050610cfb60015f80516020611bc883398151915255565b6113c261140a565b6001600160a01b0381165f81815260056020526040808220805460ff19169055517f1dfc67310a53bbdf3a121956a78c94d3592b420ac0966b5da6871caf9e8b4f399190a250565b3361143c7f9016d09d72d40fdae2fd8ceac6b6234c7706214fd39c1cd1e609a0528c199300546001600160a01b031690565b6001600160a01b031614610d0e5760405163118cdaa760e01b81523360048201526024016104b0565b5f80516020611bc883398151915280546001190161149657604051633ee5aeb560e01b815260040160405180910390fd5b60029055565b5f80516020611ba88339815191525460ff1615610d0e5760405163d93c066560e01b815260040160405180910390fd5b6040516001600160a01b0384811660248301528381166044830152606482018390526115339186918216906323b872dd906084015b604051602081830303815290604052915060e01b6020820180516001600160e01b038381831617835250505050611773565b50505050565b604051636eb1769f60e11b81523060048201526001600160a01b0383811660248301525f919085169063dd62ed3e90604401602060405180830381865afa158015611586573d5f803e3d5ffd5b505050506040513d601f19601f820116820180604052508101906115aa9190611b20565b905061153384846115bb8585611b94565b6117df565b60015f80516020611bc883398151915255565b6040516001600160a01b0383811660248301526044820183905261160491859182169063a9059cbb90606401611501565b505050565b61161161186e565b5f80516020611ba8833981519152805460ff191681557f5db9ee0a495bf2e6ff9c91a7834c1ba4fdd244a5e8aa4e537bd38aeae4b073aa335b6040516001600160a01b03909116815260200160405180910390a150565b7f9016d09d72d40fdae2fd8ceac6b6234c7706214fd39c1cd1e609a0528c19930080546001600160a01b031981166001600160a01b03848116918217845560405192169182907f8be0079c531659141344cd1fd0a4f28419497f9722a3daafe3b4186f6b6457e0905f90a3505050565b6116e061149c565b5f80516020611ba8833981519152805460ff191660011781557f62e78cea01bee320cd4e420270b5ea74000d11b0c9f74754ebdbfc544b05a2583361164a565b5f807ff0c57e16840df040f15088dc2f81fe391c3923bec73e23a9662efc9c229c6a005b92915050565b61175261189d565b610cfb816118c2565b610d0e61189d565b61176b61189d565b610d0e6118ca565b5f8060205f8451602086015f885af180611792576040513d5f823e3d81fd5b50505f513d915081156117a95780600114156117b6565b6001600160a01b0384163b155b1561153357604051635274afe760e01b81526001600160a01b03851660048201526024016104b0565b604080516001600160a01b038416602482015260448082018490528251808303909101815260649091019091526020810180516001600160e01b031663095ea7b360e01b17905261183084826118d2565b611533576040516001600160a01b0384811660248301525f604483015261186491869182169063095ea7b390606401611501565b6115338482611773565b5f80516020611ba88339815191525460ff16610d0e57604051638dfc202b60e01b815260040160405180910390fd5b6118a561191b565b610d0e57604051631afcd79f60e31b815260040160405180910390fd5b6111ca61189d565b6115c061189d565b5f805f8060205f8651602088015f8a5af192503d91505f519050828015611911575081156119035780600114611911565b5f866001600160a01b03163b115b9695505050505050565b5f611924611720565b54600160401b900460ff16919050565b80356001600160a01b038116811461194a575f80fd5b919050565b5f6020828403121561195f575f80fd5b61196882611934565b9392505050565b5f805f805f60808688031215611983575f80fd5b61198c86611934565b94506020860135935060408601359250606086013567ffffffffffffffff808211156119b6575f80fd5b818801915088601f8301126119c9575f80fd5b8135818111156119d7575f80fd5b8960208285010111156119e8575f80fd5b9699959850939650602001949392505050565b5f8060408385031215611a0c575f80fd5b50508035926020909101359150565b5f60208284031215611a2b575f80fd5b5035919050565b5f8060408385031215611a43575f80fd5b611a4c83611934565b946020939093013593505050565b5f805f60608486031215611a6c575f80fd5b611a7584611934565b9250611a8360208501611934565b9150611a9160408501611934565b90509250925092565b6020808252601290820152710416d6f756e74206d757374206265203e20360741b604082015260600190565b6001600160a01b03878116825286166020820152604081018590526060810184905260a06080820181905281018290525f828460c08401375f60c0848401015260c0601f19601f8501168301019050979650505050505050565b5f60208284031215611b30575f80fd5b5051919050565b634e487b7160e01b5f52601160045260245ffd5b808202811582820484141761174457611744611b37565b5f82611b7c57634e487b7160e01b5f52601260045260245ffd5b500490565b8181038181111561174457611744611b37565b8082018082111561174457611744611b3756fecd5ed15c6e187e77e9aee88184c21f4f2182ab5827cb3b7e07fbedcd63f033009b779b17422d0df92223018b32b4d1fa46e071723d6817e2486d003becc55f00a26469706673582212200b60c1ec8c631815bba6a3d955373f6cbd35dfd87c20ee0ac362fbbd23cd1c6c64736f6c63430008140033","linkReferences":{}},"methodIdentifiers":{"BPS_DENOMINATOR()":"e1a45218","MAX_FEE_BPS()":"d55be8c6","SUITE_PER_USDC()":"fef5ebb9","accumulatedFees()":"587f5ed7","authorizeApp(address)":"0018ff55","authorizedApps(address)":"3f4e46a0","chargeUser(address,uint256)":"44086669","depositFeeBps()":"ab879827","depositToken(address,uint256,uint256,bytes)":"06ef4e28","depositUSDC(uint256)":"f688bcfb","depositYield(uint256)":"7cf4c01b","getBackingRate()":"a2ea7b88","getTotalSupply()":"c4e41b22","getTreasuryValue()":"200ae02b","initialize(address,address,address)":"c0c53b8b","maxDepositPerTx()":"4e2e8d60","maxWithdrawPerTx()":"5d926ced","owner()":"8da5cb5b","pause()":"8456cb59","paused()":"5c975abb","renounceOwnership()":"715018a6","revokeApp(address)":"fd0ae7f0","setFees(uint256,uint256)":"0b78f9c0","setLimits(uint256,uint256)":"c4590d3f","setSwapRouter(address)":"41273657","suiteToken()":"a22b6e8f","swapRouter()":"c31c9c07","transferOwnership(address)":"f2fde38b","unpause()":"3f4ba83a","usdc()":"3e413bee","withdraw(uint256)":"2e1a7d4d","withdrawFeeBps()":"7aca2b59","withdrawFees(address)":"164e68de","withdrawForYield(address,uint256)":"7adb241c"},"id":64}