{"abi":[{"type":"constructor","inputs":[{"name":"_suiteToken","type":"address","internalType":"address"},{"name":"_owner","type":"address","internalType":"address"}],"stateMutability":"nonpayable"},{"type":"receive","stateMutability":"payable"},{"type":"function","name":"BPS_DENOMINATOR","inputs":[],"outputs":[{"name":"","type":"uint256","internalType":"uint256"}],"stateMutability":"view"},{"type":"function","name":"INITIAL_RATE","inputs":[],"outputs":[{"name":"","type":"uint256","internalType":"uint256"}],"stateMutability":"view"},{"type":"function","name":"ZERO_X_EXCHANGE_PROXY","inputs":[],"outputs":[{"name":"","type":"address","internalType":"address"}],"stateMutability":"view"},{"type":"function","name":"accumulatedFees","inputs":[],"outputs":[{"name":"","type":"uint256","internalType":"uint256"}],"stateMutability":"view"},{"type":"function","name":"depositETH","inputs":[],"outputs":[],"stateMutability":"payable"},{"type":"function","name":"depositFeeBps","inputs":[],"outputs":[{"name":"","type":"uint256","internalType":"uint256"}],"stateMutability":"view"},{"type":"function","name":"depositWithSwap","inputs":[{"name":"sellToken","type":"address","internalType":"address"},{"name":"sellAmount","type":"uint256","internalType":"uint256"},{"name":"swapCalldata","type":"bytes","internalType":"bytes"}],"outputs":[],"stateMutability":"nonpayable"},{"type":"function","name":"getTreasuryStats","inputs":[],"outputs":[{"name":"treasuryETH","type":"uint256","internalType":"uint256"},{"name":"totalSupply","type":"uint256","internalType":"uint256"},{"name":"suitePerETH","type":"uint256","internalType":"uint256"}],"stateMutability":"view"},{"type":"function","name":"owner","inputs":[],"outputs":[{"name":"","type":"address","internalType":"address"}],"stateMutability":"view"},{"type":"function","name":"previewDeposit","inputs":[{"name":"ethAmount","type":"uint256","internalType":"uint256"}],"outputs":[{"name":"suiteAmount","type":"uint256","internalType":"uint256"}],"stateMutability":"view"},{"type":"function","name":"previewWithdraw","inputs":[{"name":"suiteAmount","type":"uint256","internalType":"uint256"}],"outputs":[{"name":"ethAmount","type":"uint256","internalType":"uint256"}],"stateMutability":"view"},{"type":"function","name":"renounceOwnership","inputs":[],"outputs":[],"stateMutability":"nonpayable"},{"type":"function","name":"setFees","inputs":[{"name":"_depositFeeBps","type":"uint256","internalType":"uint256"},{"name":"_withdrawFeeBps","type":"uint256","internalType":"uint256"}],"outputs":[],"stateMutability":"nonpayable"},{"type":"function","name":"suiteToken","inputs":[],"outputs":[{"name":"","type":"address","internalType":"contract ISuiteToken"}],"stateMutability":"view"},{"type":"function","name":"totalTreasuryETH","inputs":[],"outputs":[{"name":"","type":"uint256","internalType":"uint256"}],"stateMutability":"view"},{"type":"function","name":"transferOwnership","inputs":[{"name":"newOwner","type":"address","internalType":"address"}],"outputs":[],"stateMutability":"nonpayable"},{"type":"function","name":"withdraw","inputs":[{"name":"suiteAmount","type":"uint256","internalType":"uint256"}],"outputs":[],"stateMutability":"nonpayable"},{"type":"function","name":"withdrawFeeBps","inputs":[],"outputs":[{"name":"","type":"uint256","internalType":"uint256"}],"stateMutability":"view"},{"type":"function","name":"withdrawFees","inputs":[{"name":"to","type":"address","internalType":"address"}],"outputs":[],"stateMutability":"nonpayable"},{"type":"event","name":"DepositedETH","inputs":[{"name":"user","type":"address","indexed":true,"internalType":"address"},{"name":"ethAmount","type":"uint256","indexed":false,"internalType":"uint256"},{"name":"suiteMinted","type":"uint256","indexed":false,"internalType":"uint256"}],"anonymous":false},{"type":"event","name":"DepositedWithSwap","inputs":[{"name":"user","type":"address","indexed":true,"internalType":"address"},{"name":"token","type":"address","indexed":false,"internalType":"address"},{"name":"tokenAmount","type":"uint256","indexed":false,"internalType":"uint256"},{"name":"ethReceived","type":"uint256","indexed":false,"internalType":"uint256"},{"name":"suiteMinted","type":"uint256","indexed":false,"internalType":"uint256"}],"anonymous":false},{"type":"event","name":"FeesWithdrawn","inputs":[{"name":"to","type":"address","indexed":true,"internalType":"address"},{"name":"amount","type":"uint256","indexed":false,"internalType":"uint256"}],"anonymous":false},{"type":"event","name":"OwnershipTransferred","inputs":[{"name":"previousOwner","type":"address","indexed":true,"internalType":"address"},{"name":"newOwner","type":"address","indexed":true,"internalType":"address"}],"anonymous":false},{"type":"event","name":"Withdrawn","inputs":[{"name":"user","type":"address","indexed":true,"internalType":"address"},{"name":"suiteBurned","type":"uint256","indexed":false,"internalType":"uint256"},{"name":"ethReturned","type":"uint256","indexed":false,"internalType":"uint256"}],"anonymous":false},{"type":"error","name":"OwnableInvalidOwner","inputs":[{"name":"owner","type":"address","internalType":"address"}]},{"type":"error","name":"OwnableUnauthorizedAccount","inputs":[{"name":"account","type":"address","internalType":"address"}]},{"type":"error","name":"ReentrancyGuardReentrantCall","inputs":[]},{"type":"error","name":"SafeERC20FailedOperation","inputs":[{"name":"token","type":"address","internalType":"address"}]}],"bytecode":{"object":"0x6080604052603260045560326005553480156200001a575f80fd5b5060405162001489380380620014898339810160408190526200003d916200010e565b806001600160a01b0381166200006c57604051631e4fbdf760e01b81525f600482015260240160405180910390fd5b6200007781620000a3565b505060018055600280546001600160a01b0319166001600160a01b039290921691909117905562000144565b5f80546001600160a01b038381166001600160a01b0319831681178455604051919092169283917f8be0079c531659141344cd1fd0a4f28419497f9722a3daafe3b4186f6b6457e09190a35050565b80516001600160a01b038116811462000109575f80fd5b919050565b5f806040838503121562000120575f80fd5b6200012b83620000f2565b91506200013b60208401620000f2565b90509250929050565b61133780620001525f395ff3fe608060405260043610610113575f3560e01c80637aca2b591161009d578063c8692e3f11610062578063c8692e3f146102c3578063e1a45218146102f2578063ef8b30f714610307578063f2fde38b14610326578063f6326fb314610345575f80fd5b80637aca2b59146102295780638da5cb5b1461023e578063a22b6e8f1461026e578063ab8798271461028d578063b9865c22146102a2575f80fd5b80632e1a7d4d116100e35780632e1a7d4d146101af5780634dbac733146101ce57806355c7aaeb146101eb578063587f5ed714610200578063715018a614610215575f80fd5b80630a28a4771461011e5780630b78f9c014610150578063164e68de146101715780632540c46414610190575f80fd5b3661011a57005b5f80fd5b348015610129575f80fd5b5061013d61013836600461112f565b61034d565b6040519081526020015b60405180910390f35b34801561015b575f80fd5b5061016f61016a366004611146565b61044a565b005b34801561017c575f80fd5b5061016f61018b366004611181565b6104f5565b34801561019b575f80fd5b5061016f6101aa36600461119a565b610613565b3480156101ba575f80fd5b5061016f6101c936600461112f565b61093d565b3480156101d9575f80fd5b5061013d69d3c21bcecceda100000081565b3480156101f6575f80fd5b5061013d60035481565b34801561020b575f80fd5b5061013d60065481565b348015610220575f80fd5b5061016f610c7e565b348015610234575f80fd5b5061013d60055481565b348015610249575f80fd5b505f546001600160a01b03165b6040516001600160a01b039091168152602001610147565b348015610279575f80fd5b50600254610256906001600160a01b031681565b348015610298575f80fd5b5061013d60045481565b3480156102ad575f80fd5b506102566d1ff3684f28c67538d4d072c2273481565b3480156102ce575f80fd5b506102d7610c91565b60408051938452602084019290925290820152606001610147565b3480156102fd575f80fd5b5061013d61271081565b348015610312575f80fd5b5061013d61032136600461112f565b610d56565b348015610331575f80fd5b5061016f610340366004611181565b610d93565b61016f610dcd565b5f8060025f9054906101000a90046001600160a01b03166001600160a01b03166318160ddd6040518163ffffffff1660e01b8152600401602060405180830381865afa15801561039f573d5f803e3d5ffd5b505050506040513d601f19601f820116820180604052508101906103c3919061121a565b9050805f036103d457505f92915050565b5f816103e885670de0b6b3a7640000611245565b6103f29190611262565b90505f670de0b6b3a76400006003548361040c9190611245565b6104169190611262565b90505f6127106005548361042a9190611245565b6104349190611262565b90506104408183611281565b9695505050505050565b610452610efe565b6101f48211156104a05760405162461bcd60e51b8152602060048201526014602482015273088cae0dee6d2e840cccaca40e8dede40d0d2ced60631b60448201526064015b60405180910390fd5b6101f48111156104ea5760405162461bcd60e51b81526020600482015260156024820152740aed2e8d0c8e4c2ee40cccaca40e8dede40d0d2ced605b1b6044820152606401610497565b600491909155600555565b6104fd610efe565b600654806105375760405162461bcd60e51b81526020600482015260076024820152664e6f206665657360c81b6044820152606401610497565b5f60068190556040516001600160a01b0384169083908381818185875af1925050503d805f8114610583576040519150601f19603f3d011682016040523d82523d5f602084013e610588565b606091505b50509050806105cb5760405162461bcd60e51b815260206004820152600f60248201526e151c985b9cd9995c8819985a5b1959608a1b6044820152606401610497565b826001600160a01b03167fc0819c13be868895eb93e40eaceb96de976442fa1d404e5c55f14bb65a8c489a8360405161060691815260200190565b60405180910390a2505050565b61061b610f2a565b5f831161063a5760405162461bcd60e51b815260040161049790611294565b6001600160a01b0384166106805760405162461bcd60e51b815260206004820152600d60248201526c24b73b30b634b2103a37b5b2b760991b6044820152606401610497565b6106956001600160a01b038516333086610f54565b60405163095ea7b360e01b81526d1ff3684f28c67538d4d072c227346004820152602481018490526001600160a01b0385169063095ea7b3906044016020604051808303815f875af11580156106ed573d5f803e3d5ffd5b505050506040513d601f19601f8201168201806040525081019061071191906112c0565b5060405147905f906d1ff3684f28c67538d4d072c227349061073690869086906112df565b5f604051808303815f865af19150503d805f811461076f576040519150601f19603f3d011682016040523d82523d5f602084013e610774565b606091505b50509050806107b65760405162461bcd60e51b815260206004820152600e60248201526d0c1e081cddd85c0819985a5b195960921b6044820152606401610497565b5f6107c18347611281565b90505f81116108125760405162461bcd60e51b815260206004820152601960248201527f4e6f204554482072656365697665642066726f6d2073776170000000000000006044820152606401610497565b5f612710600454836108249190611245565b61082e9190611262565b90505f61083b8284611281565b90508160065f82825461084e91906112ee565b909155505f905061085e82610fae565b90508160035f82825461087191906112ee565b90915550506002546040516340c10f1960e01b8152336004820152602481018390526001600160a01b03909116906340c10f19906044015f604051808303815f87803b1580156108bf575f80fd5b505af11580156108d1573d5f803e3d5ffd5b5050604080516001600160a01b038e168152602081018d9052908101879052606081018490523392507f42bb14de55eb1c7f89142d92138be23673e7bb24ec361db6fbf2b70eade141bb915060800160405180910390a250505050505061093760018055565b50505050565b610945610f2a565b5f81116109645760405162461bcd60e51b815260040161049790611294565b600254604080516318160ddd60e01b815290515f926001600160a01b0316916318160ddd9160048083019260209291908290030181865afa1580156109ab573d5f803e3d5ffd5b505050506040513d601f19601f820116820180604052508101906109cf919061121a565b90505f8111610a205760405162461bcd60e51b815260206004820152601760248201527f4e6f20535549544520696e2063697263756c6174696f6e0000000000000000006044820152606401610497565b5f81610a3484670de0b6b3a7640000611245565b610a3e9190611262565b90505f670de0b6b3a764000060035483610a589190611245565b610a629190611262565b90505f61271060055483610a769190611245565b610a809190611262565b90505f610a8d8284611281565b90508160065f828254610aa091906112ee565b909155505080610ae95760405162461bcd60e51b815260206004820152601460248201527315da5d1a191c985dd85b081d1bdbc81cdb585b1b60621b6044820152606401610497565b82471015610b315760405162461bcd60e51b8152602060048201526015602482015274496e73756666696369656e7420747265617375727960581b6044820152606401610497565b8260035f828254610b429190611281565b909155505060025460405163079cc67960e41b8152336004820152602481018890526001600160a01b03909116906379cc6790906044015f604051808303815f87803b158015610b90575f80fd5b505af1158015610ba2573d5f803e3d5ffd5b50506040515f925033915083908381818185875af1925050503d805f8114610be5576040519150601f19603f3d011682016040523d82523d5f602084013e610bea565b606091505b5050905080610c315760405162461bcd60e51b8152602060048201526013602482015272115512081d1c985b9cd9995c8819985a5b1959606a1b6044820152606401610497565b604080518881526020810184905233917f92ccf450a286a957af52509bc1c9939d1a6a481783e142e41e2499f0bb66ebc6910160405180910390a2505050505050610c7b60018055565b50565b610c86610efe565b610c8f5f611074565b565b600354600254604080516318160ddd60e01b815290515f9283926001600160a01b03909116916318160ddd916004808201926020929091908290030181865afa158015610ce0573d5f803e3d5ffd5b505050506040513d601f19601f82011682018060405250810190610d04919061121a565b9150821580610d11575081155b15610d3957610d32670de0b6b3a764000069d3c21bcecceda1000000611262565b9050909192565b82610d4c83670de0b6b3a7640000611245565b610d329190611262565b5f8061271060045484610d699190611245565b610d739190611262565b90505f610d808285611281565b9050610d8b81610fae565b949350505050565b610d9b610efe565b6001600160a01b038116610dc457604051631e4fbdf760e01b81525f6004820152602401610497565b610c7b81611074565b610dd5610f2a565b5f3411610df45760405162461bcd60e51b815260040161049790611294565b5f61271060045434610e069190611245565b610e109190611262565b90505f610e1d8234611281565b90508160065f828254610e3091906112ee565b909155505f9050610e4082610fae565b90508160035f828254610e5391906112ee565b90915550506002546040516340c10f1960e01b8152336004820152602481018390526001600160a01b03909116906340c10f19906044015f604051808303815f87803b158015610ea1575f80fd5b505af1158015610eb3573d5f803e3d5ffd5b505060408051348152602081018590523393507fb9f28a03aea3165eb6be29a19377e5e423ffcb5cfdd0d9a66b252b14b9cc741892500160405180910390a2505050610c8f60018055565b5f546001600160a01b03163314610c8f5760405163118cdaa760e01b8152336004820152602401610497565b600260015403610f4d57604051633ee5aeb560e01b815260040160405180910390fd5b6002600155565b604080516001600160a01b0385811660248301528416604482015260648082018490528251808303909101815260849091019091526020810180516001600160e01b03166323b872dd60e01b1790526109379085906110c3565b5f8060025f9054906101000a90046001600160a01b03166001600160a01b03166318160ddd6040518163ffffffff1660e01b8152600401602060405180830381865afa158015611000573d5f803e3d5ffd5b505050506040513d601f19601f82011682018060405250810190611024919061121a565b90506003545f1480611034575080155b1561106757670de0b6b3a764000061105669d3c21bcecceda100000085611245565b6110609190611262565b9392505050565b6003546110568285611245565b5f80546001600160a01b038381166001600160a01b0319831681178455604051919092169283917f8be0079c531659141344cd1fd0a4f28419497f9722a3daafe3b4186f6b6457e09190a35050565b5f8060205f8451602086015f885af1806110e2576040513d5f823e3d81fd5b50505f513d915081156110f9578060011415611106565b6001600160a01b0384163b155b1561093757604051635274afe760e01b81526001600160a01b0385166004820152602401610497565b5f6020828403121561113f575f80fd5b5035919050565b5f8060408385031215611157575f80fd5b50508035926020909101359150565b80356001600160a01b038116811461117c575f80fd5b919050565b5f60208284031215611191575f80fd5b61106082611166565b5f805f80606085870312156111ad575f80fd5b6111b685611166565b935060208501359250604085013567ffffffffffffffff808211156111d9575f80fd5b818701915087601f8301126111ec575f80fd5b8135818111156111fa575f80fd5b88602082850101111561120b575f80fd5b95989497505060200194505050565b5f6020828403121561122a575f80fd5b5051919050565b634e487b7160e01b5f52601160045260245ffd5b808202811582820484141761125c5761125c611231565b92915050565b5f8261127c57634e487b7160e01b5f52601260045260245ffd5b500490565b8181038181111561125c5761125c611231565b6020808252601290820152710416d6f756e74206d757374206265203e20360741b604082015260600190565b5f602082840312156112d0575f80fd5b81518015158114611060575f80fd5b818382375f9101908152919050565b8082018082111561125c5761125c61123156fea26469706673582212204e54dbcc0ba2e4b1d379ecb53967832fc5269faa1265d7e06e14e7008bc90b6a64736f6c63430008140033","linkReferences":{}},"methodIdentifiers":{"BPS_DENOMINATOR()":"e1a45218","INITIAL_RATE()":"4dbac733","ZERO_X_EXCHANGE_PROXY()":"b9865c22","accumulatedFees()":"587f5ed7","depositETH()":"f6326fb3","depositFeeBps()":"ab879827","depositWithSwap(address,uint256,bytes)":"2540c464","getTreasuryStats()":"c8692e3f","owner()":"8da5cb5b","previewDeposit(uint256)":"ef8b30f7","previewWithdraw(uint256)":"0a28a477","renounceOwnership()":"715018a6","setFees(uint256,uint256)":"0b78f9c0","suiteToken()":"a22b6e8f","totalTreasuryETH()":"55c7aaeb","transferOwnership(address)":"f2fde38b","withdraw(uint256)":"2e1a7d4d","withdrawFeeBps()":"7aca2b59","withdrawFees(address)":"164e68de"},"id":68}