{"abi":[{"type":"constructor","inputs":[{"name":"_usdc","type":"address","internalType":"address"},{"name":"_staking","type":"address","internalType":"address"},{"name":"_owner","type":"address","internalType":"address"}],"stateMutability":"nonpayable"},{"type":"function","name":"cancelRequest","inputs":[],"outputs":[],"stateMutability":"nonpayable"},{"type":"function","name":"claim","inputs":[],"outputs":[],"stateMutability":"nonpayable"},{"type":"function","name":"creditsToUsdc","inputs":[{"name":"credits","type":"uint256","internalType":"uint256"}],"outputs":[{"name":"","type":"uint256","internalType":"uint256"}],"stateMutability":"view"},{"type":"function","name":"fundPool","inputs":[{"name":"amount","type":"uint256","internalType":"uint256"}],"outputs":[],"stateMutability":"nonpayable"},{"type":"function","name":"fundedPool","inputs":[],"outputs":[{"name":"","type":"uint256","internalType":"uint256"}],"stateMutability":"view"},{"type":"function","name":"getMaxRedeemable","inputs":[{"name":"user","type":"address","internalType":"address"}],"outputs":[{"name":"","type":"uint256","internalType":"uint256"}],"stateMutability":"view"},{"type":"function","name":"getRedemptionPercentage","inputs":[],"outputs":[{"name":"","type":"uint256","internalType":"uint256"}],"stateMutability":"view"},{"type":"function","name":"lockedCredits","inputs":[{"name":"","type":"address","internalType":"address"}],"outputs":[{"name":"","type":"uint256","internalType":"uint256"}],"stateMutability":"view"},{"type":"function","name":"owner","inputs":[],"outputs":[{"name":"","type":"address","internalType":"address"}],"stateMutability":"view"},{"type":"function","name":"pendingRequests","inputs":[{"name":"","type":"address","internalType":"address"}],"outputs":[{"name":"","type":"uint256","internalType":"uint256"}],"stateMutability":"view"},{"type":"function","name":"recoverERC20","inputs":[{"name":"token","type":"address","internalType":"address"},{"name":"amount","type":"uint256","internalType":"uint256"}],"outputs":[],"stateMutability":"nonpayable"},{"type":"function","name":"renounceOwnership","inputs":[],"outputs":[],"stateMutability":"nonpayable"},{"type":"function","name":"reportLiquidValue","inputs":[{"name":"newValue","type":"uint256","internalType":"uint256"}],"outputs":[],"stateMutability":"nonpayable"},{"type":"function","name":"reportedLiquidValue","inputs":[],"outputs":[{"name":"","type":"uint256","internalType":"uint256"}],"stateMutability":"view"},{"type":"function","name":"requestRedemption","inputs":[{"name":"usdcAmount","type":"uint256","internalType":"uint256"}],"outputs":[],"stateMutability":"nonpayable"},{"type":"function","name":"requestRedemptionAll","inputs":[],"outputs":[],"stateMutability":"nonpayable"},{"type":"function","name":"setStakingContract","inputs":[{"name":"_staking","type":"address","internalType":"address"}],"outputs":[],"stateMutability":"nonpayable"},{"type":"function","name":"staking","inputs":[],"outputs":[{"name":"","type":"address","internalType":"contract ISuiteStaking"}],"stateMutability":"view"},{"type":"function","name":"totalClaimedUsdc","inputs":[],"outputs":[{"name":"","type":"uint256","internalType":"uint256"}],"stateMutability":"view"},{"type":"function","name":"totalLockedCredits","inputs":[],"outputs":[{"name":"","type":"uint256","internalType":"uint256"}],"stateMutability":"view"},{"type":"function","name":"totalPendingRequests","inputs":[],"outputs":[{"name":"","type":"uint256","internalType":"uint256"}],"stateMutability":"view"},{"type":"function","name":"transferOwnership","inputs":[{"name":"newOwner","type":"address","internalType":"address"}],"outputs":[],"stateMutability":"nonpayable"},{"type":"function","name":"usdc","inputs":[],"outputs":[{"name":"","type":"address","internalType":"contract IERC20"}],"stateMutability":"view"},{"type":"function","name":"usdcToCredits","inputs":[{"name":"usdcAmount","type":"uint256","internalType":"uint256"}],"outputs":[{"name":"","type":"uint256","internalType":"uint256"}],"stateMutability":"view"},{"type":"function","name":"withdrawFromPool","inputs":[{"name":"amount","type":"uint256","internalType":"uint256"}],"outputs":[],"stateMutability":"nonpayable"},{"type":"event","name":"Claimed","inputs":[{"name":"user","type":"address","indexed":true,"internalType":"address"},{"name":"usdcAmount","type":"uint256","indexed":false,"internalType":"uint256"}],"anonymous":false},{"type":"event","name":"LiquidValueReported","inputs":[{"name":"newValue","type":"uint256","indexed":false,"internalType":"uint256"},{"name":"oldValue","type":"uint256","indexed":false,"internalType":"uint256"}],"anonymous":false},{"type":"event","name":"OwnershipTransferred","inputs":[{"name":"previousOwner","type":"address","indexed":true,"internalType":"address"},{"name":"newOwner","type":"address","indexed":true,"internalType":"address"}],"anonymous":false},{"type":"event","name":"PoolFunded","inputs":[{"name":"amount","type":"uint256","indexed":false,"internalType":"uint256"},{"name":"funder","type":"address","indexed":true,"internalType":"address"}],"anonymous":false},{"type":"event","name":"RedemptionCancelled","inputs":[{"name":"user","type":"address","indexed":true,"internalType":"address"},{"name":"credits","type":"uint256","indexed":false,"internalType":"uint256"},{"name":"usdcAmount","type":"uint256","indexed":false,"internalType":"uint256"}],"anonymous":false},{"type":"event","name":"RedemptionRequested","inputs":[{"name":"user","type":"address","indexed":true,"internalType":"address"},{"name":"credits","type":"uint256","indexed":false,"internalType":"uint256"},{"name":"usdcAmount","type":"uint256","indexed":false,"internalType":"uint256"}],"anonymous":false},{"type":"error","name":"AlreadyHasPendingRequest","inputs":[]},{"type":"error","name":"ExceedsMaxRedeemable","inputs":[]},{"type":"error","name":"InsufficientPool","inputs":[]},{"type":"error","name":"NoPendingRequest","inputs":[]},{"type":"error","name":"OwnableInvalidOwner","inputs":[{"name":"owner","type":"address","internalType":"address"}]},{"type":"error","name":"OwnableUnauthorizedAccount","inputs":[{"name":"account","type":"address","internalType":"address"}]},{"type":"error","name":"ReentrancyGuardReentrantCall","inputs":[]},{"type":"error","name":"SafeERC20FailedOperation","inputs":[{"name":"token","type":"address","internalType":"address"}]},{"type":"error","name":"ZeroAddress","inputs":[]},{"type":"error","name":"ZeroAmount","inputs":[]}],"bytecode":{"object":"0x608060405234801562000010575f80fd5b50604051620013973803806200139783398101604081905262000033916200014d565b806001600160a01b0381166200006257604051631e4fbdf760e01b81525f600482015260240160405180910390fd5b6200006d81620000e2565b50600180556001600160a01b03831615806200009057506001600160a01b038216155b15620000af5760405163d92e233d60e01b815260040160405180910390fd5b50600280546001600160a01b039384166001600160a01b0319918216179091556003805492909316911617905562000194565b5f80546001600160a01b038381166001600160a01b0319831681178455604051919092169283917f8be0079c531659141344cd1fd0a4f28419497f9722a3daafe3b4186f6b6457e09190a35050565b80516001600160a01b038116811462000148575f80fd5b919050565b5f805f6060848603121562000160575f80fd5b6200016b8462000131565b92506200017b6020850162000131565b91506200018b6040850162000131565b90509250925092565b6111f580620001a25f395ff3fe608060405234801561000f575f80fd5b506004361061016d575f3560e01c80638da5cb5b116100d9578063d25f0ea011610093578063eeb3c9101161006e578063eeb3c910146102d7578063f2fde38b146102ea578063f345ca7b146102fd578063fb22e65114610306575f80fd5b8063d25f0ea0146102b3578063d64f3168146102bb578063da3a5f72146102c4575f80fd5b80638da5cb5b1461024c578063910baf751461025c5780639dd373b914610265578063a9cf575b14610278578063abe479b41461028b578063b902004114610294575f80fd5b80634e71d92d1161012a5780634e71d92d146102065780636e56907e1461020e578063715018a61461022157806379ed22a814610229578063851b16f5146102315780638980f11f14610239575f80fd5b806313af37ea1461017157806330fc43ed146101975780633e413bee146101ac5780634340cc2b146101d757806347e9e6fd146101ea5780634cf088d9146101f3575b5f80fd5b61018461017f3660046110da565b610325565b6040519081526020015b60405180910390f35b6101aa6101a53660046110f3565b61044e565b005b6002546101bf906001600160a01b031681565b6040516001600160a01b03909116815260200161018e565b6101846101e53660046110f3565b6104c9565b61018460095481565b6003546101bf906001600160a01b031681565b6101aa610570565b6101aa61021c3660046110f3565b6106aa565b6101aa6106f7565b610184610708565b6101aa6107e4565b6101aa61024736600461110a565b610908565b5f546001600160a01b03166101bf565b610184600a5481565b6101aa6102733660046110da565b610a20565b6101846102863660046110f3565b610a71565b61018460085481565b6101846102a23660046110da565b60066020525f908152604090205481565b6101aa610b12565b61018460075481565b6101aa6102d23660046110f3565b610cc3565b6101aa6102e53660046110f3565b610d51565b6101aa6102f83660046110da565b610ed1565b61018460045481565b6101846103143660046110da565b60056020525f908152604090205481565b600354604051635cbae60560e01b81526001600160a01b0383811660048301525f928392911690635cbae60590602401602060405180830381865afa158015610370573d5f803e3d5ffd5b505050506040513d601f19601f820116820180604052508101906103949190611132565b90508015806103a35750600454155b156103b057505f92915050565b60035460408051636d5d1f1560e11b815290515f926001600160a01b03169163daba3e2a9160048083019260209291908290030181865afa1580156103f7573d5f803e3d5ffd5b505050506040513d601f19601f8201168201806040525081019061041b9190611132565b9050805f0361042d57505f9392505050565b806004548361043c919061115d565b610446919061117a565b949350505050565b610456610f0b565b805f0361047657604051631f2a200560e01b815260040160405180910390fd5b6009548111156104995760405163785eab3760e01b815260040160405180910390fd5b8060095f8282546104aa9190611199565b90915550506002546104c6906001600160a01b03163383610f37565b50565b5f8060035f9054906101000a90046001600160a01b03166001600160a01b031663daba3e2a6040518163ffffffff1660e01b8152600401602060405180830381865afa15801561051b573d5f803e3d5ffd5b505050506040513d601f19601f8201168201806040525081019061053f9190611132565b90506004545f0361055257505f92915050565b60045461055f828561115d565b610569919061117a565b9392505050565b610578610f9b565b335f90815260056020526040812054908190036105a85760405163198580dd60e31b815260040160405180910390fd5b6009548111156105cb5760405163785eab3760e01b815260040160405180910390fd5b335f90815260066020818152604080842080546005845291852085905592909152908290556007805491928492610603908490611199565b925050819055508060085f82825461061b9190611199565b925050819055508160095f8282546106339190611199565b9250508190555081600a5f82825461064b91906111ac565b9091555050600254610667906001600160a01b03163384610f37565b60405182815233907fd8138f8a3f377c5259ca548e70e4c2de94f129f5a11036a15b69513cba2b426a906020015b60405180910390a250506106a860018055565b565b6106b2610f0b565b600480549082905560408051838152602081018390527fbfb293b54a45504d81e686ccae34ece0ab17359ed0286053cea928c0cb4370d1910160405180910390a15050565b6106ff610f0b565b6106a85f610fc5565b5f8060035f9054906101000a90046001600160a01b03166001600160a01b031663daba3e2a6040518163ffffffff1660e01b8152600401602060405180830381865afa15801561075a573d5f803e3d5ffd5b505050506040513d601f19601f8201168201806040525081019061077e9190611132565b9050805f0361078e575f91505090565b5f64e8d4a510006107a16103e88461117a565b6107ab919061117a565b9050805f036107bc575f9250505090565b80600454670de0b6b3a76400006107d3919061115d565b6107dd919061117a565b9250505090565b6107ec610f9b565b335f908152600560205260408120549081900361081c5760405163198580dd60e31b815260040160405180910390fd5b335f90815260066020818152604080842080546005845291852085905592909152908290556007805491928492610854908490611199565b925050819055508060085f82825461086c9190611199565b909155505060035460405163162672d160e21b8152336004820152602481018390526001600160a01b0390911690635899cb44906044015f604051808303815f87803b1580156108ba575f80fd5b505af11580156108cc573d5f803e3d5ffd5b505060408051848152602081018690523393507f715cc24e8471bcbc5a86d1fa6a11297b79c943f3600887072b199787db5a5dbc925001610695565b610910610f0b565b6002546001600160a01b03908116908316036109f7576009546002546040516370a0823160e01b81523060048201525f92916001600160a01b0316906370a0823190602401602060405180830381865afa158015610970573d5f803e3d5ffd5b505050506040513d601f19601f820116820180604052508101906109949190611132565b61099e9190611199565b9050808211156109f55760405162461bcd60e51b815260206004820152601960248201527f43616e6e6f7420776974686472617720706f6f6c20555344430000000000000060448201526064015b60405180910390fd5b505b610a1c610a0b5f546001600160a01b031690565b6001600160a01b0384169083610f37565b5050565b610a28610f0b565b6001600160a01b038116610a4f5760405163d92e233d60e01b815260040160405180910390fd5b600380546001600160a01b0319166001600160a01b0392909216919091179055565b5f8060035f9054906101000a90046001600160a01b03166001600160a01b031663daba3e2a6040518163ffffffff1660e01b8152600401602060405180830381865afa158015610ac3573d5f803e3d5ffd5b505050506040513d601f19601f82011682018060405250810190610ae79190611132565b9050801580610af65750600454155b15610b0357505f92915050565b806004548461055f919061115d565b610b1a610f9b565b335f9081526005602052604090205415610b475760405163f99e6bf960e01b815260040160405180910390fd5b5f610b5133610325565b9050805f03610b7357604051631f2a200560e01b815260040160405180910390fd5b600354604051635cbae60560e01b81523360048201525f916001600160a01b031690635cbae60590602401602060405180830381865afa158015610bb9573d5f803e3d5ffd5b505050506040513d601f19601f82011682018060405250810190610bdd9190611132565b600354604051637415e80360e01b8152336004820152602481018390529192506001600160a01b031690637415e803906044015f604051808303815f87803b158015610c27575f80fd5b505af1158015610c39573d5f803e3d5ffd5b5050335f9081526005602090815260408083208790556006909152812084905560078054869450909250610c6e9084906111ac565b925050819055508060085f828254610c8691906111ac565b9091555050604080518281526020810184905233917f46949ee51143d5b58e4df83122d6c382a04f7bffbe563f78cd7fa61ee519ec089101610695565b610ccb610f0b565b805f03610ceb57604051631f2a200560e01b815260040160405180910390fd5b600254610d03906001600160a01b0316333084611014565b8060095f828254610d1491906111ac565b909155505060405181815233907f32ea49dc25a72e02e9085623b18d62632c27fb4985ff9443bc2dd425b724fafa9060200160405180910390a250565b610d59610f9b565b805f03610d7957604051631f2a200560e01b815260040160405180910390fd5b335f9081526005602052604090205415610da65760405163f99e6bf960e01b815260040160405180910390fd5b5f610db033610325565b905080821115610dd357604051632cb65ba960e01b815260040160405180910390fd5b5f610ddd836104c9565b600354604051637415e80360e01b8152336004820152602481018390529192506001600160a01b031690637415e803906044015f604051808303815f87803b158015610e27575f80fd5b505af1158015610e39573d5f803e3d5ffd5b5050335f9081526005602090815260408083208890556006909152812084905560078054879450909250610e6e9084906111ac565b925050819055508060085f828254610e8691906111ac565b9091555050604080518281526020810185905233917f46949ee51143d5b58e4df83122d6c382a04f7bffbe563f78cd7fa61ee519ec08910160405180910390a250506104c660018055565b610ed9610f0b565b6001600160a01b038116610f0257604051631e4fbdf760e01b81525f60048201526024016109ec565b6104c681610fc5565b5f546001600160a01b031633146106a85760405163118cdaa760e01b81523360048201526024016109ec565b6040516001600160a01b03838116602483015260448201839052610f9691859182169063a9059cbb906064015b604051602081830303815290604052915060e01b6020820180516001600160e01b038381831617835250505050611053565b505050565b600260015403610fbe57604051633ee5aeb560e01b815260040160405180910390fd5b6002600155565b5f80546001600160a01b038381166001600160a01b0319831681178455604051919092169283917f8be0079c531659141344cd1fd0a4f28419497f9722a3daafe3b4186f6b6457e09190a35050565b6040516001600160a01b03848116602483015283811660448301526064820183905261104d9186918216906323b872dd90608401610f64565b50505050565b5f8060205f8451602086015f885af180611072576040513d5f823e3d81fd5b50505f513d91508115611089578060011415611096565b6001600160a01b0384163b155b1561104d57604051635274afe760e01b81526001600160a01b03851660048201526024016109ec565b80356001600160a01b03811681146110d5575f80fd5b919050565b5f602082840312156110ea575f80fd5b610569826110bf565b5f60208284031215611103575f80fd5b5035919050565b5f806040838503121561111b575f80fd5b611124836110bf565b946020939093013593505050565b5f60208284031215611142575f80fd5b5051919050565b634e487b7160e01b5f52601160045260245ffd5b808202811582820484141761117457611174611149565b92915050565b5f8261119457634e487b7160e01b5f52601260045260245ffd5b500490565b8181038181111561117457611174611149565b808201808211156111745761117461114956fea264697066735822122051342899757011b16da4ffc0e7497b48b8342488c8521d78373fd2eb2d8b632e64736f6c63430008140033","linkReferences":{}},"methodIdentifiers":{"cancelRequest()":"851b16f5","claim()":"4e71d92d","creditsToUsdc(uint256)":"a9cf575b","fundPool(uint256)":"da3a5f72","fundedPool()":"47e9e6fd","getMaxRedeemable(address)":"13af37ea","getRedemptionPercentage()":"79ed22a8","lockedCredits(address)":"b9020041","owner()":"8da5cb5b","pendingRequests(address)":"fb22e651","recoverERC20(address,uint256)":"8980f11f","renounceOwnership()":"715018a6","reportLiquidValue(uint256)":"6e56907e","reportedLiquidValue()":"f345ca7b","requestRedemption(uint256)":"eeb3c910","requestRedemptionAll()":"d25f0ea0","setStakingContract(address)":"9dd373b9","staking()":"4cf088d9","totalClaimedUsdc()":"910baf75","totalLockedCredits()":"abe479b4","totalPendingRequests()":"d64f3168","transferOwnership(address)":"f2fde38b","usdc()":"3e413bee","usdcToCredits(uint256)":"4340cc2b","withdrawFromPool(uint256)":"30fc43ed"},"id":35}