{
  "_format": "hh3-artifact-1",
  "contractName": "SimpleTreasury",
  "sourceName": "src/SimpleTreasury.sol",
  "abi": [
    {
      "inputs": [
        {
          "internalType": "address",
          "name": "_suiteToken",
          "type": "address"
        },
        {
          "internalType": "address",
          "name": "_usdc",
          "type": "address"
        },
        {
          "internalType": "address",
          "name": "_owner",
          "type": "address"
        }
      ],
      "stateMutability": "nonpayable",
      "type": "constructor"
    },
    {
      "inputs": [
        {
          "internalType": "address",
          "name": "owner",
          "type": "address"
        }
      ],
      "name": "OwnableInvalidOwner",
      "type": "error"
    },
    {
      "inputs": [
        {
          "internalType": "address",
          "name": "account",
          "type": "address"
        }
      ],
      "name": "OwnableUnauthorizedAccount",
      "type": "error"
    },
    {
      "inputs": [],
      "name": "ReentrancyGuardReentrantCall",
      "type": "error"
    },
    {
      "inputs": [
        {
          "internalType": "address",
          "name": "token",
          "type": "address"
        }
      ],
      "name": "SafeERC20FailedOperation",
      "type": "error"
    },
    {
      "anonymous": false,
      "inputs": [
        {
          "indexed": true,
          "internalType": "address",
          "name": "user",
          "type": "address"
        },
        {
          "indexed": false,
          "internalType": "uint256",
          "name": "usdcAmount",
          "type": "uint256"
        },
        {
          "indexed": false,
          "internalType": "uint256",
          "name": "suitesMinted",
          "type": "uint256"
        },
        {
          "indexed": false,
          "internalType": "uint256",
          "name": "fee",
          "type": "uint256"
        }
      ],
      "name": "Deposited",
      "type": "event"
    },
    {
      "anonymous": false,
      "inputs": [
        {
          "indexed": true,
          "internalType": "address",
          "name": "from",
          "type": "address"
        },
        {
          "indexed": false,
          "internalType": "uint256",
          "name": "amount",
          "type": "uint256"
        }
      ],
      "name": "ETHReceived",
      "type": "event"
    },
    {
      "anonymous": false,
      "inputs": [
        {
          "indexed": true,
          "internalType": "address",
          "name": "to",
          "type": "address"
        },
        {
          "indexed": false,
          "internalType": "uint256",
          "name": "amount",
          "type": "uint256"
        }
      ],
      "name": "FeesWithdrawn",
      "type": "event"
    },
    {
      "anonymous": false,
      "inputs": [
        {
          "indexed": true,
          "internalType": "address",
          "name": "previousOwner",
          "type": "address"
        },
        {
          "indexed": true,
          "internalType": "address",
          "name": "newOwner",
          "type": "address"
        }
      ],
      "name": "OwnershipTransferred",
      "type": "event"
    },
    {
      "anonymous": false,
      "inputs": [
        {
          "indexed": true,
          "internalType": "address",
          "name": "user",
          "type": "address"
        },
        {
          "indexed": false,
          "internalType": "uint256",
          "name": "suitesBurned",
          "type": "uint256"
        },
        {
          "indexed": false,
          "internalType": "uint256",
          "name": "usdcSent",
          "type": "uint256"
        },
        {
          "indexed": false,
          "internalType": "uint256",
          "name": "fee",
          "type": "uint256"
        }
      ],
      "name": "Withdrawn",
      "type": "event"
    },
    {
      "inputs": [],
      "name": "BPS_DENOMINATOR",
      "outputs": [
        {
          "internalType": "uint256",
          "name": "",
          "type": "uint256"
        }
      ],
      "stateMutability": "view",
      "type": "function"
    },
    {
      "inputs": [],
      "name": "SUITE_PER_USDC",
      "outputs": [
        {
          "internalType": "uint256",
          "name": "",
          "type": "uint256"
        }
      ],
      "stateMutability": "view",
      "type": "function"
    },
    {
      "inputs": [],
      "name": "accumulatedFees",
      "outputs": [
        {
          "internalType": "uint256",
          "name": "",
          "type": "uint256"
        }
      ],
      "stateMutability": "view",
      "type": "function"
    },
    {
      "inputs": [],
      "name": "depositFeeBps",
      "outputs": [
        {
          "internalType": "uint256",
          "name": "",
          "type": "uint256"
        }
      ],
      "stateMutability": "view",
      "type": "function"
    },
    {
      "inputs": [
        {
          "internalType": "uint256",
          "name": "amount",
          "type": "uint256"
        }
      ],
      "name": "depositUSDC",
      "outputs": [],
      "stateMutability": "nonpayable",
      "type": "function"
    },
    {
      "inputs": [],
      "name": "getTreasuryValue",
      "outputs": [
        {
          "internalType": "uint256",
          "name": "",
          "type": "uint256"
        }
      ],
      "stateMutability": "view",
      "type": "function"
    },
    {
      "inputs": [],
      "name": "owner",
      "outputs": [
        {
          "internalType": "address",
          "name": "",
          "type": "address"
        }
      ],
      "stateMutability": "view",
      "type": "function"
    },
    {
      "inputs": [],
      "name": "renounceOwnership",
      "outputs": [],
      "stateMutability": "nonpayable",
      "type": "function"
    },
    {
      "inputs": [],
      "name": "suiteToken",
      "outputs": [
        {
          "internalType": "contract ISuiteToken",
          "name": "",
          "type": "address"
        }
      ],
      "stateMutability": "view",
      "type": "function"
    },
    {
      "inputs": [
        {
          "internalType": "address",
          "name": "newOwner",
          "type": "address"
        }
      ],
      "name": "transferOwnership",
      "outputs": [],
      "stateMutability": "nonpayable",
      "type": "function"
    },
    {
      "inputs": [],
      "name": "usdc",
      "outputs": [
        {
          "internalType": "contract IERC20",
          "name": "",
          "type": "address"
        }
      ],
      "stateMutability": "view",
      "type": "function"
    },
    {
      "inputs": [
        {
          "internalType": "uint256",
          "name": "suiteAmount",
          "type": "uint256"
        }
      ],
      "name": "withdraw",
      "outputs": [],
      "stateMutability": "nonpayable",
      "type": "function"
    },
    {
      "inputs": [],
      "name": "withdrawFeeBps",
      "outputs": [
        {
          "internalType": "uint256",
          "name": "",
          "type": "uint256"
        }
      ],
      "stateMutability": "view",
      "type": "function"
    },
    {
      "inputs": [
        {
          "internalType": "address",
          "name": "to",
          "type": "address"
        }
      ],
      "name": "withdrawFees",
      "outputs": [],
      "stateMutability": "nonpayable",
      "type": "function"
    },
    {
      "stateMutability": "payable",
      "type": "receive"
    }
  ],
  "bytecode": "0x608060405260326004556032600555348015610019575f80fd5b50604051610c05380380610c0583398101604081905261003891610110565b806001600160a01b03811661006657604051631e4fbdf760e01b81525f600482015260240160405180910390fd5b61006f816100a6565b505060018055600280546001600160a01b039384166001600160a01b03199182161790915560038054929093169116179055610150565b5f80546001600160a01b038381166001600160a01b0319831681178455604051919092169283917f8be0079c531659141344cd1fd0a4f28419497f9722a3daafe3b4186f6b6457e09190a35050565b80516001600160a01b038116811461010b575f80fd5b919050565b5f805f60608486031215610122575f80fd5b61012b846100f5565b9250610139602085016100f5565b9150610147604085016100f5565b90509250925092565b610aa88061015d5f395ff3fe6080604052600436106100dc575f3560e01c80638da5cb5b1161007c578063e1a4521811610057578063e1a4521814610248578063f2fde38b1461025d578063f688bcfb1461027c578063fef5ebb91461029b575f80fd5b80638da5cb5b146101f8578063a22b6e8f14610214578063ab87982714610233575f80fd5b80633e413bee116100b75780633e413bee14610183578063587f5ed7146101ba578063715018a6146101cf5780637aca2b59146101e3575f80fd5b8063164e68de1461011c578063200ae02b1461013d5780632e1a7d4d14610164575f80fd5b366101185760405134815233907fbfe611b001dfcd411432f7bf0d79b82b4b2ee81511edac123a3403c357fb972a9060200160405180910390a2005b5f80fd5b348015610127575f80fd5b5061013b6101363660046109a1565b6102b0565b005b348015610148575f80fd5b50610151610359565b6040519081526020015b60405180910390f35b34801561016f575f80fd5b5061013b61017e3660046109ce565b6103d6565b34801561018e575f80fd5b506003546101a2906001600160a01b031681565b6040516001600160a01b03909116815260200161015b565b3480156101c5575f80fd5b5061015160065481565b3480156101da575f80fd5b5061013b61063e565b3480156101ee575f80fd5b5061015160055481565b348015610203575f80fd5b505f546001600160a01b03166101a2565b34801561021f575f80fd5b506002546101a2906001600160a01b031681565b34801561023e575f80fd5b5061015160045481565b348015610253575f80fd5b5061015161271081565b348015610268575f80fd5b5061013b6102773660046109a1565b610651565b348015610287575f80fd5b5061013b6102963660046109ce565b61068b565b3480156102a6575f80fd5b506101516103e881565b6102b86107ed565b600654806102f75760405162461bcd60e51b81526020600482015260076024820152664e6f206665657360c81b60448201526064015b60405180910390fd5b5f600655600354610312906001600160a01b03168383610819565b816001600160a01b03167fc0819c13be868895eb93e40eaceb96de976442fa1d404e5c55f14bb65a8c489a8260405161034d91815260200190565b60405180910390a25050565b6006546003546040516370a0823160e01b81523060048201525f92916001600160a01b0316906370a0823190602401602060405180830381865afa1580156103a3573d5f803e3d5ffd5b505050506040513d601f19601f820116820180604052508101906103c791906109e5565b6103d19190610a10565b905090565b6103de61087d565b5f81116104225760405162461bcd60e51b81526020600482015260126024820152710416d6f756e74206d757374206265203e20360741b60448201526064016102ee565b5f64e8d4a510006104356103e884610a29565b61043f9190610a29565b90505f81116104835760405162461bcd60e51b815260206004820152601060248201526f105b5bdd5b9d081d1bdbc81cdb585b1b60821b60448201526064016102ee565b5f612710600554836104959190610a48565b61049f9190610a29565b90505f6104ac8284610a10565b90508160065f8282546104bf9190610a5f565b90915550506003546040516370a0823160e01b815230600482015284916001600160a01b0316906370a0823190602401602060405180830381865afa15801561050a573d5f803e3d5ffd5b505050506040513d601f19601f8201168201806040525081019061052e91906109e5565b10156105745760405162461bcd60e51b8152602060048201526015602482015274496e73756666696369656e7420747265617375727960581b60448201526064016102ee565b60025460405163079cc67960e41b8152336004820152602481018690526001600160a01b03909116906379cc6790906044015f604051808303815f87803b1580156105bd575f80fd5b505af11580156105cf573d5f803e3d5ffd5b50506003546105eb92506001600160a01b031690503383610819565b604080518581526020810183905290810183905233907f75e161b3e824b114fc1a33274bd7091918dd4e639cede50b78b15a4eea956a21906060015b60405180910390a250505061063b60018055565b50565b6106466107ed565b61064f5f6108a7565b565b6106596107ed565b6001600160a01b03811661068257604051631e4fbdf760e01b81525f60048201526024016102ee565b61063b816108a7565b61069361087d565b5f81116106d75760405162461bcd60e51b81526020600482015260126024820152710416d6f756e74206d757374206265203e20360741b60448201526064016102ee565b6003546106ef906001600160a01b03163330846108f6565b5f612710600454836107019190610a48565b61070b9190610a29565b90505f6107188284610a10565b90508160065f82825461072b9190610a5f565b909155505f905061073e6103e883610a48565b61074d9064e8d4a51000610a48565b6002546040516340c10f1960e01b8152336004820152602481018390529192506001600160a01b0316906340c10f19906044015f604051808303815f87803b158015610797575f80fd5b505af11580156107a9573d5f803e3d5ffd5b505060408051878152602081018590529081018690523392507f91ede45f04a37a7c170f5c1207df3b6bc748dc1e04ad5e917a241d0f52feada39150606001610627565b5f546001600160a01b0316331461064f5760405163118cdaa760e01b81523360048201526024016102ee565b6040516001600160a01b0383811660248301526044820183905261087891859182169063a9059cbb906064015b604051602081830303815290604052915060e01b6020820180516001600160e01b038381831617835250505050610935565b505050565b6002600154036108a057604051633ee5aeb560e01b815260040160405180910390fd5b6002600155565b5f80546001600160a01b038381166001600160a01b0319831681178455604051919092169283917f8be0079c531659141344cd1fd0a4f28419497f9722a3daafe3b4186f6b6457e09190a35050565b6040516001600160a01b03848116602483015283811660448301526064820183905261092f9186918216906323b872dd90608401610846565b50505050565b5f8060205f8451602086015f885af180610954576040513d5f823e3d81fd5b50505f513d9150811561096b578060011415610978565b6001600160a01b0384163b155b1561092f57604051635274afe760e01b81526001600160a01b03851660048201526024016102ee565b5f602082840312156109b1575f80fd5b81356001600160a01b03811681146109c7575f80fd5b9392505050565b5f602082840312156109de575f80fd5b5035919050565b5f602082840312156109f5575f80fd5b5051919050565b634e487b7160e01b5f52601160045260245ffd5b81810381811115610a2357610a236109fc565b92915050565b5f82610a4357634e487b7160e01b5f52601260045260245ffd5b500490565b8082028115828204841417610a2357610a236109fc565b80820180821115610a2357610a236109fc56fea26469706673582212209a0462d51fedcafb3bc8423f801e5a817005912db986f10e54ac9cfcf486320f64736f6c63430008140033",
  "linkReferences": {},
  "deployedLinkReferences": {},
  "immutableReferences": {},
  "inputSourceName": "project/src/SimpleTreasury.sol",
  "buildInfoId": "solc-0_8_20-ba41b494d89147ff774d62e4cc67130a24667b62"
}