{
  "_format": "hh3-artifact-1",
  "contractName": "TreasuryV2",
  "sourceName": "src/TreasuryV2.sol",
  "abi": [
    {
      "inputs": [
        {
          "internalType": "address",
          "name": "_suiteToken",
          "type": "address"
        },
        {
          "internalType": "address",
          "name": "_usdc",
          "type": "address"
        },
        {
          "internalType": "address",
          "name": "_owner",
          "type": "address"
        }
      ],
      "stateMutability": "nonpayable",
      "type": "constructor"
    },
    {
      "inputs": [
        {
          "internalType": "address",
          "name": "owner",
          "type": "address"
        }
      ],
      "name": "OwnableInvalidOwner",
      "type": "error"
    },
    {
      "inputs": [
        {
          "internalType": "address",
          "name": "account",
          "type": "address"
        }
      ],
      "name": "OwnableUnauthorizedAccount",
      "type": "error"
    },
    {
      "inputs": [],
      "name": "ReentrancyGuardReentrantCall",
      "type": "error"
    },
    {
      "inputs": [
        {
          "internalType": "address",
          "name": "token",
          "type": "address"
        }
      ],
      "name": "SafeERC20FailedOperation",
      "type": "error"
    },
    {
      "anonymous": false,
      "inputs": [
        {
          "indexed": true,
          "internalType": "address",
          "name": "user",
          "type": "address"
        },
        {
          "indexed": false,
          "internalType": "uint256",
          "name": "ethAmount",
          "type": "uint256"
        },
        {
          "indexed": false,
          "internalType": "uint256",
          "name": "usdValue",
          "type": "uint256"
        },
        {
          "indexed": false,
          "internalType": "uint256",
          "name": "suitesMinted",
          "type": "uint256"
        },
        {
          "indexed": false,
          "internalType": "uint256",
          "name": "fee",
          "type": "uint256"
        }
      ],
      "name": "DepositedETH",
      "type": "event"
    },
    {
      "anonymous": false,
      "inputs": [
        {
          "indexed": true,
          "internalType": "address",
          "name": "user",
          "type": "address"
        },
        {
          "indexed": false,
          "internalType": "uint256",
          "name": "usdcAmount",
          "type": "uint256"
        },
        {
          "indexed": false,
          "internalType": "uint256",
          "name": "suitesMinted",
          "type": "uint256"
        },
        {
          "indexed": false,
          "internalType": "uint256",
          "name": "fee",
          "type": "uint256"
        }
      ],
      "name": "DepositedUSDC",
      "type": "event"
    },
    {
      "anonymous": false,
      "inputs": [
        {
          "indexed": false,
          "internalType": "uint256",
          "name": "newPrice",
          "type": "uint256"
        }
      ],
      "name": "EthPriceUpdated",
      "type": "event"
    },
    {
      "anonymous": false,
      "inputs": [
        {
          "indexed": true,
          "internalType": "address",
          "name": "previousOwner",
          "type": "address"
        },
        {
          "indexed": true,
          "internalType": "address",
          "name": "newOwner",
          "type": "address"
        }
      ],
      "name": "OwnershipTransferred",
      "type": "event"
    },
    {
      "anonymous": false,
      "inputs": [
        {
          "indexed": true,
          "internalType": "address",
          "name": "user",
          "type": "address"
        },
        {
          "indexed": false,
          "internalType": "uint256",
          "name": "suitesBurned",
          "type": "uint256"
        },
        {
          "indexed": false,
          "internalType": "uint256",
          "name": "usdcSent",
          "type": "uint256"
        },
        {
          "indexed": false,
          "internalType": "uint256",
          "name": "fee",
          "type": "uint256"
        }
      ],
      "name": "Withdrawn",
      "type": "event"
    },
    {
      "inputs": [],
      "name": "BPS_DENOMINATOR",
      "outputs": [
        {
          "internalType": "uint256",
          "name": "",
          "type": "uint256"
        }
      ],
      "stateMutability": "view",
      "type": "function"
    },
    {
      "inputs": [],
      "name": "SUITE_PER_USD",
      "outputs": [
        {
          "internalType": "uint256",
          "name": "",
          "type": "uint256"
        }
      ],
      "stateMutability": "view",
      "type": "function"
    },
    {
      "inputs": [],
      "name": "accumulatedEthFees",
      "outputs": [
        {
          "internalType": "uint256",
          "name": "",
          "type": "uint256"
        }
      ],
      "stateMutability": "view",
      "type": "function"
    },
    {
      "inputs": [],
      "name": "accumulatedUsdcFees",
      "outputs": [
        {
          "internalType": "uint256",
          "name": "",
          "type": "uint256"
        }
      ],
      "stateMutability": "view",
      "type": "function"
    },
    {
      "inputs": [],
      "name": "depositETH",
      "outputs": [],
      "stateMutability": "payable",
      "type": "function"
    },
    {
      "inputs": [],
      "name": "depositFeeBps",
      "outputs": [
        {
          "internalType": "uint256",
          "name": "",
          "type": "uint256"
        }
      ],
      "stateMutability": "view",
      "type": "function"
    },
    {
      "inputs": [
        {
          "internalType": "uint256",
          "name": "amount",
          "type": "uint256"
        }
      ],
      "name": "depositUSDC",
      "outputs": [],
      "stateMutability": "nonpayable",
      "type": "function"
    },
    {
      "inputs": [],
      "name": "ethPriceUsd",
      "outputs": [
        {
          "internalType": "uint256",
          "name": "",
          "type": "uint256"
        }
      ],
      "stateMutability": "view",
      "type": "function"
    },
    {
      "inputs": [],
      "name": "getTreasuryBalances",
      "outputs": [
        {
          "internalType": "uint256",
          "name": "ethBalance",
          "type": "uint256"
        },
        {
          "internalType": "uint256",
          "name": "usdcBalance",
          "type": "uint256"
        }
      ],
      "stateMutability": "view",
      "type": "function"
    },
    {
      "inputs": [],
      "name": "owner",
      "outputs": [
        {
          "internalType": "address",
          "name": "",
          "type": "address"
        }
      ],
      "stateMutability": "view",
      "type": "function"
    },
    {
      "inputs": [],
      "name": "renounceOwnership",
      "outputs": [],
      "stateMutability": "nonpayable",
      "type": "function"
    },
    {
      "inputs": [
        {
          "internalType": "uint256",
          "name": "newPrice",
          "type": "uint256"
        }
      ],
      "name": "setEthPrice",
      "outputs": [],
      "stateMutability": "nonpayable",
      "type": "function"
    },
    {
      "inputs": [],
      "name": "suiteToken",
      "outputs": [
        {
          "internalType": "contract ISuiteToken",
          "name": "",
          "type": "address"
        }
      ],
      "stateMutability": "view",
      "type": "function"
    },
    {
      "inputs": [
        {
          "internalType": "address",
          "name": "newOwner",
          "type": "address"
        }
      ],
      "name": "transferOwnership",
      "outputs": [],
      "stateMutability": "nonpayable",
      "type": "function"
    },
    {
      "inputs": [],
      "name": "usdc",
      "outputs": [
        {
          "internalType": "contract IERC20",
          "name": "",
          "type": "address"
        }
      ],
      "stateMutability": "view",
      "type": "function"
    },
    {
      "inputs": [
        {
          "internalType": "uint256",
          "name": "suiteAmount",
          "type": "uint256"
        }
      ],
      "name": "withdraw",
      "outputs": [],
      "stateMutability": "nonpayable",
      "type": "function"
    },
    {
      "inputs": [
        {
          "internalType": "address",
          "name": "to",
          "type": "address"
        }
      ],
      "name": "withdrawEthFees",
      "outputs": [],
      "stateMutability": "nonpayable",
      "type": "function"
    },
    {
      "inputs": [],
      "name": "withdrawFeeBps",
      "outputs": [
        {
          "internalType": "uint256",
          "name": "",
          "type": "uint256"
        }
      ],
      "stateMutability": "view",
      "type": "function"
    },
    {
      "inputs": [
        {
          "internalType": "address",
          "name": "to",
          "type": "address"
        }
      ],
      "name": "withdrawUsdcFees",
      "outputs": [],
      "stateMutability": "nonpayable",
      "type": "function"
    },
    {
      "stateMutability": "payable",
      "type": "receive"
    }
  ],
  "bytecode": "0x608060405263d98e948060045560326005556032600655348015610021575f80fd5b50604051610f4e380380610f4e83398101604081905261004091610118565b806001600160a01b03811661006e57604051631e4fbdf760e01b81525f600482015260240160405180910390fd5b610077816100ae565b505060018055600280546001600160a01b039384166001600160a01b03199182161790915560038054929093169116179055610158565b5f80546001600160a01b038381166001600160a01b0319831681178455604051919092169283917f8be0079c531659141344cd1fd0a4f28419497f9722a3daafe3b4186f6b6457e09190a35050565b80516001600160a01b0381168114610113575f80fd5b919050565b5f805f6060848603121561012a575f80fd5b610133846100fd565b9250610141602085016100fd565b915061014f604085016100fd565b90509250925092565b610de9806101655f395ff3fe608060405260043610610112575f3560e01c80638f56df3a1161009d578063e1e8a2db11610062578063e1e8a2db146102b2578063f2fde38b146102c7578063f6326fb3146102e6578063f688bcfb146102ee578063fc5bb15c1461030d575f80fd5b80638f56df3a146102355780639d294ecc14610254578063a22b6e8f14610269578063ab87982714610288578063e1a452181461029d575f80fd5b8063439d8147116100e3578063439d8147146101bc5780636d5be5bd146101d1578063715018a6146101f05780637aca2b59146102045780638da5cb5b14610219575f80fd5b80629f92621461011d57806316061dbf1461013e5780632e1a7d4d146101665780633e413bee14610185575f80fd5b3661011957005b5f80fd5b348015610128575f80fd5b5061013c610137366004610cb6565b610336565b005b348015610149575f80fd5b5061015360045481565b6040519081526020015b60405180910390f35b348015610171575f80fd5b5061013c610180366004610cb6565b6103bd565b348015610190575f80fd5b506003546101a4906001600160a01b031681565b6040516001600160a01b03909116815260200161015d565b3480156101c7575f80fd5b5061015360085481565b3480156101dc575f80fd5b5061013c6101eb366004610ccd565b6105fc565b3480156101fb575f80fd5b5061013c61065d565b34801561020f575f80fd5b5061015360065481565b348015610224575f80fd5b505f546001600160a01b03166101a4565b348015610240575f80fd5b5061013c61024f366004610ccd565b610670565b34801561025f575f80fd5b5061015360075481565b348015610274575f80fd5b506002546101a4906001600160a01b031681565b348015610293575f80fd5b5061015360055481565b3480156102a8575f80fd5b5061015361271081565b3480156102bd575f80fd5b506101536103e881565b3480156102d2575f80fd5b5061013c6102e1366004610ccd565b6106ef565b61013c610729565b3480156102f9575f80fd5b5061013c610308366004610cb6565b610938565b348015610318575f80fd5b50610321610a75565b6040805192835260208301919091520161015d565b61033e610b07565b5f81116103825760405162461bcd60e51b815260206004820152600d60248201526c496e76616c696420707269636560981b60448201526064015b60405180910390fd5b60048190556040518181527f9193344cc8802d31c4aa2815214e792efa5a9fa7daa8e102ab2ad3576e74b51b9060200160405180910390a150565b6103c5610b33565b5f81116103e45760405162461bcd60e51b815260040161037990610cfa565b5f64e8d4a510006103f76103e884610d3a565b6104019190610d3a565b90505f81116104455760405162461bcd60e51b815260206004820152601060248201526f105b5bdd5b9d081d1bdbc81cdb585b1b60821b6044820152606401610379565b5f612710600654836104579190610d59565b6104619190610d3a565b90505f61046e8284610d76565b90508160075f8282546104819190610d89565b90915550506003546040516370a0823160e01b815230600482015284916001600160a01b0316906370a0823190602401602060405180830381865afa1580156104cc573d5f803e3d5ffd5b505050506040513d601f19601f820116820180604052508101906104f09190610d9c565b10156105325760405162461bcd60e51b8152602060048201526011602482015270496e73756666696369656e74205553444360781b6044820152606401610379565b60025460405163079cc67960e41b8152336004820152602481018690526001600160a01b03909116906379cc6790906044015f604051808303815f87803b15801561057b575f80fd5b505af115801561058d573d5f803e3d5ffd5b50506003546105a992506001600160a01b031690503383610b5d565b604080518581526020810183905290810183905233907f75e161b3e824b114fc1a33274bd7091918dd4e639cede50b78b15a4eea956a21906060015b60405180910390a25050506105f960018055565b50565b610604610b07565b6007548061063e5760405162461bcd60e51b81526020600482015260076024820152664e6f206665657360c81b6044820152606401610379565b5f600755600354610659906001600160a01b03168383610b5d565b5050565b610665610b07565b61066e5f610bbc565b565b610678610b07565b600854806106b25760405162461bcd60e51b81526020600482015260076024820152664e6f206665657360c81b6044820152606401610379565b5f60088190556040516001600160a01b0384169183156108fc02918491818181858888f193505050501580156106ea573d5f803e3d5ffd5b505050565b6106f7610b07565b6001600160a01b03811661072057604051631e4fbdf760e01b81525f6004820152602401610379565b6105f981610bbc565b610731610b33565b5f34116107505760405162461bcd60e51b815260040161037990610cfa565b5f670de0b6b3a7640000600454346107689190610d59565b6107729190610d3a565b90505f81116107b55760405162461bcd60e51b815260206004820152600f60248201526e15985b1d59481d1bdbc81cdb585b1b608a1b6044820152606401610379565b5f612710600554346107c79190610d59565b6107d19190610d3a565b90505f6107de8234610d76565b90508160085f8282546107f19190610d89565b90915550506004545f90670de0b6b3a76400009061080f9084610d59565b6108199190610d3a565b90505f6108286103e883610d59565b6108379064e8d4a51000610d59565b90505f81116108815760405162461bcd60e51b815260206004820152601660248201527514d552551148185b5bdd5b9d081d1bdbc81cdb585b1b60521b6044820152606401610379565b6002546040516340c10f1960e01b8152336004820152602481018390526001600160a01b03909116906340c10f19906044015f604051808303815f87803b1580156108ca575f80fd5b505af11580156108dc573d5f803e3d5ffd5b50506040805134815260208101899052908101849052606081018790523392507fc73c33663315381045d357db1358b900b6d843b660a713791e7ac48a0082eebe915060800160405180910390a2505050505061066e60018055565b610940610b33565b5f811161095f5760405162461bcd60e51b815260040161037990610cfa565b600354610977906001600160a01b0316333084610c0b565b5f612710600554836109899190610d59565b6109939190610d3a565b90505f6109a08284610d76565b90508160075f8282546109b39190610d89565b909155505f90506109c66103e883610d59565b6109d59064e8d4a51000610d59565b6002546040516340c10f1960e01b8152336004820152602481018390529192506001600160a01b0316906340c10f19906044015f604051808303815f87803b158015610a1f575f80fd5b505af1158015610a31573d5f803e3d5ffd5b505060408051878152602081018590529081018690523392507f424d075b013ef51b0d482726bd7b55ef0def064038dcc3876c9940c4377cf27691506060016105e5565b5f8060085447610a859190610d76565b6007546003546040516370a0823160e01b815230600482015292945090916001600160a01b03909116906370a0823190602401602060405180830381865afa158015610ad3573d5f803e3d5ffd5b505050506040513d601f19601f82011682018060405250810190610af79190610d9c565b610b019190610d76565b90509091565b5f546001600160a01b0316331461066e5760405163118cdaa760e01b8152336004820152602401610379565b600260015403610b5657604051633ee5aeb560e01b815260040160405180910390fd5b6002600155565b6040516001600160a01b038381166024830152604482018390526106ea91859182169063a9059cbb906064015b604051602081830303815290604052915060e01b6020820180516001600160e01b038381831617835250505050610c4a565b5f80546001600160a01b038381166001600160a01b0319831681178455604051919092169283917f8be0079c531659141344cd1fd0a4f28419497f9722a3daafe3b4186f6b6457e09190a35050565b6040516001600160a01b038481166024830152838116604483015260648201839052610c449186918216906323b872dd90608401610b8a565b50505050565b5f8060205f8451602086015f885af180610c69576040513d5f823e3d81fd5b50505f513d91508115610c80578060011415610c8d565b6001600160a01b0384163b155b15610c4457604051635274afe760e01b81526001600160a01b0385166004820152602401610379565b5f60208284031215610cc6575f80fd5b5035919050565b5f60208284031215610cdd575f80fd5b81356001600160a01b0381168114610cf3575f80fd5b9392505050565b6020808252601290820152710416d6f756e74206d757374206265203e20360741b604082015260600190565b634e487b7160e01b5f52601160045260245ffd5b5f82610d5457634e487b7160e01b5f52601260045260245ffd5b500490565b8082028115828204841417610d7057610d70610d26565b92915050565b81810381811115610d7057610d70610d26565b80820180821115610d7057610d70610d26565b5f60208284031215610dac575f80fd5b505191905056fea2646970667358221220e782ea2080016b2b4b49793183cae6aa6600c78bbc237c0a1b55c45d822e6a8164736f6c63430008140033",
  "linkReferences": {},
  "deployedLinkReferences": {},
  "immutableReferences": {},
  "inputSourceName": "project/src/TreasuryV2.sol",
  "buildInfoId": "solc-0_8_20-ba41b494d89147ff774d62e4cc67130a24667b62"
}