{
  "_format": "hh3-artifact-1",
  "contractName": "TreasuryV2",
  "sourceName": "src/TreasuryV2.sol",
  "abi": [
    {
      "inputs": [
        {
          "internalType": "address",
          "name": "_suiteToken",
          "type": "address"
        },
        {
          "internalType": "address",
          "name": "_usdc",
          "type": "address"
        },
        {
          "internalType": "address",
          "name": "_owner",
          "type": "address"
        }
      ],
      "stateMutability": "nonpayable",
      "type": "constructor"
    },
    {
      "inputs": [
        {
          "internalType": "address",
          "name": "owner",
          "type": "address"
        }
      ],
      "name": "OwnableInvalidOwner",
      "type": "error"
    },
    {
      "inputs": [
        {
          "internalType": "address",
          "name": "account",
          "type": "address"
        }
      ],
      "name": "OwnableUnauthorizedAccount",
      "type": "error"
    },
    {
      "inputs": [],
      "name": "ReentrancyGuardReentrantCall",
      "type": "error"
    },
    {
      "inputs": [
        {
          "internalType": "address",
          "name": "token",
          "type": "address"
        }
      ],
      "name": "SafeERC20FailedOperation",
      "type": "error"
    },
    {
      "anonymous": false,
      "inputs": [
        {
          "indexed": true,
          "internalType": "address",
          "name": "user",
          "type": "address"
        },
        {
          "indexed": false,
          "internalType": "uint256",
          "name": "ethAmount",
          "type": "uint256"
        },
        {
          "indexed": false,
          "internalType": "uint256",
          "name": "usdValue",
          "type": "uint256"
        },
        {
          "indexed": false,
          "internalType": "uint256",
          "name": "suitesMinted",
          "type": "uint256"
        },
        {
          "indexed": false,
          "internalType": "uint256",
          "name": "fee",
          "type": "uint256"
        }
      ],
      "name": "DepositedETH",
      "type": "event"
    },
    {
      "anonymous": false,
      "inputs": [
        {
          "indexed": true,
          "internalType": "address",
          "name": "user",
          "type": "address"
        },
        {
          "indexed": false,
          "internalType": "uint256",
          "name": "usdcAmount",
          "type": "uint256"
        },
        {
          "indexed": false,
          "internalType": "uint256",
          "name": "suitesMinted",
          "type": "uint256"
        },
        {
          "indexed": false,
          "internalType": "uint256",
          "name": "fee",
          "type": "uint256"
        }
      ],
      "name": "DepositedUSDC",
      "type": "event"
    },
    {
      "anonymous": false,
      "inputs": [
        {
          "indexed": false,
          "internalType": "uint256",
          "name": "newPrice",
          "type": "uint256"
        }
      ],
      "name": "EthPriceUpdated",
      "type": "event"
    },
    {
      "anonymous": false,
      "inputs": [
        {
          "indexed": true,
          "internalType": "address",
          "name": "previousOwner",
          "type": "address"
        },
        {
          "indexed": true,
          "internalType": "address",
          "name": "newOwner",
          "type": "address"
        }
      ],
      "name": "OwnershipTransferred",
      "type": "event"
    },
    {
      "anonymous": false,
      "inputs": [
        {
          "indexed": true,
          "internalType": "address",
          "name": "user",
          "type": "address"
        },
        {
          "indexed": false,
          "internalType": "uint256",
          "name": "suitesBurned",
          "type": "uint256"
        },
        {
          "indexed": false,
          "internalType": "uint256",
          "name": "usdcSent",
          "type": "uint256"
        },
        {
          "indexed": false,
          "internalType": "uint256",
          "name": "fee",
          "type": "uint256"
        }
      ],
      "name": "Withdrawn",
      "type": "event"
    },
    {
      "inputs": [],
      "name": "BPS_DENOMINATOR",
      "outputs": [
        {
          "internalType": "uint256",
          "name": "",
          "type": "uint256"
        }
      ],
      "stateMutability": "view",
      "type": "function"
    },
    {
      "inputs": [],
      "name": "SUITE_PER_USD",
      "outputs": [
        {
          "internalType": "uint256",
          "name": "",
          "type": "uint256"
        }
      ],
      "stateMutability": "view",
      "type": "function"
    },
    {
      "inputs": [],
      "name": "accumulatedEthFees",
      "outputs": [
        {
          "internalType": "uint256",
          "name": "",
          "type": "uint256"
        }
      ],
      "stateMutability": "view",
      "type": "function"
    },
    {
      "inputs": [],
      "name": "accumulatedUsdcFees",
      "outputs": [
        {
          "internalType": "uint256",
          "name": "",
          "type": "uint256"
        }
      ],
      "stateMutability": "view",
      "type": "function"
    },
    {
      "inputs": [],
      "name": "depositETH",
      "outputs": [],
      "stateMutability": "payable",
      "type": "function"
    },
    {
      "inputs": [],
      "name": "depositFeeBps",
      "outputs": [
        {
          "internalType": "uint256",
          "name": "",
          "type": "uint256"
        }
      ],
      "stateMutability": "view",
      "type": "function"
    },
    {
      "inputs": [
        {
          "internalType": "uint256",
          "name": "amount",
          "type": "uint256"
        }
      ],
      "name": "depositUSDC",
      "outputs": [],
      "stateMutability": "nonpayable",
      "type": "function"
    },
    {
      "inputs": [],
      "name": "ethPriceUsd",
      "outputs": [
        {
          "internalType": "uint256",
          "name": "",
          "type": "uint256"
        }
      ],
      "stateMutability": "view",
      "type": "function"
    },
    {
      "inputs": [],
      "name": "getTreasuryBalances",
      "outputs": [
        {
          "internalType": "uint256",
          "name": "ethBalance",
          "type": "uint256"
        },
        {
          "internalType": "uint256",
          "name": "usdcBalance",
          "type": "uint256"
        }
      ],
      "stateMutability": "view",
      "type": "function"
    },
    {
      "inputs": [],
      "name": "owner",
      "outputs": [
        {
          "internalType": "address",
          "name": "",
          "type": "address"
        }
      ],
      "stateMutability": "view",
      "type": "function"
    },
    {
      "inputs": [],
      "name": "renounceOwnership",
      "outputs": [],
      "stateMutability": "nonpayable",
      "type": "function"
    },
    {
      "inputs": [
        {
          "internalType": "uint256",
          "name": "newPrice",
          "type": "uint256"
        }
      ],
      "name": "setEthPrice",
      "outputs": [],
      "stateMutability": "nonpayable",
      "type": "function"
    },
    {
      "inputs": [],
      "name": "suiteToken",
      "outputs": [
        {
          "internalType": "contract ISuiteToken",
          "name": "",
          "type": "address"
        }
      ],
      "stateMutability": "view",
      "type": "function"
    },
    {
      "inputs": [
        {
          "internalType": "address",
          "name": "newOwner",
          "type": "address"
        }
      ],
      "name": "transferOwnership",
      "outputs": [],
      "stateMutability": "nonpayable",
      "type": "function"
    },
    {
      "inputs": [],
      "name": "usdc",
      "outputs": [
        {
          "internalType": "contract IERC20",
          "name": "",
          "type": "address"
        }
      ],
      "stateMutability": "view",
      "type": "function"
    },
    {
      "inputs": [
        {
          "internalType": "uint256",
          "name": "suiteAmount",
          "type": "uint256"
        }
      ],
      "name": "withdraw",
      "outputs": [],
      "stateMutability": "nonpayable",
      "type": "function"
    },
    {
      "inputs": [
        {
          "internalType": "address",
          "name": "to",
          "type": "address"
        }
      ],
      "name": "withdrawEthFees",
      "outputs": [],
      "stateMutability": "nonpayable",
      "type": "function"
    },
    {
      "inputs": [],
      "name": "withdrawFeeBps",
      "outputs": [
        {
          "internalType": "uint256",
          "name": "",
          "type": "uint256"
        }
      ],
      "stateMutability": "view",
      "type": "function"
    },
    {
      "inputs": [
        {
          "internalType": "address",
          "name": "to",
          "type": "address"
        }
      ],
      "name": "withdrawUsdcFees",
      "outputs": [],
      "stateMutability": "nonpayable",
      "type": "function"
    },
    {
      "stateMutability": "payable",
      "type": "receive"
    }
  ],
  "bytecode": "0x608060405263d98e94806004556032600555603260065534801562000022575f80fd5b5060405162001cd038038062001cd0833981810160405281019062000048919062000284565b805f73ffffffffffffffffffffffffffffffffffffffff168173ffffffffffffffffffffffffffffffffffffffff1603620000bc575f6040517f1e4fbdf7000000000000000000000000000000000000000000000000000000008152600401620000b39190620002ee565b60405180910390fd5b620000cd816200015e60201b60201c565b50600180819055508260025f6101000a81548173ffffffffffffffffffffffffffffffffffffffff021916908373ffffffffffffffffffffffffffffffffffffffff1602179055508160035f6101000a81548173ffffffffffffffffffffffffffffffffffffffff021916908373ffffffffffffffffffffffffffffffffffffffff16021790555050505062000309565b5f805f9054906101000a900473ffffffffffffffffffffffffffffffffffffffff169050815f806101000a81548173ffffffffffffffffffffffffffffffffffffffff021916908373ffffffffffffffffffffffffffffffffffffffff1602179055508173ffffffffffffffffffffffffffffffffffffffff168173ffffffffffffffffffffffffffffffffffffffff167f8be0079c531659141344cd1fd0a4f28419497f9722a3daafe3b4186f6b6457e060405160405180910390a35050565b5f80fd5b5f73ffffffffffffffffffffffffffffffffffffffff82169050919050565b5f6200024e8262000223565b9050919050565b620002608162000242565b81146200026b575f80fd5b50565b5f815190506200027e8162000255565b92915050565b5f805f606084860312156200029e576200029d6200021f565b5b5f620002ad868287016200026e565b9350506020620002c0868287016200026e565b9250506040620002d3868287016200026e565b9150509250925092565b620002e88162000242565b82525050565b5f602082019050620003035f830184620002dd565b92915050565b6119b980620003175f395ff3fe608060405260043610610116575f3560e01c80638f56df3a1161009f578063e1e8a2db11610063578063e1e8a2db14610351578063f2fde38b1461037b578063f6326fb3146103a3578063f688bcfb146103ad578063fc5bb15c146103d55761011d565b80638f56df3a146102815780639d294ecc146102a9578063a22b6e8f146102d3578063ab879827146102fd578063e1a45218146103275761011d565b8063439d8147116100e6578063439d8147146101c55780636d5be5bd146101ef578063715018a6146102175780637aca2b591461022d5780638da5cb5b146102575761011d565b80629f92621461012157806316061dbf146101495780632e1a7d4d146101735780633e413bee1461019b5761011d565b3661011d57005b5f80fd5b34801561012c575f80fd5b5061014760048036038101906101429190611283565b610400565b005b348015610154575f80fd5b5061015d61048b565b60405161016a91906112bd565b60405180910390f35b34801561017e575f80fd5b5061019960048036038101906101949190611283565b610491565b005b3480156101a6575f80fd5b506101af610793565b6040516101bc9190611350565b60405180910390f35b3480156101d0575f80fd5b506101d96107b8565b6040516101e691906112bd565b60405180910390f35b3480156101fa575f80fd5b50610215600480360381019061021091906113a4565b6107be565b005b348015610222575f80fd5b5061022b610865565b005b348015610238575f80fd5b50610241610878565b60405161024e91906112bd565b60405180910390f35b348015610262575f80fd5b5061026b61087e565b60405161027891906113de565b60405180910390f35b34801561028c575f80fd5b506102a760048036038101906102a291906113a4565b6108a5565b005b3480156102b4575f80fd5b506102bd610944565b6040516102ca91906112bd565b60405180910390f35b3480156102de575f80fd5b506102e761094a565b6040516102f49190611417565b60405180910390f35b348015610308575f80fd5b5061031161096f565b60405161031e91906112bd565b60405180910390f35b348015610332575f80fd5b5061033b610975565b60405161034891906112bd565b60405180910390f35b34801561035c575f80fd5b5061036561097b565b60405161037291906112bd565b60405180910390f35b348015610386575f80fd5b506103a1600480360381019061039c91906113a4565b610981565b005b6103ab610a05565b005b3480156103b8575f80fd5b506103d360048036038101906103ce9190611283565b610c6d565b005b3480156103e0575f80fd5b506103e9610e54565b6040516103f7929190611430565b60405180910390f35b610408610f12565b5f811161044a576040517f08c379a0000000000000000000000000000000000000000000000000000000008152600401610441906114b1565b60405180910390fd5b806004819055507f9193344cc8802d31c4aa2815214e792efa5a9fa7daa8e102ab2ad3576e74b51b8160405161048091906112bd565b60405180910390a150565b60045481565b610499610f99565b5f81116104db576040517f08c379a00000000000000000000000000000000000000000000000000000000081526004016104d290611519565b60405180910390fd5b5f64e8d4a510006103e8836104f09190611591565b6104fa9190611591565b90505f811161053e576040517f08c379a00000000000000000000000000000000000000000000000000000000081526004016105359061160b565b60405180910390fd5b5f612710600654836105509190611629565b61055a9190611591565b90505f8183610569919061166a565b90508160075f82825461057c919061169d565b925050819055508260035f9054906101000a900473ffffffffffffffffffffffffffffffffffffffff1673ffffffffffffffffffffffffffffffffffffffff166370a08231306040518263ffffffff1660e01b81526004016105de91906113de565b602060405180830381865afa1580156105f9573d5f803e3d5ffd5b505050506040513d601f19601f8201168201806040525081019061061d91906116e4565b101561065e576040517f08c379a000000000000000000000000000000000000000000000000000000000815260040161065590611759565b60405180910390fd5b60025f9054906101000a900473ffffffffffffffffffffffffffffffffffffffff1673ffffffffffffffffffffffffffffffffffffffff166379cc679033866040518363ffffffff1660e01b81526004016106ba929190611777565b5f604051808303815f87803b1580156106d1575f80fd5b505af11580156106e3573d5f803e3d5ffd5b50505050610733338260035f9054906101000a900473ffffffffffffffffffffffffffffffffffffffff1673ffffffffffffffffffffffffffffffffffffffff16610fdf9092919063ffffffff16565b3373ffffffffffffffffffffffffffffffffffffffff167f75e161b3e824b114fc1a33274bd7091918dd4e639cede50b78b15a4eea956a2185838560405161077d9392919061179e565b60405180910390a250505061079061105e565b50565b60035f9054906101000a900473ffffffffffffffffffffffffffffffffffffffff1681565b60085481565b6107c6610f12565b5f60075490505f811161080e576040517f08c379a00000000000000000000000000000000000000000000000000000000081526004016108059061181d565b60405180910390fd5b5f600781905550610861828260035f9054906101000a900473ffffffffffffffffffffffffffffffffffffffff1673ffffffffffffffffffffffffffffffffffffffff16610fdf9092919063ffffffff16565b5050565b61086d610f12565b6108765f611067565b565b60065481565b5f805f9054906101000a900473ffffffffffffffffffffffffffffffffffffffff16905090565b6108ad610f12565b5f60085490505f81116108f5576040517f08c379a00000000000000000000000000000000000000000000000000000000081526004016108ec9061181d565b60405180910390fd5b5f6008819055508173ffffffffffffffffffffffffffffffffffffffff166108fc8290811502906040515f60405180830381858888f1935050505015801561093f573d5f803e3d5ffd5b505050565b60075481565b60025f9054906101000a900473ffffffffffffffffffffffffffffffffffffffff1681565b60055481565b61271081565b6103e881565b610989610f12565b5f73ffffffffffffffffffffffffffffffffffffffff168173ffffffffffffffffffffffffffffffffffffffff16036109f9575f6040517f1e4fbdf70000000000000000000000000000000000000000000000000000000081526004016109f091906113de565b60405180910390fd5b610a0281611067565b50565b610a0d610f99565b5f3411610a4f576040517f08c379a0000000000000000000000000000000000000000000000000000000008152600401610a4690611519565b60405180910390fd5b5f670de0b6b3a764000060045434610a679190611629565b610a719190611591565b90505f8111610ab5576040517f08c379a0000000000000000000000000000000000000000000000000000000008152600401610aac90611885565b60405180910390fd5b5f61271060055434610ac79190611629565b610ad19190611591565b90505f8134610ae0919061166a565b90508160085f828254610af3919061169d565b925050819055505f670de0b6b3a764000060045483610b129190611629565b610b1c9190611591565b90505f64e8d4a510006103e883610b339190611629565b610b3d9190611629565b90505f8111610b81576040517f08c379a0000000000000000000000000000000000000000000000000000000008152600401610b78906118ed565b60405180910390fd5b60025f9054906101000a900473ffffffffffffffffffffffffffffffffffffffff1673ffffffffffffffffffffffffffffffffffffffff166340c10f1933836040518363ffffffff1660e01b8152600401610bdd929190611777565b5f604051808303815f87803b158015610bf4575f80fd5b505af1158015610c06573d5f803e3d5ffd5b505050503373ffffffffffffffffffffffffffffffffffffffff167fc73c33663315381045d357db1358b900b6d843b660a713791e7ac48a0082eebe34878488604051610c56949392919061190b565b60405180910390a25050505050610c6b61105e565b565b610c75610f99565b5f8111610cb7576040517f08c379a0000000000000000000000000000000000000000000000000000000008152600401610cae90611519565b60405180910390fd5b610d0533308360035f9054906101000a900473ffffffffffffffffffffffffffffffffffffffff1673ffffffffffffffffffffffffffffffffffffffff16611128909392919063ffffffff16565b5f61271060055483610d179190611629565b610d219190611591565b90505f8183610d30919061166a565b90508160075f828254610d43919061169d565b925050819055505f64e8d4a510006103e883610d5f9190611629565b610d699190611629565b905060025f9054906101000a900473ffffffffffffffffffffffffffffffffffffffff1673ffffffffffffffffffffffffffffffffffffffff166340c10f1933836040518363ffffffff1660e01b8152600401610dc7929190611777565b5f604051808303815f87803b158015610dde575f80fd5b505af1158015610df0573d5f803e3d5ffd5b505050503373ffffffffffffffffffffffffffffffffffffffff167f424d075b013ef51b0d482726bd7b55ef0def064038dcc3876c9940c4377cf276858386604051610e3e9392919061179e565b60405180910390a2505050610e5161105e565b50565b5f8060085447610e64919061166a565b915060075460035f9054906101000a900473ffffffffffffffffffffffffffffffffffffffff1673ffffffffffffffffffffffffffffffffffffffff166370a08231306040518263ffffffff1660e01b8152600401610ec391906113de565b602060405180830381865afa158015610ede573d5f803e3d5ffd5b505050506040513d601f19601f82011682018060405250810190610f0291906116e4565b610f0c919061166a565b90509091565b610f1a6111aa565b73ffffffffffffffffffffffffffffffffffffffff16610f3861087e565b73ffffffffffffffffffffffffffffffffffffffff1614610f9757610f5b6111aa565b6040517f118cdaa7000000000000000000000000000000000000000000000000000000008152600401610f8e91906113de565b60405180910390fd5b565b600260015403610fd5576040517f3ee5aeb500000000000000000000000000000000000000000000000000000000815260040160405180910390fd5b6002600181905550565b611059838473ffffffffffffffffffffffffffffffffffffffff1663a9059cbb8585604051602401611012929190611777565b604051602081830303815290604052915060e01b6020820180517bffffffffffffffffffffffffffffffffffffffffffffffffffffffff83818316178352505050506111b1565b505050565b60018081905550565b5f805f9054906101000a900473ffffffffffffffffffffffffffffffffffffffff169050815f806101000a81548173ffffffffffffffffffffffffffffffffffffffff021916908373ffffffffffffffffffffffffffffffffffffffff1602179055508173ffffffffffffffffffffffffffffffffffffffff168173ffffffffffffffffffffffffffffffffffffffff167f8be0079c531659141344cd1fd0a4f28419497f9722a3daafe3b4186f6b6457e060405160405180910390a35050565b6111a4848573ffffffffffffffffffffffffffffffffffffffff166323b872dd86868660405160240161115d9392919061194e565b604051602081830303815290604052915060e01b6020820180517bffffffffffffffffffffffffffffffffffffffffffffffffffffffff83818316178352505050506111b1565b50505050565b5f33905090565b5f8060205f8451602086015f885af1806111d0576040513d5f823e3d81fd5b3d92505f519150505f82146111e9576001811415611204565b5f8473ffffffffffffffffffffffffffffffffffffffff163b145b1561124657836040517f5274afe700000000000000000000000000000000000000000000000000000000815260040161123d91906113de565b60405180910390fd5b50505050565b5f80fd5b5f819050919050565b61126281611250565b811461126c575f80fd5b50565b5f8135905061127d81611259565b92915050565b5f602082840312156112985761129761124c565b5b5f6112a58482850161126f565b91505092915050565b6112b781611250565b82525050565b5f6020820190506112d05f8301846112ae565b92915050565b5f73ffffffffffffffffffffffffffffffffffffffff82169050919050565b5f819050919050565b5f61131861131361130e846112d6565b6112f5565b6112d6565b9050919050565b5f611329826112fe565b9050919050565b5f61133a8261131f565b9050919050565b61134a81611330565b82525050565b5f6020820190506113635f830184611341565b92915050565b5f611373826112d6565b9050919050565b61138381611369565b811461138d575f80fd5b50565b5f8135905061139e8161137a565b92915050565b5f602082840312156113b9576113b861124c565b5b5f6113c684828501611390565b91505092915050565b6113d881611369565b82525050565b5f6020820190506113f15f8301846113cf565b92915050565b5f6114018261131f565b9050919050565b611411816113f7565b82525050565b5f60208201905061142a5f830184611408565b92915050565b5f6040820190506114435f8301856112ae565b61145060208301846112ae565b9392505050565b5f82825260208201905092915050565b7f496e76616c6964207072696365000000000000000000000000000000000000005f82015250565b5f61149b600d83611457565b91506114a682611467565b602082019050919050565b5f6020820190508181035f8301526114c88161148f565b9050919050565b7f416d6f756e74206d757374206265203e203000000000000000000000000000005f82015250565b5f611503601283611457565b915061150e826114cf565b602082019050919050565b5f6020820190508181035f830152611530816114f7565b9050919050565b7f4e487b71000000000000000000000000000000000000000000000000000000005f52601260045260245ffd5b7f4e487b71000000000000000000000000000000000000000000000000000000005f52601160045260245ffd5b5f61159b82611250565b91506115a683611250565b9250826115b6576115b5611537565b5b828204905092915050565b7f416d6f756e7420746f6f20736d616c6c000000000000000000000000000000005f82015250565b5f6115f5601083611457565b9150611600826115c1565b602082019050919050565b5f6020820190508181035f830152611622816115e9565b9050919050565b5f61163382611250565b915061163e83611250565b925082820261164c81611250565b9150828204841483151761166357611662611564565b5b5092915050565b5f61167482611250565b915061167f83611250565b925082820390508181111561169757611696611564565b5b92915050565b5f6116a782611250565b91506116b283611250565b92508282019050808211156116ca576116c9611564565b5b92915050565b5f815190506116de81611259565b92915050565b5f602082840312156116f9576116f861124c565b5b5f611706848285016116d0565b91505092915050565b7f496e73756666696369656e7420555344430000000000000000000000000000005f82015250565b5f611743601183611457565b915061174e8261170f565b602082019050919050565b5f6020820190508181035f83015261177081611737565b9050919050565b5f60408201905061178a5f8301856113cf565b61179760208301846112ae565b9392505050565b5f6060820190506117b15f8301866112ae565b6117be60208301856112ae565b6117cb60408301846112ae565b949350505050565b7f4e6f2066656573000000000000000000000000000000000000000000000000005f82015250565b5f611807600783611457565b9150611812826117d3565b602082019050919050565b5f6020820190508181035f830152611834816117fb565b9050919050565b7f56616c756520746f6f20736d616c6c00000000000000000000000000000000005f82015250565b5f61186f600f83611457565b915061187a8261183b565b602082019050919050565b5f6020820190508181035f83015261189c81611863565b9050919050565b7f535549544520616d6f756e7420746f6f20736d616c6c000000000000000000005f82015250565b5f6118d7601683611457565b91506118e2826118a3565b602082019050919050565b5f6020820190508181035f830152611904816118cb565b9050919050565b5f60808201905061191e5f8301876112ae565b61192b60208301866112ae565b61193860408301856112ae565b61194560608301846112ae565b95945050505050565b5f6060820190506119615f8301866113cf565b61196e60208301856113cf565b61197b60408301846112ae565b94935050505056fea26469706673582212207915923d754400fe22ae7133d0a1f10b2669c606d4dfc2a8a24a8898823036f064736f6c63430008140033",
  "linkReferences": {},
  "deployedLinkReferences": {},
  "immutableReferences": {},
  "inputSourceName": "project/src/TreasuryV2.sol",
  "buildInfoId": "solc-0_8_20-518f8a3346cad988a2a9cd20a26bced4670719e1"
}