{
  "_format": "hh3-artifact-1",
  "contractName": "TreasuryV4",
  "sourceName": "src/TreasuryV4.sol",
  "abi": [
    {
      "inputs": [
        {
          "internalType": "address",
          "name": "_suiteToken",
          "type": "address"
        },
        {
          "internalType": "address",
          "name": "_owner",
          "type": "address"
        }
      ],
      "stateMutability": "nonpayable",
      "type": "constructor"
    },
    {
      "inputs": [
        {
          "internalType": "address",
          "name": "owner",
          "type": "address"
        }
      ],
      "name": "OwnableInvalidOwner",
      "type": "error"
    },
    {
      "inputs": [
        {
          "internalType": "address",
          "name": "account",
          "type": "address"
        }
      ],
      "name": "OwnableUnauthorizedAccount",
      "type": "error"
    },
    {
      "inputs": [],
      "name": "ReentrancyGuardReentrantCall",
      "type": "error"
    },
    {
      "inputs": [
        {
          "internalType": "address",
          "name": "token",
          "type": "address"
        }
      ],
      "name": "SafeERC20FailedOperation",
      "type": "error"
    },
    {
      "anonymous": false,
      "inputs": [
        {
          "indexed": true,
          "internalType": "address",
          "name": "user",
          "type": "address"
        },
        {
          "indexed": false,
          "internalType": "uint256",
          "name": "ethAmount",
          "type": "uint256"
        },
        {
          "indexed": false,
          "internalType": "uint256",
          "name": "suiteMinted",
          "type": "uint256"
        }
      ],
      "name": "DepositedETH",
      "type": "event"
    },
    {
      "anonymous": false,
      "inputs": [
        {
          "indexed": true,
          "internalType": "address",
          "name": "user",
          "type": "address"
        },
        {
          "indexed": false,
          "internalType": "address",
          "name": "token",
          "type": "address"
        },
        {
          "indexed": false,
          "internalType": "uint256",
          "name": "tokenAmount",
          "type": "uint256"
        },
        {
          "indexed": false,
          "internalType": "uint256",
          "name": "ethReceived",
          "type": "uint256"
        },
        {
          "indexed": false,
          "internalType": "uint256",
          "name": "suiteMinted",
          "type": "uint256"
        }
      ],
      "name": "DepositedWithSwap",
      "type": "event"
    },
    {
      "anonymous": false,
      "inputs": [
        {
          "indexed": true,
          "internalType": "address",
          "name": "to",
          "type": "address"
        },
        {
          "indexed": false,
          "internalType": "uint256",
          "name": "amount",
          "type": "uint256"
        }
      ],
      "name": "FeesWithdrawn",
      "type": "event"
    },
    {
      "anonymous": false,
      "inputs": [
        {
          "indexed": true,
          "internalType": "address",
          "name": "previousOwner",
          "type": "address"
        },
        {
          "indexed": true,
          "internalType": "address",
          "name": "newOwner",
          "type": "address"
        }
      ],
      "name": "OwnershipTransferred",
      "type": "event"
    },
    {
      "anonymous": false,
      "inputs": [
        {
          "indexed": true,
          "internalType": "address",
          "name": "user",
          "type": "address"
        },
        {
          "indexed": false,
          "internalType": "uint256",
          "name": "suiteBurned",
          "type": "uint256"
        },
        {
          "indexed": false,
          "internalType": "uint256",
          "name": "ethReturned",
          "type": "uint256"
        }
      ],
      "name": "Withdrawn",
      "type": "event"
    },
    {
      "inputs": [],
      "name": "BPS_DENOMINATOR",
      "outputs": [
        {
          "internalType": "uint256",
          "name": "",
          "type": "uint256"
        }
      ],
      "stateMutability": "view",
      "type": "function"
    },
    {
      "inputs": [],
      "name": "INITIAL_RATE",
      "outputs": [
        {
          "internalType": "uint256",
          "name": "",
          "type": "uint256"
        }
      ],
      "stateMutability": "view",
      "type": "function"
    },
    {
      "inputs": [],
      "name": "ZERO_X_EXCHANGE_PROXY",
      "outputs": [
        {
          "internalType": "address",
          "name": "",
          "type": "address"
        }
      ],
      "stateMutability": "view",
      "type": "function"
    },
    {
      "inputs": [],
      "name": "accumulatedFees",
      "outputs": [
        {
          "internalType": "uint256",
          "name": "",
          "type": "uint256"
        }
      ],
      "stateMutability": "view",
      "type": "function"
    },
    {
      "inputs": [],
      "name": "depositETH",
      "outputs": [],
      "stateMutability": "payable",
      "type": "function"
    },
    {
      "inputs": [],
      "name": "depositFeeBps",
      "outputs": [
        {
          "internalType": "uint256",
          "name": "",
          "type": "uint256"
        }
      ],
      "stateMutability": "view",
      "type": "function"
    },
    {
      "inputs": [
        {
          "internalType": "address",
          "name": "sellToken",
          "type": "address"
        },
        {
          "internalType": "uint256",
          "name": "sellAmount",
          "type": "uint256"
        },
        {
          "internalType": "bytes",
          "name": "swapCalldata",
          "type": "bytes"
        }
      ],
      "name": "depositWithSwap",
      "outputs": [],
      "stateMutability": "nonpayable",
      "type": "function"
    },
    {
      "inputs": [],
      "name": "getTreasuryStats",
      "outputs": [
        {
          "internalType": "uint256",
          "name": "treasuryETH",
          "type": "uint256"
        },
        {
          "internalType": "uint256",
          "name": "totalSupply",
          "type": "uint256"
        },
        {
          "internalType": "uint256",
          "name": "suitePerETH",
          "type": "uint256"
        }
      ],
      "stateMutability": "view",
      "type": "function"
    },
    {
      "inputs": [],
      "name": "owner",
      "outputs": [
        {
          "internalType": "address",
          "name": "",
          "type": "address"
        }
      ],
      "stateMutability": "view",
      "type": "function"
    },
    {
      "inputs": [
        {
          "internalType": "uint256",
          "name": "ethAmount",
          "type": "uint256"
        }
      ],
      "name": "previewDeposit",
      "outputs": [
        {
          "internalType": "uint256",
          "name": "suiteAmount",
          "type": "uint256"
        }
      ],
      "stateMutability": "view",
      "type": "function"
    },
    {
      "inputs": [
        {
          "internalType": "uint256",
          "name": "suiteAmount",
          "type": "uint256"
        }
      ],
      "name": "previewWithdraw",
      "outputs": [
        {
          "internalType": "uint256",
          "name": "ethAmount",
          "type": "uint256"
        }
      ],
      "stateMutability": "view",
      "type": "function"
    },
    {
      "inputs": [],
      "name": "renounceOwnership",
      "outputs": [],
      "stateMutability": "nonpayable",
      "type": "function"
    },
    {
      "inputs": [
        {
          "internalType": "uint256",
          "name": "_depositFeeBps",
          "type": "uint256"
        },
        {
          "internalType": "uint256",
          "name": "_withdrawFeeBps",
          "type": "uint256"
        }
      ],
      "name": "setFees",
      "outputs": [],
      "stateMutability": "nonpayable",
      "type": "function"
    },
    {
      "inputs": [],
      "name": "suiteToken",
      "outputs": [
        {
          "internalType": "contract ISuiteToken",
          "name": "",
          "type": "address"
        }
      ],
      "stateMutability": "view",
      "type": "function"
    },
    {
      "inputs": [],
      "name": "totalTreasuryETH",
      "outputs": [
        {
          "internalType": "uint256",
          "name": "",
          "type": "uint256"
        }
      ],
      "stateMutability": "view",
      "type": "function"
    },
    {
      "inputs": [
        {
          "internalType": "address",
          "name": "newOwner",
          "type": "address"
        }
      ],
      "name": "transferOwnership",
      "outputs": [],
      "stateMutability": "nonpayable",
      "type": "function"
    },
    {
      "inputs": [
        {
          "internalType": "uint256",
          "name": "suiteAmount",
          "type": "uint256"
        }
      ],
      "name": "withdraw",
      "outputs": [],
      "stateMutability": "nonpayable",
      "type": "function"
    },
    {
      "inputs": [],
      "name": "withdrawFeeBps",
      "outputs": [
        {
          "internalType": "uint256",
          "name": "",
          "type": "uint256"
        }
      ],
      "stateMutability": "view",
      "type": "function"
    },
    {
      "inputs": [
        {
          "internalType": "address",
          "name": "to",
          "type": "address"
        }
      ],
      "name": "withdrawFees",
      "outputs": [],
      "stateMutability": "nonpayable",
      "type": "function"
    },
    {
      "stateMutability": "payable",
      "type": "receive"
    }
  ],
  "bytecode": "0x6080604052603260045560326005553480156200001a575f80fd5b50604051620024823803806200248283398181016040528101906200004091906200023b565b805f73ffffffffffffffffffffffffffffffffffffffff168173ffffffffffffffffffffffffffffffffffffffff1603620000b4575f6040517f1e4fbdf7000000000000000000000000000000000000000000000000000000008152600401620000ab919062000291565b60405180910390fd5b620000c5816200011560201b60201c565b50600180819055508160025f6101000a81548173ffffffffffffffffffffffffffffffffffffffff021916908373ffffffffffffffffffffffffffffffffffffffff1602179055505050620002ac565b5f805f9054906101000a900473ffffffffffffffffffffffffffffffffffffffff169050815f806101000a81548173ffffffffffffffffffffffffffffffffffffffff021916908373ffffffffffffffffffffffffffffffffffffffff1602179055508173ffffffffffffffffffffffffffffffffffffffff168173ffffffffffffffffffffffffffffffffffffffff167f8be0079c531659141344cd1fd0a4f28419497f9722a3daafe3b4186f6b6457e060405160405180910390a35050565b5f80fd5b5f73ffffffffffffffffffffffffffffffffffffffff82169050919050565b5f6200020582620001da565b9050919050565b6200021781620001f9565b811462000222575f80fd5b50565b5f8151905062000235816200020c565b92915050565b5f8060408385031215620002545762000253620001d6565b5b5f620002638582860162000225565b9250506020620002768582860162000225565b9150509250929050565b6200028b81620001f9565b82525050565b5f602082019050620002a65f83018462000280565b92915050565b6121c880620002ba5f395ff3fe608060405260043610610117575f3560e01c80637aca2b591161009f578063c8692e3f11610063578063c8692e3f14610364578063e1a4521814610390578063ef8b30f7146103ba578063f2fde38b146103f6578063f6326fb31461041e5761011e565b80637aca2b59146102925780638da5cb5b146102bc578063a22b6e8f146102e6578063ab87982714610310578063b9865c221461033a5761011e565b80632e1a7d4d116100e65780632e1a7d4d146101d65780634dbac733146101fe57806355c7aaeb14610228578063587f5ed714610252578063715018a61461027c5761011e565b80630a28a477146101225780630b78f9c01461015e578063164e68de146101865780632540c464146101ae5761011e565b3661011e57005b5f80fd5b34801561012d575f80fd5b50610148600480360381019061014391906116c8565b610428565b6040516101559190611702565b60405180910390f35b348015610169575f80fd5b50610184600480360381019061017f919061171b565b610546565b005b348015610191575f80fd5b506101ac60048036038101906101a791906117b3565b6105ea565b005b3480156101b9575f80fd5b506101d460048036038101906101cf919061183f565b61073c565b005b3480156101e1575f80fd5b506101fc60048036038101906101f791906116c8565b610b12565b005b348015610209575f80fd5b50610212610ee9565b60405161021f9190611702565b60405180910390f35b348015610233575f80fd5b5061023c610ef7565b6040516102499190611702565b60405180910390f35b34801561025d575f80fd5b50610266610efd565b6040516102739190611702565b60405180910390f35b348015610287575f80fd5b50610290610f03565b005b34801561029d575f80fd5b506102a6610f16565b6040516102b39190611702565b60405180910390f35b3480156102c7575f80fd5b506102d0610f1c565b6040516102dd91906118bf565b60405180910390f35b3480156102f1575f80fd5b506102fa610f43565b6040516103079190611933565b60405180910390f35b34801561031b575f80fd5b50610324610f68565b6040516103319190611702565b60405180910390f35b348015610345575f80fd5b5061034e610f6e565b60405161035b91906118bf565b60405180910390f35b34801561036f575f80fd5b50610378610f80565b6040516103879392919061194c565b60405180910390f35b34801561039b575f80fd5b506103a4611076565b6040516103b19190611702565b60405180910390f35b3480156103c5575f80fd5b506103e060048036038101906103db91906116c8565b61107c565b6040516103ed9190611702565b60405180910390f35b348015610401575f80fd5b5061041c600480360381019061041791906117b3565b6110bc565b005b610426611140565b005b5f8060025f9054906101000a900473ffffffffffffffffffffffffffffffffffffffff1673ffffffffffffffffffffffffffffffffffffffff166318160ddd6040518163ffffffff1660e01b8152600401602060405180830381865afa158015610494573d5f803e3d5ffd5b505050506040513d601f19601f820116820180604052508101906104b89190611995565b90505f81036104ca575f915050610541565b5f81670de0b6b3a7640000856104e091906119ed565b6104ea9190611a5b565b90505f670de0b6b3a76400006003548361050491906119ed565b61050e9190611a5b565b90505f6127106005548361052291906119ed565b61052c9190611a5b565b9050808261053a9190611a8b565b9450505050505b919050565b61054e6112d9565b6101f4821115610593576040517f08c379a000000000000000000000000000000000000000000000000000000000815260040161058a90611b18565b60405180910390fd5b6101f48111156105d8576040517f08c379a00000000000000000000000000000000000000000000000000000000081526004016105cf90611b80565b60405180910390fd5b81600481905550806005819055505050565b6105f26112d9565b5f60065490505f811161063a576040517f08c379a000000000000000000000000000000000000000000000000000000000815260040161063190611be8565b60405180910390fd5b5f6006819055505f8273ffffffffffffffffffffffffffffffffffffffff168260405161066690611c33565b5f6040518083038185875af1925050503d805f81146106a0576040519150601f19603f3d011682016040523d82523d5f602084013e6106a5565b606091505b50509050806106e9576040517f08c379a00000000000000000000000000000000000000000000000000000000081526004016106e090611c91565b60405180910390fd5b8273ffffffffffffffffffffffffffffffffffffffff167fc0819c13be868895eb93e40eaceb96de976442fa1d404e5c55f14bb65a8c489a8360405161072f9190611702565b60405180910390a2505050565b610744611360565b5f8311610786576040517f08c379a000000000000000000000000000000000000000000000000000000000815260040161077d90611cf9565b60405180910390fd5b5f73ffffffffffffffffffffffffffffffffffffffff168473ffffffffffffffffffffffffffffffffffffffff16036107f4576040517f08c379a00000000000000000000000000000000000000000000000000000000081526004016107eb90611d61565b60405180910390fd5b6108213330858773ffffffffffffffffffffffffffffffffffffffff166113a6909392919063ffffffff16565b8373ffffffffffffffffffffffffffffffffffffffff1663095ea7b36d1ff3684f28c67538d4d072c22734856040518363ffffffff1660e01b815260040161086a929190611d7f565b6020604051808303815f875af1158015610886573d5f803e3d5ffd5b505050506040513d601f19601f820116820180604052508101906108aa9190611ddb565b505f4790505f6d1ff3684f28c67538d4d072c2273473ffffffffffffffffffffffffffffffffffffffff1684846040516108e5929190611e38565b5f604051808303815f865af19150503d805f811461091e576040519150601f19603f3d011682016040523d82523d5f602084013e610923565b606091505b5050905080610967576040517f08c379a000000000000000000000000000000000000000000000000000000000815260040161095e90611e9a565b60405180910390fd5b5f82476109749190611a8b565b90505f81116109b8576040517f08c379a00000000000000000000000000000000000000000000000000000000081526004016109af90611f02565b60405180910390fd5b5f612710600454836109ca91906119ed565b6109d49190611a5b565b90505f81836109e39190611a8b565b90508160065f8282546109f69190611f20565b925050819055505f610a0782611428565b90508160035f828254610a1a9190611f20565b9250508190555060025f9054906101000a900473ffffffffffffffffffffffffffffffffffffffff1673ffffffffffffffffffffffffffffffffffffffff166340c10f1933836040518363ffffffff1660e01b8152600401610a7d929190611d7f565b5f604051808303815f87803b158015610a94575f80fd5b505af1158015610aa6573d5f803e3d5ffd5b505050503373ffffffffffffffffffffffffffffffffffffffff167f42bb14de55eb1c7f89142d92138be23673e7bb24ec361db6fbf2b70eade141bb8b8b8785604051610af69493929190611f53565b60405180910390a2505050505050610b0c611521565b50505050565b610b1a611360565b5f8111610b5c576040517f08c379a0000000000000000000000000000000000000000000000000000000008152600401610b5390611cf9565b60405180910390fd5b5f60025f9054906101000a900473ffffffffffffffffffffffffffffffffffffffff1673ffffffffffffffffffffffffffffffffffffffff166318160ddd6040518163ffffffff1660e01b8152600401602060405180830381865afa158015610bc7573d5f803e3d5ffd5b505050506040513d601f19601f82011682018060405250810190610beb9190611995565b90505f8111610c2f576040517f08c379a0000000000000000000000000000000000000000000000000000000008152600401610c2690611fe0565b60405180910390fd5b5f81670de0b6b3a764000084610c4591906119ed565b610c4f9190611a5b565b90505f670de0b6b3a764000060035483610c6991906119ed565b610c739190611a5b565b90505f61271060055483610c8791906119ed565b610c919190611a5b565b90505f8183610ca09190611a8b565b90508160065f828254610cb39190611f20565b925050819055505f8111610cfc576040517f08c379a0000000000000000000000000000000000000000000000000000000008152600401610cf390612048565b60405180910390fd5b82471015610d3f576040517f08c379a0000000000000000000000000000000000000000000000000000000008152600401610d36906120b0565b60405180910390fd5b8260035f828254610d509190611a8b565b9250508190555060025f9054906101000a900473ffffffffffffffffffffffffffffffffffffffff1673ffffffffffffffffffffffffffffffffffffffff166379cc679033886040518363ffffffff1660e01b8152600401610db3929190611d7f565b5f604051808303815f87803b158015610dca575f80fd5b505af1158015610ddc573d5f803e3d5ffd5b505050505f3373ffffffffffffffffffffffffffffffffffffffff1682604051610e0590611c33565b5f6040518083038185875af1925050503d805f8114610e3f576040519150601f19603f3d011682016040523d82523d5f602084013e610e44565b606091505b5050905080610e88576040517f08c379a0000000000000000000000000000000000000000000000000000000008152600401610e7f90612118565b60405180910390fd5b3373ffffffffffffffffffffffffffffffffffffffff167f92ccf450a286a957af52509bc1c9939d1a6a481783e142e41e2499f0bb66ebc68884604051610ed0929190612136565b60405180910390a2505050505050610ee6611521565b50565b69d3c21bcecceda100000081565b60035481565b60065481565b610f0b6112d9565b610f145f61152a565b565b60055481565b5f805f9054906101000a900473ffffffffffffffffffffffffffffffffffffffff16905090565b60025f9054906101000a900473ffffffffffffffffffffffffffffffffffffffff1681565b60045481565b6d1ff3684f28c67538d4d072c2273481565b5f805f600354925060025f9054906101000a900473ffffffffffffffffffffffffffffffffffffffff1673ffffffffffffffffffffffffffffffffffffffff166318160ddd6040518163ffffffff1660e01b8152600401602060405180830381865afa158015610ff2573d5f803e3d5ffd5b505050506040513d601f19601f820116820180604052508101906110169190611995565b91505f83148061102557505f82145b1561104f57670de0b6b3a764000069d3c21bcecceda10000006110489190611a5b565b9050611071565b82670de0b6b3a76400008361106491906119ed565b61106e9190611a5b565b90505b909192565b61271081565b5f806127106004548461108f91906119ed565b6110999190611a5b565b90505f81846110a89190611a8b565b90506110b381611428565b92505050919050565b6110c46112d9565b5f73ffffffffffffffffffffffffffffffffffffffff168173ffffffffffffffffffffffffffffffffffffffff1603611134575f6040517f1e4fbdf700000000000000000000000000000000000000000000000000000000815260040161112b91906118bf565b60405180910390fd5b61113d8161152a565b50565b611148611360565b5f341161118a576040517f08c379a000000000000000000000000000000000000000000000000000000000815260040161118190611cf9565b60405180910390fd5b5f6127106004543461119c91906119ed565b6111a69190611a5b565b90505f81346111b59190611a8b565b90508160065f8282546111c89190611f20565b925050819055505f6111d982611428565b90508160035f8282546111ec9190611f20565b9250508190555060025f9054906101000a900473ffffffffffffffffffffffffffffffffffffffff1673ffffffffffffffffffffffffffffffffffffffff166340c10f1933836040518363ffffffff1660e01b815260040161124f929190611d7f565b5f604051808303815f87803b158015611266575f80fd5b505af1158015611278573d5f803e3d5ffd5b505050503373ffffffffffffffffffffffffffffffffffffffff167fb9f28a03aea3165eb6be29a19377e5e423ffcb5cfdd0d9a66b252b14b9cc741834836040516112c4929190612136565b60405180910390a25050506112d7611521565b565b6112e16115eb565b73ffffffffffffffffffffffffffffffffffffffff166112ff610f1c565b73ffffffffffffffffffffffffffffffffffffffff161461135e576113226115eb565b6040517f118cdaa700000000000000000000000000000000000000000000000000000000815260040161135591906118bf565b60405180910390fd5b565b60026001540361139c576040517f3ee5aeb500000000000000000000000000000000000000000000000000000000815260040160405180910390fd5b6002600181905550565b611422848573ffffffffffffffffffffffffffffffffffffffff166323b872dd8686866040516024016113db9392919061215d565b604051602081830303815290604052915060e01b6020820180517bffffffffffffffffffffffffffffffffffffffffffffffffffffffff83818316178352505050506115f2565b50505050565b5f8060025f9054906101000a900473ffffffffffffffffffffffffffffffffffffffff1673ffffffffffffffffffffffffffffffffffffffff166318160ddd6040518163ffffffff1660e01b8152600401602060405180830381865afa158015611494573d5f803e3d5ffd5b505050506040513d601f19601f820116820180604052508101906114b89190611995565b90505f60035414806114c957505f81145b156114ff57670de0b6b3a764000069d3c21bcecceda1000000846114ed91906119ed565b6114f79190611a5b565b91505061151c565b600354818461150e91906119ed565b6115189190611a5b565b9150505b919050565b60018081905550565b5f805f9054906101000a900473ffffffffffffffffffffffffffffffffffffffff169050815f806101000a81548173ffffffffffffffffffffffffffffffffffffffff021916908373ffffffffffffffffffffffffffffffffffffffff1602179055508173ffffffffffffffffffffffffffffffffffffffff168173ffffffffffffffffffffffffffffffffffffffff167f8be0079c531659141344cd1fd0a4f28419497f9722a3daafe3b4186f6b6457e060405160405180910390a35050565b5f33905090565b5f8060205f8451602086015f885af180611611576040513d5f823e3d81fd5b3d92505f519150505f821461162a576001811415611645565b5f8473ffffffffffffffffffffffffffffffffffffffff163b145b1561168757836040517f5274afe700000000000000000000000000000000000000000000000000000000815260040161167e91906118bf565b60405180910390fd5b50505050565b5f80fd5b5f80fd5b5f819050919050565b6116a781611695565b81146116b1575f80fd5b50565b5f813590506116c28161169e565b92915050565b5f602082840312156116dd576116dc61168d565b5b5f6116ea848285016116b4565b91505092915050565b6116fc81611695565b82525050565b5f6020820190506117155f8301846116f3565b92915050565b5f80604083850312156117315761173061168d565b5b5f61173e858286016116b4565b925050602061174f858286016116b4565b9150509250929050565b5f73ffffffffffffffffffffffffffffffffffffffff82169050919050565b5f61178282611759565b9050919050565b61179281611778565b811461179c575f80fd5b50565b5f813590506117ad81611789565b92915050565b5f602082840312156117c8576117c761168d565b5b5f6117d58482850161179f565b91505092915050565b5f80fd5b5f80fd5b5f80fd5b5f8083601f8401126117ff576117fe6117de565b5b8235905067ffffffffffffffff81111561181c5761181b6117e2565b5b602083019150836001820283011115611838576118376117e6565b5b9250929050565b5f805f80606085870312156118575761185661168d565b5b5f6118648782880161179f565b9450506020611875878288016116b4565b935050604085013567ffffffffffffffff81111561189657611895611691565b5b6118a2878288016117ea565b925092505092959194509250565b6118b981611778565b82525050565b5f6020820190506118d25f8301846118b0565b92915050565b5f819050919050565b5f6118fb6118f66118f184611759565b6118d8565b611759565b9050919050565b5f61190c826118e1565b9050919050565b5f61191d82611902565b9050919050565b61192d81611913565b82525050565b5f6020820190506119465f830184611924565b92915050565b5f60608201905061195f5f8301866116f3565b61196c60208301856116f3565b61197960408301846116f3565b949350505050565b5f8151905061198f8161169e565b92915050565b5f602082840312156119aa576119a961168d565b5b5f6119b784828501611981565b91505092915050565b7f4e487b71000000000000000000000000000000000000000000000000000000005f52601160045260245ffd5b5f6119f782611695565b9150611a0283611695565b9250828202611a1081611695565b91508282048414831517611a2757611a266119c0565b5b5092915050565b7f4e487b71000000000000000000000000000000000000000000000000000000005f52601260045260245ffd5b5f611a6582611695565b9150611a7083611695565b925082611a8057611a7f611a2e565b5b828204905092915050565b5f611a9582611695565b9150611aa083611695565b9250828203905081811115611ab857611ab76119c0565b5b92915050565b5f82825260208201905092915050565b7f4465706f7369742066656520746f6f20686967680000000000000000000000005f82015250565b5f611b02601483611abe565b9150611b0d82611ace565b602082019050919050565b5f6020820190508181035f830152611b2f81611af6565b9050919050565b7f57697468647261772066656520746f6f206869676800000000000000000000005f82015250565b5f611b6a601583611abe565b9150611b7582611b36565b602082019050919050565b5f6020820190508181035f830152611b9781611b5e565b9050919050565b7f4e6f2066656573000000000000000000000000000000000000000000000000005f82015250565b5f611bd2600783611abe565b9150611bdd82611b9e565b602082019050919050565b5f6020820190508181035f830152611bff81611bc6565b9050919050565b5f81905092915050565b50565b5f611c1e5f83611c06565b9150611c2982611c10565b5f82019050919050565b5f611c3d82611c13565b9150819050919050565b7f5472616e73666572206661696c656400000000000000000000000000000000005f82015250565b5f611c7b600f83611abe565b9150611c8682611c47565b602082019050919050565b5f6020820190508181035f830152611ca881611c6f565b9050919050565b7f416d6f756e74206d757374206265203e203000000000000000000000000000005f82015250565b5f611ce3601283611abe565b9150611cee82611caf565b602082019050919050565b5f6020820190508181035f830152611d1081611cd7565b9050919050565b7f496e76616c696420746f6b656e000000000000000000000000000000000000005f82015250565b5f611d4b600d83611abe565b9150611d5682611d17565b602082019050919050565b5f6020820190508181035f830152611d7881611d3f565b9050919050565b5f604082019050611d925f8301856118b0565b611d9f60208301846116f3565b9392505050565b5f8115159050919050565b611dba81611da6565b8114611dc4575f80fd5b50565b5f81519050611dd581611db1565b92915050565b5f60208284031215611df057611def61168d565b5b5f611dfd84828501611dc7565b91505092915050565b828183375f83830152505050565b5f611e1f8385611c06565b9350611e2c838584611e06565b82840190509392505050565b5f611e44828486611e14565b91508190509392505050565b7f30782073776170206661696c65640000000000000000000000000000000000005f82015250565b5f611e84600e83611abe565b9150611e8f82611e50565b602082019050919050565b5f6020820190508181035f830152611eb181611e78565b9050919050565b7f4e6f204554482072656365697665642066726f6d2073776170000000000000005f82015250565b5f611eec601983611abe565b9150611ef782611eb8565b602082019050919050565b5f6020820190508181035f830152611f1981611ee0565b9050919050565b5f611f2a82611695565b9150611f3583611695565b9250828201905080821115611f4d57611f4c6119c0565b5b92915050565b5f608082019050611f665f8301876118b0565b611f7360208301866116f3565b611f8060408301856116f3565b611f8d60608301846116f3565b95945050505050565b7f4e6f20535549544520696e2063697263756c6174696f6e0000000000000000005f82015250565b5f611fca601783611abe565b9150611fd582611f96565b602082019050919050565b5f6020820190508181035f830152611ff781611fbe565b9050919050565b7f5769746864726177616c20746f6f20736d616c6c0000000000000000000000005f82015250565b5f612032601483611abe565b915061203d82611ffe565b602082019050919050565b5f6020820190508181035f83015261205f81612026565b9050919050565b7f496e73756666696369656e7420747265617375727900000000000000000000005f82015250565b5f61209a601583611abe565b91506120a582612066565b602082019050919050565b5f6020820190508181035f8301526120c78161208e565b9050919050565b7f455448207472616e73666572206661696c6564000000000000000000000000005f82015250565b5f612102601383611abe565b915061210d826120ce565b602082019050919050565b5f6020820190508181035f83015261212f816120f6565b9050919050565b5f6040820190506121495f8301856116f3565b61215660208301846116f3565b9392505050565b5f6060820190506121705f8301866118b0565b61217d60208301856118b0565b61218a60408301846116f3565b94935050505056fea26469706673582212206e019c5feee6c11b5b818b35e783ee944e50a718c3394dfaded13e8dce195c3064736f6c63430008140033",
  "linkReferences": {},
  "deployedLinkReferences": {},
  "immutableReferences": {},
  "inputSourceName": "project/src/TreasuryV4.sol",
  "buildInfoId": "solc-0_8_20-fdbf3065286bcf72d6c72fed0540a4751c17f12b"
}