{"project/src/TreasuryV4.sol":{"TreasuryV4":{"abi":[{"inputs":[{"internalType":"address","name":"_suiteToken","type":"address"},{"internalType":"address","name":"_owner","type":"address"}],"stateMutability":"nonpayable","type":"constructor"},{"inputs":[{"internalType":"address","name":"owner","type":"address"}],"name":"OwnableInvalidOwner","type":"error"},{"inputs":[{"internalType":"address","name":"account","type":"address"}],"name":"OwnableUnauthorizedAccount","type":"error"},{"inputs":[],"name":"ReentrancyGuardReentrantCall","type":"error"},{"inputs":[{"internalType":"address","name":"token","type":"address"}],"name":"SafeERC20FailedOperation","type":"error"},{"anonymous":false,"inputs":[{"indexed":true,"internalType":"address","name":"user","type":"address"},{"indexed":false,"internalType":"uint256","name":"ethAmount","type":"uint256"},{"indexed":false,"internalType":"uint256","name":"suiteMinted","type":"uint256"}],"name":"DepositedETH","type":"event"},{"anonymous":false,"inputs":[{"indexed":true,"internalType":"address","name":"user","type":"address"},{"indexed":false,"internalType":"address","name":"token","type":"address"},{"indexed":false,"internalType":"uint256","name":"tokenAmount","type":"uint256"},{"indexed":false,"internalType":"uint256","name":"ethReceived","type":"uint256"},{"indexed":false,"internalType":"uint256","name":"suiteMinted","type":"uint256"}],"name":"DepositedWithSwap","type":"event"},{"anonymous":false,"inputs":[{"indexed":true,"internalType":"address","name":"to","type":"address"},{"indexed":false,"internalType":"uint256","name":"amount","type":"uint256"}],"name":"FeesWithdrawn","type":"event"},{"anonymous":false,"inputs":[{"indexed":true,"internalType":"address","name":"previousOwner","type":"address"},{"indexed":true,"internalType":"address","name":"newOwner","type":"address"}],"name":"OwnershipTransferred","type":"event"},{"anonymous":false,"inputs":[{"indexed":true,"internalType":"address","name":"user","type":"address"},{"indexed":false,"internalType":"uint256","name":"suiteBurned","type":"uint256"},{"indexed":false,"internalType":"uint256","name":"ethReturned","type":"uint256"}],"name":"Withdrawn","type":"event"},{"inputs":[],"name":"BPS_DENOMINATOR","outputs":[{"internalType":"uint256","name":"","type":"uint256"}],"stateMutability":"view","type":"function"},{"inputs":[],"name":"INITIAL_RATE","outputs":[{"internalType":"uint256","name":"","type":"uint256"}],"stateMutability":"view","type":"function"},{"inputs":[],"name":"ZERO_X_EXCHANGE_PROXY","outputs":[{"internalType":"address","name":"","type":"address"}],"stateMutability":"view","type":"function"},{"inputs":[],"name":"accumulatedFees","outputs":[{"internalType":"uint256","name":"","type":"uint256"}],"stateMutability":"view","type":"function"},{"inputs":[],"name":"depositETH","outputs":[],"stateMutability":"payable","type":"function"},{"inputs":[],"name":"depositFeeBps","outputs":[{"internalType":"uint256","name":"","type":"uint256"}],"stateMutability":"view","type":"function"},{"inputs":[{"internalType":"address","name":"sellToken","type":"address"},{"internalType":"uint256","name":"sellAmount","type":"uint256"},{"internalType":"bytes","name":"swapCalldata","type":"bytes"}],"name":"depositWithSwap","outputs":[],"stateMutability":"nonpayable","type":"function"},{"inputs":[],"name":"getTreasuryStats","outputs":[{"internalType":"uint256","name":"treasuryETH","type":"uint256"},{"internalType":"uint256","name":"totalSupply","type":"uint256"},{"internalType":"uint256","name":"suitePerETH","type":"uint256"}],"stateMutability":"view","type":"function"},{"inputs":[],"name":"owner","outputs":[{"internalType":"address","name":"","type":"address"}],"stateMutability":"view","type":"function"},{"inputs":[{"internalType":"uint256","name":"ethAmount","type":"uint256"}],"name":"previewDeposit","outputs":[{"internalType":"uint256","name":"suiteAmount","type":"uint256"}],"stateMutability":"view","type":"function"},{"inputs":[{"internalType":"uint256","name":"suiteAmount","type":"uint256"}],"name":"previewWithdraw","outputs":[{"internalType":"uint256","name":"ethAmount","type":"uint256"}],"stateMutability":"view","type":"function"},{"inputs":[],"name":"renounceOwnership","outputs":[],"stateMutability":"nonpayable","type":"function"},{"inputs":[{"internalType":"uint256","name":"_depositFeeBps","type":"uint256"},{"internalType":"uint256","name":"_withdrawFeeBps","type":"uint256"}],"name":"setFees","outputs":[],"stateMutability":"nonpayable","type":"function"},{"inputs":[],"name":"suiteToken","outputs":[{"internalType":"contract ISuiteToken","name":"","type":"address"}],"stateMutability":"view","type":"function"},{"inputs":[],"name":"totalTreasuryETH","outputs":[{"internalType":"uint256","name":"","type":"uint256"}],"stateMutability":"view","type":"function"},{"inputs":[{"internalType":"address","name":"newOwner","type":"address"}],"name":"transferOwnership","outputs":[],"stateMutability":"nonpayable","type":"function"},{"inputs":[{"internalType":"uint256","name":"suiteAmount","type":"uint256"}],"name":"withdraw","outputs":[],"stateMutability":"nonpayable","type":"function"},{"inputs":[],"name":"withdrawFeeBps","outputs":[{"internalType":"uint256","name":"","type":"uint256"}],"stateMutability":"view","type":"function"},{"inputs":[{"internalType":"address","name":"to","type":"address"}],"name":"withdrawFees","outputs":[],"stateMutability":"nonpayable","type":"function"},{"stateMutability":"payable","type":"receive"}],"evm":{"bytecode":{"linkReferences":{},"object":"6080604052603260045560326005553480156200001a575f80fd5b50604051620024823803806200248283398181016040528101906200004091906200023b565b805f73ffffffffffffffffffffffffffffffffffffffff168173ffffffffffffffffffffffffffffffffffffffff1603620000b4575f6040517f1e4fbdf7000000000000000000000000000000000000000000000000000000008152600401620000ab919062000291565b60405180910390fd5b620000c5816200011560201b60201c565b50600180819055508160025f6101000a81548173ffffffffffffffffffffffffffffffffffffffff021916908373ffffffffffffffffffffffffffffffffffffffff1602179055505050620002ac565b5f805f9054906101000a900473ffffffffffffffffffffffffffffffffffffffff169050815f806101000a81548173ffffffffffffffffffffffffffffffffffffffff021916908373ffffffffffffffffffffffffffffffffffffffff1602179055508173ffffffffffffffffffffffffffffffffffffffff168173ffffffffffffffffffffffffffffffffffffffff167f8be0079c531659141344cd1fd0a4f28419497f9722a3daafe3b4186f6b6457e060405160405180910390a35050565b5f80fd5b5f73ffffffffffffffffffffffffffffffffffffffff82169050919050565b5f6200020582620001da565b9050919050565b6200021781620001f9565b811462000222575f80fd5b50565b5f8151905062000235816200020c565b92915050565b5f8060408385031215620002545762000253620001d6565b5b5f620002638582860162000225565b9250506020620002768582860162000225565b9150509250929050565b6200028b81620001f9565b82525050565b5f602082019050620002a65f83018462000280565b92915050565b6121c880620002ba5f395ff3fe608060405260043610610117575f3560e01c80637aca2b591161009f578063c8692e3f11610063578063c8692e3f14610364578063e1a4521814610390578063ef8b30f7146103ba578063f2fde38b146103f6578063f6326fb31461041e5761011e565b80637aca2b59146102925780638da5cb5b146102bc578063a22b6e8f146102e6578063ab87982714610310578063b9865c221461033a5761011e565b80632e1a7d4d116100e65780632e1a7d4d146101d65780634dbac733146101fe57806355c7aaeb14610228578063587f5ed714610252578063715018a61461027c5761011e565b80630a28a477146101225780630b78f9c01461015e578063164e68de146101865780632540c464146101ae5761011e565b3661011e57005b5f80fd5b34801561012d575f80fd5b50610148600480360381019061014391906116c8565b610428565b6040516101559190611702565b60405180910390f35b348015610169575f80fd5b50610184600480360381019061017f919061171b565b610546565b005b348015610191575f80fd5b506101ac60048036038101906101a791906117b3565b6105ea565b005b3480156101b9575f80fd5b506101d460048036038101906101cf919061183f565b61073c565b005b3480156101e1575f80fd5b506101fc60048036038101906101f791906116c8565b610b12565b005b348015610209575f80fd5b50610212610ee9565b60405161021f9190611702565b60405180910390f35b348015610233575f80fd5b5061023c610ef7565b6040516102499190611702565b60405180910390f35b34801561025d575f80fd5b50610266610efd565b6040516102739190611702565b60405180910390f35b348015610287575f80fd5b50610290610f03565b005b34801561029d575f80fd5b506102a6610f16565b6040516102b39190611702565b60405180910390f35b3480156102c7575f80fd5b506102d0610f1c565b6040516102dd91906118bf565b60405180910390f35b3480156102f1575f80fd5b506102fa610f43565b6040516103079190611933565b60405180910390f35b34801561031b575f80fd5b50610324610f68565b6040516103319190611702565b60405180910390f35b348015610345575f80fd5b5061034e610f6e565b60405161035b91906118bf565b60405180910390f35b34801561036f575f80fd5b50610378610f80565b6040516103879392919061194c565b60405180910390f35b34801561039b575f80fd5b506103a4611076565b6040516103b19190611702565b60405180910390f35b3480156103c5575f80fd5b506103e060048036038101906103db91906116c8565b61107c565b6040516103ed9190611702565b60405180910390f35b348015610401575f80fd5b5061041c600480360381019061041791906117b3565b6110bc565b005b610426611140565b005b5f8060025f9054906101000a900473ffffffffffffffffffffffffffffffffffffffff1673ffffffffffffffffffffffffffffffffffffffff166318160ddd6040518163ffffffff1660e01b8152600401602060405180830381865afa158015610494573d5f803e3d5ffd5b505050506040513d601f19601f820116820180604052508101906104b89190611995565b90505f81036104ca575f915050610541565b5f81670de0b6b3a7640000856104e091906119ed565b6104ea9190611a5b565b90505f670de0b6b3a76400006003548361050491906119ed565b61050e9190611a5b565b90505f6127106005548361052291906119ed565b61052c9190611a5b565b9050808261053a9190611a8b565b9450505050505b919050565b61054e6112d9565b6101f4821115610593576040517f08c379a000000000000000000000000000000000000000000000000000000000815260040161058a90611b18565b60405180910390fd5b6101f48111156105d8576040517f08c379a00000000000000000000000000000000000000000000000000000000081526004016105cf90611b80565b60405180910390fd5b81600481905550806005819055505050565b6105f26112d9565b5f60065490505f811161063a576040517f08c379a000000000000000000000000000000000000000000000000000000000815260040161063190611be8565b60405180910390fd5b5f6006819055505f8273ffffffffffffffffffffffffffffffffffffffff168260405161066690611c33565b5f6040518083038185875af1925050503d805f81146106a0576040519150601f19603f3d011682016040523d82523d5f602084013e6106a5565b606091505b50509050806106e9576040517f08c379a00000000000000000000000000000000000000000000000000000000081526004016106e090611c91565b60405180910390fd5b8273ffffffffffffffffffffffffffffffffffffffff167fc0819c13be868895eb93e40eaceb96de976442fa1d404e5c55f14bb65a8c489a8360405161072f9190611702565b60405180910390a2505050565b610744611360565b5f8311610786576040517f08c379a000000000000000000000000000000000000000000000000000000000815260040161077d90611cf9565b60405180910390fd5b5f73ffffffffffffffffffffffffffffffffffffffff168473ffffffffffffffffffffffffffffffffffffffff16036107f4576040517f08c379a00000000000000000000000000000000000000000000000000000000081526004016107eb90611d61565b60405180910390fd5b6108213330858773ffffffffffffffffffffffffffffffffffffffff166113a6909392919063ffffffff16565b8373ffffffffffffffffffffffffffffffffffffffff1663095ea7b36d1ff3684f28c67538d4d072c22734856040518363ffffffff1660e01b815260040161086a929190611d7f565b6020604051808303815f875af1158015610886573d5f803e3d5ffd5b505050506040513d601f19601f820116820180604052508101906108aa9190611ddb565b505f4790505f6d1ff3684f28c67538d4d072c2273473ffffffffffffffffffffffffffffffffffffffff1684846040516108e5929190611e38565b5f604051808303815f865af19150503d805f811461091e576040519150601f19603f3d011682016040523d82523d5f602084013e610923565b606091505b5050905080610967576040517f08c379a000000000000000000000000000000000000000000000000000000000815260040161095e90611e9a565b60405180910390fd5b5f82476109749190611a8b565b90505f81116109b8576040517f08c379a00000000000000000000000000000000000000000000000000000000081526004016109af90611f02565b60405180910390fd5b5f612710600454836109ca91906119ed565b6109d49190611a5b565b90505f81836109e39190611a8b565b90508160065f8282546109f69190611f20565b925050819055505f610a0782611428565b90508160035f828254610a1a9190611f20565b9250508190555060025f9054906101000a900473ffffffffffffffffffffffffffffffffffffffff1673ffffffffffffffffffffffffffffffffffffffff166340c10f1933836040518363ffffffff1660e01b8152600401610a7d929190611d7f565b5f604051808303815f87803b158015610a94575f80fd5b505af1158015610aa6573d5f803e3d5ffd5b505050503373ffffffffffffffffffffffffffffffffffffffff167f42bb14de55eb1c7f89142d92138be23673e7bb24ec361db6fbf2b70eade141bb8b8b8785604051610af69493929190611f53565b60405180910390a2505050505050610b0c611521565b50505050565b610b1a611360565b5f8111610b5c576040517f08c379a0000000000000000000000000000000000000000000000000000000008152600401610b5390611cf9565b60405180910390fd5b5f60025f9054906101000a900473ffffffffffffffffffffffffffffffffffffffff1673ffffffffffffffffffffffffffffffffffffffff166318160ddd6040518163ffffffff1660e01b8152600401602060405180830381865afa158015610bc7573d5f803e3d5ffd5b505050506040513d601f19601f82011682018060405250810190610beb9190611995565b90505f8111610c2f576040517f08c379a0000000000000000000000000000000000000000000000000000000008152600401610c2690611fe0565b60405180910390fd5b5f81670de0b6b3a764000084610c4591906119ed565b610c4f9190611a5b565b90505f670de0b6b3a764000060035483610c6991906119ed565b610c739190611a5b565b90505f61271060055483610c8791906119ed565b610c919190611a5b565b90505f8183610ca09190611a8b565b90508160065f828254610cb39190611f20565b925050819055505f8111610cfc576040517f08c379a0000000000000000000000000000000000000000000000000000000008152600401610cf390612048565b60405180910390fd5b82471015610d3f576040517f08c379a0000000000000000000000000000000000000000000000000000000008152600401610d36906120b0565b60405180910390fd5b8260035f828254610d509190611a8b565b9250508190555060025f9054906101000a900473ffffffffffffffffffffffffffffffffffffffff1673ffffffffffffffffffffffffffffffffffffffff166379cc679033886040518363ffffffff1660e01b8152600401610db3929190611d7f565b5f604051808303815f87803b158015610dca575f80fd5b505af1158015610ddc573d5f803e3d5ffd5b505050505f3373ffffffffffffffffffffffffffffffffffffffff1682604051610e0590611c33565b5f6040518083038185875af1925050503d805f8114610e3f576040519150601f19603f3d011682016040523d82523d5f602084013e610e44565b606091505b5050905080610e88576040517f08c379a0000000000000000000000000000000000000000000000000000000008152600401610e7f90612118565b60405180910390fd5b3373ffffffffffffffffffffffffffffffffffffffff167f92ccf450a286a957af52509bc1c9939d1a6a481783e142e41e2499f0bb66ebc68884604051610ed0929190612136565b60405180910390a2505050505050610ee6611521565b50565b69d3c21bcecceda100000081565b60035481565b60065481565b610f0b6112d9565b610f145f61152a565b565b60055481565b5f805f9054906101000a900473ffffffffffffffffffffffffffffffffffffffff16905090565b60025f9054906101000a900473ffffffffffffffffffffffffffffffffffffffff1681565b60045481565b6d1ff3684f28c67538d4d072c2273481565b5f805f600354925060025f9054906101000a900473ffffffffffffffffffffffffffffffffffffffff1673ffffffffffffffffffffffffffffffffffffffff166318160ddd6040518163ffffffff1660e01b8152600401602060405180830381865afa158015610ff2573d5f803e3d5ffd5b505050506040513d601f19601f820116820180604052508101906110169190611995565b91505f83148061102557505f82145b1561104f57670de0b6b3a764000069d3c21bcecceda10000006110489190611a5b565b9050611071565b82670de0b6b3a76400008361106491906119ed565b61106e9190611a5b565b90505b909192565b61271081565b5f806127106004548461108f91906119ed565b6110999190611a5b565b90505f81846110a89190611a8b565b90506110b381611428565b92505050919050565b6110c46112d9565b5f73ffffffffffffffffffffffffffffffffffffffff168173ffffffffffffffffffffffffffffffffffffffff1603611134575f6040517f1e4fbdf700000000000000000000000000000000000000000000000000000000815260040161112b91906118bf565b60405180910390fd5b61113d8161152a565b50565b611148611360565b5f341161118a576040517f08c379a000000000000000000000000000000000000000000000000000000000815260040161118190611cf9565b60405180910390fd5b5f6127106004543461119c91906119ed565b6111a69190611a5b565b90505f81346111b59190611a8b565b90508160065f8282546111c89190611f20565b925050819055505f6111d982611428565b90508160035f8282546111ec9190611f20565b9250508190555060025f9054906101000a900473ffffffffffffffffffffffffffffffffffffffff1673ffffffffffffffffffffffffffffffffffffffff166340c10f1933836040518363ffffffff1660e01b815260040161124f929190611d7f565b5f604051808303815f87803b158015611266575f80fd5b505af1158015611278573d5f803e3d5ffd5b505050503373ffffffffffffffffffffffffffffffffffffffff167fb9f28a03aea3165eb6be29a19377e5e423ffcb5cfdd0d9a66b252b14b9cc741834836040516112c4929190612136565b60405180910390a25050506112d7611521565b565b6112e16115eb565b73ffffffffffffffffffffffffffffffffffffffff166112ff610f1c565b73ffffffffffffffffffffffffffffffffffffffff161461135e576113226115eb565b6040517f118cdaa700000000000000000000000000000000000000000000000000000000815260040161135591906118bf565b60405180910390fd5b565b60026001540361139c576040517f3ee5aeb500000000000000000000000000000000000000000000000000000000815260040160405180910390fd5b6002600181905550565b611422848573ffffffffffffffffffffffffffffffffffffffff166323b872dd8686866040516024016113db9392919061215d565b604051602081830303815290604052915060e01b6020820180517bffffffffffffffffffffffffffffffffffffffffffffffffffffffff83818316178352505050506115f2565b50505050565b5f8060025f9054906101000a900473ffffffffffffffffffffffffffffffffffffffff1673ffffffffffffffffffffffffffffffffffffffff166318160ddd6040518163ffffffff1660e01b8152600401602060405180830381865afa158015611494573d5f803e3d5ffd5b505050506040513d601f19601f820116820180604052508101906114b89190611995565b90505f60035414806114c957505f81145b156114ff57670de0b6b3a764000069d3c21bcecceda1000000846114ed91906119ed565b6114f79190611a5b565b91505061151c565b600354818461150e91906119ed565b6115189190611a5b565b9150505b919050565b60018081905550565b5f805f9054906101000a900473ffffffffffffffffffffffffffffffffffffffff169050815f806101000a81548173ffffffffffffffffffffffffffffffffffffffff021916908373ffffffffffffffffffffffffffffffffffffffff1602179055508173ffffffffffffffffffffffffffffffffffffffff168173ffffffffffffffffffffffffffffffffffffffff167f8be0079c531659141344cd1fd0a4f28419497f9722a3daafe3b4186f6b6457e060405160405180910390a35050565b5f33905090565b5f8060205f8451602086015f885af180611611576040513d5f823e3d81fd5b3d92505f519150505f821461162a576001811415611645565b5f8473ffffffffffffffffffffffffffffffffffffffff163b145b1561168757836040517f5274afe700000000000000000000000000000000000000000000000000000000815260040161167e91906118bf565b60405180910390fd5b50505050565b5f80fd5b5f80fd5b5f819050919050565b6116a781611695565b81146116b1575f80fd5b50565b5f813590506116c28161169e565b92915050565b5f602082840312156116dd576116dc61168d565b5b5f6116ea848285016116b4565b91505092915050565b6116fc81611695565b82525050565b5f6020820190506117155f8301846116f3565b92915050565b5f80604083850312156117315761173061168d565b5b5f61173e858286016116b4565b925050602061174f858286016116b4565b9150509250929050565b5f73ffffffffffffffffffffffffffffffffffffffff82169050919050565b5f61178282611759565b9050919050565b61179281611778565b811461179c575f80fd5b50565b5f813590506117ad81611789565b92915050565b5f602082840312156117c8576117c761168d565b5b5f6117d58482850161179f565b91505092915050565b5f80fd5b5f80fd5b5f80fd5b5f8083601f8401126117ff576117fe6117de565b5b8235905067ffffffffffffffff81111561181c5761181b6117e2565b5b602083019150836001820283011115611838576118376117e6565b5b9250929050565b5f805f80606085870312156118575761185661168d565b5b5f6118648782880161179f565b9450506020611875878288016116b4565b935050604085013567ffffffffffffffff81111561189657611895611691565b5b6118a2878288016117ea565b925092505092959194509250565b6118b981611778565b82525050565b5f6020820190506118d25f8301846118b0565b92915050565b5f819050919050565b5f6118fb6118f66118f184611759565b6118d8565b611759565b9050919050565b5f61190c826118e1565b9050919050565b5f61191d82611902565b9050919050565b61192d81611913565b82525050565b5f6020820190506119465f830184611924565b92915050565b5f60608201905061195f5f8301866116f3565b61196c60208301856116f3565b61197960408301846116f3565b949350505050565b5f8151905061198f8161169e565b92915050565b5f602082840312156119aa576119a961168d565b5b5f6119b784828501611981565b91505092915050565b7f4e487b71000000000000000000000000000000000000000000000000000000005f52601160045260245ffd5b5f6119f782611695565b9150611a0283611695565b9250828202611a1081611695565b91508282048414831517611a2757611a266119c0565b5b5092915050565b7f4e487b71000000000000000000000000000000000000000000000000000000005f52601260045260245ffd5b5f611a6582611695565b9150611a7083611695565b925082611a8057611a7f611a2e565b5b828204905092915050565b5f611a9582611695565b9150611aa083611695565b9250828203905081811115611ab857611ab76119c0565b5b92915050565b5f82825260208201905092915050565b7f4465706f7369742066656520746f6f20686967680000000000000000000000005f82015250565b5f611b02601483611abe565b9150611b0d82611ace565b602082019050919050565b5f6020820190508181035f830152611b2f81611af6565b9050919050565b7f57697468647261772066656520746f6f206869676800000000000000000000005f82015250565b5f611b6a601583611abe565b9150611b7582611b36565b602082019050919050565b5f6020820190508181035f830152611b9781611b5e565b9050919050565b7f4e6f2066656573000000000000000000000000000000000000000000000000005f82015250565b5f611bd2600783611abe565b9150611bdd82611b9e565b602082019050919050565b5f6020820190508181035f830152611bff81611bc6565b9050919050565b5f81905092915050565b50565b5f611c1e5f83611c06565b9150611c2982611c10565b5f82019050919050565b5f611c3d82611c13565b9150819050919050565b7f5472616e73666572206661696c656400000000000000000000000000000000005f82015250565b5f611c7b600f83611abe565b9150611c8682611c47565b602082019050919050565b5f6020820190508181035f830152611ca881611c6f565b9050919050565b7f416d6f756e74206d757374206265203e203000000000000000000000000000005f82015250565b5f611ce3601283611abe565b9150611cee82611caf565b602082019050919050565b5f6020820190508181035f830152611d1081611cd7565b9050919050565b7f496e76616c696420746f6b656e000000000000000000000000000000000000005f82015250565b5f611d4b600d83611abe565b9150611d5682611d17565b602082019050919050565b5f6020820190508181035f830152611d7881611d3f565b9050919050565b5f604082019050611d925f8301856118b0565b611d9f60208301846116f3565b9392505050565b5f8115159050919050565b611dba81611da6565b8114611dc4575f80fd5b50565b5f81519050611dd581611db1565b92915050565b5f60208284031215611df057611def61168d565b5b5f611dfd84828501611dc7565b91505092915050565b828183375f83830152505050565b5f611e1f8385611c06565b9350611e2c838584611e06565b82840190509392505050565b5f611e44828486611e14565b91508190509392505050565b7f30782073776170206661696c65640000000000000000000000000000000000005f82015250565b5f611e84600e83611abe565b9150611e8f82611e50565b602082019050919050565b5f6020820190508181035f830152611eb181611e78565b9050919050565b7f4e6f204554482072656365697665642066726f6d2073776170000000000000005f82015250565b5f611eec601983611abe565b9150611ef782611eb8565b602082019050919050565b5f6020820190508181035f830152611f1981611ee0565b9050919050565b5f611f2a82611695565b9150611f3583611695565b9250828201905080821115611f4d57611f4c6119c0565b5b92915050565b5f608082019050611f665f8301876118b0565b611f7360208301866116f3565b611f8060408301856116f3565b611f8d60608301846116f3565b95945050505050565b7f4e6f20535549544520696e2063697263756c6174696f6e0000000000000000005f82015250565b5f611fca601783611abe565b9150611fd582611f96565b602082019050919050565b5f6020820190508181035f830152611ff781611fbe565b9050919050565b7f5769746864726177616c20746f6f20736d616c6c0000000000000000000000005f82015250565b5f612032601483611abe565b915061203d82611ffe565b602082019050919050565b5f6020820190508181035f83015261205f81612026565b9050919050565b7f496e73756666696369656e7420747265617375727900000000000000000000005f82015250565b5f61209a601583611abe565b91506120a582612066565b602082019050919050565b5f6020820190508181035f8301526120c78161208e565b9050919050565b7f455448207472616e73666572206661696c6564000000000000000000000000005f82015250565b5f612102601383611abe565b915061210d826120ce565b602082019050919050565b5f6020820190508181035f83015261212f816120f6565b9050919050565b5f6040820190506121495f8301856116f3565b61215660208301846116f3565b9392505050565b5f6060820190506121705f8301866118b0565b61217d60208301856118b0565b61218a60408301846116f3565b94935050505056fea26469706673582212206e019c5feee6c11b5b818b35e783ee944e50a718c3394dfaded13e8dce195c3064736f6c63430008140033","opcodes":"PUSH1 0x80 PUSH1 0x40 MSTORE PUSH1 0x32 PUSH1 0x4 SSTORE PUSH1 0x32 PUSH1 0x5 SSTORE CALLVALUE DUP1 ISZERO PUSH3 0x1A JUMPI PUSH0 DUP1 REVERT JUMPDEST POP PUSH1 0x40 MLOAD PUSH3 0x2482 CODESIZE SUB DUP1 PUSH3 0x2482 DUP4 CODECOPY DUP2 DUP2 ADD PUSH1 0x40 MSTORE DUP2 ADD SWAP1 PUSH3 0x40 SWAP2 SWAP1 PUSH3 0x23B JUMP JUMPDEST DUP1 PUSH0 PUSH20 0xFFFFFFFFFFFFFFFFFFFFFFFFFFFFFFFFFFFFFFFF AND DUP2 PUSH20 0xFFFFFFFFFFFFFFFFFFFFFFFFFFFFFFFFFFFFFFFF AND SUB PUSH3 0xB4 JUMPI PUSH0 PUSH1 0x40 MLOAD PUSH32 0x1E4FBDF700000000000000000000000000000000000000000000000000000000 DUP2 MSTORE PUSH1 0x4 ADD PUSH3 0xAB SWAP2 SWAP1 PUSH3 0x291 JUMP JUMPDEST PUSH1 0x40 MLOAD DUP1 SWAP2 SUB SWAP1 REVERT JUMPDEST PUSH3 0xC5 DUP2 PUSH3 0x115 PUSH1 0x20 SHL PUSH1 0x20 SHR JUMP JUMPDEST POP PUSH1 0x1 DUP1 DUP2 SWAP1 SSTORE POP DUP2 PUSH1 0x2 PUSH0 PUSH2 0x100 EXP DUP2 SLOAD DUP2 PUSH20 0xFFFFFFFFFFFFFFFFFFFFFFFFFFFFFFFFFFFFFFFF MUL NOT AND SWAP1 DUP4 PUSH20 0xFFFFFFFFFFFFFFFFFFFFFFFFFFFFFFFFFFFFFFFF AND MUL OR SWAP1 SSTORE POP POP POP PUSH3 0x2AC JUMP JUMPDEST PUSH0 DUP1 PUSH0 SWAP1 SLOAD SWAP1 PUSH2 0x100 EXP SWAP1 DIV PUSH20 0xFFFFFFFFFFFFFFFFFFFFFFFFFFFFFFFFFFFFFFFF AND SWAP1 POP DUP2 PUSH0 DUP1 PUSH2 0x100 EXP DUP2 SLOAD DUP2 PUSH20 0xFFFFFFFFFFFFFFFFFFFFFFFFFFFFFFFFFFFFFFFF MUL NOT AND SWAP1 DUP4 PUSH20 0xFFFFFFFFFFFFFFFFFFFFFFFFFFFFFFFFFFFFFFFF AND MUL OR SWAP1 SSTORE POP DUP2 PUSH20 0xFFFFFFFFFFFFFFFFFFFFFFFFFFFFFFFFFFFFFFFF AND DUP2 PUSH20 0xFFFFFFFFFFFFFFFFFFFFFFFFFFFFFFFFFFFFFFFF AND PUSH32 0x8BE0079C531659141344CD1FD0A4F28419497F9722A3DAAFE3B4186F6B6457E0 PUSH1 0x40 MLOAD PUSH1 0x40 MLOAD DUP1 SWAP2 SUB SWAP1 LOG3 POP POP JUMP JUMPDEST PUSH0 DUP1 REVERT JUMPDEST PUSH0 PUSH20 0xFFFFFFFFFFFFFFFFFFFFFFFFFFFFFFFFFFFFFFFF DUP3 AND SWAP1 POP SWAP2 SWAP1 POP JUMP JUMPDEST PUSH0 PUSH3 0x205 DUP3 PUSH3 0x1DA JUMP JUMPDEST SWAP1 POP SWAP2 SWAP1 POP JUMP JUMPDEST PUSH3 0x217 DUP2 PUSH3 0x1F9 JUMP JUMPDEST DUP2 EQ PUSH3 0x222 JUMPI PUSH0 DUP1 REVERT JUMPDEST POP JUMP JUMPDEST PUSH0 DUP2 MLOAD SWAP1 POP PUSH3 0x235 DUP2 PUSH3 0x20C JUMP JUMPDEST SWAP3 SWAP2 POP POP JUMP JUMPDEST PUSH0 DUP1 PUSH1 0x40 DUP4 DUP6 SUB SLT ISZERO PUSH3 0x254 JUMPI PUSH3 0x253 PUSH3 0x1D6 JUMP JUMPDEST JUMPDEST PUSH0 PUSH3 0x263 DUP6 DUP3 DUP7 ADD PUSH3 0x225 JUMP JUMPDEST SWAP3 POP POP PUSH1 0x20 PUSH3 0x276 DUP6 DUP3 DUP7 ADD PUSH3 0x225 JUMP JUMPDEST SWAP2 POP POP SWAP3 POP SWAP3 SWAP1 POP JUMP JUMPDEST PUSH3 0x28B DUP2 PUSH3 0x1F9 JUMP JUMPDEST DUP3 MSTORE POP POP JUMP JUMPDEST PUSH0 PUSH1 0x20 DUP3 ADD SWAP1 POP PUSH3 0x2A6 PUSH0 DUP4 ADD DUP5 PUSH3 0x280 JUMP JUMPDEST SWAP3 SWAP2 POP POP JUMP JUMPDEST PUSH2 0x21C8 DUP1 PUSH3 0x2BA PUSH0 CODECOPY PUSH0 RETURN INVALID PUSH1 0x80 PUSH1 0x40 MSTORE PUSH1 0x4 CALLDATASIZE LT PUSH2 0x117 JUMPI PUSH0 CALLDATALOAD PUSH1 0xE0 SHR DUP1 PUSH4 0x7ACA2B59 GT PUSH2 0x9F JUMPI DUP1 PUSH4 0xC8692E3F GT PUSH2 0x63 JUMPI DUP1 PUSH4 0xC8692E3F EQ PUSH2 0x364 JUMPI DUP1 PUSH4 0xE1A45218 EQ PUSH2 0x390 JUMPI DUP1 PUSH4 0xEF8B30F7 EQ PUSH2 0x3BA JUMPI DUP1 PUSH4 0xF2FDE38B EQ PUSH2 0x3F6 JUMPI DUP1 PUSH4 0xF6326FB3 EQ PUSH2 0x41E JUMPI PUSH2 0x11E JUMP JUMPDEST DUP1 PUSH4 0x7ACA2B59 EQ PUSH2 0x292 JUMPI DUP1 PUSH4 0x8DA5CB5B EQ PUSH2 0x2BC JUMPI DUP1 PUSH4 0xA22B6E8F EQ PUSH2 0x2E6 JUMPI DUP1 PUSH4 0xAB879827 EQ PUSH2 0x310 JUMPI DUP1 PUSH4 0xB9865C22 EQ PUSH2 0x33A JUMPI PUSH2 0x11E JUMP JUMPDEST DUP1 PUSH4 0x2E1A7D4D GT PUSH2 0xE6 JUMPI DUP1 PUSH4 0x2E1A7D4D EQ PUSH2 0x1D6 JUMPI DUP1 PUSH4 0x4DBAC733 EQ PUSH2 0x1FE JUMPI DUP1 PUSH4 0x55C7AAEB EQ PUSH2 0x228 JUMPI DUP1 PUSH4 0x587F5ED7 EQ PUSH2 0x252 JUMPI DUP1 PUSH4 0x715018A6 EQ PUSH2 0x27C JUMPI PUSH2 0x11E JUMP JUMPDEST DUP1 PUSH4 0xA28A477 EQ PUSH2 0x122 JUMPI DUP1 PUSH4 0xB78F9C0 EQ PUSH2 0x15E JUMPI DUP1 PUSH4 0x164E68DE EQ PUSH2 0x186 JUMPI DUP1 PUSH4 0x2540C464 EQ PUSH2 0x1AE JUMPI PUSH2 0x11E JUMP JUMPDEST CALLDATASIZE PUSH2 0x11E JUMPI STOP JUMPDEST PUSH0 DUP1 REVERT JUMPDEST CALLVALUE DUP1 ISZERO PUSH2 0x12D JUMPI PUSH0 DUP1 REVERT JUMPDEST POP PUSH2 0x148 PUSH1 0x4 DUP1 CALLDATASIZE SUB DUP2 ADD SWAP1 PUSH2 0x143 SWAP2 SWAP1 PUSH2 0x16C8 JUMP JUMPDEST PUSH2 0x428 JUMP JUMPDEST PUSH1 0x40 MLOAD PUSH2 0x155 SWAP2 SWAP1 PUSH2 0x1702 JUMP JUMPDEST PUSH1 0x40 MLOAD DUP1 SWAP2 SUB SWAP1 RETURN JUMPDEST CALLVALUE DUP1 ISZERO PUSH2 0x169 JUMPI PUSH0 DUP1 REVERT JUMPDEST POP PUSH2 0x184 PUSH1 0x4 DUP1 CALLDATASIZE SUB DUP2 ADD SWAP1 PUSH2 0x17F SWAP2 SWAP1 PUSH2 0x171B JUMP JUMPDEST PUSH2 0x546 JUMP JUMPDEST STOP JUMPDEST CALLVALUE DUP1 ISZERO PUSH2 0x191 JUMPI PUSH0 DUP1 REVERT JUMPDEST POP PUSH2 0x1AC PUSH1 0x4 DUP1 CALLDATASIZE SUB DUP2 ADD SWAP1 PUSH2 0x1A7 SWAP2 SWAP1 PUSH2 0x17B3 JUMP JUMPDEST PUSH2 0x5EA JUMP JUMPDEST STOP JUMPDEST CALLVALUE DUP1 ISZERO PUSH2 0x1B9 JUMPI PUSH0 DUP1 REVERT JUMPDEST POP PUSH2 0x1D4 PUSH1 0x4 DUP1 CALLDATASIZE SUB DUP2 ADD SWAP1 PUSH2 0x1CF SWAP2 SWAP1 PUSH2 0x183F JUMP JUMPDEST PUSH2 0x73C JUMP JUMPDEST STOP JUMPDEST CALLVALUE DUP1 ISZERO PUSH2 0x1E1 JUMPI PUSH0 DUP1 REVERT JUMPDEST POP PUSH2 0x1FC PUSH1 0x4 DUP1 CALLDATASIZE SUB DUP2 ADD SWAP1 PUSH2 0x1F7 SWAP2 SWAP1 PUSH2 0x16C8 JUMP JUMPDEST PUSH2 0xB12 JUMP JUMPDEST STOP JUMPDEST CALLVALUE DUP1 ISZERO PUSH2 0x209 JUMPI PUSH0 DUP1 REVERT JUMPDEST POP PUSH2 0x212 PUSH2 0xEE9 JUMP JUMPDEST PUSH1 0x40 MLOAD PUSH2 0x21F SWAP2 SWAP1 PUSH2 0x1702 JUMP JUMPDEST PUSH1 0x40 MLOAD DUP1 SWAP2 SUB SWAP1 RETURN JUMPDEST CALLVALUE DUP1 ISZERO PUSH2 0x233 JUMPI PUSH0 DUP1 REVERT JUMPDEST POP PUSH2 0x23C PUSH2 0xEF7 JUMP JUMPDEST PUSH1 0x40 MLOAD PUSH2 0x249 SWAP2 SWAP1 PUSH2 0x1702 JUMP JUMPDEST PUSH1 0x40 MLOAD DUP1 SWAP2 SUB SWAP1 RETURN JUMPDEST CALLVALUE DUP1 ISZERO PUSH2 0x25D JUMPI PUSH0 DUP1 REVERT JUMPDEST POP PUSH2 0x266 PUSH2 0xEFD JUMP JUMPDEST PUSH1 0x40 MLOAD PUSH2 0x273 SWAP2 SWAP1 PUSH2 0x1702 JUMP JUMPDEST PUSH1 0x40 MLOAD DUP1 SWAP2 SUB SWAP1 RETURN JUMPDEST CALLVALUE DUP1 ISZERO PUSH2 0x287 JUMPI PUSH0 DUP1 REVERT JUMPDEST POP PUSH2 0x290 PUSH2 0xF03 JUMP JUMPDEST STOP JUMPDEST CALLVALUE DUP1 ISZERO PUSH2 0x29D JUMPI PUSH0 DUP1 REVERT JUMPDEST POP PUSH2 0x2A6 PUSH2 0xF16 JUMP JUMPDEST PUSH1 0x40 MLOAD PUSH2 0x2B3 SWAP2 SWAP1 PUSH2 0x1702 JUMP JUMPDEST PUSH1 0x40 MLOAD DUP1 SWAP2 SUB SWAP1 RETURN JUMPDEST CALLVALUE DUP1 ISZERO PUSH2 0x2C7 JUMPI PUSH0 DUP1 REVERT JUMPDEST POP PUSH2 0x2D0 PUSH2 0xF1C JUMP JUMPDEST PUSH1 0x40 MLOAD PUSH2 0x2DD SWAP2 SWAP1 PUSH2 0x18BF JUMP JUMPDEST PUSH1 0x40 MLOAD DUP1 SWAP2 SUB SWAP1 RETURN JUMPDEST CALLVALUE DUP1 ISZERO PUSH2 0x2F1 JUMPI PUSH0 DUP1 REVERT JUMPDEST POP PUSH2 0x2FA PUSH2 0xF43 JUMP JUMPDEST PUSH1 0x40 MLOAD PUSH2 0x307 SWAP2 SWAP1 PUSH2 0x1933 JUMP JUMPDEST PUSH1 0x40 MLOAD DUP1 SWAP2 SUB SWAP1 RETURN JUMPDEST CALLVALUE DUP1 ISZERO PUSH2 0x31B JUMPI PUSH0 DUP1 REVERT JUMPDEST POP PUSH2 0x324 PUSH2 0xF68 JUMP JUMPDEST PUSH1 0x40 MLOAD PUSH2 0x331 SWAP2 SWAP1 PUSH2 0x1702 JUMP JUMPDEST PUSH1 0x40 MLOAD DUP1 SWAP2 SUB SWAP1 RETURN JUMPDEST CALLVALUE DUP1 ISZERO PUSH2 0x345 JUMPI PUSH0 DUP1 REVERT JUMPDEST POP PUSH2 0x34E PUSH2 0xF6E JUMP JUMPDEST PUSH1 0x40 MLOAD PUSH2 0x35B SWAP2 SWAP1 PUSH2 0x18BF JUMP JUMPDEST PUSH1 0x40 MLOAD DUP1 SWAP2 SUB SWAP1 RETURN JUMPDEST CALLVALUE DUP1 ISZERO PUSH2 0x36F JUMPI PUSH0 DUP1 REVERT JUMPDEST POP PUSH2 0x378 PUSH2 0xF80 JUMP JUMPDEST PUSH1 0x40 MLOAD PUSH2 0x387 SWAP4 SWAP3 SWAP2 SWAP1 PUSH2 0x194C JUMP JUMPDEST PUSH1 0x40 MLOAD DUP1 SWAP2 SUB SWAP1 RETURN JUMPDEST CALLVALUE DUP1 ISZERO PUSH2 0x39B JUMPI PUSH0 DUP1 REVERT JUMPDEST POP PUSH2 0x3A4 PUSH2 0x1076 JUMP JUMPDEST PUSH1 0x40 MLOAD PUSH2 0x3B1 SWAP2 SWAP1 PUSH2 0x1702 JUMP JUMPDEST PUSH1 0x40 MLOAD DUP1 SWAP2 SUB SWAP1 RETURN JUMPDEST CALLVALUE DUP1 ISZERO PUSH2 0x3C5 JUMPI PUSH0 DUP1 REVERT JUMPDEST POP PUSH2 0x3E0 PUSH1 0x4 DUP1 CALLDATASIZE SUB DUP2 ADD SWAP1 PUSH2 0x3DB SWAP2 SWAP1 PUSH2 0x16C8 JUMP JUMPDEST PUSH2 0x107C JUMP JUMPDEST PUSH1 0x40 MLOAD PUSH2 0x3ED SWAP2 SWAP1 PUSH2 0x1702 JUMP JUMPDEST PUSH1 0x40 MLOAD DUP1 SWAP2 SUB SWAP1 RETURN JUMPDEST CALLVALUE DUP1 ISZERO PUSH2 0x401 JUMPI PUSH0 DUP1 REVERT JUMPDEST POP PUSH2 0x41C PUSH1 0x4 DUP1 CALLDATASIZE SUB DUP2 ADD SWAP1 PUSH2 0x417 SWAP2 SWAP1 PUSH2 0x17B3 JUMP JUMPDEST PUSH2 0x10BC JUMP JUMPDEST STOP JUMPDEST PUSH2 0x426 PUSH2 0x1140 JUMP JUMPDEST STOP JUMPDEST PUSH0 DUP1 PUSH1 0x2 PUSH0 SWAP1 SLOAD SWAP1 PUSH2 0x100 EXP SWAP1 DIV PUSH20 0xFFFFFFFFFFFFFFFFFFFFFFFFFFFFFFFFFFFFFFFF AND PUSH20 0xFFFFFFFFFFFFFFFFFFFFFFFFFFFFFFFFFFFFFFFF AND PUSH4 0x18160DDD PUSH1 0x40 MLOAD DUP2 PUSH4 0xFFFFFFFF AND PUSH1 0xE0 SHL DUP2 MSTORE PUSH1 0x4 ADD PUSH1 0x20 PUSH1 0x40 MLOAD DUP1 DUP4 SUB DUP2 DUP7 GAS STATICCALL ISZERO DUP1 ISZERO PUSH2 0x494 JUMPI RETURNDATASIZE PUSH0 DUP1 RETURNDATACOPY RETURNDATASIZE PUSH0 REVERT JUMPDEST POP POP POP POP PUSH1 0x40 MLOAD RETURNDATASIZE PUSH1 0x1F NOT PUSH1 0x1F DUP3 ADD AND DUP3 ADD DUP1 PUSH1 0x40 MSTORE POP DUP2 ADD SWAP1 PUSH2 0x4B8 SWAP2 SWAP1 PUSH2 0x1995 JUMP JUMPDEST SWAP1 POP PUSH0 DUP2 SUB PUSH2 0x4CA JUMPI PUSH0 SWAP2 POP POP PUSH2 0x541 JUMP JUMPDEST PUSH0 DUP2 PUSH8 0xDE0B6B3A7640000 DUP6 PUSH2 0x4E0 SWAP2 SWAP1 PUSH2 0x19ED JUMP JUMPDEST PUSH2 0x4EA SWAP2 SWAP1 PUSH2 0x1A5B JUMP JUMPDEST SWAP1 POP PUSH0 PUSH8 0xDE0B6B3A7640000 PUSH1 0x3 SLOAD DUP4 PUSH2 0x504 SWAP2 SWAP1 PUSH2 0x19ED JUMP JUMPDEST PUSH2 0x50E SWAP2 SWAP1 PUSH2 0x1A5B JUMP JUMPDEST SWAP1 POP PUSH0 PUSH2 0x2710 PUSH1 0x5 SLOAD DUP4 PUSH2 0x522 SWAP2 SWAP1 PUSH2 0x19ED JUMP JUMPDEST PUSH2 0x52C SWAP2 SWAP1 PUSH2 0x1A5B JUMP JUMPDEST SWAP1 POP DUP1 DUP3 PUSH2 0x53A SWAP2 SWAP1 PUSH2 0x1A8B JUMP JUMPDEST SWAP5 POP POP POP POP POP JUMPDEST SWAP2 SWAP1 POP JUMP JUMPDEST PUSH2 0x54E PUSH2 0x12D9 JUMP JUMPDEST PUSH2 0x1F4 DUP3 GT ISZERO PUSH2 0x593 JUMPI PUSH1 0x40 MLOAD PUSH32 0x8C379A000000000000000000000000000000000000000000000000000000000 DUP2 MSTORE PUSH1 0x4 ADD PUSH2 0x58A SWAP1 PUSH2 0x1B18 JUMP JUMPDEST PUSH1 0x40 MLOAD DUP1 SWAP2 SUB SWAP1 REVERT JUMPDEST PUSH2 0x1F4 DUP2 GT ISZERO PUSH2 0x5D8 JUMPI PUSH1 0x40 MLOAD PUSH32 0x8C379A000000000000000000000000000000000000000000000000000000000 DUP2 MSTORE PUSH1 0x4 ADD PUSH2 0x5CF SWAP1 PUSH2 0x1B80 JUMP JUMPDEST PUSH1 0x40 MLOAD DUP1 SWAP2 SUB SWAP1 REVERT JUMPDEST DUP2 PUSH1 0x4 DUP2 SWAP1 SSTORE POP DUP1 PUSH1 0x5 DUP2 SWAP1 SSTORE POP POP POP JUMP JUMPDEST PUSH2 0x5F2 PUSH2 0x12D9 JUMP JUMPDEST PUSH0 PUSH1 0x6 SLOAD SWAP1 POP PUSH0 DUP2 GT PUSH2 0x63A JUMPI PUSH1 0x40 MLOAD PUSH32 0x8C379A000000000000000000000000000000000000000000000000000000000 DUP2 MSTORE PUSH1 0x4 ADD PUSH2 0x631 SWAP1 PUSH2 0x1BE8 JUMP JUMPDEST PUSH1 0x40 MLOAD DUP1 SWAP2 SUB SWAP1 REVERT JUMPDEST PUSH0 PUSH1 0x6 DUP2 SWAP1 SSTORE POP PUSH0 DUP3 PUSH20 0xFFFFFFFFFFFFFFFFFFFFFFFFFFFFFFFFFFFFFFFF AND DUP3 PUSH1 0x40 MLOAD PUSH2 0x666 SWAP1 PUSH2 0x1C33 JUMP JUMPDEST PUSH0 PUSH1 0x40 MLOAD DUP1 DUP4 SUB DUP2 DUP6 DUP8 GAS CALL SWAP3 POP POP POP RETURNDATASIZE DUP1 PUSH0 DUP2 EQ PUSH2 0x6A0 JUMPI PUSH1 0x40 MLOAD SWAP2 POP PUSH1 0x1F NOT PUSH1 0x3F RETURNDATASIZE ADD AND DUP3 ADD PUSH1 0x40 MSTORE RETURNDATASIZE DUP3 MSTORE RETURNDATASIZE PUSH0 PUSH1 0x20 DUP5 ADD RETURNDATACOPY PUSH2 0x6A5 JUMP JUMPDEST PUSH1 0x60 SWAP2 POP JUMPDEST POP POP SWAP1 POP DUP1 PUSH2 0x6E9 JUMPI PUSH1 0x40 MLOAD PUSH32 0x8C379A000000000000000000000000000000000000000000000000000000000 DUP2 MSTORE PUSH1 0x4 ADD PUSH2 0x6E0 SWAP1 PUSH2 0x1C91 JUMP JUMPDEST PUSH1 0x40 MLOAD DUP1 SWAP2 SUB SWAP1 REVERT JUMPDEST DUP3 PUSH20 0xFFFFFFFFFFFFFFFFFFFFFFFFFFFFFFFFFFFFFFFF AND PUSH32 0xC0819C13BE868895EB93E40EACEB96DE976442FA1D404E5C55F14BB65A8C489A DUP4 PUSH1 0x40 MLOAD PUSH2 0x72F SWAP2 SWAP1 PUSH2 0x1702 JUMP JUMPDEST PUSH1 0x40 MLOAD DUP1 SWAP2 SUB SWAP1 LOG2 POP POP POP JUMP JUMPDEST PUSH2 0x744 PUSH2 0x1360 JUMP JUMPDEST PUSH0 DUP4 GT PUSH2 0x786 JUMPI PUSH1 0x40 MLOAD PUSH32 0x8C379A000000000000000000000000000000000000000000000000000000000 DUP2 MSTORE PUSH1 0x4 ADD PUSH2 0x77D SWAP1 PUSH2 0x1CF9 JUMP JUMPDEST PUSH1 0x40 MLOAD DUP1 SWAP2 SUB SWAP1 REVERT JUMPDEST PUSH0 PUSH20 0xFFFFFFFFFFFFFFFFFFFFFFFFFFFFFFFFFFFFFFFF AND DUP5 PUSH20 0xFFFFFFFFFFFFFFFFFFFFFFFFFFFFFFFFFFFFFFFF AND SUB PUSH2 0x7F4 JUMPI PUSH1 0x40 MLOAD PUSH32 0x8C379A000000000000000000000000000000000000000000000000000000000 DUP2 MSTORE PUSH1 0x4 ADD PUSH2 0x7EB SWAP1 PUSH2 0x1D61 JUMP JUMPDEST PUSH1 0x40 MLOAD DUP1 SWAP2 SUB SWAP1 REVERT JUMPDEST PUSH2 0x821 CALLER ADDRESS DUP6 DUP8 PUSH20 0xFFFFFFFFFFFFFFFFFFFFFFFFFFFFFFFFFFFFFFFF AND PUSH2 0x13A6 SWAP1 SWAP4 SWAP3 SWAP2 SWAP1 PUSH4 0xFFFFFFFF AND JUMP JUMPDEST DUP4 PUSH20 0xFFFFFFFFFFFFFFFFFFFFFFFFFFFFFFFFFFFFFFFF AND PUSH4 0x95EA7B3 PUSH14 0x1FF3684F28C67538D4D072C22734 DUP6 PUSH1 0x40 MLOAD DUP4 PUSH4 0xFFFFFFFF AND PUSH1 0xE0 SHL DUP2 MSTORE PUSH1 0x4 ADD PUSH2 0x86A SWAP3 SWAP2 SWAP1 PUSH2 0x1D7F JUMP JUMPDEST PUSH1 0x20 PUSH1 0x40 MLOAD DUP1 DUP4 SUB DUP2 PUSH0 DUP8 GAS CALL ISZERO DUP1 ISZERO PUSH2 0x886 JUMPI RETURNDATASIZE PUSH0 DUP1 RETURNDATACOPY RETURNDATASIZE PUSH0 REVERT JUMPDEST POP POP POP POP PUSH1 0x40 MLOAD RETURNDATASIZE PUSH1 0x1F NOT PUSH1 0x1F DUP3 ADD AND DUP3 ADD DUP1 PUSH1 0x40 MSTORE POP DUP2 ADD SWAP1 PUSH2 0x8AA SWAP2 SWAP1 PUSH2 0x1DDB JUMP JUMPDEST POP PUSH0 SELFBALANCE SWAP1 POP PUSH0 PUSH14 0x1FF3684F28C67538D4D072C22734 PUSH20 0xFFFFFFFFFFFFFFFFFFFFFFFFFFFFFFFFFFFFFFFF AND DUP5 DUP5 PUSH1 0x40 MLOAD PUSH2 0x8E5 SWAP3 SWAP2 SWAP1 PUSH2 0x1E38 JUMP JUMPDEST PUSH0 PUSH1 0x40 MLOAD DUP1 DUP4 SUB DUP2 PUSH0 DUP7 GAS CALL SWAP2 POP POP RETURNDATASIZE DUP1 PUSH0 DUP2 EQ PUSH2 0x91E JUMPI PUSH1 0x40 MLOAD SWAP2 POP PUSH1 0x1F NOT PUSH1 0x3F RETURNDATASIZE ADD AND DUP3 ADD PUSH1 0x40 MSTORE RETURNDATASIZE DUP3 MSTORE RETURNDATASIZE PUSH0 PUSH1 0x20 DUP5 ADD RETURNDATACOPY PUSH2 0x923 JUMP JUMPDEST PUSH1 0x60 SWAP2 POP JUMPDEST POP POP SWAP1 POP DUP1 PUSH2 0x967 JUMPI PUSH1 0x40 MLOAD PUSH32 0x8C379A000000000000000000000000000000000000000000000000000000000 DUP2 MSTORE PUSH1 0x4 ADD PUSH2 0x95E SWAP1 PUSH2 0x1E9A JUMP JUMPDEST PUSH1 0x40 MLOAD DUP1 SWAP2 SUB SWAP1 REVERT JUMPDEST PUSH0 DUP3 SELFBALANCE PUSH2 0x974 SWAP2 SWAP1 PUSH2 0x1A8B JUMP JUMPDEST SWAP1 POP PUSH0 DUP2 GT PUSH2 0x9B8 JUMPI PUSH1 0x40 MLOAD PUSH32 0x8C379A000000000000000000000000000000000000000000000000000000000 DUP2 MSTORE PUSH1 0x4 ADD PUSH2 0x9AF SWAP1 PUSH2 0x1F02 JUMP JUMPDEST PUSH1 0x40 MLOAD DUP1 SWAP2 SUB SWAP1 REVERT JUMPDEST PUSH0 PUSH2 0x2710 PUSH1 0x4 SLOAD DUP4 PUSH2 0x9CA SWAP2 SWAP1 PUSH2 0x19ED JUMP JUMPDEST PUSH2 0x9D4 SWAP2 SWAP1 PUSH2 0x1A5B JUMP JUMPDEST SWAP1 POP PUSH0 DUP2 DUP4 PUSH2 0x9E3 SWAP2 SWAP1 PUSH2 0x1A8B JUMP JUMPDEST SWAP1 POP DUP2 PUSH1 0x6 PUSH0 DUP3 DUP3 SLOAD PUSH2 0x9F6 SWAP2 SWAP1 PUSH2 0x1F20 JUMP JUMPDEST SWAP3 POP POP DUP2 SWAP1 SSTORE POP PUSH0 PUSH2 0xA07 DUP3 PUSH2 0x1428 JUMP JUMPDEST SWAP1 POP DUP2 PUSH1 0x3 PUSH0 DUP3 DUP3 SLOAD PUSH2 0xA1A SWAP2 SWAP1 PUSH2 0x1F20 JUMP JUMPDEST SWAP3 POP POP DUP2 SWAP1 SSTORE POP PUSH1 0x2 PUSH0 SWAP1 SLOAD SWAP1 PUSH2 0x100 EXP SWAP1 DIV PUSH20 0xFFFFFFFFFFFFFFFFFFFFFFFFFFFFFFFFFFFFFFFF AND PUSH20 0xFFFFFFFFFFFFFFFFFFFFFFFFFFFFFFFFFFFFFFFF AND PUSH4 0x40C10F19 CALLER DUP4 PUSH1 0x40 MLOAD DUP4 PUSH4 0xFFFFFFFF AND PUSH1 0xE0 SHL DUP2 MSTORE PUSH1 0x4 ADD PUSH2 0xA7D SWAP3 SWAP2 SWAP1 PUSH2 0x1D7F JUMP JUMPDEST PUSH0 PUSH1 0x40 MLOAD DUP1 DUP4 SUB DUP2 PUSH0 DUP8 DUP1 EXTCODESIZE ISZERO DUP1 ISZERO PUSH2 0xA94 JUMPI PUSH0 DUP1 REVERT JUMPDEST POP GAS CALL ISZERO DUP1 ISZERO PUSH2 0xAA6 JUMPI RETURNDATASIZE PUSH0 DUP1 RETURNDATACOPY RETURNDATASIZE PUSH0 REVERT JUMPDEST POP POP POP POP CALLER PUSH20 0xFFFFFFFFFFFFFFFFFFFFFFFFFFFFFFFFFFFFFFFF AND PUSH32 0x42BB14DE55EB1C7F89142D92138BE23673E7BB24EC361DB6FBF2B70EADE141BB DUP12 DUP12 DUP8 DUP6 PUSH1 0x40 MLOAD PUSH2 0xAF6 SWAP5 SWAP4 SWAP3 SWAP2 SWAP1 PUSH2 0x1F53 JUMP JUMPDEST PUSH1 0x40 MLOAD DUP1 SWAP2 SUB SWAP1 LOG2 POP POP POP POP POP POP PUSH2 0xB0C PUSH2 0x1521 JUMP JUMPDEST POP POP POP POP JUMP JUMPDEST PUSH2 0xB1A PUSH2 0x1360 JUMP JUMPDEST PUSH0 DUP2 GT PUSH2 0xB5C JUMPI PUSH1 0x40 MLOAD PUSH32 0x8C379A000000000000000000000000000000000000000000000000000000000 DUP2 MSTORE PUSH1 0x4 ADD PUSH2 0xB53 SWAP1 PUSH2 0x1CF9 JUMP JUMPDEST PUSH1 0x40 MLOAD DUP1 SWAP2 SUB SWAP1 REVERT JUMPDEST PUSH0 PUSH1 0x2 PUSH0 SWAP1 SLOAD SWAP1 PUSH2 0x100 EXP SWAP1 DIV PUSH20 0xFFFFFFFFFFFFFFFFFFFFFFFFFFFFFFFFFFFFFFFF AND PUSH20 0xFFFFFFFFFFFFFFFFFFFFFFFFFFFFFFFFFFFFFFFF AND PUSH4 0x18160DDD PUSH1 0x40 MLOAD DUP2 PUSH4 0xFFFFFFFF AND PUSH1 0xE0 SHL DUP2 MSTORE PUSH1 0x4 ADD PUSH1 0x20 PUSH1 0x40 MLOAD DUP1 DUP4 SUB DUP2 DUP7 GAS STATICCALL ISZERO DUP1 ISZERO PUSH2 0xBC7 JUMPI RETURNDATASIZE PUSH0 DUP1 RETURNDATACOPY RETURNDATASIZE PUSH0 REVERT JUMPDEST POP POP POP POP PUSH1 0x40 MLOAD RETURNDATASIZE PUSH1 0x1F NOT PUSH1 0x1F DUP3 ADD AND DUP3 ADD DUP1 PUSH1 0x40 MSTORE POP DUP2 ADD SWAP1 PUSH2 0xBEB SWAP2 SWAP1 PUSH2 0x1995 JUMP JUMPDEST SWAP1 POP PUSH0 DUP2 GT PUSH2 0xC2F JUMPI PUSH1 0x40 MLOAD PUSH32 0x8C379A000000000000000000000000000000000000000000000000000000000 DUP2 MSTORE PUSH1 0x4 ADD PUSH2 0xC26 SWAP1 PUSH2 0x1FE0 JUMP JUMPDEST PUSH1 0x40 MLOAD DUP1 SWAP2 SUB SWAP1 REVERT JUMPDEST PUSH0 DUP2 PUSH8 0xDE0B6B3A7640000 DUP5 PUSH2 0xC45 SWAP2 SWAP1 PUSH2 0x19ED JUMP JUMPDEST PUSH2 0xC4F SWAP2 SWAP1 PUSH2 0x1A5B JUMP JUMPDEST SWAP1 POP PUSH0 PUSH8 0xDE0B6B3A7640000 PUSH1 0x3 SLOAD DUP4 PUSH2 0xC69 SWAP2 SWAP1 PUSH2 0x19ED JUMP JUMPDEST PUSH2 0xC73 SWAP2 SWAP1 PUSH2 0x1A5B JUMP JUMPDEST SWAP1 POP PUSH0 PUSH2 0x2710 PUSH1 0x5 SLOAD DUP4 PUSH2 0xC87 SWAP2 SWAP1 PUSH2 0x19ED JUMP JUMPDEST PUSH2 0xC91 SWAP2 SWAP1 PUSH2 0x1A5B JUMP JUMPDEST SWAP1 POP PUSH0 DUP2 DUP4 PUSH2 0xCA0 SWAP2 SWAP1 PUSH2 0x1A8B JUMP JUMPDEST SWAP1 POP DUP2 PUSH1 0x6 PUSH0 DUP3 DUP3 SLOAD PUSH2 0xCB3 SWAP2 SWAP1 PUSH2 0x1F20 JUMP JUMPDEST SWAP3 POP POP DUP2 SWAP1 SSTORE POP PUSH0 DUP2 GT PUSH2 0xCFC JUMPI PUSH1 0x40 MLOAD PUSH32 0x8C379A000000000000000000000000000000000000000000000000000000000 DUP2 MSTORE PUSH1 0x4 ADD PUSH2 0xCF3 SWAP1 PUSH2 0x2048 JUMP JUMPDEST PUSH1 0x40 MLOAD DUP1 SWAP2 SUB SWAP1 REVERT JUMPDEST DUP3 SELFBALANCE LT ISZERO PUSH2 0xD3F JUMPI PUSH1 0x40 MLOAD PUSH32 0x8C379A000000000000000000000000000000000000000000000000000000000 DUP2 MSTORE PUSH1 0x4 ADD PUSH2 0xD36 SWAP1 PUSH2 0x20B0 JUMP JUMPDEST PUSH1 0x40 MLOAD DUP1 SWAP2 SUB SWAP1 REVERT JUMPDEST DUP3 PUSH1 0x3 PUSH0 DUP3 DUP3 SLOAD PUSH2 0xD50 SWAP2 SWAP1 PUSH2 0x1A8B JUMP JUMPDEST SWAP3 POP POP DUP2 SWAP1 SSTORE POP PUSH1 0x2 PUSH0 SWAP1 SLOAD SWAP1 PUSH2 0x100 EXP SWAP1 DIV PUSH20 0xFFFFFFFFFFFFFFFFFFFFFFFFFFFFFFFFFFFFFFFF AND PUSH20 0xFFFFFFFFFFFFFFFFFFFFFFFFFFFFFFFFFFFFFFFF AND PUSH4 0x79CC6790 CALLER DUP9 PUSH1 0x40 MLOAD DUP4 PUSH4 0xFFFFFFFF AND PUSH1 0xE0 SHL DUP2 MSTORE PUSH1 0x4 ADD PUSH2 0xDB3 SWAP3 SWAP2 SWAP1 PUSH2 0x1D7F JUMP JUMPDEST PUSH0 PUSH1 0x40 MLOAD DUP1 DUP4 SUB DUP2 PUSH0 DUP8 DUP1 EXTCODESIZE ISZERO DUP1 ISZERO PUSH2 0xDCA JUMPI PUSH0 DUP1 REVERT JUMPDEST POP GAS CALL ISZERO DUP1 ISZERO PUSH2 0xDDC JUMPI RETURNDATASIZE PUSH0 DUP1 RETURNDATACOPY RETURNDATASIZE PUSH0 REVERT JUMPDEST POP POP POP POP PUSH0 CALLER PUSH20 0xFFFFFFFFFFFFFFFFFFFFFFFFFFFFFFFFFFFFFFFF AND DUP3 PUSH1 0x40 MLOAD PUSH2 0xE05 SWAP1 PUSH2 0x1C33 JUMP JUMPDEST PUSH0 PUSH1 0x40 MLOAD DUP1 DUP4 SUB DUP2 DUP6 DUP8 GAS CALL SWAP3 POP POP POP RETURNDATASIZE DUP1 PUSH0 DUP2 EQ PUSH2 0xE3F JUMPI PUSH1 0x40 MLOAD SWAP2 POP PUSH1 0x1F NOT PUSH1 0x3F RETURNDATASIZE ADD AND DUP3 ADD PUSH1 0x40 MSTORE RETURNDATASIZE DUP3 MSTORE RETURNDATASIZE PUSH0 PUSH1 0x20 DUP5 ADD RETURNDATACOPY PUSH2 0xE44 JUMP JUMPDEST PUSH1 0x60 SWAP2 POP JUMPDEST POP POP SWAP1 POP DUP1 PUSH2 0xE88 JUMPI PUSH1 0x40 MLOAD PUSH32 0x8C379A000000000000000000000000000000000000000000000000000000000 DUP2 MSTORE PUSH1 0x4 ADD PUSH2 0xE7F SWAP1 PUSH2 0x2118 JUMP JUMPDEST PUSH1 0x40 MLOAD DUP1 SWAP2 SUB SWAP1 REVERT JUMPDEST CALLER PUSH20 0xFFFFFFFFFFFFFFFFFFFFFFFFFFFFFFFFFFFFFFFF AND PUSH32 0x92CCF450A286A957AF52509BC1C9939D1A6A481783E142E41E2499F0BB66EBC6 DUP9 DUP5 PUSH1 0x40 MLOAD PUSH2 0xED0 SWAP3 SWAP2 SWAP1 PUSH2 0x2136 JUMP JUMPDEST PUSH1 0x40 MLOAD DUP1 SWAP2 SUB SWAP1 LOG2 POP POP POP POP POP POP PUSH2 0xEE6 PUSH2 0x1521 JUMP JUMPDEST POP JUMP JUMPDEST PUSH10 0xD3C21BCECCEDA1000000 DUP2 JUMP JUMPDEST PUSH1 0x3 SLOAD DUP2 JUMP JUMPDEST PUSH1 0x6 SLOAD DUP2 JUMP JUMPDEST PUSH2 0xF0B PUSH2 0x12D9 JUMP JUMPDEST PUSH2 0xF14 PUSH0 PUSH2 0x152A JUMP JUMPDEST JUMP JUMPDEST PUSH1 0x5 SLOAD DUP2 JUMP JUMPDEST PUSH0 DUP1 PUSH0 SWAP1 SLOAD SWAP1 PUSH2 0x100 EXP SWAP1 DIV PUSH20 0xFFFFFFFFFFFFFFFFFFFFFFFFFFFFFFFFFFFFFFFF AND SWAP1 POP SWAP1 JUMP JUMPDEST PUSH1 0x2 PUSH0 SWAP1 SLOAD SWAP1 PUSH2 0x100 EXP SWAP1 DIV PUSH20 0xFFFFFFFFFFFFFFFFFFFFFFFFFFFFFFFFFFFFFFFF AND DUP2 JUMP JUMPDEST PUSH1 0x4 SLOAD DUP2 JUMP JUMPDEST PUSH14 0x1FF3684F28C67538D4D072C22734 DUP2 JUMP JUMPDEST PUSH0 DUP1 PUSH0 PUSH1 0x3 SLOAD SWAP3 POP PUSH1 0x2 PUSH0 SWAP1 SLOAD SWAP1 PUSH2 0x100 EXP SWAP1 DIV PUSH20 0xFFFFFFFFFFFFFFFFFFFFFFFFFFFFFFFFFFFFFFFF AND PUSH20 0xFFFFFFFFFFFFFFFFFFFFFFFFFFFFFFFFFFFFFFFF AND PUSH4 0x18160DDD PUSH1 0x40 MLOAD DUP2 PUSH4 0xFFFFFFFF AND PUSH1 0xE0 SHL DUP2 MSTORE PUSH1 0x4 ADD PUSH1 0x20 PUSH1 0x40 MLOAD DUP1 DUP4 SUB DUP2 DUP7 GAS STATICCALL ISZERO DUP1 ISZERO PUSH2 0xFF2 JUMPI RETURNDATASIZE PUSH0 DUP1 RETURNDATACOPY RETURNDATASIZE PUSH0 REVERT JUMPDEST POP POP POP POP PUSH1 0x40 MLOAD RETURNDATASIZE PUSH1 0x1F NOT PUSH1 0x1F DUP3 ADD AND DUP3 ADD DUP1 PUSH1 0x40 MSTORE POP DUP2 ADD SWAP1 PUSH2 0x1016 SWAP2 SWAP1 PUSH2 0x1995 JUMP JUMPDEST SWAP2 POP PUSH0 DUP4 EQ DUP1 PUSH2 0x1025 JUMPI POP PUSH0 DUP3 EQ JUMPDEST ISZERO PUSH2 0x104F JUMPI PUSH8 0xDE0B6B3A7640000 PUSH10 0xD3C21BCECCEDA1000000 PUSH2 0x1048 SWAP2 SWAP1 PUSH2 0x1A5B JUMP JUMPDEST SWAP1 POP PUSH2 0x1071 JUMP JUMPDEST DUP3 PUSH8 0xDE0B6B3A7640000 DUP4 PUSH2 0x1064 SWAP2 SWAP1 PUSH2 0x19ED JUMP JUMPDEST PUSH2 0x106E SWAP2 SWAP1 PUSH2 0x1A5B JUMP JUMPDEST SWAP1 POP JUMPDEST SWAP1 SWAP2 SWAP3 JUMP JUMPDEST PUSH2 0x2710 DUP2 JUMP JUMPDEST PUSH0 DUP1 PUSH2 0x2710 PUSH1 0x4 SLOAD DUP5 PUSH2 0x108F SWAP2 SWAP1 PUSH2 0x19ED JUMP JUMPDEST PUSH2 0x1099 SWAP2 SWAP1 PUSH2 0x1A5B JUMP JUMPDEST SWAP1 POP PUSH0 DUP2 DUP5 PUSH2 0x10A8 SWAP2 SWAP1 PUSH2 0x1A8B JUMP JUMPDEST SWAP1 POP PUSH2 0x10B3 DUP2 PUSH2 0x1428 JUMP JUMPDEST SWAP3 POP POP POP SWAP2 SWAP1 POP JUMP JUMPDEST PUSH2 0x10C4 PUSH2 0x12D9 JUMP JUMPDEST PUSH0 PUSH20 0xFFFFFFFFFFFFFFFFFFFFFFFFFFFFFFFFFFFFFFFF AND DUP2 PUSH20 0xFFFFFFFFFFFFFFFFFFFFFFFFFFFFFFFFFFFFFFFF AND SUB PUSH2 0x1134 JUMPI PUSH0 PUSH1 0x40 MLOAD PUSH32 0x1E4FBDF700000000000000000000000000000000000000000000000000000000 DUP2 MSTORE PUSH1 0x4 ADD PUSH2 0x112B SWAP2 SWAP1 PUSH2 0x18BF JUMP JUMPDEST PUSH1 0x40 MLOAD DUP1 SWAP2 SUB SWAP1 REVERT JUMPDEST PUSH2 0x113D DUP2 PUSH2 0x152A JUMP JUMPDEST POP JUMP JUMPDEST PUSH2 0x1148 PUSH2 0x1360 JUMP JUMPDEST PUSH0 CALLVALUE GT PUSH2 0x118A JUMPI PUSH1 0x40 MLOAD PUSH32 0x8C379A000000000000000000000000000000000000000000000000000000000 DUP2 MSTORE PUSH1 0x4 ADD PUSH2 0x1181 SWAP1 PUSH2 0x1CF9 JUMP JUMPDEST PUSH1 0x40 MLOAD DUP1 SWAP2 SUB SWAP1 REVERT JUMPDEST PUSH0 PUSH2 0x2710 PUSH1 0x4 SLOAD CALLVALUE PUSH2 0x119C SWAP2 SWAP1 PUSH2 0x19ED JUMP JUMPDEST PUSH2 0x11A6 SWAP2 SWAP1 PUSH2 0x1A5B JUMP JUMPDEST SWAP1 POP PUSH0 DUP2 CALLVALUE PUSH2 0x11B5 SWAP2 SWAP1 PUSH2 0x1A8B JUMP JUMPDEST SWAP1 POP DUP2 PUSH1 0x6 PUSH0 DUP3 DUP3 SLOAD PUSH2 0x11C8 SWAP2 SWAP1 PUSH2 0x1F20 JUMP JUMPDEST SWAP3 POP POP DUP2 SWAP1 SSTORE POP PUSH0 PUSH2 0x11D9 DUP3 PUSH2 0x1428 JUMP JUMPDEST SWAP1 POP DUP2 PUSH1 0x3 PUSH0 DUP3 DUP3 SLOAD PUSH2 0x11EC SWAP2 SWAP1 PUSH2 0x1F20 JUMP JUMPDEST SWAP3 POP POP DUP2 SWAP1 SSTORE POP PUSH1 0x2 PUSH0 SWAP1 SLOAD SWAP1 PUSH2 0x100 EXP SWAP1 DIV PUSH20 0xFFFFFFFFFFFFFFFFFFFFFFFFFFFFFFFFFFFFFFFF AND PUSH20 0xFFFFFFFFFFFFFFFFFFFFFFFFFFFFFFFFFFFFFFFF AND PUSH4 0x40C10F19 CALLER DUP4 PUSH1 0x40 MLOAD DUP4 PUSH4 0xFFFFFFFF AND PUSH1 0xE0 SHL DUP2 MSTORE PUSH1 0x4 ADD PUSH2 0x124F SWAP3 SWAP2 SWAP1 PUSH2 0x1D7F JUMP JUMPDEST PUSH0 PUSH1 0x40 MLOAD DUP1 DUP4 SUB DUP2 PUSH0 DUP8 DUP1 EXTCODESIZE ISZERO DUP1 ISZERO PUSH2 0x1266 JUMPI PUSH0 DUP1 REVERT JUMPDEST POP GAS CALL ISZERO DUP1 ISZERO PUSH2 0x1278 JUMPI RETURNDATASIZE PUSH0 DUP1 RETURNDATACOPY RETURNDATASIZE PUSH0 REVERT JUMPDEST POP POP POP POP CALLER PUSH20 0xFFFFFFFFFFFFFFFFFFFFFFFFFFFFFFFFFFFFFFFF AND PUSH32 0xB9F28A03AEA3165EB6BE29A19377E5E423FFCB5CFDD0D9A66B252B14B9CC7418 CALLVALUE DUP4 PUSH1 0x40 MLOAD PUSH2 0x12C4 SWAP3 SWAP2 SWAP1 PUSH2 0x2136 JUMP JUMPDEST PUSH1 0x40 MLOAD DUP1 SWAP2 SUB SWAP1 LOG2 POP POP POP PUSH2 0x12D7 PUSH2 0x1521 JUMP JUMPDEST JUMP JUMPDEST PUSH2 0x12E1 PUSH2 0x15EB JUMP JUMPDEST PUSH20 0xFFFFFFFFFFFFFFFFFFFFFFFFFFFFFFFFFFFFFFFF AND PUSH2 0x12FF PUSH2 0xF1C JUMP JUMPDEST PUSH20 0xFFFFFFFFFFFFFFFFFFFFFFFFFFFFFFFFFFFFFFFF AND EQ PUSH2 0x135E JUMPI PUSH2 0x1322 PUSH2 0x15EB JUMP JUMPDEST PUSH1 0x40 MLOAD PUSH32 0x118CDAA700000000000000000000000000000000000000000000000000000000 DUP2 MSTORE PUSH1 0x4 ADD PUSH2 0x1355 SWAP2 SWAP1 PUSH2 0x18BF JUMP JUMPDEST PUSH1 0x40 MLOAD DUP1 SWAP2 SUB SWAP1 REVERT JUMPDEST JUMP JUMPDEST PUSH1 0x2 PUSH1 0x1 SLOAD SUB PUSH2 0x139C JUMPI PUSH1 0x40 MLOAD PUSH32 0x3EE5AEB500000000000000000000000000000000000000000000000000000000 DUP2 MSTORE PUSH1 0x4 ADD PUSH1 0x40 MLOAD DUP1 SWAP2 SUB SWAP1 REVERT JUMPDEST PUSH1 0x2 PUSH1 0x1 DUP2 SWAP1 SSTORE POP JUMP JUMPDEST PUSH2 0x1422 DUP5 DUP6 PUSH20 0xFFFFFFFFFFFFFFFFFFFFFFFFFFFFFFFFFFFFFFFF AND PUSH4 0x23B872DD DUP7 DUP7 DUP7 PUSH1 0x40 MLOAD PUSH1 0x24 ADD PUSH2 0x13DB SWAP4 SWAP3 SWAP2 SWAP1 PUSH2 0x215D JUMP JUMPDEST PUSH1 0x40 MLOAD PUSH1 0x20 DUP2 DUP4 SUB SUB DUP2 MSTORE SWAP1 PUSH1 0x40 MSTORE SWAP2 POP PUSH1 0xE0 SHL PUSH1 0x20 DUP3 ADD DUP1 MLOAD PUSH28 0xFFFFFFFFFFFFFFFFFFFFFFFFFFFFFFFFFFFFFFFFFFFFFFFFFFFFFFFF DUP4 DUP2 DUP4 AND OR DUP4 MSTORE POP POP POP POP PUSH2 0x15F2 JUMP JUMPDEST POP POP POP POP JUMP JUMPDEST PUSH0 DUP1 PUSH1 0x2 PUSH0 SWAP1 SLOAD SWAP1 PUSH2 0x100 EXP SWAP1 DIV PUSH20 0xFFFFFFFFFFFFFFFFFFFFFFFFFFFFFFFFFFFFFFFF AND PUSH20 0xFFFFFFFFFFFFFFFFFFFFFFFFFFFFFFFFFFFFFFFF AND PUSH4 0x18160DDD PUSH1 0x40 MLOAD DUP2 PUSH4 0xFFFFFFFF AND PUSH1 0xE0 SHL DUP2 MSTORE PUSH1 0x4 ADD PUSH1 0x20 PUSH1 0x40 MLOAD DUP1 DUP4 SUB DUP2 DUP7 GAS STATICCALL ISZERO DUP1 ISZERO PUSH2 0x1494 JUMPI RETURNDATASIZE PUSH0 DUP1 RETURNDATACOPY RETURNDATASIZE PUSH0 REVERT JUMPDEST POP POP POP POP PUSH1 0x40 MLOAD RETURNDATASIZE PUSH1 0x1F NOT PUSH1 0x1F DUP3 ADD AND DUP3 ADD DUP1 PUSH1 0x40 MSTORE POP DUP2 ADD SWAP1 PUSH2 0x14B8 SWAP2 SWAP1 PUSH2 0x1995 JUMP JUMPDEST SWAP1 POP PUSH0 PUSH1 0x3 SLOAD EQ DUP1 PUSH2 0x14C9 JUMPI POP PUSH0 DUP2 EQ JUMPDEST ISZERO PUSH2 0x14FF JUMPI PUSH8 0xDE0B6B3A7640000 PUSH10 0xD3C21BCECCEDA1000000 DUP5 PUSH2 0x14ED SWAP2 SWAP1 PUSH2 0x19ED JUMP JUMPDEST PUSH2 0x14F7 SWAP2 SWAP1 PUSH2 0x1A5B JUMP JUMPDEST SWAP2 POP POP PUSH2 0x151C JUMP JUMPDEST PUSH1 0x3 SLOAD DUP2 DUP5 PUSH2 0x150E SWAP2 SWAP1 PUSH2 0x19ED JUMP JUMPDEST PUSH2 0x1518 SWAP2 SWAP1 PUSH2 0x1A5B JUMP JUMPDEST SWAP2 POP POP JUMPDEST SWAP2 SWAP1 POP JUMP JUMPDEST PUSH1 0x1 DUP1 DUP2 SWAP1 SSTORE POP JUMP JUMPDEST PUSH0 DUP1 PUSH0 SWAP1 SLOAD SWAP1 PUSH2 0x100 EXP SWAP1 DIV PUSH20 0xFFFFFFFFFFFFFFFFFFFFFFFFFFFFFFFFFFFFFFFF AND SWAP1 POP DUP2 PUSH0 DUP1 PUSH2 0x100 EXP DUP2 SLOAD DUP2 PUSH20 0xFFFFFFFFFFFFFFFFFFFFFFFFFFFFFFFFFFFFFFFF MUL NOT AND SWAP1 DUP4 PUSH20 0xFFFFFFFFFFFFFFFFFFFFFFFFFFFFFFFFFFFFFFFF AND MUL OR SWAP1 SSTORE POP DUP2 PUSH20 0xFFFFFFFFFFFFFFFFFFFFFFFFFFFFFFFFFFFFFFFF AND DUP2 PUSH20 0xFFFFFFFFFFFFFFFFFFFFFFFFFFFFFFFFFFFFFFFF AND PUSH32 0x8BE0079C531659141344CD1FD0A4F28419497F9722A3DAAFE3B4186F6B6457E0 PUSH1 0x40 MLOAD PUSH1 0x40 MLOAD DUP1 SWAP2 SUB SWAP1 LOG3 POP POP JUMP JUMPDEST PUSH0 CALLER SWAP1 POP SWAP1 JUMP JUMPDEST PUSH0 DUP1 PUSH1 0x20 PUSH0 DUP5 MLOAD PUSH1 0x20 DUP7 ADD PUSH0 DUP9 GAS CALL DUP1 PUSH2 0x1611 JUMPI PUSH1 0x40 MLOAD RETURNDATASIZE PUSH0 DUP3 RETURNDATACOPY RETURNDATASIZE DUP2 REVERT JUMPDEST RETURNDATASIZE SWAP3 POP PUSH0 MLOAD SWAP2 POP POP PUSH0 DUP3 EQ PUSH2 0x162A JUMPI PUSH1 0x1 DUP2 EQ ISZERO PUSH2 0x1645 JUMP JUMPDEST PUSH0 DUP5 PUSH20 0xFFFFFFFFFFFFFFFFFFFFFFFFFFFFFFFFFFFFFFFF AND EXTCODESIZE EQ JUMPDEST ISZERO PUSH2 0x1687 JUMPI DUP4 PUSH1 0x40 MLOAD PUSH32 0x5274AFE700000000000000000000000000000000000000000000000000000000 DUP2 MSTORE PUSH1 0x4 ADD PUSH2 0x167E SWAP2 SWAP1 PUSH2 0x18BF JUMP JUMPDEST PUSH1 0x40 MLOAD DUP1 SWAP2 SUB SWAP1 REVERT JUMPDEST POP POP POP POP JUMP JUMPDEST PUSH0 DUP1 REVERT JUMPDEST PUSH0 DUP1 REVERT JUMPDEST PUSH0 DUP2 SWAP1 POP SWAP2 SWAP1 POP JUMP JUMPDEST PUSH2 0x16A7 DUP2 PUSH2 0x1695 JUMP JUMPDEST DUP2 EQ PUSH2 0x16B1 JUMPI PUSH0 DUP1 REVERT JUMPDEST POP JUMP JUMPDEST PUSH0 DUP2 CALLDATALOAD SWAP1 POP PUSH2 0x16C2 DUP2 PUSH2 0x169E JUMP JUMPDEST SWAP3 SWAP2 POP POP JUMP JUMPDEST PUSH0 PUSH1 0x20 DUP3 DUP5 SUB SLT ISZERO PUSH2 0x16DD JUMPI PUSH2 0x16DC PUSH2 0x168D JUMP JUMPDEST JUMPDEST PUSH0 PUSH2 0x16EA DUP5 DUP3 DUP6 ADD PUSH2 0x16B4 JUMP JUMPDEST SWAP2 POP POP SWAP3 SWAP2 POP POP JUMP JUMPDEST PUSH2 0x16FC DUP2 PUSH2 0x1695 JUMP JUMPDEST DUP3 MSTORE POP POP JUMP JUMPDEST PUSH0 PUSH1 0x20 DUP3 ADD SWAP1 POP PUSH2 0x1715 PUSH0 DUP4 ADD DUP5 PUSH2 0x16F3 JUMP JUMPDEST SWAP3 SWAP2 POP POP JUMP JUMPDEST PUSH0 DUP1 PUSH1 0x40 DUP4 DUP6 SUB SLT ISZERO PUSH2 0x1731 JUMPI PUSH2 0x1730 PUSH2 0x168D JUMP JUMPDEST JUMPDEST PUSH0 PUSH2 0x173E DUP6 DUP3 DUP7 ADD PUSH2 0x16B4 JUMP JUMPDEST SWAP3 POP POP PUSH1 0x20 PUSH2 0x174F DUP6 DUP3 DUP7 ADD PUSH2 0x16B4 JUMP JUMPDEST SWAP2 POP POP SWAP3 POP SWAP3 SWAP1 POP JUMP JUMPDEST PUSH0 PUSH20 0xFFFFFFFFFFFFFFFFFFFFFFFFFFFFFFFFFFFFFFFF DUP3 AND SWAP1 POP SWAP2 SWAP1 POP JUMP JUMPDEST PUSH0 PUSH2 0x1782 DUP3 PUSH2 0x1759 JUMP JUMPDEST SWAP1 POP SWAP2 SWAP1 POP JUMP JUMPDEST PUSH2 0x1792 DUP2 PUSH2 0x1778 JUMP JUMPDEST DUP2 EQ PUSH2 0x179C JUMPI PUSH0 DUP1 REVERT JUMPDEST POP JUMP JUMPDEST PUSH0 DUP2 CALLDATALOAD SWAP1 POP PUSH2 0x17AD DUP2 PUSH2 0x1789 JUMP JUMPDEST SWAP3 SWAP2 POP POP JUMP JUMPDEST PUSH0 PUSH1 0x20 DUP3 DUP5 SUB SLT ISZERO PUSH2 0x17C8 JUMPI PUSH2 0x17C7 PUSH2 0x168D JUMP JUMPDEST JUMPDEST PUSH0 PUSH2 0x17D5 DUP5 DUP3 DUP6 ADD PUSH2 0x179F JUMP JUMPDEST SWAP2 POP POP SWAP3 SWAP2 POP POP JUMP JUMPDEST PUSH0 DUP1 REVERT JUMPDEST PUSH0 DUP1 REVERT JUMPDEST PUSH0 DUP1 REVERT JUMPDEST PUSH0 DUP1 DUP4 PUSH1 0x1F DUP5 ADD SLT PUSH2 0x17FF JUMPI PUSH2 0x17FE PUSH2 0x17DE JUMP JUMPDEST JUMPDEST DUP3 CALLDATALOAD SWAP1 POP PUSH8 0xFFFFFFFFFFFFFFFF DUP2 GT ISZERO PUSH2 0x181C JUMPI PUSH2 0x181B PUSH2 0x17E2 JUMP JUMPDEST JUMPDEST PUSH1 0x20 DUP4 ADD SWAP2 POP DUP4 PUSH1 0x1 DUP3 MUL DUP4 ADD GT ISZERO PUSH2 0x1838 JUMPI PUSH2 0x1837 PUSH2 0x17E6 JUMP JUMPDEST JUMPDEST SWAP3 POP SWAP3 SWAP1 POP JUMP JUMPDEST PUSH0 DUP1 PUSH0 DUP1 PUSH1 0x60 DUP6 DUP8 SUB SLT ISZERO PUSH2 0x1857 JUMPI PUSH2 0x1856 PUSH2 0x168D JUMP JUMPDEST JUMPDEST PUSH0 PUSH2 0x1864 DUP8 DUP3 DUP9 ADD PUSH2 0x179F JUMP JUMPDEST SWAP5 POP POP PUSH1 0x20 PUSH2 0x1875 DUP8 DUP3 DUP9 ADD PUSH2 0x16B4 JUMP JUMPDEST SWAP4 POP POP PUSH1 0x40 DUP6 ADD CALLDATALOAD PUSH8 0xFFFFFFFFFFFFFFFF DUP2 GT ISZERO PUSH2 0x1896 JUMPI PUSH2 0x1895 PUSH2 0x1691 JUMP JUMPDEST JUMPDEST PUSH2 0x18A2 DUP8 DUP3 DUP9 ADD PUSH2 0x17EA JUMP JUMPDEST SWAP3 POP SWAP3 POP POP SWAP3 SWAP6 SWAP2 SWAP5 POP SWAP3 POP JUMP JUMPDEST PUSH2 0x18B9 DUP2 PUSH2 0x1778 JUMP JUMPDEST DUP3 MSTORE POP POP JUMP JUMPDEST PUSH0 PUSH1 0x20 DUP3 ADD SWAP1 POP PUSH2 0x18D2 PUSH0 DUP4 ADD DUP5 PUSH2 0x18B0 JUMP JUMPDEST SWAP3 SWAP2 POP POP JUMP JUMPDEST PUSH0 DUP2 SWAP1 POP SWAP2 SWAP1 POP JUMP JUMPDEST PUSH0 PUSH2 0x18FB PUSH2 0x18F6 PUSH2 0x18F1 DUP5 PUSH2 0x1759 JUMP JUMPDEST PUSH2 0x18D8 JUMP JUMPDEST PUSH2 0x1759 JUMP JUMPDEST SWAP1 POP SWAP2 SWAP1 POP JUMP JUMPDEST PUSH0 PUSH2 0x190C DUP3 PUSH2 0x18E1 JUMP JUMPDEST SWAP1 POP SWAP2 SWAP1 POP JUMP JUMPDEST PUSH0 PUSH2 0x191D DUP3 PUSH2 0x1902 JUMP JUMPDEST SWAP1 POP SWAP2 SWAP1 POP JUMP JUMPDEST PUSH2 0x192D DUP2 PUSH2 0x1913 JUMP JUMPDEST DUP3 MSTORE POP POP JUMP JUMPDEST PUSH0 PUSH1 0x20 DUP3 ADD SWAP1 POP PUSH2 0x1946 PUSH0 DUP4 ADD DUP5 PUSH2 0x1924 JUMP JUMPDEST SWAP3 SWAP2 POP POP JUMP JUMPDEST PUSH0 PUSH1 0x60 DUP3 ADD SWAP1 POP PUSH2 0x195F PUSH0 DUP4 ADD DUP7 PUSH2 0x16F3 JUMP JUMPDEST PUSH2 0x196C PUSH1 0x20 DUP4 ADD DUP6 PUSH2 0x16F3 JUMP JUMPDEST PUSH2 0x1979 PUSH1 0x40 DUP4 ADD DUP5 PUSH2 0x16F3 JUMP JUMPDEST SWAP5 SWAP4 POP POP POP POP JUMP JUMPDEST PUSH0 DUP2 MLOAD SWAP1 POP PUSH2 0x198F DUP2 PUSH2 0x169E JUMP JUMPDEST SWAP3 SWAP2 POP POP JUMP JUMPDEST PUSH0 PUSH1 0x20 DUP3 DUP5 SUB SLT ISZERO PUSH2 0x19AA JUMPI PUSH2 0x19A9 PUSH2 0x168D JUMP JUMPDEST JUMPDEST PUSH0 PUSH2 0x19B7 DUP5 DUP3 DUP6 ADD PUSH2 0x1981 JUMP JUMPDEST SWAP2 POP POP SWAP3 SWAP2 POP POP JUMP JUMPDEST PUSH32 0x4E487B7100000000000000000000000000000000000000000000000000000000 PUSH0 MSTORE PUSH1 0x11 PUSH1 0x4 MSTORE PUSH1 0x24 PUSH0 REVERT JUMPDEST PUSH0 PUSH2 0x19F7 DUP3 PUSH2 0x1695 JUMP JUMPDEST SWAP2 POP PUSH2 0x1A02 DUP4 PUSH2 0x1695 JUMP JUMPDEST SWAP3 POP DUP3 DUP3 MUL PUSH2 0x1A10 DUP2 PUSH2 0x1695 JUMP JUMPDEST SWAP2 POP DUP3 DUP3 DIV DUP5 EQ DUP4 ISZERO OR PUSH2 0x1A27 JUMPI PUSH2 0x1A26 PUSH2 0x19C0 JUMP JUMPDEST JUMPDEST POP SWAP3 SWAP2 POP POP JUMP JUMPDEST PUSH32 0x4E487B7100000000000000000000000000000000000000000000000000000000 PUSH0 MSTORE PUSH1 0x12 PUSH1 0x4 MSTORE PUSH1 0x24 PUSH0 REVERT JUMPDEST PUSH0 PUSH2 0x1A65 DUP3 PUSH2 0x1695 JUMP JUMPDEST SWAP2 POP PUSH2 0x1A70 DUP4 PUSH2 0x1695 JUMP JUMPDEST SWAP3 POP DUP3 PUSH2 0x1A80 JUMPI PUSH2 0x1A7F PUSH2 0x1A2E JUMP JUMPDEST JUMPDEST DUP3 DUP3 DIV SWAP1 POP SWAP3 SWAP2 POP POP JUMP JUMPDEST PUSH0 PUSH2 0x1A95 DUP3 PUSH2 0x1695 JUMP JUMPDEST SWAP2 POP PUSH2 0x1AA0 DUP4 PUSH2 0x1695 JUMP JUMPDEST SWAP3 POP DUP3 DUP3 SUB SWAP1 POP DUP2 DUP2 GT ISZERO PUSH2 0x1AB8 JUMPI PUSH2 0x1AB7 PUSH2 0x19C0 JUMP JUMPDEST JUMPDEST SWAP3 SWAP2 POP POP JUMP JUMPDEST PUSH0 DUP3 DUP3 MSTORE PUSH1 0x20 DUP3 ADD SWAP1 POP SWAP3 SWAP2 POP POP JUMP JUMPDEST PUSH32 0x4465706F7369742066656520746F6F2068696768000000000000000000000000 PUSH0 DUP3 ADD MSTORE POP JUMP JUMPDEST PUSH0 PUSH2 0x1B02 PUSH1 0x14 DUP4 PUSH2 0x1ABE JUMP JUMPDEST SWAP2 POP PUSH2 0x1B0D DUP3 PUSH2 0x1ACE JUMP JUMPDEST PUSH1 0x20 DUP3 ADD SWAP1 POP SWAP2 SWAP1 POP JUMP JUMPDEST PUSH0 PUSH1 0x20 DUP3 ADD SWAP1 POP DUP2 DUP2 SUB PUSH0 DUP4 ADD MSTORE PUSH2 0x1B2F DUP2 PUSH2 0x1AF6 JUMP JUMPDEST SWAP1 POP SWAP2 SWAP1 POP JUMP JUMPDEST PUSH32 0x57697468647261772066656520746F6F20686967680000000000000000000000 PUSH0 DUP3 ADD MSTORE POP JUMP JUMPDEST PUSH0 PUSH2 0x1B6A PUSH1 0x15 DUP4 PUSH2 0x1ABE JUMP JUMPDEST SWAP2 POP PUSH2 0x1B75 DUP3 PUSH2 0x1B36 JUMP JUMPDEST PUSH1 0x20 DUP3 ADD SWAP1 POP SWAP2 SWAP1 POP JUMP JUMPDEST PUSH0 PUSH1 0x20 DUP3 ADD SWAP1 POP DUP2 DUP2 SUB PUSH0 DUP4 ADD MSTORE PUSH2 0x1B97 DUP2 PUSH2 0x1B5E JUMP JUMPDEST SWAP1 POP SWAP2 SWAP1 POP JUMP JUMPDEST PUSH32 0x4E6F206665657300000000000000000000000000000000000000000000000000 PUSH0 DUP3 ADD MSTORE POP JUMP JUMPDEST PUSH0 PUSH2 0x1BD2 PUSH1 0x7 DUP4 PUSH2 0x1ABE JUMP JUMPDEST SWAP2 POP PUSH2 0x1BDD DUP3 PUSH2 0x1B9E JUMP JUMPDEST PUSH1 0x20 DUP3 ADD SWAP1 POP SWAP2 SWAP1 POP JUMP JUMPDEST PUSH0 PUSH1 0x20 DUP3 ADD SWAP1 POP DUP2 DUP2 SUB PUSH0 DUP4 ADD MSTORE PUSH2 0x1BFF DUP2 PUSH2 0x1BC6 JUMP JUMPDEST SWAP1 POP SWAP2 SWAP1 POP JUMP JUMPDEST PUSH0 DUP2 SWAP1 POP SWAP3 SWAP2 POP POP JUMP JUMPDEST POP JUMP JUMPDEST PUSH0 PUSH2 0x1C1E PUSH0 DUP4 PUSH2 0x1C06 JUMP JUMPDEST SWAP2 POP PUSH2 0x1C29 DUP3 PUSH2 0x1C10 JUMP JUMPDEST PUSH0 DUP3 ADD SWAP1 POP SWAP2 SWAP1 POP JUMP JUMPDEST PUSH0 PUSH2 0x1C3D DUP3 PUSH2 0x1C13 JUMP JUMPDEST SWAP2 POP DUP2 SWAP1 POP SWAP2 SWAP1 POP JUMP JUMPDEST PUSH32 0x5472616E73666572206661696C65640000000000000000000000000000000000 PUSH0 DUP3 ADD MSTORE POP JUMP JUMPDEST PUSH0 PUSH2 0x1C7B PUSH1 0xF DUP4 PUSH2 0x1ABE JUMP JUMPDEST SWAP2 POP PUSH2 0x1C86 DUP3 PUSH2 0x1C47 JUMP JUMPDEST PUSH1 0x20 DUP3 ADD SWAP1 POP SWAP2 SWAP1 POP JUMP JUMPDEST PUSH0 PUSH1 0x20 DUP3 ADD SWAP1 POP DUP2 DUP2 SUB PUSH0 DUP4 ADD MSTORE PUSH2 0x1CA8 DUP2 PUSH2 0x1C6F JUMP JUMPDEST SWAP1 POP SWAP2 SWAP1 POP JUMP JUMPDEST PUSH32 0x416D6F756E74206D757374206265203E20300000000000000000000000000000 PUSH0 DUP3 ADD MSTORE POP JUMP JUMPDEST PUSH0 PUSH2 0x1CE3 PUSH1 0x12 DUP4 PUSH2 0x1ABE JUMP JUMPDEST SWAP2 POP PUSH2 0x1CEE DUP3 PUSH2 0x1CAF JUMP JUMPDEST PUSH1 0x20 DUP3 ADD SWAP1 POP SWAP2 SWAP1 POP JUMP JUMPDEST PUSH0 PUSH1 0x20 DUP3 ADD SWAP1 POP DUP2 DUP2 SUB PUSH0 DUP4 ADD MSTORE PUSH2 0x1D10 DUP2 PUSH2 0x1CD7 JUMP JUMPDEST SWAP1 POP SWAP2 SWAP1 POP JUMP JUMPDEST PUSH32 0x496E76616C696420746F6B656E00000000000000000000000000000000000000 PUSH0 DUP3 ADD MSTORE POP JUMP JUMPDEST PUSH0 PUSH2 0x1D4B PUSH1 0xD DUP4 PUSH2 0x1ABE JUMP JUMPDEST SWAP2 POP PUSH2 0x1D56 DUP3 PUSH2 0x1D17 JUMP JUMPDEST PUSH1 0x20 DUP3 ADD SWAP1 POP SWAP2 SWAP1 POP JUMP JUMPDEST PUSH0 PUSH1 0x20 DUP3 ADD SWAP1 POP DUP2 DUP2 SUB PUSH0 DUP4 ADD MSTORE PUSH2 0x1D78 DUP2 PUSH2 0x1D3F JUMP JUMPDEST SWAP1 POP SWAP2 SWAP1 POP JUMP JUMPDEST PUSH0 PUSH1 0x40 DUP3 ADD SWAP1 POP PUSH2 0x1D92 PUSH0 DUP4 ADD DUP6 PUSH2 0x18B0 JUMP JUMPDEST PUSH2 0x1D9F PUSH1 0x20 DUP4 ADD DUP5 PUSH2 0x16F3 JUMP JUMPDEST SWAP4 SWAP3 POP POP POP JUMP JUMPDEST PUSH0 DUP2 ISZERO ISZERO SWAP1 POP SWAP2 SWAP1 POP JUMP JUMPDEST PUSH2 0x1DBA DUP2 PUSH2 0x1DA6 JUMP JUMPDEST DUP2 EQ PUSH2 0x1DC4 JUMPI PUSH0 DUP1 REVERT JUMPDEST POP JUMP JUMPDEST PUSH0 DUP2 MLOAD SWAP1 POP PUSH2 0x1DD5 DUP2 PUSH2 0x1DB1 JUMP JUMPDEST SWAP3 SWAP2 POP POP JUMP JUMPDEST PUSH0 PUSH1 0x20 DUP3 DUP5 SUB SLT ISZERO PUSH2 0x1DF0 JUMPI PUSH2 0x1DEF PUSH2 0x168D JUMP JUMPDEST JUMPDEST PUSH0 PUSH2 0x1DFD DUP5 DUP3 DUP6 ADD PUSH2 0x1DC7 JUMP JUMPDEST SWAP2 POP POP SWAP3 SWAP2 POP POP JUMP JUMPDEST DUP3 DUP2 DUP4 CALLDATACOPY PUSH0 DUP4 DUP4 ADD MSTORE POP POP POP JUMP JUMPDEST PUSH0 PUSH2 0x1E1F DUP4 DUP6 PUSH2 0x1C06 JUMP JUMPDEST SWAP4 POP PUSH2 0x1E2C DUP4 DUP6 DUP5 PUSH2 0x1E06 JUMP JUMPDEST DUP3 DUP5 ADD SWAP1 POP SWAP4 SWAP3 POP POP POP JUMP JUMPDEST PUSH0 PUSH2 0x1E44 DUP3 DUP5 DUP7 PUSH2 0x1E14 JUMP JUMPDEST SWAP2 POP DUP2 SWAP1 POP SWAP4 SWAP3 POP POP POP JUMP JUMPDEST PUSH32 0x30782073776170206661696C6564000000000000000000000000000000000000 PUSH0 DUP3 ADD MSTORE POP JUMP JUMPDEST PUSH0 PUSH2 0x1E84 PUSH1 0xE DUP4 PUSH2 0x1ABE JUMP JUMPDEST SWAP2 POP PUSH2 0x1E8F DUP3 PUSH2 0x1E50 JUMP JUMPDEST PUSH1 0x20 DUP3 ADD SWAP1 POP SWAP2 SWAP1 POP JUMP JUMPDEST PUSH0 PUSH1 0x20 DUP3 ADD SWAP1 POP DUP2 DUP2 SUB PUSH0 DUP4 ADD MSTORE PUSH2 0x1EB1 DUP2 PUSH2 0x1E78 JUMP JUMPDEST SWAP1 POP SWAP2 SWAP1 POP JUMP JUMPDEST PUSH32 0x4E6F204554482072656365697665642066726F6D207377617000000000000000 PUSH0 DUP3 ADD MSTORE POP JUMP JUMPDEST PUSH0 PUSH2 0x1EEC PUSH1 0x19 DUP4 PUSH2 0x1ABE JUMP JUMPDEST SWAP2 POP PUSH2 0x1EF7 DUP3 PUSH2 0x1EB8 JUMP JUMPDEST PUSH1 0x20 DUP3 ADD SWAP1 POP SWAP2 SWAP1 POP JUMP JUMPDEST PUSH0 PUSH1 0x20 DUP3 ADD SWAP1 POP DUP2 DUP2 SUB PUSH0 DUP4 ADD MSTORE PUSH2 0x1F19 DUP2 PUSH2 0x1EE0 JUMP JUMPDEST SWAP1 POP SWAP2 SWAP1 POP JUMP JUMPDEST PUSH0 PUSH2 0x1F2A DUP3 PUSH2 0x1695 JUMP JUMPDEST SWAP2 POP PUSH2 0x1F35 DUP4 PUSH2 0x1695 JUMP JUMPDEST SWAP3 POP DUP3 DUP3 ADD SWAP1 POP DUP1 DUP3 GT ISZERO PUSH2 0x1F4D JUMPI PUSH2 0x1F4C PUSH2 0x19C0 JUMP JUMPDEST JUMPDEST SWAP3 SWAP2 POP POP JUMP JUMPDEST PUSH0 PUSH1 0x80 DUP3 ADD SWAP1 POP PUSH2 0x1F66 PUSH0 DUP4 ADD DUP8 PUSH2 0x18B0 JUMP JUMPDEST PUSH2 0x1F73 PUSH1 0x20 DUP4 ADD DUP7 PUSH2 0x16F3 JUMP JUMPDEST PUSH2 0x1F80 PUSH1 0x40 DUP4 ADD DUP6 PUSH2 0x16F3 JUMP JUMPDEST PUSH2 0x1F8D PUSH1 0x60 DUP4 ADD DUP5 PUSH2 0x16F3 JUMP JUMPDEST SWAP6 SWAP5 POP POP POP POP POP JUMP JUMPDEST PUSH32 0x4E6F20535549544520696E2063697263756C6174696F6E000000000000000000 PUSH0 DUP3 ADD MSTORE POP JUMP JUMPDEST PUSH0 PUSH2 0x1FCA PUSH1 0x17 DUP4 PUSH2 0x1ABE JUMP JUMPDEST SWAP2 POP PUSH2 0x1FD5 DUP3 PUSH2 0x1F96 JUMP JUMPDEST PUSH1 0x20 DUP3 ADD SWAP1 POP SWAP2 SWAP1 POP JUMP JUMPDEST PUSH0 PUSH1 0x20 DUP3 ADD SWAP1 POP DUP2 DUP2 SUB PUSH0 DUP4 ADD MSTORE PUSH2 0x1FF7 DUP2 PUSH2 0x1FBE JUMP JUMPDEST SWAP1 POP SWAP2 SWAP1 POP JUMP JUMPDEST PUSH32 0x5769746864726177616C20746F6F20736D616C6C000000000000000000000000 PUSH0 DUP3 ADD MSTORE POP JUMP JUMPDEST PUSH0 PUSH2 0x2032 PUSH1 0x14 DUP4 PUSH2 0x1ABE JUMP JUMPDEST SWAP2 POP PUSH2 0x203D DUP3 PUSH2 0x1FFE JUMP JUMPDEST PUSH1 0x20 DUP3 ADD SWAP1 POP SWAP2 SWAP1 POP JUMP JUMPDEST PUSH0 PUSH1 0x20 DUP3 ADD SWAP1 POP DUP2 DUP2 SUB PUSH0 DUP4 ADD MSTORE PUSH2 0x205F DUP2 PUSH2 0x2026 JUMP JUMPDEST SWAP1 POP SWAP2 SWAP1 POP JUMP JUMPDEST PUSH32 0x496E73756666696369656E742074726561737572790000000000000000000000 PUSH0 DUP3 ADD MSTORE POP JUMP JUMPDEST PUSH0 PUSH2 0x209A PUSH1 0x15 DUP4 PUSH2 0x1ABE JUMP JUMPDEST SWAP2 POP PUSH2 0x20A5 DUP3 PUSH2 0x2066 JUMP JUMPDEST PUSH1 0x20 DUP3 ADD SWAP1 POP SWAP2 SWAP1 POP JUMP JUMPDEST PUSH0 PUSH1 0x20 DUP3 ADD SWAP1 POP DUP2 DUP2 SUB PUSH0 DUP4 ADD MSTORE PUSH2 0x20C7 DUP2 PUSH2 0x208E JUMP JUMPDEST SWAP1 POP SWAP2 SWAP1 POP JUMP JUMPDEST PUSH32 0x455448207472616E73666572206661696C656400000000000000000000000000 PUSH0 DUP3 ADD MSTORE POP JUMP JUMPDEST PUSH0 PUSH2 0x2102 PUSH1 0x13 DUP4 PUSH2 0x1ABE JUMP JUMPDEST SWAP2 POP PUSH2 0x210D DUP3 PUSH2 0x20CE JUMP JUMPDEST PUSH1 0x20 DUP3 ADD SWAP1 POP SWAP2 SWAP1 POP JUMP JUMPDEST PUSH0 PUSH1 0x20 DUP3 ADD SWAP1 POP DUP2 DUP2 SUB PUSH0 DUP4 ADD MSTORE PUSH2 0x212F DUP2 PUSH2 0x20F6 JUMP JUMPDEST SWAP1 POP SWAP2 SWAP1 POP JUMP JUMPDEST PUSH0 PUSH1 0x40 DUP3 ADD SWAP1 POP PUSH2 0x2149 PUSH0 DUP4 ADD DUP6 PUSH2 0x16F3 JUMP JUMPDEST PUSH2 0x2156 PUSH1 0x20 DUP4 ADD DUP5 PUSH2 0x16F3 JUMP JUMPDEST SWAP4 SWAP3 POP POP POP JUMP JUMPDEST PUSH0 PUSH1 0x60 DUP3 ADD SWAP1 POP PUSH2 0x2170 PUSH0 DUP4 ADD DUP7 PUSH2 0x18B0 JUMP JUMPDEST PUSH2 0x217D PUSH1 0x20 DUP4 ADD DUP6 PUSH2 0x18B0 JUMP JUMPDEST PUSH2 0x218A PUSH1 0x40 DUP4 ADD DUP5 PUSH2 0x16F3 JUMP JUMPDEST SWAP5 SWAP4 POP POP POP POP JUMP INVALID LOG2 PUSH5 0x6970667358 0x22 SLT KECCAK256 PUSH15 0x19C5FEEE6C11B5B818B35E783EE94 0x4E POP 0xA7 XOR 0xC3 CODECOPY 0x4D STATICCALL 0xDE 0xD1 RETURNDATACOPY DUP14 0xCE NOT 0x5C ADDRESS PUSH5 0x736F6C6343 STOP ADDMOD EQ STOP CALLER "},"methodIdentifiers":{"BPS_DENOMINATOR()":"e1a45218","INITIAL_RATE()":"4dbac733","ZERO_X_EXCHANGE_PROXY()":"b9865c22","accumulatedFees()":"587f5ed7","depositETH()":"f6326fb3","depositFeeBps()":"ab879827","depositWithSwap(address,uint256,bytes)":"2540c464","getTreasuryStats()":"c8692e3f","owner()":"8da5cb5b","previewDeposit(uint256)":"ef8b30f7","previewWithdraw(uint256)":"0a28a477","renounceOwnership()":"715018a6","setFees(uint256,uint256)":"0b78f9c0","suiteToken()":"a22b6e8f","totalTreasuryETH()":"55c7aaeb","transferOwnership(address)":"f2fde38b","withdraw(uint256)":"2e1a7d4d","withdrawFeeBps()":"7aca2b59","withdrawFees(address)":"164e68de"}}}}}