{"abi":[{"type":"constructor","inputs":[{"name":"_vault","type":"address","internalType":"address"}],"stateMutability":"nonpayable"},{"type":"function","name":"DOMAIN_SEPARATOR","inputs":[],"outputs":[{"name":"","type":"bytes32","internalType":"bytes32"}],"stateMutability":"view"},{"type":"function","name":"allowance","inputs":[{"name":"owner","type":"address","internalType":"address"},{"name":"spender","type":"address","internalType":"address"}],"outputs":[{"name":"","type":"uint256","internalType":"uint256"}],"stateMutability":"view"},{"type":"function","name":"approve","inputs":[{"name":"spender","type":"address","internalType":"address"},{"name":"value","type":"uint256","internalType":"uint256"}],"outputs":[{"name":"","type":"bool","internalType":"bool"}],"stateMutability":"nonpayable"},{"type":"function","name":"balanceOf","inputs":[{"name":"account","type":"address","internalType":"address"}],"outputs":[{"name":"","type":"uint256","internalType":"uint256"}],"stateMutability":"view"},{"type":"function","name":"burn","inputs":[{"name":"from","type":"address","internalType":"address"},{"name":"amount","type":"uint256","internalType":"uint256"}],"outputs":[],"stateMutability":"nonpayable"},{"type":"function","name":"decimals","inputs":[],"outputs":[{"name":"","type":"uint8","internalType":"uint8"}],"stateMutability":"pure"},{"type":"function","name":"eip712Domain","inputs":[],"outputs":[{"name":"fields","type":"bytes1","internalType":"bytes1"},{"name":"name","type":"string","internalType":"string"},{"name":"version","type":"string","internalType":"string"},{"name":"chainId","type":"uint256","internalType":"uint256"},{"name":"verifyingContract","type":"address","internalType":"address"},{"name":"salt","type":"bytes32","internalType":"bytes32"},{"name":"extensions","type":"uint256[]","internalType":"uint256[]"}],"stateMutability":"view"},{"type":"function","name":"mint","inputs":[{"name":"to","type":"address","internalType":"address"},{"name":"amount","type":"uint256","internalType":"uint256"}],"outputs":[],"stateMutability":"nonpayable"},{"type":"function","name":"name","inputs":[],"outputs":[{"name":"","type":"string","internalType":"string"}],"stateMutability":"view"},{"type":"function","name":"nonces","inputs":[{"name":"owner","type":"address","internalType":"address"}],"outputs":[{"name":"","type":"uint256","internalType":"uint256"}],"stateMutability":"view"},{"type":"function","name":"permit","inputs":[{"name":"owner","type":"address","internalType":"address"},{"name":"spender","type":"address","internalType":"address"},{"name":"value","type":"uint256","internalType":"uint256"},{"name":"deadline","type":"uint256","internalType":"uint256"},{"name":"v","type":"uint8","internalType":"uint8"},{"name":"r","type":"bytes32","internalType":"bytes32"},{"name":"s","type":"bytes32","internalType":"bytes32"}],"outputs":[],"stateMutability":"nonpayable"},{"type":"function","name":"symbol","inputs":[],"outputs":[{"name":"","type":"string","internalType":"string"}],"stateMutability":"view"},{"type":"function","name":"totalSupply","inputs":[],"outputs":[{"name":"","type":"uint256","internalType":"uint256"}],"stateMutability":"view"},{"type":"function","name":"transfer","inputs":[{"name":"to","type":"address","internalType":"address"},{"name":"value","type":"uint256","internalType":"uint256"}],"outputs":[{"name":"","type":"bool","internalType":"bool"}],"stateMutability":"nonpayable"},{"type":"function","name":"transferFrom","inputs":[{"name":"from","type":"address","internalType":"address"},{"name":"to","type":"address","internalType":"address"},{"name":"value","type":"uint256","internalType":"uint256"}],"outputs":[{"name":"","type":"bool","internalType":"bool"}],"stateMutability":"nonpayable"},{"type":"function","name":"vault","inputs":[],"outputs":[{"name":"","type":"address","internalType":"address"}],"stateMutability":"view"},{"type":"event","name":"Approval","inputs":[{"name":"owner","type":"address","indexed":true,"internalType":"address"},{"name":"spender","type":"address","indexed":true,"internalType":"address"},{"name":"value","type":"uint256","indexed":false,"internalType":"uint256"}],"anonymous":false},{"type":"event","name":"EIP712DomainChanged","inputs":[],"anonymous":false},{"type":"event","name":"Transfer","inputs":[{"name":"from","type":"address","indexed":true,"internalType":"address"},{"name":"to","type":"address","indexed":true,"internalType":"address"},{"name":"value","type":"uint256","indexed":false,"internalType":"uint256"}],"anonymous":false},{"type":"error","name":"ECDSAInvalidSignature","inputs":[]},{"type":"error","name":"ECDSAInvalidSignatureLength","inputs":[{"name":"length","type":"uint256","internalType":"uint256"}]},{"type":"error","name":"ECDSAInvalidSignatureS","inputs":[{"name":"s","type":"bytes32","internalType":"bytes32"}]},{"type":"error","name":"ERC20InsufficientAllowance","inputs":[{"name":"spender","type":"address","internalType":"address"},{"name":"allowance","type":"uint256","internalType":"uint256"},{"name":"needed","type":"uint256","internalType":"uint256"}]},{"type":"error","name":"ERC20InsufficientBalance","inputs":[{"name":"sender","type":"address","internalType":"address"},{"name":"balance","type":"uint256","internalType":"uint256"},{"name":"needed","type":"uint256","internalType":"uint256"}]},{"type":"error","name":"ERC20InvalidApprover","inputs":[{"name":"approver","type":"address","internalType":"address"}]},{"type":"error","name":"ERC20InvalidReceiver","inputs":[{"name":"receiver","type":"address","internalType":"address"}]},{"type":"error","name":"ERC20InvalidSender","inputs":[{"name":"sender","type":"address","internalType":"address"}]},{"type":"error","name":"ERC20InvalidSpender","inputs":[{"name":"spender","type":"address","internalType":"address"}]},{"type":"error","name":"ERC2612ExpiredSignature","inputs":[{"name":"deadline","type":"uint256","internalType":"uint256"}]},{"type":"error","name":"ERC2612InvalidSigner","inputs":[{"name":"signer","type":"address","internalType":"address"},{"name":"owner","type":"address","internalType":"address"}]},{"type":"error","name":"InvalidAccountNonce","inputs":[{"name":"account","type":"address","internalType":"address"},{"name":"currentNonce","type":"uint256","internalType":"uint256"}]},{"type":"error","name":"InvalidShortString","inputs":[]},{"type":"error","name":"OnlyVault","inputs":[]},{"type":"error","name":"StringTooLong","inputs":[{"name":"str","type":"string","internalType":"string"}]},{"type":"error","name":"ZeroVaultAddress","inputs":[]}],"bytecode":{"object":"0x61018060405234801562000011575f80fd5b506040516200151b3803806200151b833981016040819052620000349162000259565b604051806040016040528060118152602001705355495445205661756c7420536861726560781b81525080604051806040016040528060018152602001603160f81b815250604051806040016040528060118152602001705355495445205661756c7420536861726560781b81525060405180604001604052806005815260200164535549544560d81b8152508160039081620000d2919062000328565b506004620000e1828262000328565b50620000f391508390506005620001d6565b6101205262000104816006620001d6565b61014052815160208084019190912060e052815190820120610100524660a0526200019160e05161010051604080517f8b73c3c69bb8fe3d512ecc4cf759cc79239f7b179b0ffacaa9a75d522b39400f60208201529081019290925260608201524660808201523060a08201525f9060c00160405160208183030381529060405280519060200120905090565b60805250503060c052506001600160a01b038116620001c35760405163d580689d60e01b815260040160405180910390fd5b6001600160a01b03166101605262000461565b5f602083511015620001f557620001ed836200020e565b905062000208565b8162000202848262000328565b5060ff90505b92915050565b5f80829050601f8151111562000244578260405163305a27a960e01b81526004016200023b9190620003f0565b60405180910390fd5b805162000251826200043d565b179392505050565b5f602082840312156200026a575f80fd5b81516001600160a01b038116811462000281575f80fd5b9392505050565b634e487b7160e01b5f52604160045260245ffd5b600181811c90821680620002b157607f821691505b602082108103620002d057634e487b7160e01b5f52602260045260245ffd5b50919050565b601f82111562000323575f81815260208120601f850160051c81016020861015620002fe5750805b601f850160051c820191505b818110156200031f578281556001016200030a565b5050505b505050565b81516001600160401b0381111562000344576200034462000288565b6200035c816200035584546200029c565b84620002d6565b602080601f83116001811462000392575f84156200037a5750858301515b5f19600386901b1c1916600185901b1785556200031f565b5f85815260208120601f198616915b82811015620003c257888601518255948401946001909101908401620003a1565b5085821015620003e057878501515f19600388901b60f8161c191681555b5050505050600190811b01905550565b5f6020808352835180828501525f5b818110156200041d57858101830151858201604001528201620003ff565b505f604082860101526040601f19601f8301168501019250505092915050565b80516020808301519190811015620002d0575f1960209190910360031b1b16919050565b60805160a05160c05160e05161010051610120516101405161016051611050620004cb5f395f818161026501528181610384015261044901525f61085501525f61082801525f61079d01525f61077501525f6106d001525f6106fa01525f61072401526110505ff3fe608060405234801561000f575f80fd5b50600436106100fb575f3560e01c80637ecebe0011610093578063a9059cbb11610063578063a9059cbb14610202578063d505accf14610215578063dd62ed3e14610228578063fbfa77cf14610260575f80fd5b80637ecebe00146101b957806384b0196e146101cc57806395d89b41146101e75780639dc29fac146101ef575f80fd5b8063313ce567116100ce578063313ce567146101655780633644e5151461017457806340c10f191461017c57806370a0823114610191575f80fd5b806306fdde03146100ff578063095ea7b31461011d57806318160ddd1461014057806323b872dd14610152575b5f80fd5b61010761029f565b6040516101149190610dcf565b60405180910390f35b61013061012b366004610e03565b61032f565b6040519015158152602001610114565b6002545b604051908152602001610114565b610130610160366004610e2b565b610348565b60405160128152602001610114565b61014461036b565b61018f61018a366004610e03565b610379565b005b61014461019f366004610e64565b6001600160a01b03165f9081526020819052604090205490565b6101446101c7366004610e64565b6103d0565b6101d46103ed565b6040516101149796959493929190610e7d565b61010761042f565b61018f6101fd366004610e03565b61043e565b610130610210366004610e03565b610491565b61018f610223366004610f11565b61049e565b610144610236366004610f7e565b6001600160a01b039182165f90815260016020908152604080832093909416825291909152205490565b6102877f000000000000000000000000000000000000000000000000000000000000000081565b6040516001600160a01b039091168152602001610114565b6060600380546102ae90610faf565b80601f01602080910402602001604051908101604052809291908181526020018280546102da90610faf565b80156103255780601f106102fc57610100808354040283529160200191610325565b820191905f5260205f20905b81548152906001019060200180831161030857829003601f168201915b5050505050905090565b5f3361033c8185856105d9565b60019150505b92915050565b5f336103558582856105eb565b610360858585610667565b506001949350505050565b5f6103746106c4565b905090565b336001600160a01b037f000000000000000000000000000000000000000000000000000000000000000016146103c257604051638d1af8bd60e01b815260040160405180910390fd5b6103cc82826107ed565b5050565b6001600160a01b0381165f90815260076020526040812054610342565b5f6060805f805f60606103fe610821565b61040661084e565b604080515f80825260208201909252600f60f81b9b939a50919850469750309650945092509050565b6060600480546102ae90610faf565b336001600160a01b037f0000000000000000000000000000000000000000000000000000000000000000161461048757604051638d1af8bd60e01b815260040160405180910390fd5b6103cc828261087b565b5f3361033c818585610667565b834211156104c75760405163313c898160e11b8152600481018590526024015b60405180910390fd5b5f7f6e71edae12b1b97f4d1f60370fef10105fa2faae0126114a169c64845d6126c98888886105128c6001600160a01b03165f90815260076020526040902080546001810190915590565b6040805160208101969096526001600160a01b0394851690860152929091166060840152608083015260a082015260c0810186905260e0016040516020818303038152906040528051906020012090505f61056c826108af565b90505f61057b828787876108db565b9050896001600160a01b0316816001600160a01b0316146105c2576040516325c0072360e11b81526001600160a01b0380831660048301528b1660248201526044016104be565b6105cd8a8a8a6105d9565b50505050505050505050565b6105e68383836001610907565b505050565b6001600160a01b038381165f908152600160209081526040808320938616835292905220545f19811015610661578181101561065357604051637dc7a0d960e11b81526001600160a01b038416600482015260248101829052604481018390526064016104be565b61066184848484035f610907565b50505050565b6001600160a01b03831661069057604051634b637e8f60e11b81525f60048201526024016104be565b6001600160a01b0382166106b95760405163ec442f0560e01b81525f60048201526024016104be565b6105e68383836109d9565b5f306001600160a01b037f00000000000000000000000000000000000000000000000000000000000000001614801561071c57507f000000000000000000000000000000000000000000000000000000000000000046145b1561074657507f000000000000000000000000000000000000000000000000000000000000000090565b610374604080517f8b73c3c69bb8fe3d512ecc4cf759cc79239f7b179b0ffacaa9a75d522b39400f60208201527f0000000000000000000000000000000000000000000000000000000000000000918101919091527f000000000000000000000000000000000000000000000000000000000000000060608201524660808201523060a08201525f9060c00160405160208183030381529060405280519060200120905090565b6001600160a01b0382166108165760405163ec442f0560e01b81525f60048201526024016104be565b6103cc5f83836109d9565b60606103747f00000000000000000000000000000000000000000000000000000000000000006005610aff565b60606103747f00000000000000000000000000000000000000000000000000000000000000006006610aff565b6001600160a01b0382166108a457604051634b637e8f60e11b81525f60048201526024016104be565b6103cc825f836109d9565b5f6103426108bb6106c4565b8360405161190160f01b8152600281019290925260228201526042902090565b5f805f806108eb88888888610ba8565b9250925092506108fb8282610c70565b50909695505050505050565b6001600160a01b0384166109305760405163e602df0560e01b81525f60048201526024016104be565b6001600160a01b03831661095957604051634a1406b160e11b81525f60048201526024016104be565b6001600160a01b038085165f908152600160209081526040808320938716835292905220829055801561066157826001600160a01b0316846001600160a01b03167f8c5be1e5ebec7d5bd14f71427d1e84f3dd0314c0f7b2291e5b200ac8c7c3b925846040516109cb91815260200190565b60405180910390a350505050565b6001600160a01b038316610a03578060025f8282546109f89190610fe7565b90915550610a739050565b6001600160a01b0383165f9081526020819052604090205481811015610a555760405163391434e360e21b81526001600160a01b038516600482015260248101829052604481018390526064016104be565b6001600160a01b0384165f9081526020819052604090209082900390555b6001600160a01b038216610a8f57600280548290039055610aad565b6001600160a01b0382165f9081526020819052604090208054820190555b816001600160a01b0316836001600160a01b03167fddf252ad1be2c89b69c2b068fc378daa952ba7f163c4a11628f55a4df523b3ef83604051610af291815260200190565b60405180910390a3505050565b606060ff8314610b1957610b1283610d28565b9050610342565b818054610b2590610faf565b80601f0160208091040260200160405190810160405280929190818152602001828054610b5190610faf565b8015610b9c5780601f10610b7357610100808354040283529160200191610b9c565b820191905f5260205f20905b815481529060010190602001808311610b7f57829003601f168201915b50505050509050610342565b5f80807f7fffffffffffffffffffffffffffffff5d576e7357a4501ddfe92f46681b20a0841115610be157505f91506003905082610c66565b604080515f808252602082018084528a905260ff891692820192909252606081018790526080810186905260019060a0016020604051602081039080840390855afa158015610c32573d5f803e3d5ffd5b5050604051601f1901519150506001600160a01b038116610c5d57505f925060019150829050610c66565b92505f91508190505b9450945094915050565b5f826003811115610c8357610c83611006565b03610c8c575050565b6001826003811115610ca057610ca0611006565b03610cbe5760405163f645eedf60e01b815260040160405180910390fd5b6002826003811115610cd257610cd2611006565b03610cf35760405163fce698f760e01b8152600481018290526024016104be565b6003826003811115610d0757610d07611006565b036103cc576040516335e2f38360e21b8152600481018290526024016104be565b60605f610d3483610d65565b6040805160208082528183019092529192505f91906020820181803683375050509182525060208101929092525090565b5f60ff8216601f81111561034257604051632cd44ac360e21b815260040160405180910390fd5b5f81518084525f5b81811015610db057602081850181015186830182015201610d94565b505f602082860101526020601f19601f83011685010191505092915050565b602081525f610de16020830184610d8c565b9392505050565b80356001600160a01b0381168114610dfe575f80fd5b919050565b5f8060408385031215610e14575f80fd5b610e1d83610de8565b946020939093013593505050565b5f805f60608486031215610e3d575f80fd5b610e4684610de8565b9250610e5460208501610de8565b9150604084013590509250925092565b5f60208284031215610e74575f80fd5b610de182610de8565b60ff60f81b881681525f602060e081840152610e9c60e084018a610d8c565b8381036040850152610eae818a610d8c565b606085018990526001600160a01b038816608086015260a0850187905284810360c086015285518082528387019250908301905f5b81811015610eff57835183529284019291840191600101610ee3565b50909c9b505050505050505050505050565b5f805f805f805f60e0888a031215610f27575f80fd5b610f3088610de8565b9650610f3e60208901610de8565b95506040880135945060608801359350608088013560ff81168114610f61575f80fd5b9699959850939692959460a0840135945060c09093013592915050565b5f8060408385031215610f8f575f80fd5b610f9883610de8565b9150610fa660208401610de8565b90509250929050565b600181811c90821680610fc357607f821691505b602082108103610fe157634e487b7160e01b5f52602260045260245ffd5b50919050565b8082018082111561034257634e487b7160e01b5f52601160045260245ffd5b634e487b7160e01b5f52602160045260245ffdfea26469706673582212203eebf0c8bb8f137f9c6528d4cc6f082a4d619022a6a2f5750578c99a6aa0aea864736f6c63430008140033","linkReferences":{}},"methodIdentifiers":{"DOMAIN_SEPARATOR()":"3644e515","allowance(address,address)":"dd62ed3e","approve(address,uint256)":"095ea7b3","balanceOf(address)":"70a08231","burn(address,uint256)":"9dc29fac","decimals()":"313ce567","eip712Domain()":"84b0196e","mint(address,uint256)":"40c10f19","name()":"06fdde03","nonces(address)":"7ecebe00","permit(address,address,uint256,uint256,uint8,bytes32,bytes32)":"d505accf","symbol()":"95d89b41","totalSupply()":"18160ddd","transfer(address,uint256)":"a9059cbb","transferFrom(address,address,uint256)":"23b872dd","vault()":"fbfa77cf"},"id":73}