{"abi":[{"type":"constructor","inputs":[{"name":"_admins","type":"address[]","internalType":"address[]"}],"stateMutability":"nonpayable"},{"type":"function","name":"CREDITS_PER_DOLLAR","inputs":[],"outputs":[{"name":"","type":"uint256","internalType":"uint256"}],"stateMutability":"view"},{"type":"function","name":"USDC","inputs":[],"outputs":[{"name":"","type":"address","internalType":"contract IERC20"}],"stateMutability":"view"},{"type":"function","name":"addAdmin","inputs":[{"name":"admin","type":"address","internalType":"address"}],"outputs":[],"stateMutability":"nonpayable"},{"type":"function","name":"creditsUsed","inputs":[{"name":"","type":"address","internalType":"address"}],"outputs":[{"name":"","type":"uint256","internalType":"uint256"}],"stateMutability":"view"},{"type":"function","name":"deployToYield","inputs":[{"name":"strategy","type":"address","internalType":"address"},{"name":"amount","type":"uint256","internalType":"uint256"}],"outputs":[],"stateMutability":"nonpayable"},{"type":"function","name":"deposit","inputs":[{"name":"amount","type":"uint256","internalType":"uint256"}],"outputs":[],"stateMutability":"nonpayable"},{"type":"function","name":"emergencyWithdraw","inputs":[],"outputs":[],"stateMutability":"nonpayable"},{"type":"function","name":"getLiquidBalance","inputs":[],"outputs":[{"name":"","type":"uint256","internalType":"uint256"}],"stateMutability":"view"},{"type":"function","name":"getPendingWithdrawals","inputs":[{"name":"user","type":"address","internalType":"address"}],"outputs":[{"name":"","type":"uint256","internalType":"uint256"}],"stateMutability":"view"},{"type":"function","name":"getSpendableCredits","inputs":[{"name":"user","type":"address","internalType":"address"}],"outputs":[{"name":"","type":"uint256","internalType":"uint256"}],"stateMutability":"view"},{"type":"function","name":"getUserPosition","inputs":[{"name":"user","type":"address","internalType":"address"}],"outputs":[{"name":"deposited","type":"uint256","internalType":"uint256"},{"name":"credits","type":"uint256","internalType":"uint256"},{"name":"used","type":"uint256","internalType":"uint256"},{"name":"withdrawable","type":"uint256","internalType":"uint256"},{"name":"pending","type":"uint256","internalType":"uint256"},{"name":"yieldPref","type":"uint8","internalType":"uint8"}],"stateMutability":"view"},{"type":"function","name":"getWithdrawableAmount","inputs":[{"name":"user","type":"address","internalType":"address"}],"outputs":[{"name":"","type":"uint256","internalType":"uint256"}],"stateMutability":"view"},{"type":"function","name":"getWithdrawalRequests","inputs":[{"name":"user","type":"address","internalType":"address"}],"outputs":[{"name":"","type":"tuple[]","internalType":"struct SuiteYieldVault.WithdrawalRequest[]","components":[{"name":"amount","type":"uint256","internalType":"uint256"},{"name":"requestedAt","type":"uint256","internalType":"uint256"},{"name":"processed","type":"bool","internalType":"bool"}]}],"stateMutability":"view"},{"type":"function","name":"isAdmin","inputs":[{"name":"","type":"address","internalType":"address"}],"outputs":[{"name":"","type":"bool","internalType":"bool"}],"stateMutability":"view"},{"type":"function","name":"processWithdrawal","inputs":[{"name":"user","type":"address","internalType":"address"},{"name":"requestId","type":"uint256","internalType":"uint256"}],"outputs":[],"stateMutability":"nonpayable"},{"type":"function","name":"removeAdmin","inputs":[{"name":"admin","type":"address","internalType":"address"}],"outputs":[],"stateMutability":"nonpayable"},{"type":"function","name":"returnFromYield","inputs":[{"name":"amount","type":"uint256","internalType":"uint256"}],"outputs":[],"stateMutability":"nonpayable"},{"type":"function","name":"setYieldPreference","inputs":[{"name":"keepPercent","type":"uint8","internalType":"uint8"}],"outputs":[],"stateMutability":"nonpayable"},{"type":"function","name":"totalDeployed","inputs":[],"outputs":[{"name":"","type":"uint256","internalType":"uint256"}],"stateMutability":"view"},{"type":"function","name":"totalDeposits","inputs":[],"outputs":[{"name":"","type":"uint256","internalType":"uint256"}],"stateMutability":"view"},{"type":"function","name":"useCredits","inputs":[{"name":"user","type":"address","internalType":"address"},{"name":"amount","type":"uint256","internalType":"uint256"}],"outputs":[],"stateMutability":"nonpayable"},{"type":"function","name":"userCredits","inputs":[{"name":"","type":"address","internalType":"address"}],"outputs":[{"name":"","type":"uint256","internalType":"uint256"}],"stateMutability":"view"},{"type":"function","name":"userDeposits","inputs":[{"name":"","type":"address","internalType":"address"}],"outputs":[{"name":"","type":"uint256","internalType":"uint256"}],"stateMutability":"view"},{"type":"function","name":"withdraw","inputs":[{"name":"amount","type":"uint256","internalType":"uint256"}],"outputs":[],"stateMutability":"nonpayable"},{"type":"function","name":"withdrawalRequests","inputs":[{"name":"","type":"address","internalType":"address"},{"name":"","type":"uint256","internalType":"uint256"}],"outputs":[{"name":"amount","type":"uint256","internalType":"uint256"},{"name":"requestedAt","type":"uint256","internalType":"uint256"},{"name":"processed","type":"bool","internalType":"bool"}],"stateMutability":"view"},{"type":"function","name":"yieldKeepPercent","inputs":[{"name":"","type":"address","internalType":"address"}],"outputs":[{"name":"","type":"uint8","internalType":"uint8"}],"stateMutability":"view"},{"type":"event","name":"AdminAdded","inputs":[{"name":"admin","type":"address","indexed":true,"internalType":"address"}],"anonymous":false},{"type":"event","name":"AdminRemoved","inputs":[{"name":"admin","type":"address","indexed":true,"internalType":"address"}],"anonymous":false},{"type":"event","name":"CreditsUsed","inputs":[{"name":"user","type":"address","indexed":true,"internalType":"address"},{"name":"amount","type":"uint256","indexed":false,"internalType":"uint256"}],"anonymous":false},{"type":"event","name":"DeployedToYield","inputs":[{"name":"admin","type":"address","indexed":true,"internalType":"address"},{"name":"strategy","type":"address","indexed":true,"internalType":"address"},{"name":"amount","type":"uint256","indexed":false,"internalType":"uint256"}],"anonymous":false},{"type":"event","name":"Deposited","inputs":[{"name":"user","type":"address","indexed":true,"internalType":"address"},{"name":"amount","type":"uint256","indexed":false,"internalType":"uint256"},{"name":"creditsGranted","type":"uint256","indexed":false,"internalType":"uint256"}],"anonymous":false},{"type":"event","name":"ReturnedFromYield","inputs":[{"name":"admin","type":"address","indexed":true,"internalType":"address"},{"name":"amount","type":"uint256","indexed":false,"internalType":"uint256"}],"anonymous":false},{"type":"event","name":"WithdrawalProcessed","inputs":[{"name":"user","type":"address","indexed":true,"internalType":"address"},{"name":"amount","type":"uint256","indexed":false,"internalType":"uint256"},{"name":"requestId","type":"uint256","indexed":false,"internalType":"uint256"}],"anonymous":false},{"type":"event","name":"WithdrawalRequested","inputs":[{"name":"user","type":"address","indexed":true,"internalType":"address"},{"name":"amount","type":"uint256","indexed":false,"internalType":"uint256"},{"name":"requestId","type":"uint256","indexed":false,"internalType":"uint256"}],"anonymous":false},{"type":"event","name":"WithdrawnInstant","inputs":[{"name":"user","type":"address","indexed":true,"internalType":"address"},{"name":"amount","type":"uint256","indexed":false,"internalType":"uint256"}],"anonymous":false},{"type":"event","name":"YieldPreferenceSet","inputs":[{"name":"user","type":"address","indexed":true,"internalType":"address"},{"name":"keepPercent","type":"uint8","indexed":false,"internalType":"uint8"}],"anonymous":false},{"type":"error","name":"ReentrancyGuardReentrantCall","inputs":[]},{"type":"error","name":"SafeERC20FailedOperation","inputs":[{"name":"token","type":"address","internalType":"address"}]}],"bytecode":{"object":"0x608060405234801562000010575f80fd5b50604051620018ca380380620018ca833981016040819052620000339162000139565b60015f9081555b815181101562000101576001805f8484815181106200005d576200005d62000206565b60200260200101516001600160a01b03166001600160a01b031681526020019081526020015f205f6101000a81548160ff021916908315150217905550818181518110620000af57620000af62000206565b60200260200101516001600160a01b03167f44d6d25963f097ad14f29f06854a01f575648a1ef82f30e562ccd3889717e33960405160405180910390a280620000f8816200021a565b9150506200003a565b50506200023f565b634e487b7160e01b5f52604160045260245ffd5b80516001600160a01b038116811462000134575f80fd5b919050565b5f60208083850312156200014b575f80fd5b82516001600160401b038082111562000162575f80fd5b818501915085601f83011262000176575f80fd5b8151818111156200018b576200018b62000109565b8060051b604051601f19603f83011681018181108582111715620001b357620001b362000109565b604052918252848201925083810185019188831115620001d1575f80fd5b938501935b82851015620001fa57620001ea856200011d565b84529385019392850192620001d6565b98975050505050505050565b634e487b7160e01b5f52603260045260245ffd5b5f600182016200023857634e487b7160e01b5f52601160045260245ffd5b5060010190565b61167d806200024d5f395ff3fe608060405234801561000f575f80fd5b5060043610610187575f3560e01c80635b7c2dad116100d95780638ad4091211610093578063d852af621161006e578063d852af62146103f7578063db2e21bc1461040a578063f340c0d014610412578063f677717514610425575f80fd5b80638ad40912146103a857806398c98d51146103b0578063b6b55f25146103e4575f80fd5b80635b7c2dad146102e357806370480275146103265780637d031b65146103395780637d882097146103595780638260910c1461036257806389a3027114610375575f80fd5b806320babb92116101445780632e1a7d4d1161011f5780632e1a7d4d1461028457806340d13825146102975780634e5a2328146102a05780634f2b8c88146102d0575f80fd5b806320babb921461022057806324d7806c1461023f57806326691b6e14610271575f80fd5b80630888d35b1461018b5780630ba36dcd146101a05780630cfb14b0146101d25780631785f53c146101db5780631ac10332146101ee5780631d84ee4814610201575b5f80fd5b61019e61019936600461147d565b610438565b005b6101bf6101ae3660046114bf565b60026020525f908152604090205481565b6040519081526020015b60405180910390f35b6101bf60085481565b61019e6101e93660046114bf565b6104e8565b6101bf6101fc3660046114bf565b6105ab565b6101bf61020f3660046114bf565b60046020525f908152604090205481565b6101bf61022e3660046114bf565b60036020525f908152604090205481565b61026161024d3660046114bf565b60016020525f908152604090205460ff1681565b60405190151581526020016101c9565b61019e61027f3660046114d8565b61060e565b61019e610292366004611500565b6106f7565b6101bf6103e881565b6102b36102ae3660046114d8565b610959565b6040805193845260208401929092521515908201526060016101c9565b61019e6102de366004611500565b61099a565b6102f66102f13660046114bf565b610a55565b604080519687526020870195909552938501929092526060840152608083015260ff1660a082015260c0016101c9565b61019e6103343660046114bf565b610acf565b61034c6103473660046114bf565b610b4b565b6040516101c99190611517565b6101bf60075481565b61019e6103703660046114d8565b610bdd565b61039073833589fcd6edb6e08f4c7c32d4f71b54bda0291381565b6040516001600160a01b0390911681526020016101c9565b6101bf610e88565b6103d26103be3660046114bf565b60066020525f908152604090205460ff1681565b60405160ff90911681526020016101c9565b61019e6103f2366004611500565b610f00565b61019e6104053660046114d8565b611054565b61019e611147565b6101bf6104203660046114bf565b611209565b6101bf6104333660046114bf565b6112ce565b600a8160ff16101580156104505750605a8160ff1611155b6104925760405162461bcd60e51b815260206004820152600e60248201526d4d7573742062652031302d39302560901b60448201526064015b60405180910390fd5b335f81815260066020908152604091829020805460ff191660ff861690811790915591519182527fa3d7a7253bc2b5573da8035e8258090c0eacf89d0ac73a44ed2020d803b0263991015b60405180910390a250565b335f9081526001602052604090205460ff166105165760405162461bcd60e51b815260040161048990611571565b336001600160a01b038216036105635760405162461bcd60e51b815260206004820152601260248201527121b0b73737ba103932b6b7bb329039b2b63360711b6044820152606401610489565b6001600160a01b0381165f81815260016020526040808220805460ff19169055517fa3b62bc36326052d97ea62d63c3d60308ed4c3ea8ac079dd8499f1e9c4f80c0f9190a250565b6001600160a01b0381165f908152600460209081526040808320546003909252822054116105da57505f919050565b6001600160a01b0382165f9081526004602090815260408083205460039092529091205461060891906115a8565b92915050565b335f9081526001602052604090205460ff1661063c5760405162461bcd60e51b815260040161048990611571565b80610646836105ab565b10156106895760405162461bcd60e51b81526020600482015260126024820152714e6f7420656e6f756768206372656469747360701b6044820152606401610489565b6001600160a01b0382165f90815260046020526040812080548392906106b09084906115bb565b90915550506040518181526001600160a01b038316907fa88a3b41ad6405e14152ab90d3d70da43193048753fceb457e0ae3bf6ab7d8b49060200160405180910390a25050565b6106ff611346565b5f81116107435760405162461bcd60e51b81526020600482015260126024820152710416d6f756e74206d757374206265203e20360741b6044820152606401610489565b8061074d336112ce565b10156107925760405162461bcd60e51b81526020600482015260146024820152734578636565647320776974686472617761626c6560601b6044820152606401610489565b5f61079b610e88565b905081811061089857335f90815260026020526040812080548492906107c29084906115a8565b925050819055508160075f8282546107da91906115a8565b909155505f90506107ed6103e8846115ce565b335f90815260036020526040902054909150811161082e57335f90815260036020526040812080548392906108239084906115a8565b9091555061083e9050565b335f908152600360205260408120555b61085d73833589fcd6edb6e08f4c7c32d4f71b54bda02913338561136e565b60405183815233907f6fc5802cb7bd94c3e17a8a4c7c5ba8ae6f4c8e6cb967ed5a1732abec7273d1859060200160405180910390a25061094c565b335f81815260056020818152604080842081516060810183528881524281850190815292810186815282546001808201855584895286892093516003909202909301908155935184830155516002909301805460ff1916931515939093179092559484529190529154909161090c916115a8565b604080518581526020810183905291925033917f24b91f4f47caf44230a57777a9be744924e82bf666f2d5702faf97df35e60f9f910160405180910390a2505b5061095660015f55565b50565b6005602052815f5260405f208181548110610972575f80fd5b5f91825260209091206003909102018054600182015460029092015490935090915060ff1683565b335f9081526001602052604090205460ff166109c85760405162461bcd60e51b815260040161048990611571565b806008541015610a0d5760405162461bcd60e51b815260206004820152601060248201526f115e18d959591cc819195c1b1bde595960821b6044820152606401610489565b8060085f828254610a1e91906115a8565b909155505060405181815233907f75b1630498d467c9c0967183a881296365de553d4e6e62a39fc9f83ddccfab52906020016104dd565b6001600160a01b0381165f9081526002602090815260408083205460038352818420546004909352908320548392839283928392839291610a958a6112ce565b610a9e8b611209565b6001600160a01b039b909b165f90815260066020526040902054939b929a9199509750955060ff9091169350915050565b335f9081526001602052604090205460ff16610afd5760405162461bcd60e51b815260040161048990611571565b6001600160a01b0381165f818152600160208190526040808320805460ff1916909217909155517f44d6d25963f097ad14f29f06854a01f575648a1ef82f30e562ccd3889717e3399190a250565b6001600160a01b0381165f908152600560209081526040808320805482518185028101850190935280835260609492939192909184015b82821015610bd2575f8481526020908190206040805160608101825260038602909201805483526001808201548486015260029091015460ff161515918301919091529083529092019101610b82565b505050509050919050565b335f9081526001602052604090205460ff16610c0b5760405162461bcd60e51b815260040161048990611571565b610c13611346565b6001600160a01b0382165f908152600560205260409020548110610c6b5760405162461bcd60e51b815260206004820152600f60248201526e125b9d985b1a59081c995c5d595cdd608a1b6044820152606401610489565b6001600160a01b0382165f908152600560205260408120805483908110610c9457610c946115e5565b5f9182526020909120600390910201600281015490915060ff1615610cef5760405162461bcd60e51b8152602060048201526011602482015270105b1c9958591e481c1c9bd8d95cdcd959607a1b6044820152606401610489565b8054610cf9610e88565b1015610d3b5760405162461bcd60e51b8152602060048201526011602482015270139bdd08195b9bdd59da081b1a5c5d5a59607a1b6044820152606401610489565b6002808201805460ff1916600117905581546001600160a01b0385165f90815260209290925260408220805491929091610d769084906115a8565b90915550508054600780545f90610d8e9084906115a8565b909155505080545f90610da4906103e8906115ce565b6001600160a01b0385165f908152600360205260409020549091508111610df7576001600160a01b0384165f9081526003602052604081208054839290610dec9084906115a8565b90915550610e109050565b6001600160a01b0384165f908152600360205260408120555b8154610e339073833589fcd6edb6e08f4c7c32d4f71b54bda0291390869061136e565b815460408051918252602082018590526001600160a01b038616917fddfdc995965c1fea3bbd2158d885347ad5c250f422d97342c6a3fa680600cf68910160405180910390a25050610e8460015f55565b5050565b6040516370a0823160e01b81523060048201525f9073833589fcd6edb6e08f4c7c32d4f71b54bda02913906370a0823190602401602060405180830381865afa158015610ed7573d5f803e3d5ffd5b505050506040513d601f19601f82011682018060405250810190610efb91906115f9565b905090565b610f08611346565b5f8111610f4c5760405162461bcd60e51b81526020600482015260126024820152710416d6f756e74206d757374206265203e20360741b6044820152606401610489565b610f6c73833589fcd6edb6e08f4c7c32d4f71b54bda029133330846113d2565b335f9081526002602052604081208054839290610f8a9084906115bb565b925050819055508060075f828254610fa291906115bb565b909155505f9050610fb56103e8836115ce565b335f90815260036020526040812080549293508392909190610fd89084906115bb565b9091555050335f9081526006602052604081205460ff16900361100f57335f908152600660205260409020805460ff1916605a1790555b604080518381526020810183905233917f73a19dd210f1a7f902193214c0ee91dd35ee5b4d920cba8d519eca65a7b488ca910160405180910390a25061095660015f55565b335f9081526001602052604090205460ff166110825760405162461bcd60e51b815260040161048990611571565b61108a610e88565b8111156110cd5760405162461bcd60e51b8152602060048201526011602482015270139bdd08195b9bdd59da081b1a5c5d5a59607a1b6044820152606401610489565b8060085f8282546110de91906115bb565b90915550611103905073833589fcd6edb6e08f4c7c32d4f71b54bda02913838361136e565b6040518181526001600160a01b0383169033907f2623c3574780832e88d9b7d3a6f852c7974acb9020ce400d593f7e165982a6599060200160405180910390a35050565b335f9081526001602052604090205460ff166111755760405162461bcd60e51b815260040161048990611571565b6040516370a0823160e01b81523060048201525f9073833589fcd6edb6e08f4c7c32d4f71b54bda02913906370a0823190602401602060405180830381865afa1580156111c4573d5f803e3d5ffd5b505050506040513d601f19601f820116820180604052508101906111e891906115f9565b905061095673833589fcd6edb6e08f4c7c32d4f71b54bda02913338361136e565b5f80805b6001600160a01b0384165f908152600560205260409020548110156112c7576001600160a01b0384165f908152600560205260409020805482908110611255576112556115e5565b5f91825260209091206002600390920201015460ff166112b5576001600160a01b0384165f908152600560205260409020805482908110611298576112986115e5565b905f5260205f2090600302015f0154826112b291906115bb565b91505b806112bf81611610565b91505061120d565b5092915050565b6001600160a01b0381165f9081526002602090815260408083205460049092528220548290611300906103e890611628565b90505f61130c85611209565b905061131881836115bb565b831161132857505f949350505050565b8061133383856115a8565b61133d91906115a8565b95945050505050565b60025f540361136857604051633ee5aeb560e01b815260040160405180910390fd5b60025f55565b6040516001600160a01b038381166024830152604482018390526113cd91859182169063a9059cbb906064015b604051602081830303815290604052915060e01b6020820180516001600160e01b038381831617835250505050611411565b505050565b6040516001600160a01b03848116602483015283811660448301526064820183905261140b9186918216906323b872dd9060840161139b565b50505050565b5f8060205f8451602086015f885af180611430576040513d5f823e3d81fd5b50505f513d91508115611447578060011415611454565b6001600160a01b0384163b155b1561140b57604051635274afe760e01b81526001600160a01b0385166004820152602401610489565b5f6020828403121561148d575f80fd5b813560ff8116811461149d575f80fd5b9392505050565b80356001600160a01b03811681146114ba575f80fd5b919050565b5f602082840312156114cf575f80fd5b61149d826114a4565b5f80604083850312156114e9575f80fd5b6114f2836114a4565b946020939093013593505050565b5f60208284031215611510575f80fd5b5035919050565b602080825282518282018190525f919060409081850190868401855b8281101561156457815180518552868101518786015285015115158585015260609093019290850190600101611533565b5091979650505050505050565b6020808252600990820152682737ba1030b236b4b760b91b604082015260600190565b634e487b7160e01b5f52601160045260245ffd5b8181038181111561060857610608611594565b8082018082111561060857610608611594565b808202811582820484141761060857610608611594565b634e487b7160e01b5f52603260045260245ffd5b5f60208284031215611609575f80fd5b5051919050565b5f6001820161162157611621611594565b5060010190565b5f8261164257634e487b7160e01b5f52601260045260245ffd5b50049056fea2646970667358221220f63ece44af06e8cd2f2c316b13028cde4a874fbf2cff0e8509474b26760892a664736f6c63430008140033","linkReferences":{}},"methodIdentifiers":{"CREDITS_PER_DOLLAR()":"40d13825","USDC()":"89a30271","addAdmin(address)":"70480275","creditsUsed(address)":"1d84ee48","deployToYield(address,uint256)":"d852af62","deposit(uint256)":"b6b55f25","emergencyWithdraw()":"db2e21bc","getLiquidBalance()":"8ad40912","getPendingWithdrawals(address)":"f340c0d0","getSpendableCredits(address)":"1ac10332","getUserPosition(address)":"5b7c2dad","getWithdrawableAmount(address)":"f6777175","getWithdrawalRequests(address)":"7d031b65","isAdmin(address)":"24d7806c","processWithdrawal(address,uint256)":"8260910c","removeAdmin(address)":"1785f53c","returnFromYield(uint256)":"4f2b8c88","setYieldPreference(uint8)":"0888d35b","totalDeployed()":"0cfb14b0","totalDeposits()":"7d882097","useCredits(address,uint256)":"26691b6e","userCredits(address)":"20babb92","userDeposits(address)":"0ba36dcd","withdraw(uint256)":"2e1a7d4d","withdrawalRequests(address,uint256)":"4e5a2328","yieldKeepPercent(address)":"98c98d51"},"id":65}