{"abi":[{"type":"constructor","inputs":[{"name":"_suiteToken","type":"address","internalType":"address"},{"name":"_owner","type":"address","internalType":"address"}],"stateMutability":"nonpayable"},{"type":"function","name":"allocate","inputs":[{"name":"appId","type":"bytes32","internalType":"bytes32"},{"name":"amount","type":"uint256","internalType":"uint256"}],"outputs":[],"stateMutability":"nonpayable"},{"type":"function","name":"appTotalPower","inputs":[{"name":"","type":"bytes32","internalType":"bytes32"}],"outputs":[{"name":"","type":"uint256","internalType":"uint256"}],"stateMutability":"view"},{"type":"function","name":"deallocate","inputs":[{"name":"appId","type":"bytes32","internalType":"bytes32"},{"name":"amount","type":"uint256","internalType":"uint256"}],"outputs":[],"stateMutability":"nonpayable"},{"type":"function","name":"emergencyWithdraw","inputs":[{"name":"token","type":"address","internalType":"address"},{"name":"to","type":"address","internalType":"address"},{"name":"amount","type":"uint256","internalType":"uint256"}],"outputs":[],"stateMutability":"nonpayable"},{"type":"function","name":"getAppProgress","inputs":[{"name":"appId","type":"bytes32","internalType":"bytes32"}],"outputs":[{"name":"currentTier","type":"uint256","internalType":"uint256"},{"name":"currentPower","type":"uint256","internalType":"uint256"},{"name":"nextThreshold","type":"uint256","internalType":"uint256"},{"name":"progressBps","type":"uint256","internalType":"uint256"}],"stateMutability":"view"},{"type":"function","name":"getAppTier","inputs":[{"name":"appId","type":"bytes32","internalType":"bytes32"}],"outputs":[{"name":"tier","type":"uint256","internalType":"uint256"}],"stateMutability":"view"},{"type":"function","name":"getTierThresholds","inputs":[],"outputs":[{"name":"","type":"uint256[]","internalType":"uint256[]"}],"stateMutability":"view"},{"type":"function","name":"getUserAllocation","inputs":[{"name":"user","type":"address","internalType":"address"},{"name":"appId","type":"bytes32","internalType":"bytes32"}],"outputs":[{"name":"","type":"uint256","internalType":"uint256"}],"stateMutability":"view"},{"type":"function","name":"getUserApps","inputs":[{"name":"user","type":"address","internalType":"address"}],"outputs":[{"name":"","type":"bytes32[]","internalType":"bytes32[]"}],"stateMutability":"view"},{"type":"function","name":"getUserStake","inputs":[{"name":"user","type":"address","internalType":"address"}],"outputs":[{"name":"totalStaked","type":"uint256","internalType":"uint256"},{"name":"unallocatedPower","type":"uint256","internalType":"uint256"},{"name":"allocatedPower","type":"uint256","internalType":"uint256"}],"stateMutability":"view"},{"type":"function","name":"owner","inputs":[],"outputs":[{"name":"","type":"address","internalType":"address"}],"stateMutability":"view"},{"type":"function","name":"reallocate","inputs":[{"name":"fromAppId","type":"bytes32","internalType":"bytes32"},{"name":"toAppId","type":"bytes32","internalType":"bytes32"},{"name":"amount","type":"uint256","internalType":"uint256"}],"outputs":[],"stateMutability":"nonpayable"},{"type":"function","name":"renounceOwnership","inputs":[],"outputs":[],"stateMutability":"nonpayable"},{"type":"function","name":"setTierThresholds","inputs":[{"name":"newThresholds","type":"uint256[]","internalType":"uint256[]"}],"outputs":[],"stateMutability":"nonpayable"},{"type":"function","name":"stake","inputs":[{"name":"amount","type":"uint256","internalType":"uint256"}],"outputs":[],"stateMutability":"nonpayable"},{"type":"function","name":"suiteToken","inputs":[],"outputs":[{"name":"","type":"address","internalType":"contract IERC20"}],"stateMutability":"view"},{"type":"function","name":"tierThresholds","inputs":[{"name":"","type":"uint256","internalType":"uint256"}],"outputs":[{"name":"","type":"uint256","internalType":"uint256"}],"stateMutability":"view"},{"type":"function","name":"transferOwnership","inputs":[{"name":"newOwner","type":"address","internalType":"address"}],"outputs":[],"stateMutability":"nonpayable"},{"type":"function","name":"userAllocations","inputs":[{"name":"","type":"address","internalType":"address"},{"name":"","type":"bytes32","internalType":"bytes32"}],"outputs":[{"name":"","type":"uint256","internalType":"uint256"}],"stateMutability":"view"},{"type":"function","name":"userStakes","inputs":[{"name":"","type":"address","internalType":"address"}],"outputs":[{"name":"totalStaked","type":"uint256","internalType":"uint256"},{"name":"unallocatedPower","type":"uint256","internalType":"uint256"}],"stateMutability":"view"},{"type":"function","name":"withdraw","inputs":[{"name":"amount","type":"uint256","internalType":"uint256"}],"outputs":[],"stateMutability":"nonpayable"},{"type":"event","name":"OwnershipTransferred","inputs":[{"name":"previousOwner","type":"address","indexed":true,"internalType":"address"},{"name":"newOwner","type":"address","indexed":true,"internalType":"address"}],"anonymous":false},{"type":"event","name":"PowerAllocated","inputs":[{"name":"user","type":"address","indexed":true,"internalType":"address"},{"name":"appId","type":"bytes32","indexed":true,"internalType":"bytes32"},{"name":"amount","type":"uint256","indexed":false,"internalType":"uint256"}],"anonymous":false},{"type":"event","name":"PowerDeallocated","inputs":[{"name":"user","type":"address","indexed":true,"internalType":"address"},{"name":"appId","type":"bytes32","indexed":true,"internalType":"bytes32"},{"name":"amount","type":"uint256","indexed":false,"internalType":"uint256"}],"anonymous":false},{"type":"event","name":"Staked","inputs":[{"name":"user","type":"address","indexed":true,"internalType":"address"},{"name":"amount","type":"uint256","indexed":false,"internalType":"uint256"}],"anonymous":false},{"type":"event","name":"TierThresholdsUpdated","inputs":[{"name":"newThresholds","type":"uint256[]","indexed":false,"internalType":"uint256[]"}],"anonymous":false},{"type":"event","name":"Withdrawn","inputs":[{"name":"user","type":"address","indexed":true,"internalType":"address"},{"name":"amount","type":"uint256","indexed":false,"internalType":"uint256"}],"anonymous":false},{"type":"error","name":"OwnableInvalidOwner","inputs":[{"name":"owner","type":"address","internalType":"address"}]},{"type":"error","name":"OwnableUnauthorizedAccount","inputs":[{"name":"account","type":"address","internalType":"address"}]},{"type":"error","name":"ReentrancyGuardReentrantCall","inputs":[]},{"type":"error","name":"SafeERC20FailedOperation","inputs":[{"name":"token","type":"address","internalType":"address"}]}],"bytecode":{"object":"0x608060405234801562000010575f80fd5b50604051620016bc380380620016bc83398101604081905262000033916200027b565b806001600160a01b0381166200006257604051631e4fbdf760e01b81525f600482015260240160405180910390fd5b6200006d81620001ac565b5060018055600280546001600160a01b0319166001600160a01b03841617905560408051600580825260c08201909252906020820160a08036833750508151620000bf926003925060200190620001fb565b5069021e19e0c9bab240000060035f81548110620000e157620000e1620002b1565b905f5260205f200181905550690a968163f0a57b40000060036001815481106200010f576200010f620002b1565b905f5260205f200181905550692a5a058fc295ed00000060036002815481106200013d576200013d620002b1565b905f5260205f2001819055506969e10de76676d0800000600380815481106200016a576200016a620002b1565b905f5260205f20018190555069d3c21bcecceda10000006003600481548110620001985762000198620002b1565b905f5260205f2001819055505050620002c5565b5f80546001600160a01b038381166001600160a01b0319831681178455604051919092169283917f8be0079c531659141344cd1fd0a4f28419497f9722a3daafe3b4186f6b6457e09190a35050565b828054828255905f5260205f2090810192821562000237579160200282015b82811115620002375782518255916020019190600101906200021a565b506200024592915062000249565b5090565b5b8082111562000245575f81556001016200024a565b80516001600160a01b038116811462000276575f80fd5b919050565b5f80604083850312156200028d575f80fd5b62000298836200025f565b9150620002a8602084016200025f565b90509250929050565b634e487b7160e01b5f52603260045260245ffd5b6113e980620002d35f395ff3fe608060405234801561000f575f80fd5b5060043610610132575f3560e01c8063a22b6e8f116100b4578063d4a86a7b11610079578063d4a86a7b146102d6578063dbad3286146102e9578063e3961e7f146102fc578063e63ea4081461032f578063eece9a5f14610342578063f2fde38b14610355575f80fd5b8063a22b6e8f1461025c578063a694fc3a1461026f578063b8317c2c14610282578063bbadc93a14610295578063bcddaec3146102c3575f80fd5b8063715018a6116100fa578063715018a6146101cf5780637f7dccc1146101d75780638da5cb5b146101ea5780638da7ad231461020e578063a100d69d14610249575f80fd5b8063079db2f0146101365780632e1a7d4d146101685780633666e1431461017d57806344878150146101a75780635f443cb1146101bc575b5f80fd5b6101556101443660046110f1565b60056020525f908152604090205481565b6040519081526020015b60405180910390f35b61017b6101763660046110f1565b610368565b005b61015561018b366004611123565b600660209081525f928352604080842090915290825290205481565b6101af6104ee565b60405161015f919061114b565b61017b6101ca36600461118e565b610544565b61017b610689565b61017b6101e536600461118e565b61069c565b5f546001600160a01b03165b6040516001600160a01b03909116815260200161015f565b61023461021c3660046111ae565b60046020525f90815260409020805460019091015482565b6040805192835260208301919091520161015f565b6101556102573660046110f1565b610831565b6002546101f6906001600160a01b031681565b61017b61027d3660046110f1565b610850565b61017b6102903660046111ce565b61090a565b6102a86102a33660046111ae565b610a50565b6040805193845260208401929092529082015260600161015f565b6101556102d13660046110f1565b610a83565b6101af6102e43660046111ae565b610ae9565b61017b6102f736600461123d565b610b52565b61030f61030a3660046110f1565b610d5b565b60408051948552602085019390935291830152606082015260800161015f565b61017b61033d366004611266565b610e65565b610155610350366004611123565b610e81565b61017b6103633660046111ae565b610eab565b610370610ee5565b5f81116103985760405162461bcd60e51b815260040161038f9061129f565b60405180910390fd5b335f908152600460205260409020600101548111156103f95760405162461bcd60e51b815260206004820152601e60248201527f496e73756666696369656e7420756e616c6c6f636174656420706f7765720000604482015260640161038f565b335f9081526004602052604090205481111561044c5760405162461bcd60e51b8152602060048201526012602482015271496e73756666696369656e74207374616b6560701b604482015260640161038f565b335f908152600460205260408120805483929061046a9084906112df565b9091555050335f90815260046020526040812060010180548392906104909084906112df565b90915550506002546104ac906001600160a01b03163383610f0f565b60405181815233907f7084f5476618d8e60b11ef0d7d3f06914655adb8793e28ff7f018d4c76d505d5906020015b60405180910390a26104eb60018055565b50565b6060600380548060200260200160405190810160405280929190818152602001828054801561053a57602002820191905f5260205f20905b815481526020019060010190808311610526575b5050505050905090565b61054c610ee5565b5f811161056b5760405162461bcd60e51b815260040161038f9061129f565b335f9081526006602090815260408083208584529091529020548111156105ce5760405162461bcd60e51b815260206004820152601760248201527624b739bab33334b1b4b2b73a1030b63637b1b0ba34b7b760491b604482015260640161038f565b335f908152600660209081526040808320858452909152812080548392906105f79084906112df565b9091555050335f908152600460205260408120600101805483929061061d9084906112f2565b90915550505f828152600560205260408120805483929061063f9084906112df565b9091555050604051818152829033907fdb4586049dd2e81f9b7d6ae76a4f536db392ed64f1cecea3d37f2384dc097ac7906020015b60405180910390a361068560018055565b5050565b610691610f6e565b61069a5f610f9a565b565b6106a4610ee5565b5f81116106c35760405162461bcd60e51b815260040161038f9061129f565b335f908152600460205260409020600101548111156107245760405162461bcd60e51b815260206004820152601e60248201527f496e73756666696369656e7420756e616c6c6f636174656420706f7765720000604482015260640161038f565b335f90815260046020526040812060010180548392906107459084906112df565b9091555050335f908152600660209081526040808320858452909152812080548392906107739084906112f2565b90915550505f82815260056020526040812080548392906107959084906112f2565b9091555050335f90815260086020908152604080832085845290915290205460ff166107fd57335f81815260076020908152604080832080546001818101835591855283852001879055938352600882528083208684529091529020805460ff191690911790555b604051818152829033907f7c7ae633033450534a0b488d08eeb8360012c1ad2b623db82e5206357ab0962090602001610674565b60038181548110610840575f80fd5b5f91825260209091200154905081565b610858610ee5565b5f81116108775760405162461bcd60e51b815260040161038f9061129f565b60025461088f906001600160a01b0316333084610fe9565b335f90815260046020526040812080548392906108ad9084906112f2565b9091555050335f90815260046020526040812060010180548392906108d39084906112f2565b909155505060405181815233907f9e71bc8eea02a63969f509818f2dafb9254532904319f9dbda79b67bd34a5f3d906020016104da565b610912610f6e565b8061095f5760405162461bcd60e51b815260206004820152601b60248201527f4d7573742068617665206174206c65617374206f6e6520746965720000000000604482015260640161038f565b60015b81811015610a055782826109776001846112df565b81811061098657610986611305565b9050602002013583838381811061099f5761099f611305565b90506020020135116109f35760405162461bcd60e51b815260206004820152601c60248201527f5468726573686f6c6473206d75737420626520617363656e64696e6700000000604482015260640161038f565b806109fd81611319565b915050610962565b50610a1260038383611094565b507f0e95e2f8151b64e3a4102173a3a9044dce7294d9b0409e0831d6b9f2244e849d8282604051610a44929190611331565b60405180910390a15050565b6001600160a01b0381165f90815260046020526040812080546001909101549091610a7b82846112df565b929491935050565b5f818152600560205260408120546003545b8015610ae0576003610aa86001836112df565b81548110610ab857610ab8611305565b905f5260205f2001548210610ace579392505050565b80610ad881611368565b915050610a95565b505f9392505050565b6001600160a01b0381165f90815260076020908152604091829020805483518184028101840190945280845260609392830182828015610b4657602002820191905f5260205f20905b815481526020019060010190808311610b32575b50505050509050919050565b610b5a610ee5565b5f8111610b795760405162461bcd60e51b815260040161038f9061129f565b335f908152600660209081526040808320868452909152902054811115610bdc5760405162461bcd60e51b815260206004820152601760248201527624b739bab33334b1b4b2b73a1030b63637b1b0ba34b7b760491b604482015260640161038f565b335f90815260066020908152604080832086845290915281208054839290610c059084906112df565b90915550505f8381526005602052604081208054839290610c279084906112df565b9091555050335f90815260066020908152604080832085845290915281208054839290610c559084906112f2565b90915550505f8281526005602052604081208054839290610c779084906112f2565b9091555050335f90815260086020908152604080832085845290915290205460ff16610cdf57335f81815260076020908152604080832080546001818101835591855283852001879055938352600882528083208684529091529020805460ff191690911790555b604051818152839033907fdb4586049dd2e81f9b7d6ae76a4f536db392ed64f1cecea3d37f2384dc097ac79060200160405180910390a3604051818152829033907f7c7ae633033450534a0b488d08eeb8360012c1ad2b623db82e5206357ab096209060200160405180910390a3610d5660018055565b505050565b5f81815260056020526040812054600354829081905b8015610dbd576003610d846001836112df565b81548110610d9457610d94611305565b905f5260205f2001548410610dab57809450610dbd565b80610db581611368565b915050610d71565b506003548410610dd357505f9050612710610e5e565b60038481548110610de657610de6611305565b5f91825260208220015492508415610e23576003610e056001876112df565b81548110610e1557610e15611305565b905f5260205f200154610e25565b5f5b90505f610e3282856112df565b90505f610e3f83876112df565b905081610e4e8261271061137d565b610e589190611394565b93505050505b9193509193565b610e6d610f6e565b610d566001600160a01b0384168383610f0f565b6001600160a01b0382165f9081526006602090815260408083208484529091529020545b92915050565b610eb3610f6e565b6001600160a01b038116610edc57604051631e4fbdf760e01b81525f600482015260240161038f565b6104eb81610f9a565b600260015403610f0857604051633ee5aeb560e01b815260040160405180910390fd5b6002600155565b6040516001600160a01b03838116602483015260448201839052610d5691859182169063a9059cbb906064015b604051602081830303815290604052915060e01b6020820180516001600160e01b038381831617835250505050611028565b5f546001600160a01b0316331461069a5760405163118cdaa760e01b815233600482015260240161038f565b5f80546001600160a01b038381166001600160a01b0319831681178455604051919092169283917f8be0079c531659141344cd1fd0a4f28419497f9722a3daafe3b4186f6b6457e09190a35050565b6040516001600160a01b0384811660248301528381166044830152606482018390526110229186918216906323b872dd90608401610f3c565b50505050565b5f8060205f8451602086015f885af180611047576040513d5f823e3d81fd5b50505f513d9150811561105e57806001141561106b565b6001600160a01b0384163b155b1561102257604051635274afe760e01b81526001600160a01b038516600482015260240161038f565b828054828255905f5260205f209081019282156110cd579160200282015b828111156110cd5782358255916020019190600101906110b2565b506110d99291506110dd565b5090565b5b808211156110d9575f81556001016110de565b5f60208284031215611101575f80fd5b5035919050565b80356001600160a01b038116811461111e575f80fd5b919050565b5f8060408385031215611134575f80fd5b61113d83611108565b946020939093013593505050565b602080825282518282018190525f9190848201906040850190845b8181101561118257835183529284019291840191600101611166565b50909695505050505050565b5f806040838503121561119f575f80fd5b50508035926020909101359150565b5f602082840312156111be575f80fd5b6111c782611108565b9392505050565b5f80602083850312156111df575f80fd5b823567ffffffffffffffff808211156111f6575f80fd5b818501915085601f830112611209575f80fd5b813581811115611217575f80fd5b8660208260051b850101111561122b575f80fd5b60209290920196919550909350505050565b5f805f6060848603121561124f575f80fd5b505081359360208301359350604090920135919050565b5f805f60608486031215611278575f80fd5b61128184611108565b925061128f60208501611108565b9150604084013590509250925092565b6020808252601290820152710416d6f756e74206d757374206265203e20360741b604082015260600190565b634e487b7160e01b5f52601160045260245ffd5b81810381811115610ea557610ea56112cb565b80820180821115610ea557610ea56112cb565b634e487b7160e01b5f52603260045260245ffd5b5f6001820161132a5761132a6112cb565b5060010190565b602080825281018290525f6001600160fb1b0383111561134f575f80fd5b8260051b80856040850137919091016040019392505050565b5f81611376576113766112cb565b505f190190565b8082028115828204841417610ea557610ea56112cb565b5f826113ae57634e487b7160e01b5f52601260045260245ffd5b50049056fea2646970667358221220546a7a4c2ea1984adb8d893f1714029aa74eb03eaf7180984b0d4d8f6525ad0c64736f6c63430008140033","linkReferences":{}},"methodIdentifiers":{"allocate(bytes32,uint256)":"7f7dccc1","appTotalPower(bytes32)":"079db2f0","deallocate(bytes32,uint256)":"5f443cb1","emergencyWithdraw(address,address,uint256)":"e63ea408","getAppProgress(bytes32)":"e3961e7f","getAppTier(bytes32)":"bcddaec3","getTierThresholds()":"44878150","getUserAllocation(address,bytes32)":"eece9a5f","getUserApps(address)":"d4a86a7b","getUserStake(address)":"bbadc93a","owner()":"8da5cb5b","reallocate(bytes32,bytes32,uint256)":"dbad3286","renounceOwnership()":"715018a6","setTierThresholds(uint256[])":"b8317c2c","stake(uint256)":"a694fc3a","suiteToken()":"a22b6e8f","tierThresholds(uint256)":"a100d69d","transferOwnership(address)":"f2fde38b","userAllocations(address,bytes32)":"3666e143","userStakes(address)":"8da7ad23","withdraw(uint256)":"2e1a7d4d"},"id":60}