{"abi":[{"type":"constructor","inputs":[{"name":"_suiteToken","type":"address","internalType":"address"},{"name":"_swapRouter","type":"address","internalType":"address"},{"name":"_weth","type":"address","internalType":"address"},{"name":"_owner","type":"address","internalType":"address"}],"stateMutability":"nonpayable"},{"type":"receive","stateMutability":"payable"},{"type":"function","name":"BPS_DENOMINATOR","inputs":[],"outputs":[{"name":"","type":"uint256","internalType":"uint256"}],"stateMutability":"view"},{"type":"function","name":"INITIAL_RATE","inputs":[],"outputs":[{"name":"","type":"uint256","internalType":"uint256"}],"stateMutability":"view"},{"type":"function","name":"accumulatedFees","inputs":[],"outputs":[{"name":"","type":"uint256","internalType":"uint256"}],"stateMutability":"view"},{"type":"function","name":"defaultPoolFee","inputs":[],"outputs":[{"name":"","type":"uint24","internalType":"uint24"}],"stateMutability":"view"},{"type":"function","name":"depositETH","inputs":[],"outputs":[],"stateMutability":"payable"},{"type":"function","name":"depositFeeBps","inputs":[],"outputs":[{"name":"","type":"uint256","internalType":"uint256"}],"stateMutability":"view"},{"type":"function","name":"depositToken","inputs":[{"name":"token","type":"address","internalType":"address"},{"name":"amount","type":"uint256","internalType":"uint256"},{"name":"minETHOut","type":"uint256","internalType":"uint256"}],"outputs":[],"stateMutability":"nonpayable"},{"type":"function","name":"getTreasuryStats","inputs":[],"outputs":[{"name":"treasuryETH","type":"uint256","internalType":"uint256"},{"name":"totalSupply","type":"uint256","internalType":"uint256"},{"name":"suitePerETH","type":"uint256","internalType":"uint256"}],"stateMutability":"view"},{"type":"function","name":"maxSlippageBps","inputs":[],"outputs":[{"name":"","type":"uint256","internalType":"uint256"}],"stateMutability":"view"},{"type":"function","name":"owner","inputs":[],"outputs":[{"name":"","type":"address","internalType":"address"}],"stateMutability":"view"},{"type":"function","name":"previewDeposit","inputs":[{"name":"ethAmount","type":"uint256","internalType":"uint256"}],"outputs":[{"name":"suiteAmount","type":"uint256","internalType":"uint256"}],"stateMutability":"view"},{"type":"function","name":"previewWithdraw","inputs":[{"name":"suiteAmount","type":"uint256","internalType":"uint256"}],"outputs":[{"name":"ethAmount","type":"uint256","internalType":"uint256"}],"stateMutability":"view"},{"type":"function","name":"renounceOwnership","inputs":[],"outputs":[],"stateMutability":"nonpayable"},{"type":"function","name":"setFees","inputs":[{"name":"_depositFeeBps","type":"uint256","internalType":"uint256"},{"name":"_withdrawFeeBps","type":"uint256","internalType":"uint256"}],"outputs":[],"stateMutability":"nonpayable"},{"type":"function","name":"setSwapSettings","inputs":[{"name":"_poolFee","type":"uint24","internalType":"uint24"},{"name":"_maxSlippageBps","type":"uint256","internalType":"uint256"}],"outputs":[],"stateMutability":"nonpayable"},{"type":"function","name":"suiteToken","inputs":[],"outputs":[{"name":"","type":"address","internalType":"contract ISuiteToken"}],"stateMutability":"view"},{"type":"function","name":"swapRouter","inputs":[],"outputs":[{"name":"","type":"address","internalType":"contract ISwapRouter"}],"stateMutability":"view"},{"type":"function","name":"totalTreasuryETH","inputs":[],"outputs":[{"name":"","type":"uint256","internalType":"uint256"}],"stateMutability":"view"},{"type":"function","name":"transferOwnership","inputs":[{"name":"newOwner","type":"address","internalType":"address"}],"outputs":[],"stateMutability":"nonpayable"},{"type":"function","name":"weth","inputs":[],"outputs":[{"name":"","type":"address","internalType":"contract IWETH"}],"stateMutability":"view"},{"type":"function","name":"withdraw","inputs":[{"name":"suiteAmount","type":"uint256","internalType":"uint256"}],"outputs":[],"stateMutability":"nonpayable"},{"type":"function","name":"withdrawFeeBps","inputs":[],"outputs":[{"name":"","type":"uint256","internalType":"uint256"}],"stateMutability":"view"},{"type":"function","name":"withdrawFees","inputs":[{"name":"to","type":"address","internalType":"address"}],"outputs":[],"stateMutability":"nonpayable"},{"type":"event","name":"DepositedETH","inputs":[{"name":"user","type":"address","indexed":true,"internalType":"address"},{"name":"ethAmount","type":"uint256","indexed":false,"internalType":"uint256"},{"name":"suiteMinted","type":"uint256","indexed":false,"internalType":"uint256"}],"anonymous":false},{"type":"event","name":"DepositedToken","inputs":[{"name":"user","type":"address","indexed":true,"internalType":"address"},{"name":"token","type":"address","indexed":false,"internalType":"address"},{"name":"tokenAmount","type":"uint256","indexed":false,"internalType":"uint256"},{"name":"ethReceived","type":"uint256","indexed":false,"internalType":"uint256"},{"name":"suiteMinted","type":"uint256","indexed":false,"internalType":"uint256"}],"anonymous":false},{"type":"event","name":"FeesWithdrawn","inputs":[{"name":"to","type":"address","indexed":true,"internalType":"address"},{"name":"amount","type":"uint256","indexed":false,"internalType":"uint256"}],"anonymous":false},{"type":"event","name":"OwnershipTransferred","inputs":[{"name":"previousOwner","type":"address","indexed":true,"internalType":"address"},{"name":"newOwner","type":"address","indexed":true,"internalType":"address"}],"anonymous":false},{"type":"event","name":"Withdrawn","inputs":[{"name":"user","type":"address","indexed":true,"internalType":"address"},{"name":"suiteBurned","type":"uint256","indexed":false,"internalType":"uint256"},{"name":"ethReturned","type":"uint256","indexed":false,"internalType":"uint256"}],"anonymous":false},{"type":"error","name":"OwnableInvalidOwner","inputs":[{"name":"owner","type":"address","internalType":"address"}]},{"type":"error","name":"OwnableUnauthorizedAccount","inputs":[{"name":"account","type":"address","internalType":"address"}]},{"type":"error","name":"ReentrancyGuardReentrantCall","inputs":[]},{"type":"error","name":"SafeERC20FailedOperation","inputs":[{"name":"token","type":"address","internalType":"address"}]}],"bytecode":{"object":"0x6080604052603260068190556007556008805462ffffff1916610bb817905560646009553480156200002f575f80fd5b50604051620015d1380380620015d1833981016040819052620000529162000140565b806001600160a01b0381166200008157604051631e4fbdf760e01b81525f600482015260240160405180910390fd5b6200008c81620000d5565b505060018055600280546001600160a01b039485166001600160a01b0319918216179091556003805493851693821693909317909255600480549190931691161790556200019a565b5f80546001600160a01b038381166001600160a01b0319831681178455604051919092169283917f8be0079c531659141344cd1fd0a4f28419497f9722a3daafe3b4186f6b6457e09190a35050565b80516001600160a01b03811681146200013b575f80fd5b919050565b5f805f806080858703121562000154575f80fd5b6200015f8562000124565b93506200016f6020860162000124565b92506200017f6040860162000124565b91506200018f6060860162000124565b905092959194509250565b61142980620001a85f395ff3fe60806040526004361061013f575f3560e01c80637aca2b59116100b3578063c4aa73951161006d578063c4aa73951461035e578063c8692e3f14610373578063e1a45218146103a2578063ef8b30f7146103b7578063f2fde38b146103d6578063f6326fb3146103f5575f80fd5b80637aca2b59146102bb5780638da5cb5b146102d057806399c6d2de146102ec578063a22b6e8f1461030b578063ab8798271461032a578063c31c9c071461033f575f80fd5b80633fc8cef3116101045780633fc8cef3146101fa5780634dbac7331461023157806355c7aaeb1461024e578063587f5ed7146102635780636f60a6dd14610278578063715018a6146102a7575f80fd5b80630a28a4771461014a5780630b78f9c01461017c578063164e68de1461019d57806320090b8c146101bc5780632e1a7d4d146101db575f80fd5b3661014657005b5f80fd5b348015610155575f80fd5b5061016961016436600461124f565b6103fd565b6040519081526020015b60405180910390f35b348015610187575f80fd5b5061019b610196366004611266565b6104fa565b005b3480156101a8575f80fd5b5061019b6101b73660046112a1565b6105a5565b3480156101c7575f80fd5b5061019b6101d63660046112ba565b6106c3565b3480156101e6575f80fd5b5061019b6101f536600461124f565b6106e9565b348015610205575f80fd5b50600454610219906001600160a01b031681565b6040516001600160a01b039091168152602001610173565b34801561023c575f80fd5b5061016969d3c21bcecceda100000081565b348015610259575f80fd5b5061016960055481565b34801561026e575f80fd5b50610169600a5481565b348015610283575f80fd5b506008546102939062ffffff1681565b60405162ffffff9091168152602001610173565b3480156102b2575f80fd5b5061019b610a2a565b3480156102c6575f80fd5b5061016960075481565b3480156102db575f80fd5b505f546001600160a01b0316610219565b3480156102f7575f80fd5b5061019b6103063660046112eb565b610a3d565b348015610316575f80fd5b50600254610219906001600160a01b031681565b348015610335575f80fd5b5061016960065481565b34801561034a575f80fd5b50600354610219906001600160a01b031681565b348015610369575f80fd5b5061016960095481565b34801561037e575f80fd5b50610387610dab565b60408051938452602084019290925290820152606001610173565b3480156103ad575f80fd5b5061016961271081565b3480156103c2575f80fd5b506101696103d136600461124f565b610e70565b3480156103e1575f80fd5b5061019b6103f03660046112a1565b610ead565b61019b610ee7565b5f8060025f9054906101000a90046001600160a01b03166001600160a01b03166318160ddd6040518163ffffffff1660e01b8152600401602060405180830381865afa15801561044f573d5f803e3d5ffd5b505050506040513d601f19601f82011682018060405250810190610473919061131b565b9050805f0361048457505f92915050565b5f8161049885670de0b6b3a7640000611346565b6104a29190611363565b90505f670de0b6b3a7640000600554836104bc9190611346565b6104c69190611363565b90505f612710600754836104da9190611346565b6104e49190611363565b90506104f08183611382565b9695505050505050565b610502611018565b6101f48211156105505760405162461bcd60e51b8152602060048201526014602482015273088cae0dee6d2e840cccaca40e8dede40d0d2ced60631b60448201526064015b60405180910390fd5b6101f481111561059a5760405162461bcd60e51b81526020600482015260156024820152740aed2e8d0c8e4c2ee40cccaca40e8dede40d0d2ced605b1b6044820152606401610547565b600691909155600755565b6105ad611018565b600a54806105e75760405162461bcd60e51b81526020600482015260076024820152664e6f206665657360c81b6044820152606401610547565b5f600a8190556040516001600160a01b0384169083908381818185875af1925050503d805f8114610633576040519150601f19603f3d011682016040523d82523d5f602084013e610638565b606091505b505090508061067b5760405162461bcd60e51b815260206004820152600f60248201526e151c985b9cd9995c8819985a5b1959608a1b6044820152606401610547565b826001600160a01b03167fc0819c13be868895eb93e40eaceb96de976442fa1d404e5c55f14bb65a8c489a836040516106b691815260200190565b60405180910390a2505050565b6106cb611018565b6008805462ffffff191662ffffff9390931692909217909155600955565b6106f1611044565b5f81116107105760405162461bcd60e51b815260040161054790611395565b600254604080516318160ddd60e01b815290515f926001600160a01b0316916318160ddd9160048083019260209291908290030181865afa158015610757573d5f803e3d5ffd5b505050506040513d601f19601f8201168201806040525081019061077b919061131b565b90505f81116107cc5760405162461bcd60e51b815260206004820152601760248201527f4e6f20535549544520696e2063697263756c6174696f6e0000000000000000006044820152606401610547565b5f816107e084670de0b6b3a7640000611346565b6107ea9190611363565b90505f670de0b6b3a7640000600554836108049190611346565b61080e9190611363565b90505f612710600754836108229190611346565b61082c9190611363565b90505f6108398284611382565b905081600a5f82825461084c91906113c1565b9091555050806108955760405162461bcd60e51b815260206004820152601460248201527315da5d1a191c985dd85b081d1bdbc81cdb585b1b60621b6044820152606401610547565b824710156108dd5760405162461bcd60e51b8152602060048201526015602482015274496e73756666696369656e7420747265617375727960581b6044820152606401610547565b8260055f8282546108ee9190611382565b909155505060025460405163079cc67960e41b8152336004820152602481018890526001600160a01b03909116906379cc6790906044015f604051808303815f87803b15801561093c575f80fd5b505af115801561094e573d5f803e3d5ffd5b50506040515f925033915083908381818185875af1925050503d805f8114610991576040519150601f19603f3d011682016040523d82523d5f602084013e610996565b606091505b50509050806109dd5760405162461bcd60e51b8152602060048201526013602482015272115512081d1c985b9cd9995c8819985a5b1959606a1b6044820152606401610547565b604080518881526020810184905233917f92ccf450a286a957af52509bc1c9939d1a6a481783e142e41e2499f0bb66ebc6910160405180910390a2505050505050610a2760018055565b50565b610a32611018565b610a3b5f61106e565b565b610a45611044565b5f8211610a645760405162461bcd60e51b815260040161054790611395565b6001600160a01b038316610aaa5760405162461bcd60e51b815260206004820152600d60248201526c24b73b30b634b2103a37b5b2b760991b6044820152606401610547565b610abf6001600160a01b0384163330856110bd565b60035460405163095ea7b360e01b81526001600160a01b039182166004820152602481018490529084169063095ea7b3906044016020604051808303815f875af1158015610b0f573d5f803e3d5ffd5b505050506040513d601f19601f82011682018060405250810190610b3391906113d4565b506040805160e0810182526001600160a01b0385811682526004805482166020840190815260085462ffffff9081168587019081523060608701908152608087018a815260a088018a81525f60c08a018181526003549b516304e45aaf60e01b81528b518b169981019990995296518916602489015293519094166044870152905186166064860152516084850152905160a48401529051831660c48301529293909116906304e45aaf9060e4016020604051808303815f875af1158015610bfd573d5f803e3d5ffd5b505050506040513d601f19601f82011682018060405250810190610c21919061131b565b60048054604051632e1a7d4d60e01b81529293506001600160a01b031691632e1a7d4d91610c559185910190815260200190565b5f604051808303815f87803b158015610c6c575f80fd5b505af1158015610c7e573d5f803e3d5ffd5b505050505f61271060065483610c949190611346565b610c9e9190611363565b90505f610cab8284611382565b905081600a5f828254610cbe91906113c1565b909155505f9050610cce8261111d565b90508160055f828254610ce191906113c1565b90915550506002546040516340c10f1960e01b8152336004820152602481018390526001600160a01b03909116906340c10f19906044015f604051808303815f87803b158015610d2f575f80fd5b505af1158015610d41573d5f803e3d5ffd5b5050604080516001600160a01b038c168152602081018b9052908101879052606081018490523392507faeb7dfde5847914a0b1021473b079501e5ef6515ff9d5d715b394ba9f0ec492d915060800160405180910390a25050505050610da660018055565b505050565b600554600254604080516318160ddd60e01b815290515f9283926001600160a01b03909116916318160ddd916004808201926020929091908290030181865afa158015610dfa573d5f803e3d5ffd5b505050506040513d601f19601f82011682018060405250810190610e1e919061131b565b9150821580610e2b575081155b15610e5357610e4c670de0b6b3a764000069d3c21bcecceda1000000611363565b9050909192565b82610e6683670de0b6b3a7640000611346565b610e4c9190611363565b5f8061271060065484610e839190611346565b610e8d9190611363565b90505f610e9a8285611382565b9050610ea58161111d565b949350505050565b610eb5611018565b6001600160a01b038116610ede57604051631e4fbdf760e01b81525f6004820152602401610547565b610a278161106e565b610eef611044565b5f3411610f0e5760405162461bcd60e51b815260040161054790611395565b5f61271060065434610f209190611346565b610f2a9190611363565b90505f610f378234611382565b905081600a5f828254610f4a91906113c1565b909155505f9050610f5a8261111d565b90508160055f828254610f6d91906113c1565b90915550506002546040516340c10f1960e01b8152336004820152602481018390526001600160a01b03909116906340c10f19906044015f604051808303815f87803b158015610fbb575f80fd5b505af1158015610fcd573d5f803e3d5ffd5b505060408051348152602081018590523393507fb9f28a03aea3165eb6be29a19377e5e423ffcb5cfdd0d9a66b252b14b9cc741892500160405180910390a2505050610a3b60018055565b5f546001600160a01b03163314610a3b5760405163118cdaa760e01b8152336004820152602401610547565b60026001540361106757604051633ee5aeb560e01b815260040160405180910390fd5b6002600155565b5f80546001600160a01b038381166001600160a01b0319831681178455604051919092169283917f8be0079c531659141344cd1fd0a4f28419497f9722a3daafe3b4186f6b6457e09190a35050565b604080516001600160a01b0385811660248301528416604482015260648082018490528251808303909101815260849091019091526020810180516001600160e01b03166323b872dd60e01b1790526111179085906111e3565b50505050565b5f8060025f9054906101000a90046001600160a01b03166001600160a01b03166318160ddd6040518163ffffffff1660e01b8152600401602060405180830381865afa15801561116f573d5f803e3d5ffd5b505050506040513d601f19601f82011682018060405250810190611193919061131b565b90506005545f14806111a3575080155b156111d657670de0b6b3a76400006111c569d3c21bcecceda100000085611346565b6111cf9190611363565b9392505050565b6005546111c58285611346565b5f8060205f8451602086015f885af180611202576040513d5f823e3d81fd5b50505f513d91508115611219578060011415611226565b6001600160a01b0384163b155b1561111757604051635274afe760e01b81526001600160a01b0385166004820152602401610547565b5f6020828403121561125f575f80fd5b5035919050565b5f8060408385031215611277575f80fd5b50508035926020909101359150565b80356001600160a01b038116811461129c575f80fd5b919050565b5f602082840312156112b1575f80fd5b6111cf82611286565b5f80604083850312156112cb575f80fd5b823562ffffff811681146112dd575f80fd5b946020939093013593505050565b5f805f606084860312156112fd575f80fd5b61130684611286565b95602085013595506040909401359392505050565b5f6020828403121561132b575f80fd5b5051919050565b634e487b7160e01b5f52601160045260245ffd5b808202811582820484141761135d5761135d611332565b92915050565b5f8261137d57634e487b7160e01b5f52601260045260245ffd5b500490565b8181038181111561135d5761135d611332565b6020808252601290820152710416d6f756e74206d757374206265203e20360741b604082015260600190565b8082018082111561135d5761135d611332565b5f602082840312156113e4575f80fd5b815180151581146111cf575f80fdfea2646970667358221220ef29533fa128e5ddc91dfbb8e97c6d925d26cfd2afd5d6d0018a278a4421532564736f6c63430008140033","linkReferences":{}},"methodIdentifiers":{"BPS_DENOMINATOR()":"e1a45218","INITIAL_RATE()":"4dbac733","accumulatedFees()":"587f5ed7","defaultPoolFee()":"6f60a6dd","depositETH()":"f6326fb3","depositFeeBps()":"ab879827","depositToken(address,uint256,uint256)":"99c6d2de","getTreasuryStats()":"c8692e3f","maxSlippageBps()":"c4aa7395","owner()":"8da5cb5b","previewDeposit(uint256)":"ef8b30f7","previewWithdraw(uint256)":"0a28a477","renounceOwnership()":"715018a6","setFees(uint256,uint256)":"0b78f9c0","setSwapSettings(uint24,uint256)":"20090b8c","suiteToken()":"a22b6e8f","swapRouter()":"c31c9c07","totalTreasuryETH()":"55c7aaeb","transferOwnership(address)":"f2fde38b","weth()":"3fc8cef3","withdraw(uint256)":"2e1a7d4d","withdrawFeeBps()":"7aca2b59","withdrawFees(address)":"164e68de"},"id":67}