{"abi":[{"type":"constructor","inputs":[{"name":"_baseAsset","type":"address","internalType":"address"},{"name":"_suiteToken","type":"address","internalType":"address"},{"name":"_yearnVault","type":"address","internalType":"address"},{"name":"_owner","type":"address","internalType":"address"},{"name":"_treasury","type":"address","internalType":"address"}],"stateMutability":"nonpayable"},{"type":"function","name":"BPS_DENOMINATOR","inputs":[],"outputs":[{"name":"","type":"uint256","internalType":"uint256"}],"stateMutability":"view"},{"type":"function","name":"MAX_FEE_BPS","inputs":[],"outputs":[{"name":"","type":"uint256","internalType":"uint256"}],"stateMutability":"view"},{"type":"function","name":"accumulatedFees","inputs":[],"outputs":[{"name":"","type":"uint256","internalType":"uint256"}],"stateMutability":"view"},{"type":"function","name":"baseAsset","inputs":[],"outputs":[{"name":"","type":"address","internalType":"contract IERC20"}],"stateMutability":"view"},{"type":"function","name":"buyCredits","inputs":[{"name":"suiteAmount","type":"uint256","internalType":"uint256"}],"outputs":[{"name":"creditsAmount","type":"uint256","internalType":"uint256"}],"stateMutability":"nonpayable"},{"type":"function","name":"creditsBonusBps","inputs":[],"outputs":[{"name":"","type":"uint256","internalType":"uint256"}],"stateMutability":"view"},{"type":"function","name":"creditsToken","inputs":[],"outputs":[{"name":"","type":"address","internalType":"contract ISuiteCredits"}],"stateMutability":"view"},{"type":"function","name":"deposit","inputs":[{"name":"amount","type":"uint256","internalType":"uint256"}],"outputs":[{"name":"suiteAmount","type":"uint256","internalType":"uint256"}],"stateMutability":"nonpayable"},{"type":"function","name":"depositFeeBps","inputs":[],"outputs":[{"name":"","type":"uint256","internalType":"uint256"}],"stateMutability":"view"},{"type":"function","name":"getSharePrice","inputs":[],"outputs":[{"name":"price","type":"uint256","internalType":"uint256"}],"stateMutability":"view"},{"type":"function","name":"getTotalAssets","inputs":[],"outputs":[{"name":"","type":"uint256","internalType":"uint256"}],"stateMutability":"view"},{"type":"function","name":"getUserPosition","inputs":[{"name":"user","type":"address","internalType":"address"}],"outputs":[{"name":"suiteBalance","type":"uint256","internalType":"uint256"},{"name":"assetValue","type":"uint256","internalType":"uint256"},{"name":"shareOfVault","type":"uint256","internalType":"uint256"}],"stateMutability":"view"},{"type":"function","name":"getVaultStats","inputs":[],"outputs":[{"name":"totalAssets","type":"uint256","internalType":"uint256"},{"name":"totalSupply","type":"uint256","internalType":"uint256"},{"name":"sharePrice","type":"uint256","internalType":"uint256"},{"name":"yearnShares","type":"uint256","internalType":"uint256"}],"stateMutability":"view"},{"type":"function","name":"migrateYearnVault","inputs":[{"name":"newYearnVault","type":"address","internalType":"address"}],"outputs":[],"stateMutability":"nonpayable"},{"type":"function","name":"minDeposit","inputs":[],"outputs":[{"name":"","type":"uint256","internalType":"uint256"}],"stateMutability":"view"},{"type":"function","name":"owner","inputs":[],"outputs":[{"name":"","type":"address","internalType":"address"}],"stateMutability":"view"},{"type":"function","name":"pause","inputs":[],"outputs":[],"stateMutability":"nonpayable"},{"type":"function","name":"paused","inputs":[],"outputs":[{"name":"","type":"bool","internalType":"bool"}],"stateMutability":"view"},{"type":"function","name":"previewBuyCredits","inputs":[{"name":"suiteAmount","type":"uint256","internalType":"uint256"}],"outputs":[{"name":"creditsAmount","type":"uint256","internalType":"uint256"}],"stateMutability":"view"},{"type":"function","name":"previewDeposit","inputs":[{"name":"assetAmount","type":"uint256","internalType":"uint256"}],"outputs":[{"name":"suiteAmount","type":"uint256","internalType":"uint256"}],"stateMutability":"view"},{"type":"function","name":"previewWithdraw","inputs":[{"name":"suiteAmount","type":"uint256","internalType":"uint256"}],"outputs":[{"name":"assetAmount","type":"uint256","internalType":"uint256"}],"stateMutability":"view"},{"type":"function","name":"renounceOwnership","inputs":[],"outputs":[],"stateMutability":"nonpayable"},{"type":"function","name":"setCreditsBonusBps","inputs":[{"name":"newBonusBps","type":"uint256","internalType":"uint256"}],"outputs":[],"stateMutability":"nonpayable"},{"type":"function","name":"setCreditsToken","inputs":[{"name":"_creditsToken","type":"address","internalType":"address"}],"outputs":[],"stateMutability":"nonpayable"},{"type":"function","name":"setFees","inputs":[{"name":"_depositFeeBps","type":"uint256","internalType":"uint256"},{"name":"_withdrawFeeBps","type":"uint256","internalType":"uint256"}],"outputs":[],"stateMutability":"nonpayable"},{"type":"function","name":"setMinDeposit","inputs":[{"name":"_minDeposit","type":"uint256","internalType":"uint256"}],"outputs":[],"stateMutability":"nonpayable"},{"type":"function","name":"setTreasury","inputs":[{"name":"_treasury","type":"address","internalType":"address"}],"outputs":[],"stateMutability":"nonpayable"},{"type":"function","name":"suiteToken","inputs":[],"outputs":[{"name":"","type":"address","internalType":"contract ISuiteShareToken"}],"stateMutability":"view"},{"type":"function","name":"transferOwnership","inputs":[{"name":"newOwner","type":"address","internalType":"address"}],"outputs":[],"stateMutability":"nonpayable"},{"type":"function","name":"treasury","inputs":[],"outputs":[{"name":"","type":"address","internalType":"address"}],"stateMutability":"view"},{"type":"function","name":"unpause","inputs":[],"outputs":[],"stateMutability":"nonpayable"},{"type":"function","name":"withdraw","inputs":[{"name":"suiteAmount","type":"uint256","internalType":"uint256"}],"outputs":[{"name":"assetAmount","type":"uint256","internalType":"uint256"}],"stateMutability":"nonpayable"},{"type":"function","name":"withdrawFeeBps","inputs":[],"outputs":[{"name":"","type":"uint256","internalType":"uint256"}],"stateMutability":"view"},{"type":"function","name":"withdrawFees","inputs":[],"outputs":[],"stateMutability":"nonpayable"},{"type":"function","name":"yearnVault","inputs":[],"outputs":[{"name":"","type":"address","internalType":"contract IYearnVault"}],"stateMutability":"view"},{"type":"event","name":"ConvertedToCredits","inputs":[{"name":"user","type":"address","indexed":true,"internalType":"address"},{"name":"suiteAmount","type":"uint256","indexed":false,"internalType":"uint256"},{"name":"creditsAmount","type":"uint256","indexed":false,"internalType":"uint256"}],"anonymous":false},{"type":"event","name":"CreditsBonusUpdated","inputs":[{"name":"oldBps","type":"uint256","indexed":false,"internalType":"uint256"},{"name":"newBps","type":"uint256","indexed":false,"internalType":"uint256"}],"anonymous":false},{"type":"event","name":"CreditsTokenSet","inputs":[{"name":"creditsToken","type":"address","indexed":true,"internalType":"address"}],"anonymous":false},{"type":"event","name":"Deposited","inputs":[{"name":"user","type":"address","indexed":true,"internalType":"address"},{"name":"assetAmount","type":"uint256","indexed":false,"internalType":"uint256"},{"name":"suiteAmount","type":"uint256","indexed":false,"internalType":"uint256"},{"name":"yearnSharesReceived","type":"uint256","indexed":false,"internalType":"uint256"}],"anonymous":false},{"type":"event","name":"FeesUpdated","inputs":[{"name":"depositFeeBps","type":"uint256","indexed":false,"internalType":"uint256"},{"name":"withdrawFeeBps","type":"uint256","indexed":false,"internalType":"uint256"}],"anonymous":false},{"type":"event","name":"FeesWithdrawn","inputs":[{"name":"to","type":"address","indexed":true,"internalType":"address"},{"name":"amount","type":"uint256","indexed":false,"internalType":"uint256"}],"anonymous":false},{"type":"event","name":"OwnershipTransferred","inputs":[{"name":"previousOwner","type":"address","indexed":true,"internalType":"address"},{"name":"newOwner","type":"address","indexed":true,"internalType":"address"}],"anonymous":false},{"type":"event","name":"Paused","inputs":[{"name":"account","type":"address","indexed":false,"internalType":"address"}],"anonymous":false},{"type":"event","name":"TreasuryUpdated","inputs":[{"name":"oldTreasury","type":"address","indexed":true,"internalType":"address"},{"name":"newTreasury","type":"address","indexed":true,"internalType":"address"}],"anonymous":false},{"type":"event","name":"Unpaused","inputs":[{"name":"account","type":"address","indexed":false,"internalType":"address"}],"anonymous":false},{"type":"event","name":"Withdrawn","inputs":[{"name":"user","type":"address","indexed":true,"internalType":"address"},{"name":"suiteAmount","type":"uint256","indexed":false,"internalType":"uint256"},{"name":"assetAmount","type":"uint256","indexed":false,"internalType":"uint256"},{"name":"yearnSharesBurned","type":"uint256","indexed":false,"internalType":"uint256"}],"anonymous":false},{"type":"event","name":"YearnVaultMigrated","inputs":[{"name":"oldVault","type":"address","indexed":true,"internalType":"address"},{"name":"newVault","type":"address","indexed":true,"internalType":"address"},{"name":"totalAssets","type":"uint256","indexed":false,"internalType":"uint256"}],"anonymous":false},{"type":"error","name":"AmountTooSmall","inputs":[]},{"type":"error","name":"CreditsTokenNotSet","inputs":[]},{"type":"error","name":"EnforcedPause","inputs":[]},{"type":"error","name":"ExpectedPause","inputs":[]},{"type":"error","name":"FeeTooHigh","inputs":[]},{"type":"error","name":"InsufficientBalance","inputs":[]},{"type":"error","name":"InsufficientYearnLiquidity","inputs":[]},{"type":"error","name":"InvalidYearnVault","inputs":[]},{"type":"error","name":"OwnableInvalidOwner","inputs":[{"name":"owner","type":"address","internalType":"address"}]},{"type":"error","name":"OwnableUnauthorizedAccount","inputs":[{"name":"account","type":"address","internalType":"address"}]},{"type":"error","name":"ReentrancyGuardReentrantCall","inputs":[]},{"type":"error","name":"SafeERC20FailedOperation","inputs":[{"name":"token","type":"address","internalType":"address"}]},{"type":"error","name":"SameVault","inputs":[]},{"type":"error","name":"ZeroAddress","inputs":[]},{"type":"error","name":"ZeroAmount","inputs":[]}],"bytecode":{"object":"0x60c0604052612710600455620f42406005555f6006555f60075534801562000025575f80fd5b506040516200247e3803806200247e8339810160408190526200004891620002e0565b816001600160a01b0381166200007757604051631e4fbdf760e01b81525f600482015260240160405180910390fd5b620000828162000275565b50600180556001600160a01b038516620000af5760405163d92e233d60e01b815260040160405180910390fd5b6001600160a01b038416620000d75760405163d92e233d60e01b815260040160405180910390fd5b6001600160a01b038316620000ff5760405163d92e233d60e01b815260040160405180910390fd5b6001600160a01b038116620001275760405163d92e233d60e01b815260040160405180910390fd5b6001600160a01b03808616608081905285821660a052600380548684166001600160a01b03199182168117909255600980549486169490911693909317909255604080516338d52e0f60e01b815290519192916338d52e0f916004808201926020929091908290030181865afa158015620001a4573d5f803e3d5ffd5b505050506040513d601f19601f82011682018060405250810190620001ca91906200034c565b6001600160a01b031614620001f2576040516318d33ac560e31b815260040160405180910390fd5b60805160405163095ea7b360e01b81526001600160a01b0385811660048301525f1960248301529091169063095ea7b3906044016020604051808303815f875af115801562000243573d5f803e3d5ffd5b505050506040513d601f19601f820116820180604052508101906200026991906200036f565b50505050505062000390565b5f80546001600160a01b038381166001600160a01b0319831681178455604051919092169283917f8be0079c531659141344cd1fd0a4f28419497f9722a3daafe3b4186f6b6457e09190a35050565b80516001600160a01b0381168114620002db575f80fd5b919050565b5f805f805f60a08688031215620002f5575f80fd5b6200030086620002c4565b94506200031060208701620002c4565b93506200032060408701620002c4565b92506200033060608701620002c4565b91506200034060808701620002c4565b90509295509295909350565b5f602082840312156200035d575f80fd5b6200036882620002c4565b9392505050565b5f6020828403121562000380575f80fd5b8151801515811462000368575f80fd5b60805160a051612055620004295f395f81816103880152818161069f0152818161075e01528181610c8401528181610dcc015281816110470152818161112c0152818161119c015281816113a5015281816116f4015281816119d90152611d3301525f818161041e015281816108a101528181610a6901528181610b6f01528181610efb01528181610fce015261150401526120555ff3fe608060405234801561000f575f80fd5b5060043610610208575f3560e01c80638456cb591161011f578063bca1b560116100a9578063ec5aaa2011610079578063ec5aaa2014610452578063ef8b30f71461045b578063f0f442601461046e578063f2fde38b14610481578063f7c208b314610494575f80fd5b8063bca1b56014610406578063cdf456e114610419578063d55be8c614610440578063e1a4521814610449575f80fd5b8063a22b6e8f116100ef578063a22b6e8f14610383578063a59aa5a6146103aa578063a7553109146103d2578063ab879827146103ea578063b6b55f25146103f3575f80fd5b80638456cb59146103455780638da5cb5b1461034d5780638fcc9cfb1461035d5780639db5df4614610370575f80fd5b8063476343ee116101a05780635c975abb116101705780635c975abb146102eb57806361d027b3146103015780636e07302b1461032c578063715018a6146103345780637aca2b591461033c575f80fd5b8063476343ee146102a4578063587f5ed7146102ac5780635b1dac60146102b55780635b7c2dad146102bd575f80fd5b8063263b8a6e116101db578063263b8a6e1461026d5780632e1a7d4d146102805780633f4ba83a1461029357806341b3d1851461029b575f80fd5b806305e9b0681461020c5780630a28a477146102215780630b78f9c0146102475780630c4dfe3f1461025a575b5f80fd5b61021f61021a366004611ef1565b6104a7565b005b61023461022f366004611ef1565b6104f5565b6040519081526020015b60405180910390f35b61021f610255366004611f08565b6105a3565b610234610268366004611ef1565b610631565b61021f61027b366004611f3c565b610835565b61023461028e366004611ef1565b610c44565b61021f610f73565b61023460055481565b61021f610f85565b61023460085481565b610234611043565b6102d06102cb366004611f3c565b611107565b6040805193845260208401929092529082015260600161023e565b60025460ff16604051901515815260200161023e565b600954610314906001600160a01b031681565b6040516001600160a01b03909116815260200161023e565b61023461127a565b61021f611369565b61023460075481565b61021f61137a565b5f546001600160a01b0316610314565b61021f61036b366004611ef1565b61138a565b600354610314906001600160a01b031681565b6103147f000000000000000000000000000000000000000000000000000000000000000081565b6103b2611397565b60408051948552602085019390935291830152606082015260800161023e565b6002546103149061010090046001600160a01b031681565b61023460065481565b610234610401366004611ef1565b6114a3565b61021f610414366004611f3c565b6117a3565b6103147f000000000000000000000000000000000000000000000000000000000000000081565b6102346101f481565b61023461271081565b61023460045481565b610234610469366004611ef1565b611823565b61021f61047c366004611f3c565b6118c8565b61021f61048f366004611f3c565b611948565b6102346104a2366004611ef1565b611987565b6104af6119a9565b600480549082905560408051828152602081018490527fbb295c2eea583d2681d2aff19976cbda3d87e6607416e36f7f5bbc12230fa4cf91015b60405180910390a15050565b5f80610500836119d5565b60035460405163266d6a8360e11b8152600481018390529192505f916001600160a01b0390911690634cdad50690602401602060405180830381865afa15801561054c573d5f803e3d5ffd5b505050506040513d601f19601f820116820180604052508101906105709190611f5e565b90505f612710600754836105849190611f89565b61058e9190611fa0565b905061059a8183611fbf565b95945050505050565b6105ab6119a9565b6101f48211156105ce5760405163cd4e616760e01b815260040160405180910390fd5b6101f48111156105f15760405163cd4e616760e01b815260040160405180910390fd5b6006829055600781905560408051838152602081018390527f5c6323bf1c2d7aaea2c091a4751c1c87af7f2864650c336507a77d0557af37a191016104e9565b5f61063a611af1565b60025461010090046001600160a01b031661066857604051637af6c49760e01b815260040160405180910390fd5b815f0361068857604051631f2a200560e01b815260040160405180910390fd5b6040516370a0823160e01b815233600482015282907f00000000000000000000000000000000000000000000000000000000000000006001600160a01b0316906370a0823190602401602060405180830381865afa1580156106ec573d5f803e3d5ffd5b505050506040513d601f19601f820116820180604052508101906107109190611f5e565b101561072f57604051631e9acf1760e31b815260040160405180910390fd5b612710600454836107409190611f89565b61074a9190611fa0565b600954909150610789906001600160a01b037f000000000000000000000000000000000000000000000000000000000000000081169133911685611b1b565b6002546040516340c10f1960e01b8152336004820152602481018390526101009091046001600160a01b0316906340c10f19906044015f604051808303815f87803b1580156107d6575f80fd5b505af11580156107e8573d5f803e3d5ffd5b505060408051858152602081018590523393507fe40cb9523a5ab5cf1f2873342da352b0f271d55b0c5725f9c5fe087fe3e1fbf492500160405180910390a261083060018055565b919050565b61083d6119a9565b610845611af1565b6001600160a01b03811661086c5760405163d92e233d60e01b815260040160405180910390fd5b6003546001600160a01b039081169082160361089b5760405163f4d1987f60e01b815260040160405180910390fd5b5f8190507f00000000000000000000000000000000000000000000000000000000000000006001600160a01b0316816001600160a01b03166338d52e0f6040518163ffffffff1660e01b8152600401602060405180830381865afa158015610905573d5f803e3d5ffd5b505050506040513d601f19601f820116820180604052508101906109299190611fd2565b6001600160a01b031614610950576040516318d33ac560e31b815260040160405180910390fd5b6003546040516370a0823160e01b81523060048201526001600160a01b03909116905f9082906370a0823190602401602060405180830381865afa15801561099a573d5f803e3d5ffd5b505050506040513d601f19601f820116820180604052508101906109be9190611f5e565b90505f8115610a4357600354604051635d043b2960e11b815260048101849052306024820181905260448201526001600160a01b039091169063ba087652906064016020604051808303815f875af1158015610a1c573d5f803e3d5ffd5b505050506040513d601f19601f82011682018060405250810190610a409190611f5e565b90505b60405163095ea7b360e01b81526001600160a01b0386811660048301525f1960248301527f0000000000000000000000000000000000000000000000000000000000000000169063095ea7b3906044016020604051808303815f875af1158015610aaf573d5f803e3d5ffd5b505050506040513d601f19601f82011682018060405250810190610ad39190611fed565b508015610b4a57604051636e553f6560e01b8152600481018290523060248201526001600160a01b03851690636e553f65906044016020604051808303815f875af1158015610b24573d5f803e3d5ffd5b505050506040513d601f19601f82011682018060405250810190610b489190611f5e565b505b60405163095ea7b360e01b81526001600160a01b0384811660048301525f60248301527f0000000000000000000000000000000000000000000000000000000000000000169063095ea7b3906044016020604051808303815f875af1158015610bb5573d5f803e3d5ffd5b505050506040513d601f19601f82011682018060405250810190610bd99190611fed565b50600380546001600160a01b0319166001600160a01b0386811691909117909155604051828152868216918516907f7a00fbbe35ef2ad0f9fd68a15331febca12a6645f5a38efd659d2586e7ccb8ff9060200160405180910390a350505050610c4160018055565b50565b5f610c4d611af1565b815f03610c6d57604051631f2a200560e01b815260040160405180910390fd5b6040516370a0823160e01b815233600482015282907f00000000000000000000000000000000000000000000000000000000000000006001600160a01b0316906370a0823190602401602060405180830381865afa158015610cd1573d5f803e3d5ffd5b505050506040513d601f19601f82011682018060405250810190610cf59190611f5e565b1015610d1457604051631e9acf1760e31b815260040160405180910390fd5b5f610d1e836119d5565b600354604051636c82bbbf60e11b81523060048201529192505f916001600160a01b039091169063d905777e90602401602060405180830381865afa158015610d69573d5f803e3d5ffd5b505050506040513d601f19601f82011682018060405250810190610d8d9190611f5e565b905080821115610db057604051630b2db15360e11b815260040160405180910390fd5b604051632770a7eb60e21b8152336004820152602481018590527f00000000000000000000000000000000000000000000000000000000000000006001600160a01b031690639dc29fac906044015f604051808303815f87803b158015610e15575f80fd5b505af1158015610e27573d5f803e3d5ffd5b5050600354604051635d043b2960e11b815260048101869052306024820181905260448201526001600160a01b03909116925063ba08765291506064016020604051808303815f875af1158015610e80573d5f803e3d5ffd5b505050506040513d601f19601f82011682018060405250810190610ea49190611f5e565b92505f61271060075485610eb89190611f89565b610ec29190611fa0565b90505f610ecf8286611fbf565b90508115610eee578160085f828254610ee8919061200c565b90915550505b610f226001600160a01b037f0000000000000000000000000000000000000000000000000000000000000000163383611b88565b604080518781526020810183905290810185905233907f75e161b3e824b114fc1a33274bd7091918dd4e639cede50b78b15a4eea956a219060600160405180910390a2935050505061083060018055565b610f7b6119a9565b610f83611bbe565b565b610f8d6119a9565b610f95611af1565b6008545f819003610fb957604051631f2a200560e01b815260040160405180910390fd5b5f600855600954610ff7906001600160a01b037f00000000000000000000000000000000000000000000000000000000000000008116911683611b88565b6009546040518281526001600160a01b03909116907fc0819c13be868895eb93e40eaceb96de976442fa1d404e5c55f14bb65a8c489a9060200160405180910390a250610f8360018055565b5f807f00000000000000000000000000000000000000000000000000000000000000006001600160a01b03166318160ddd6040518163ffffffff1660e01b8152600401602060405180830381865afa1580156110a1573d5f803e3d5ffd5b505050506040513d601f19601f820116820180604052508101906110c59190611f5e565b9050805f036110d857620f424091505090565b5f6110e161127a565b9050816110f682670de0b6b3a7640000611f89565b6111009190611fa0565b9250505090565b6040516370a0823160e01b81526001600160a01b0382811660048301525f91829182917f0000000000000000000000000000000000000000000000000000000000000000909116906370a0823190602401602060405180830381865afa158015611173573d5f803e3d5ffd5b505050506040513d601f19601f820116820180604052508101906111979190611f5e565b92505f7f00000000000000000000000000000000000000000000000000000000000000006001600160a01b03166318160ddd6040518163ffffffff1660e01b8152600401602060405180830381865afa1580156111f6573d5f803e3d5ffd5b505050506040513d601f19601f8201168201806040525081019061121a9190611f5e565b9050801580611227575083155b1561123857505f9150819050611273565b808461124261127a565b61124c9190611f89565b6112569190611fa0565b92508061126561271086611f89565b61126f9190611fa0565b9150505b9193909250565b6003546040516370a0823160e01b81523060048201525f9182916001600160a01b03909116906370a0823190602401602060405180830381865afa1580156112c4573d5f803e3d5ffd5b505050506040513d601f19601f820116820180604052508101906112e89190611f5e565b9050805f036112f8575f91505090565b6003546040516303d1689d60e11b8152600481018390526001600160a01b03909116906307a2d13a90602401602060405180830381865afa15801561133f573d5f803e3d5ffd5b505050506040513d601f19601f820116820180604052508101906113639190611f5e565b91505090565b6113716119a9565b610f835f611c10565b6113826119a9565b610f83611c5f565b6113926119a9565b600555565b5f805f806113a361127a565b7f00000000000000000000000000000000000000000000000000000000000000006001600160a01b03166318160ddd6040518163ffffffff1660e01b8152600401602060405180830381865afa1580156113ff573d5f803e3d5ffd5b505050506040513d601f19601f820116820180604052508101906114239190611f5e565b61142b611043565b6003546040516370a0823160e01b81523060048201526001600160a01b03909116906370a0823190602401602060405180830381865afa158015611471573d5f803e3d5ffd5b505050506040513d601f19601f820116820180604052508101906114959190611f5e565b935093509350935090919293565b5f6114ac611af1565b6114b4611c9c565b815f036114d457604051631f2a200560e01b815260040160405180910390fd5b6005548210156114f75760405163617ab12d60e11b815260040160405180910390fd5b61152c6001600160a01b037f000000000000000000000000000000000000000000000000000000000000000016333085611b1b565b5f6127106006548461153e9190611f89565b6115489190611fa0565b90505f6115558285611fbf565b90508115611574578160085f82825461156e919061200c565b90915550505b6003546040516370a0823160e01b81523060048201525f916001600160a01b0316906370a0823190602401602060405180830381865afa1580156115ba573d5f803e3d5ffd5b505050506040513d601f19601f820116820180604052508101906115de9190611f5e565b600354604051636e553f6560e01b8152600481018590523060248201529192506001600160a01b031690636e553f65906044016020604051808303815f875af115801561162d573d5f803e3d5ffd5b505050506040513d601f19601f820116820180604052508101906116519190611f5e565b506003546040516370a0823160e01b81523060048201525f9183916001600160a01b03909116906370a0823190602401602060405180830381865afa15801561169c573d5f803e3d5ffd5b505050506040513d601f19601f820116820180604052508101906116c09190611f5e565b6116ca9190611fbf565b90506116d581611cc0565b6040516340c10f1960e01b8152336004820152602481018290529095507f00000000000000000000000000000000000000000000000000000000000000006001600160a01b0316906340c10f19906044015f604051808303815f87803b15801561173d575f80fd5b505af115801561174f573d5f803e3d5ffd5b505060408051898152602081018990529081018490523392507f91ede45f04a37a7c170f5c1207df3b6bc748dc1e04ad5e917a241d0f52feada3915060600160405180910390a25050505061083060018055565b6117ab6119a9565b6001600160a01b0381166117d25760405163d92e233d60e01b815260040160405180910390fd5b60028054610100600160a81b0319166101006001600160a01b038416908102919091179091556040517ff917aea9c53e29298bee755fa329e0cc71505e68c44dd7dd132a5a806886d58d905f90a250565b5f80612710600654846118369190611f89565b6118409190611fa0565b90505f61184d8285611fbf565b60035460405163ef8b30f760e01b8152600481018390529192505f916001600160a01b039091169063ef8b30f790602401602060405180830381865afa158015611899573d5f803e3d5ffd5b505050506040513d601f19601f820116820180604052508101906118bd9190611f5e565b905061059a81611cc0565b6118d06119a9565b6001600160a01b0381166118f75760405163d92e233d60e01b815260040160405180910390fd5b600980546001600160a01b038381166001600160a01b0319831681179093556040519116919082907f4ab5be82436d353e61ca18726e984e561f5c1cc7c6d38b29d2553c790434705a905f90a35050565b6119506119a9565b6001600160a01b03811661197e57604051631e4fbdf760e01b81525f60048201526024015b60405180910390fd5b610c4181611c10565b5f612710600454836119999190611f89565b6119a39190611fa0565b92915050565b5f546001600160a01b03163314610f835760405163118cdaa760e01b8152336004820152602401611975565b5f807f00000000000000000000000000000000000000000000000000000000000000006001600160a01b03166318160ddd6040518163ffffffff1660e01b8152600401602060405180830381865afa158015611a33573d5f803e3d5ffd5b505050506040513d601f19601f82011682018060405250810190611a579190611f5e565b9050805f03611a6857505f92915050565b6003546040516370a0823160e01b81523060048201525f916001600160a01b0316906370a0823190602401602060405180830381865afa158015611aae573d5f803e3d5ffd5b505050506040513d601f19601f82011682018060405250810190611ad29190611f5e565b905081611adf8286611f89565b611ae99190611fa0565b949350505050565b600260015403611b1457604051633ee5aeb560e01b815260040160405180910390fd5b6002600155565b6040516001600160a01b038481166024830152838116604483015260648201839052611b829186918216906323b872dd906084015b604051602081830303815290604052915060e01b6020820180516001600160e01b038381831617835250505050611e62565b50505050565b6040516001600160a01b03838116602483015260448201839052611bb991859182169063a9059cbb90606401611b50565b505050565b611bc6611ece565b6002805460ff191690557f5db9ee0a495bf2e6ff9c91a7834c1ba4fdd244a5e8aa4e537bd38aeae4b073aa335b6040516001600160a01b03909116815260200160405180910390a1565b5f80546001600160a01b038381166001600160a01b0319831681178455604051919092169283917f8be0079c531659141344cd1fd0a4f28419497f9722a3daafe3b4186f6b6457e09190a35050565b611c67611c9c565b6002805460ff191660011790557f62e78cea01bee320cd4e420270b5ea74000d11b0c9f74754ebdbfc544b05a258611bf33390565b60025460ff1615610f835760405163d93c066560e01b815260040160405180910390fd5b6003546040516370a0823160e01b81523060048201525f9182916001600160a01b03909116906370a0823190602401602060405180830381865afa158015611d0a573d5f803e3d5ffd5b505050506040513d601f19601f82011682018060405250810190611d2e9190611f5e565b90505f7f00000000000000000000000000000000000000000000000000000000000000006001600160a01b03166318160ddd6040518163ffffffff1660e01b8152600401602060405180830381865afa158015611d8d573d5f803e3d5ffd5b505050506040513d601f19601f82011682018060405250810190611db19190611f5e565b9050801580611dbf57508382145b15611e40576003546040516303d1689d60e11b8152600481018690525f916001600160a01b0316906307a2d13a90602401602060405180830381865afa158015611e0b573d5f803e3d5ffd5b505050506040513d601f19601f82011682018060405250810190611e2f9190611f5e565b905061059a8164e8d4a51000611f89565b5f611e4b8584611fbf565b905080611e588387611f89565b61059a9190611fa0565b5f8060205f8451602086015f885af180611e81576040513d5f823e3d81fd5b50505f513d91508115611e98578060011415611ea5565b6001600160a01b0384163b155b15611b8257604051635274afe760e01b81526001600160a01b0385166004820152602401611975565b60025460ff16610f8357604051638dfc202b60e01b815260040160405180910390fd5b5f60208284031215611f01575f80fd5b5035919050565b5f8060408385031215611f19575f80fd5b50508035926020909101359150565b6001600160a01b0381168114610c41575f80fd5b5f60208284031215611f4c575f80fd5b8135611f5781611f28565b9392505050565b5f60208284031215611f6e575f80fd5b5051919050565b634e487b7160e01b5f52601160045260245ffd5b80820281158282048414176119a3576119a3611f75565b5f82611fba57634e487b7160e01b5f52601260045260245ffd5b500490565b818103818111156119a3576119a3611f75565b5f60208284031215611fe2575f80fd5b8151611f5781611f28565b5f60208284031215611ffd575f80fd5b81518015158114611f57575f80fd5b808201808211156119a3576119a3611f7556fea2646970667358221220c9b7ea094b638c5406b1e4c897ec9b4dc47c1736f9614ee965a22ce035faab8c64736f6c63430008140033","linkReferences":{}},"methodIdentifiers":{"BPS_DENOMINATOR()":"e1a45218","MAX_FEE_BPS()":"d55be8c6","accumulatedFees()":"587f5ed7","baseAsset()":"cdf456e1","buyCredits(uint256)":"0c4dfe3f","creditsBonusBps()":"ec5aaa20","creditsToken()":"a7553109","deposit(uint256)":"b6b55f25","depositFeeBps()":"ab879827","getSharePrice()":"5b1dac60","getTotalAssets()":"6e07302b","getUserPosition(address)":"5b7c2dad","getVaultStats()":"a59aa5a6","migrateYearnVault(address)":"263b8a6e","minDeposit()":"41b3d185","owner()":"8da5cb5b","pause()":"8456cb59","paused()":"5c975abb","previewBuyCredits(uint256)":"f7c208b3","previewDeposit(uint256)":"ef8b30f7","previewWithdraw(uint256)":"0a28a477","renounceOwnership()":"715018a6","setCreditsBonusBps(uint256)":"05e9b068","setCreditsToken(address)":"bca1b560","setFees(uint256,uint256)":"0b78f9c0","setMinDeposit(uint256)":"8fcc9cfb","setTreasury(address)":"f0f44260","suiteToken()":"a22b6e8f","transferOwnership(address)":"f2fde38b","treasury()":"61d027b3","unpause()":"3f4ba83a","withdraw(uint256)":"2e1a7d4d","withdrawFeeBps()":"7aca2b59","withdrawFees()":"476343ee","yearnVault()":"9db5df46"},"id":74}