{
  "_format": "hh3-artifact-1",
  "contractName": "SuiteTreasury",
  "sourceName": "src/SuiteTreasury.sol",
  "abi": [
    {
      "inputs": [],
      "stateMutability": "nonpayable",
      "type": "constructor"
    },
    {
      "inputs": [],
      "name": "EnforcedPause",
      "type": "error"
    },
    {
      "inputs": [],
      "name": "ExpectedPause",
      "type": "error"
    },
    {
      "inputs": [],
      "name": "InvalidInitialization",
      "type": "error"
    },
    {
      "inputs": [],
      "name": "NotInitializing",
      "type": "error"
    },
    {
      "inputs": [
        {
          "internalType": "address",
          "name": "owner",
          "type": "address"
        }
      ],
      "name": "OwnableInvalidOwner",
      "type": "error"
    },
    {
      "inputs": [
        {
          "internalType": "address",
          "name": "account",
          "type": "address"
        }
      ],
      "name": "OwnableUnauthorizedAccount",
      "type": "error"
    },
    {
      "inputs": [],
      "name": "ReentrancyGuardReentrantCall",
      "type": "error"
    },
    {
      "inputs": [
        {
          "internalType": "address",
          "name": "token",
          "type": "address"
        }
      ],
      "name": "SafeERC20FailedOperation",
      "type": "error"
    },
    {
      "anonymous": false,
      "inputs": [
        {
          "indexed": true,
          "internalType": "address",
          "name": "app",
          "type": "address"
        }
      ],
      "name": "AppAuthorized",
      "type": "event"
    },
    {
      "anonymous": false,
      "inputs": [
        {
          "indexed": true,
          "internalType": "address",
          "name": "app",
          "type": "address"
        }
      ],
      "name": "AppRevoked",
      "type": "event"
    },
    {
      "anonymous": false,
      "inputs": [
        {
          "indexed": true,
          "internalType": "address",
          "name": "user",
          "type": "address"
        },
        {
          "indexed": true,
          "internalType": "address",
          "name": "tokenIn",
          "type": "address"
        },
        {
          "indexed": false,
          "internalType": "uint256",
          "name": "amountIn",
          "type": "uint256"
        },
        {
          "indexed": false,
          "internalType": "uint256",
          "name": "usdcReceived",
          "type": "uint256"
        },
        {
          "indexed": false,
          "internalType": "uint256",
          "name": "suitesMinted",
          "type": "uint256"
        },
        {
          "indexed": false,
          "internalType": "uint256",
          "name": "fee",
          "type": "uint256"
        }
      ],
      "name": "Deposited",
      "type": "event"
    },
    {
      "anonymous": false,
      "inputs": [
        {
          "indexed": false,
          "internalType": "uint256",
          "name": "depositFeeBps",
          "type": "uint256"
        },
        {
          "indexed": false,
          "internalType": "uint256",
          "name": "withdrawFeeBps",
          "type": "uint256"
        }
      ],
      "name": "FeesUpdated",
      "type": "event"
    },
    {
      "anonymous": false,
      "inputs": [
        {
          "indexed": true,
          "internalType": "address",
          "name": "to",
          "type": "address"
        },
        {
          "indexed": false,
          "internalType": "uint256",
          "name": "amount",
          "type": "uint256"
        }
      ],
      "name": "FeesWithdrawn",
      "type": "event"
    },
    {
      "anonymous": false,
      "inputs": [
        {
          "indexed": false,
          "internalType": "uint64",
          "name": "version",
          "type": "uint64"
        }
      ],
      "name": "Initialized",
      "type": "event"
    },
    {
      "anonymous": false,
      "inputs": [
        {
          "indexed": true,
          "internalType": "address",
          "name": "previousOwner",
          "type": "address"
        },
        {
          "indexed": true,
          "internalType": "address",
          "name": "newOwner",
          "type": "address"
        }
      ],
      "name": "OwnershipTransferred",
      "type": "event"
    },
    {
      "anonymous": false,
      "inputs": [
        {
          "indexed": false,
          "internalType": "address",
          "name": "account",
          "type": "address"
        }
      ],
      "name": "Paused",
      "type": "event"
    },
    {
      "anonymous": false,
      "inputs": [
        {
          "indexed": true,
          "internalType": "address",
          "name": "newRouter",
          "type": "address"
        }
      ],
      "name": "SwapRouterUpdated",
      "type": "event"
    },
    {
      "anonymous": false,
      "inputs": [
        {
          "indexed": false,
          "internalType": "address",
          "name": "account",
          "type": "address"
        }
      ],
      "name": "Unpaused",
      "type": "event"
    },
    {
      "anonymous": false,
      "inputs": [
        {
          "indexed": true,
          "internalType": "address",
          "name": "user",
          "type": "address"
        },
        {
          "indexed": false,
          "internalType": "uint256",
          "name": "suitesBurned",
          "type": "uint256"
        },
        {
          "indexed": false,
          "internalType": "uint256",
          "name": "usdcSent",
          "type": "uint256"
        },
        {
          "indexed": false,
          "internalType": "uint256",
          "name": "fee",
          "type": "uint256"
        }
      ],
      "name": "Withdrawn",
      "type": "event"
    },
    {
      "inputs": [],
      "name": "BPS_DENOMINATOR",
      "outputs": [
        {
          "internalType": "uint256",
          "name": "",
          "type": "uint256"
        }
      ],
      "stateMutability": "view",
      "type": "function"
    },
    {
      "inputs": [],
      "name": "MAX_FEE_BPS",
      "outputs": [
        {
          "internalType": "uint256",
          "name": "",
          "type": "uint256"
        }
      ],
      "stateMutability": "view",
      "type": "function"
    },
    {
      "inputs": [],
      "name": "SUITE_PER_USDC",
      "outputs": [
        {
          "internalType": "uint256",
          "name": "",
          "type": "uint256"
        }
      ],
      "stateMutability": "view",
      "type": "function"
    },
    {
      "inputs": [],
      "name": "accumulatedFees",
      "outputs": [
        {
          "internalType": "uint256",
          "name": "",
          "type": "uint256"
        }
      ],
      "stateMutability": "view",
      "type": "function"
    },
    {
      "inputs": [
        {
          "internalType": "address",
          "name": "app",
          "type": "address"
        }
      ],
      "name": "authorizeApp",
      "outputs": [],
      "stateMutability": "nonpayable",
      "type": "function"
    },
    {
      "inputs": [
        {
          "internalType": "address",
          "name": "",
          "type": "address"
        }
      ],
      "name": "authorizedApps",
      "outputs": [
        {
          "internalType": "bool",
          "name": "",
          "type": "bool"
        }
      ],
      "stateMutability": "view",
      "type": "function"
    },
    {
      "inputs": [
        {
          "internalType": "address",
          "name": "user",
          "type": "address"
        },
        {
          "internalType": "uint256",
          "name": "suiteAmount",
          "type": "uint256"
        }
      ],
      "name": "chargeUser",
      "outputs": [],
      "stateMutability": "nonpayable",
      "type": "function"
    },
    {
      "inputs": [],
      "name": "depositFeeBps",
      "outputs": [
        {
          "internalType": "uint256",
          "name": "",
          "type": "uint256"
        }
      ],
      "stateMutability": "view",
      "type": "function"
    },
    {
      "inputs": [
        {
          "internalType": "address",
          "name": "tokenIn",
          "type": "address"
        },
        {
          "internalType": "uint256",
          "name": "amount",
          "type": "uint256"
        },
        {
          "internalType": "uint256",
          "name": "minUsdcOut",
          "type": "uint256"
        },
        {
          "internalType": "bytes",
          "name": "swapData",
          "type": "bytes"
        }
      ],
      "name": "depositToken",
      "outputs": [],
      "stateMutability": "nonpayable",
      "type": "function"
    },
    {
      "inputs": [
        {
          "internalType": "uint256",
          "name": "amount",
          "type": "uint256"
        }
      ],
      "name": "depositUSDC",
      "outputs": [],
      "stateMutability": "nonpayable",
      "type": "function"
    },
    {
      "inputs": [
        {
          "internalType": "uint256",
          "name": "amount",
          "type": "uint256"
        }
      ],
      "name": "depositYield",
      "outputs": [],
      "stateMutability": "nonpayable",
      "type": "function"
    },
    {
      "inputs": [],
      "name": "getBackingRate",
      "outputs": [
        {
          "internalType": "uint256",
          "name": "",
          "type": "uint256"
        }
      ],
      "stateMutability": "view",
      "type": "function"
    },
    {
      "inputs": [],
      "name": "getTotalSupply",
      "outputs": [
        {
          "internalType": "uint256",
          "name": "",
          "type": "uint256"
        }
      ],
      "stateMutability": "view",
      "type": "function"
    },
    {
      "inputs": [],
      "name": "getTreasuryValue",
      "outputs": [
        {
          "internalType": "uint256",
          "name": "",
          "type": "uint256"
        }
      ],
      "stateMutability": "view",
      "type": "function"
    },
    {
      "inputs": [
        {
          "internalType": "address",
          "name": "_suiteToken",
          "type": "address"
        },
        {
          "internalType": "address",
          "name": "_usdc",
          "type": "address"
        },
        {
          "internalType": "address",
          "name": "_owner",
          "type": "address"
        }
      ],
      "name": "initialize",
      "outputs": [],
      "stateMutability": "nonpayable",
      "type": "function"
    },
    {
      "inputs": [],
      "name": "maxDepositPerTx",
      "outputs": [
        {
          "internalType": "uint256",
          "name": "",
          "type": "uint256"
        }
      ],
      "stateMutability": "view",
      "type": "function"
    },
    {
      "inputs": [],
      "name": "maxWithdrawPerTx",
      "outputs": [
        {
          "internalType": "uint256",
          "name": "",
          "type": "uint256"
        }
      ],
      "stateMutability": "view",
      "type": "function"
    },
    {
      "inputs": [],
      "name": "owner",
      "outputs": [
        {
          "internalType": "address",
          "name": "",
          "type": "address"
        }
      ],
      "stateMutability": "view",
      "type": "function"
    },
    {
      "inputs": [],
      "name": "pause",
      "outputs": [],
      "stateMutability": "nonpayable",
      "type": "function"
    },
    {
      "inputs": [],
      "name": "paused",
      "outputs": [
        {
          "internalType": "bool",
          "name": "",
          "type": "bool"
        }
      ],
      "stateMutability": "view",
      "type": "function"
    },
    {
      "inputs": [],
      "name": "renounceOwnership",
      "outputs": [],
      "stateMutability": "nonpayable",
      "type": "function"
    },
    {
      "inputs": [
        {
          "internalType": "address",
          "name": "app",
          "type": "address"
        }
      ],
      "name": "revokeApp",
      "outputs": [],
      "stateMutability": "nonpayable",
      "type": "function"
    },
    {
      "inputs": [
        {
          "internalType": "uint256",
          "name": "_depositFeeBps",
          "type": "uint256"
        },
        {
          "internalType": "uint256",
          "name": "_withdrawFeeBps",
          "type": "uint256"
        }
      ],
      "name": "setFees",
      "outputs": [],
      "stateMutability": "nonpayable",
      "type": "function"
    },
    {
      "inputs": [
        {
          "internalType": "uint256",
          "name": "_maxDeposit",
          "type": "uint256"
        },
        {
          "internalType": "uint256",
          "name": "_maxWithdraw",
          "type": "uint256"
        }
      ],
      "name": "setLimits",
      "outputs": [],
      "stateMutability": "nonpayable",
      "type": "function"
    },
    {
      "inputs": [
        {
          "internalType": "address",
          "name": "_router",
          "type": "address"
        }
      ],
      "name": "setSwapRouter",
      "outputs": [],
      "stateMutability": "nonpayable",
      "type": "function"
    },
    {
      "inputs": [],
      "name": "suiteToken",
      "outputs": [
        {
          "internalType": "contract ISuiteToken",
          "name": "",
          "type": "address"
        }
      ],
      "stateMutability": "view",
      "type": "function"
    },
    {
      "inputs": [],
      "name": "swapRouter",
      "outputs": [
        {
          "internalType": "address",
          "name": "",
          "type": "address"
        }
      ],
      "stateMutability": "view",
      "type": "function"
    },
    {
      "inputs": [
        {
          "internalType": "address",
          "name": "newOwner",
          "type": "address"
        }
      ],
      "name": "transferOwnership",
      "outputs": [],
      "stateMutability": "nonpayable",
      "type": "function"
    },
    {
      "inputs": [],
      "name": "unpause",
      "outputs": [],
      "stateMutability": "nonpayable",
      "type": "function"
    },
    {
      "inputs": [],
      "name": "usdc",
      "outputs": [
        {
          "internalType": "contract IERC20",
          "name": "",
          "type": "address"
        }
      ],
      "stateMutability": "view",
      "type": "function"
    },
    {
      "inputs": [
        {
          "internalType": "uint256",
          "name": "suiteAmount",
          "type": "uint256"
        }
      ],
      "name": "withdraw",
      "outputs": [],
      "stateMutability": "nonpayable",
      "type": "function"
    },
    {
      "inputs": [],
      "name": "withdrawFeeBps",
      "outputs": [
        {
          "internalType": "uint256",
          "name": "",
          "type": "uint256"
        }
      ],
      "stateMutability": "view",
      "type": "function"
    },
    {
      "inputs": [
        {
          "internalType": "address",
          "name": "to",
          "type": "address"
        }
      ],
      "name": "withdrawFees",
      "outputs": [],
      "stateMutability": "nonpayable",
      "type": "function"
    },
    {
      "inputs": [
        {
          "internalType": "address",
          "name": "to",
          "type": "address"
        },
        {
          "internalType": "uint256",
          "name": "amount",
          "type": "uint256"
        }
      ],
      "name": "withdrawForYield",
      "outputs": [],
      "stateMutability": "nonpayable",
      "type": "function"
    }
  ],
  "bytecode": "0x608060405234801562000010575f80fd5b50620000216200002760201b60201c565b620001ae565b5f620000386200012b60201b60201c565b9050805f0160089054906101000a900460ff161562000083576040517ff92ee8a900000000000000000000000000000000000000000000000000000000815260040160405180910390fd5b67ffffffffffffffff8016815f015f9054906101000a900467ffffffffffffffff1667ffffffffffffffff1614620001285767ffffffffffffffff815f015f6101000a81548167ffffffffffffffff021916908367ffffffffffffffff1602179055507fc7f505b2f371ae2175ee4913f4499e1f2633a7b5936321eed1cdaeb6115181d267ffffffffffffffff6040516200011f919062000193565b60405180910390a15b50565b5f806200013d6200014660201b60201c565b90508091505090565b5f7ff0c57e16840df040f15088dc2f81fe391c3923bec73e23a9662efc9c229c6a005f1b905090565b5f67ffffffffffffffff82169050919050565b6200018d816200016f565b82525050565b5f602082019050620001a85f83018462000182565b92915050565b6133ae80620001bc5f395ff3fe608060405234801561000f575f80fd5b5060043610610203575f3560e01c80637adb241c11610118578063c31c9c07116100ab578063e1a452181161007a578063e1a452181461052d578063f2fde38b1461054b578063f688bcfb14610567578063fd0ae7f014610583578063fef5ebb91461059f57610203565b8063c31c9c07146104b7578063c4590d3f146104d5578063c4e41b22146104f1578063d55be8c61461050f57610203565b8063a22b6e8f116100e7578063a22b6e8f14610441578063a2ea7b881461045f578063ab8798271461047d578063c0c53b8b1461049b57610203565b80637adb241c146103e15780637cf4c01b146103fd5780638456cb59146104195780638da5cb5b1461042357610203565b80633f4e46a01161019b578063587f5ed71161016a578063587f5ed71461035f5780635c975abb1461037d5780635d926ced1461039b578063715018a6146103b95780637aca2b59146103c357610203565b80633f4e46a0146102d9578063412736571461030957806344086669146103255780634e2e8d601461034157610203565b8063200ae02b116101d7578063200ae02b146102775780632e1a7d4d146102955780633e413bee146102b15780633f4ba83a146102cf57610203565b806218ff551461020757806306ef4e28146102235780630b78f9c01461023f578063164e68de1461025b575b5f80fd5b610221600480360381019061021c9190612643565b6105bd565b005b61023d60048036038101906102389190612702565b6106ce565b005b61025960048036038101906102549190612786565b610b72565b005b61027560048036038101906102709190612643565b610c4f565b005b61027f610d44565b60405161028c91906127d3565b60405180910390f35b6102af60048036038101906102aa91906127ec565b610df0565b005b6102b961113d565b6040516102c69190612872565b60405180910390f35b6102d7611162565b005b6102f360048036038101906102ee9190612643565b611174565b60405161030091906128a5565b60405180910390f35b610323600480360381019061031e9190612643565b611191565b005b61033f600480360381019061033a91906128be565b61121f565b005b610349611333565b60405161035691906127d3565b60405180910390f35b610367611339565b60405161037491906127d3565b60405180910390f35b61038561133f565b60405161039291906128a5565b60405180910390f35b6103a3611361565b6040516103b091906127d3565b60405180910390f35b6103c1611367565b005b6103cb61137a565b6040516103d891906127d3565b60405180910390f35b6103fb60048036038101906103f691906128be565b611380565b005b610417600480360381019061041291906127ec565b611446565b005b61042161149f565b005b61042b6114b1565b604051610438919061290b565b60405180910390f35b6104496114e6565b6040516104569190612944565b60405180910390f35b610467611509565b60405161047491906127d3565b60405180910390f35b610485611686565b60405161049291906127d3565b60405180910390f35b6104b560048036038101906104b0919061295d565b61168c565b005b6104bf6118c6565b6040516104cc919061290b565b60405180910390f35b6104ef60048036038101906104ea9190612786565b6118eb565b005b6104f9611905565b60405161050691906127d3565b60405180910390f35b610517611998565b60405161052491906127d3565b60405180910390f35b61053561199e565b60405161054291906127d3565b60405180910390f35b61056560048036038101906105609190612643565b6119a4565b005b610581600480360381019061057c91906127ec565b611a28565b005b61059d60048036038101906105989190612643565b611c94565b005b6105a7611d36565b6040516105b491906127d3565b60405180910390f35b6105c5611d3c565b5f73ffffffffffffffffffffffffffffffffffffffff168173ffffffffffffffffffffffffffffffffffffffff1603610633576040517f08c379a000000000000000000000000000000000000000000000000000000000815260040161062a90612a07565b60405180910390fd5b600160055f8373ffffffffffffffffffffffffffffffffffffffff1673ffffffffffffffffffffffffffffffffffffffff1681526020019081526020015f205f6101000a81548160ff0219169083151502179055508073ffffffffffffffffffffffffffffffffffffffff167febdf8e738c573e0b1b5071d0c2c3fdd4a06bd9de13f5d0c4eb8150e0fd01626a60405160405180910390a250565b6106d6611dc3565b6106de611e17565b5f8411610720576040517f08c379a000000000000000000000000000000000000000000000000000000000815260040161071790612a6f565b60405180910390fd5b5f73ffffffffffffffffffffffffffffffffffffffff1660025f9054906101000a900473ffffffffffffffffffffffffffffffffffffffff1673ffffffffffffffffffffffffffffffffffffffff16036107af576040517f08c379a00000000000000000000000000000000000000000000000000000000081526004016107a690612ad7565b60405180910390fd5b60015f9054906101000a900473ffffffffffffffffffffffffffffffffffffffff1673ffffffffffffffffffffffffffffffffffffffff168573ffffffffffffffffffffffffffffffffffffffff160361083e576040517f08c379a000000000000000000000000000000000000000000000000000000000815260040161083590612b3f565b60405180910390fd5b61086b3330868873ffffffffffffffffffffffffffffffffffffffff16611e58909392919063ffffffff16565b6108b760025f9054906101000a900473ffffffffffffffffffffffffffffffffffffffff16858773ffffffffffffffffffffffffffffffffffffffff16611eda9092919063ffffffff16565b5f60025f9054906101000a900473ffffffffffffffffffffffffffffffffffffffff1673ffffffffffffffffffffffffffffffffffffffff16632506c0188760015f9054906101000a900473ffffffffffffffffffffffffffffffffffffffff16888888886040518763ffffffff1660e01b815260040161093d96959493929190612bb7565b6020604051808303815f875af1158015610959573d5f803e3d5ffd5b505050506040513d601f19601f8201168201806040525081019061097d9190612c25565b9050838110156109c2576040517f08c379a00000000000000000000000000000000000000000000000000000000081526004016109b990612c9a565b60405180910390fd5b600654811115610a07576040517f08c379a00000000000000000000000000000000000000000000000000000000081526004016109fe90612d02565b60405180910390fd5b5f61271060035483610a199190612d4d565b610a239190612dbb565b90505f8183610a329190612deb565b90508160085f828254610a459190612e1e565b925050819055505f64e8d4a510006103e883610a619190612d4d565b610a6b9190612d4d565b90505f8054906101000a900473ffffffffffffffffffffffffffffffffffffffff1673ffffffffffffffffffffffffffffffffffffffff166340c10f1933836040518363ffffffff1660e01b8152600401610ac7929190612e51565b5f604051808303815f87803b158015610ade575f80fd5b505af1158015610af0573d5f803e3d5ffd5b505050508873ffffffffffffffffffffffffffffffffffffffff163373ffffffffffffffffffffffffffffffffffffffff167ff3b2a76575670b4eff5a4ad3639d40d32f7ca987adac169e6f9b89a3ab857d278a858588604051610b579493929190612e78565b60405180910390a350505050610b6b611f73565b5050505050565b610b7a611d3c565b6101f4821115610bbf576040517f08c379a0000000000000000000000000000000000000000000000000000000008152600401610bb690612f05565b60405180910390fd5b6101f4811115610c04576040517f08c379a0000000000000000000000000000000000000000000000000000000008152600401610bfb90612f6d565b60405180910390fd5b81600381905550806004819055507f5c6323bf1c2d7aaea2c091a4751c1c87af7f2864650c336507a77d0557af37a18282604051610c43929190612f8b565b60405180910390a15050565b610c57611d3c565b5f60085490505f8111610c9f576040517f08c379a0000000000000000000000000000000000000000000000000000000008152600401610c9690612ffc565b60405180910390fd5b5f600881905550610cf2828260015f9054906101000a900473ffffffffffffffffffffffffffffffffffffffff1673ffffffffffffffffffffffffffffffffffffffff16611f8a9092919063ffffffff16565b8173ffffffffffffffffffffffffffffffffffffffff167fc0819c13be868895eb93e40eaceb96de976442fa1d404e5c55f14bb65a8c489a82604051610d3891906127d3565b60405180910390a25050565b5f60085460015f9054906101000a900473ffffffffffffffffffffffffffffffffffffffff1673ffffffffffffffffffffffffffffffffffffffff166370a08231306040518263ffffffff1660e01b8152600401610da2919061290b565b602060405180830381865afa158015610dbd573d5f803e3d5ffd5b505050506040513d601f19601f82011682018060405250810190610de19190612c25565b610deb9190612deb565b905090565b610df8611dc3565b610e00611e17565b5f8111610e42576040517f08c379a0000000000000000000000000000000000000000000000000000000008152600401610e3990612a6f565b60405180910390fd5b5f64e8d4a510006103e883610e579190612dbb565b610e619190612dbb565b90505f8111610ea5576040517f08c379a0000000000000000000000000000000000000000000000000000000008152600401610e9c90613064565b60405180910390fd5b600754811115610eea576040517f08c379a0000000000000000000000000000000000000000000000000000000008152600401610ee1906130cc565b60405180910390fd5b5f61271060045483610efc9190612d4d565b610f069190612dbb565b90505f8183610f159190612deb565b90508160085f828254610f289190612e1e565b925050819055508260015f9054906101000a900473ffffffffffffffffffffffffffffffffffffffff1673ffffffffffffffffffffffffffffffffffffffff166370a08231306040518263ffffffff1660e01b8152600401610f8a919061290b565b602060405180830381865afa158015610fa5573d5f803e3d5ffd5b505050506040513d601f19601f82011682018060405250810190610fc99190612c25565b101561100a576040517f08c379a000000000000000000000000000000000000000000000000000000000815260040161100190613134565b60405180910390fd5b5f8054906101000a900473ffffffffffffffffffffffffffffffffffffffff1673ffffffffffffffffffffffffffffffffffffffff166379cc679033866040518363ffffffff1660e01b8152600401611064929190612e51565b5f604051808303815f87803b15801561107b575f80fd5b505af115801561108d573d5f803e3d5ffd5b505050506110dd338260015f9054906101000a900473ffffffffffffffffffffffffffffffffffffffff1673ffffffffffffffffffffffffffffffffffffffff16611f8a9092919063ffffffff16565b3373ffffffffffffffffffffffffffffffffffffffff167f75e161b3e824b114fc1a33274bd7091918dd4e639cede50b78b15a4eea956a2185838560405161112793929190613152565b60405180910390a250505061113a611f73565b50565b60015f9054906101000a900473ffffffffffffffffffffffffffffffffffffffff1681565b61116a611d3c565b611172612009565b565b6005602052805f5260405f205f915054906101000a900460ff1681565b611199611d3c565b8060025f6101000a81548173ffffffffffffffffffffffffffffffffffffffff021916908373ffffffffffffffffffffffffffffffffffffffff1602179055508073ffffffffffffffffffffffffffffffffffffffff167f36db479a3b4d3672bd6f5fca4484283f60b5ac70647b1ceec13ecbb1d030a2df60405160405180910390a250565b60055f3373ffffffffffffffffffffffffffffffffffffffff1673ffffffffffffffffffffffffffffffffffffffff1681526020019081526020015f205f9054906101000a900460ff166112a8576040517f08c379a000000000000000000000000000000000000000000000000000000000815260040161129f906131d1565b60405180910390fd5b5f8054906101000a900473ffffffffffffffffffffffffffffffffffffffff1673ffffffffffffffffffffffffffffffffffffffff166379cc679083836040518363ffffffff1660e01b8152600401611302929190612e51565b5f604051808303815f87803b158015611319575f80fd5b505af115801561132b573d5f803e3d5ffd5b505050505050565b60065481565b60085481565b5f80611349612077565b9050805f015f9054906101000a900460ff1691505090565b60075481565b61136f611d3c565b6113785f61209e565b565b60045481565b611388611d3c565b5f73ffffffffffffffffffffffffffffffffffffffff168273ffffffffffffffffffffffffffffffffffffffff16036113f6576040517f08c379a00000000000000000000000000000000000000000000000000000000081526004016113ed90613239565b60405180910390fd5b611442828260015f9054906101000a900473ffffffffffffffffffffffffffffffffffffffff1673ffffffffffffffffffffffffffffffffffffffff16611f8a9092919063ffffffff16565b5050565b61144e611d3c565b61149c33308360015f9054906101000a900473ffffffffffffffffffffffffffffffffffffffff1673ffffffffffffffffffffffffffffffffffffffff16611e58909392919063ffffffff16565b50565b6114a7611d3c565b6114af61216f565b565b5f806114bb6121de565b9050805f015f9054906101000a900473ffffffffffffffffffffffffffffffffffffffff1691505090565b5f8054906101000a900473ffffffffffffffffffffffffffffffffffffffff1681565b5f805f8054906101000a900473ffffffffffffffffffffffffffffffffffffffff1673ffffffffffffffffffffffffffffffffffffffff166318160ddd6040518163ffffffff1660e01b8152600401602060405180830381865afa158015611573573d5f803e3d5ffd5b505050506040513d601f19601f820116820180604052508101906115979190612c25565b90505f81036115ac57620f4240915050611683565b5f60085460015f9054906101000a900473ffffffffffffffffffffffffffffffffffffffff1673ffffffffffffffffffffffffffffffffffffffff166370a08231306040518263ffffffff1660e01b815260040161160a919061290b565b602060405180830381865afa158015611625573d5f803e3d5ffd5b505050506040513d601f19601f820116820180604052508101906116499190612c25565b6116539190612deb565b90508164e8d4a510006103e88361166a9190612d4d565b6116749190612d4d565b61167e9190612dbb565b925050505b90565b60035481565b5f611695612205565b90505f815f0160089054906101000a900460ff161590505f825f015f9054906101000a900467ffffffffffffffff1690505f808267ffffffffffffffff161480156116dd5750825b90505f60018367ffffffffffffffff1614801561171057505f3073ffffffffffffffffffffffffffffffffffffffff163b145b90508115801561171e575080155b15611755576040517ff92ee8a900000000000000000000000000000000000000000000000000000000815260040160405180910390fd5b6001855f015f6101000a81548167ffffffffffffffff021916908367ffffffffffffffff16021790555083156117a2576001855f0160086101000a81548160ff0219169083151502179055505b6117ab86612218565b6117b361222c565b6117bb612236565b875f806101000a81548173ffffffffffffffffffffffffffffffffffffffff021916908373ffffffffffffffffffffffffffffffffffffffff1602179055508660015f6101000a81548173ffffffffffffffffffffffffffffffffffffffff021916908373ffffffffffffffffffffffffffffffffffffffff1602179055506032600381905550603260048190555064174876e80060068190555064174876e80060078190555083156118bc575f855f0160086101000a81548160ff0219169083151502179055507fc7f505b2f371ae2175ee4913f4499e1f2633a7b5936321eed1cdaeb6115181d260016040516118b391906132a3565b60405180910390a15b5050505050505050565b60025f9054906101000a900473ffffffffffffffffffffffffffffffffffffffff1681565b6118f3611d3c565b81600681905550806007819055505050565b5f805f9054906101000a900473ffffffffffffffffffffffffffffffffffffffff1673ffffffffffffffffffffffffffffffffffffffff166318160ddd6040518163ffffffff1660e01b8152600401602060405180830381865afa15801561196f573d5f803e3d5ffd5b505050506040513d601f19601f820116820180604052508101906119939190612c25565b905090565b6101f481565b61271081565b6119ac611d3c565b5f73ffffffffffffffffffffffffffffffffffffffff168173ffffffffffffffffffffffffffffffffffffffff1603611a1c575f6040517f1e4fbdf7000000000000000000000000000000000000000000000000000000008152600401611a13919061290b565b60405180910390fd5b611a258161209e565b50565b611a30611dc3565b611a38611e17565b5f8111611a7a576040517f08c379a0000000000000000000000000000000000000000000000000000000008152600401611a7190612a6f565b60405180910390fd5b600654811115611abf576040517f08c379a0000000000000000000000000000000000000000000000000000000008152600401611ab690612d02565b60405180910390fd5b611b0d33308360015f9054906101000a900473ffffffffffffffffffffffffffffffffffffffff1673ffffffffffffffffffffffffffffffffffffffff16611e58909392919063ffffffff16565b5f61271060035483611b1f9190612d4d565b611b299190612dbb565b90505f8183611b389190612deb565b90508160085f828254611b4b9190612e1e565b925050819055505f64e8d4a510006103e883611b679190612d4d565b611b719190612d4d565b90505f8054906101000a900473ffffffffffffffffffffffffffffffffffffffff1673ffffffffffffffffffffffffffffffffffffffff166340c10f1933836040518363ffffffff1660e01b8152600401611bcd929190612e51565b5f604051808303815f87803b158015611be4575f80fd5b505af1158015611bf6573d5f803e3d5ffd5b5050505060015f9054906101000a900473ffffffffffffffffffffffffffffffffffffffff1673ffffffffffffffffffffffffffffffffffffffff163373ffffffffffffffffffffffffffffffffffffffff167ff3b2a76575670b4eff5a4ad3639d40d32f7ca987adac169e6f9b89a3ab857d2786858588604051611c7e9493929190612e78565b60405180910390a3505050611c91611f73565b50565b611c9c611d3c565b5f60055f8373ffffffffffffffffffffffffffffffffffffffff1673ffffffffffffffffffffffffffffffffffffffff1681526020019081526020015f205f6101000a81548160ff0219169083151502179055508073ffffffffffffffffffffffffffffffffffffffff167f1dfc67310a53bbdf3a121956a78c94d3592b420ac0966b5da6871caf9e8b4f3960405160405180910390a250565b6103e881565b611d44612248565b73ffffffffffffffffffffffffffffffffffffffff16611d626114b1565b73ffffffffffffffffffffffffffffffffffffffff1614611dc157611d85612248565b6040517f118cdaa7000000000000000000000000000000000000000000000000000000008152600401611db8919061290b565b60405180910390fd5b565b5f611dcc61224f565b90506002815f015403611e0b576040517f3ee5aeb500000000000000000000000000000000000000000000000000000000815260040160405180910390fd5b6002815f018190555050565b611e1f61133f565b15611e56576040517fd93c066500000000000000000000000000000000000000000000000000000000815260040160405180910390fd5b565b611ed4848573ffffffffffffffffffffffffffffffffffffffff166323b872dd868686604051602401611e8d939291906132bc565b604051602081830303815290604052915060e01b6020820180517bffffffffffffffffffffffffffffffffffffffffffffffffffffffff8381831617835250505050612276565b50505050565b5f8373ffffffffffffffffffffffffffffffffffffffff1663dd62ed3e30856040518363ffffffff1660e01b8152600401611f169291906132f1565b602060405180830381865afa158015611f31573d5f803e3d5ffd5b505050506040513d601f19601f82011682018060405250810190611f559190612c25565b9050611f6d84848484611f689190612e1e565b612311565b50505050565b5f611f7c61224f565b90506001815f018190555050565b612004838473ffffffffffffffffffffffffffffffffffffffff1663a9059cbb8585604051602401611fbd929190612e51565b604051602081830303815290604052915060e01b6020820180517bffffffffffffffffffffffffffffffffffffffffffffffffffffffff8381831617835250505050612276565b505050565b61201161241e565b5f61201a612077565b90505f815f015f6101000a81548160ff0219169083151502179055507f5db9ee0a495bf2e6ff9c91a7834c1ba4fdd244a5e8aa4e537bd38aeae4b073aa61205f612248565b60405161206c919061290b565b60405180910390a150565b5f7fcd5ed15c6e187e77e9aee88184c21f4f2182ab5827cb3b7e07fbedcd63f03300905090565b5f6120a76121de565b90505f815f015f9054906101000a900473ffffffffffffffffffffffffffffffffffffffff16905082825f015f6101000a81548173ffffffffffffffffffffffffffffffffffffffff021916908373ffffffffffffffffffffffffffffffffffffffff1602179055508273ffffffffffffffffffffffffffffffffffffffff168173ffffffffffffffffffffffffffffffffffffffff167f8be0079c531659141344cd1fd0a4f28419497f9722a3daafe3b4186f6b6457e060405160405180910390a3505050565b612177611e17565b5f612180612077565b90506001815f015f6101000a81548160ff0219169083151502179055507f62e78cea01bee320cd4e420270b5ea74000d11b0c9f74754ebdbfc544b05a2586121c6612248565b6040516121d3919061290b565b60405180910390a150565b5f7f9016d09d72d40fdae2fd8ceac6b6234c7706214fd39c1cd1e609a0528c199300905090565b5f8061220f61245e565b90508091505090565b612220612487565b612229816124c7565b50565b612234612487565b565b61223e612487565b61224661254b565b565b5f33905090565b5f7f9b779b17422d0df92223018b32b4d1fa46e071723d6817e2486d003becc55f00905090565b5f8060205f8451602086015f885af180612295576040513d5f823e3d81fd5b3d92505f519150505f82146122ae5760018114156122c9565b5f8473ffffffffffffffffffffffffffffffffffffffff163b145b1561230b57836040517f5274afe7000000000000000000000000000000000000000000000000000000008152600401612302919061290b565b60405180910390fd5b50505050565b5f8373ffffffffffffffffffffffffffffffffffffffff1663095ea7b38484604051602401612341929190612e51565b604051602081830303815290604052915060e01b6020820180517bffffffffffffffffffffffffffffffffffffffffffffffffffffffff8381831617835250505050905061238f848261256a565b6124185761240d848573ffffffffffffffffffffffffffffffffffffffff1663095ea7b3865f6040516024016123c6929190613351565b604051602081830303815290604052915060e01b6020820180517bffffffffffffffffffffffffffffffffffffffffffffffffffffffff8381831617835250505050612276565b6124178482612276565b5b50505050565b61242661133f565b61245c576040517f8dfc202b00000000000000000000000000000000000000000000000000000000815260040160405180910390fd5b565b5f7ff0c57e16840df040f15088dc2f81fe391c3923bec73e23a9662efc9c229c6a005f1b905090565b61248f6125c3565b6124c5576040517fd7e6bcf800000000000000000000000000000000000000000000000000000000815260040160405180910390fd5b565b6124cf612487565b5f73ffffffffffffffffffffffffffffffffffffffff168173ffffffffffffffffffffffffffffffffffffffff160361253f575f6040517f1e4fbdf7000000000000000000000000000000000000000000000000000000008152600401612536919061290b565b60405180910390fd5b6125488161209e565b50565b612553612487565b5f61255c61224f565b90506001815f018190555050565b5f805f8060205f8651602088015f8a5af192503d91505f5190508280156125b857505f821461259c57600181146125b7565b5f8673ffffffffffffffffffffffffffffffffffffffff163b115b5b935050505092915050565b5f6125cc612205565b5f0160089054906101000a900460ff16905090565b5f80fd5b5f80fd5b5f73ffffffffffffffffffffffffffffffffffffffff82169050919050565b5f612612826125e9565b9050919050565b61262281612608565b811461262c575f80fd5b50565b5f8135905061263d81612619565b92915050565b5f60208284031215612658576126576125e1565b5b5f6126658482850161262f565b91505092915050565b5f819050919050565b6126808161266e565b811461268a575f80fd5b50565b5f8135905061269b81612677565b92915050565b5f80fd5b5f80fd5b5f80fd5b5f8083601f8401126126c2576126c16126a1565b5b8235905067ffffffffffffffff8111156126df576126de6126a5565b5b6020830191508360018202830111156126fb576126fa6126a9565b5b9250929050565b5f805f805f6080868803121561271b5761271a6125e1565b5b5f6127288882890161262f565b95505060206127398882890161268d565b945050604061274a8882890161268d565b935050606086013567ffffffffffffffff81111561276b5761276a6125e5565b5b612777888289016126ad565b92509250509295509295909350565b5f806040838503121561279c5761279b6125e1565b5b5f6127a98582860161268d565b92505060206127ba8582860161268d565b9150509250929050565b6127cd8161266e565b82525050565b5f6020820190506127e65f8301846127c4565b92915050565b5f60208284031215612801576128006125e1565b5b5f61280e8482850161268d565b91505092915050565b5f819050919050565b5f61283a612835612830846125e9565b612817565b6125e9565b9050919050565b5f61284b82612820565b9050919050565b5f61285c82612841565b9050919050565b61286c81612852565b82525050565b5f6020820190506128855f830184612863565b92915050565b5f8115159050919050565b61289f8161288b565b82525050565b5f6020820190506128b85f830184612896565b92915050565b5f80604083850312156128d4576128d36125e1565b5b5f6128e18582860161262f565b92505060206128f28582860161268d565b9150509250929050565b61290581612608565b82525050565b5f60208201905061291e5f8301846128fc565b92915050565b5f61292e82612841565b9050919050565b61293e81612924565b82525050565b5f6020820190506129575f830184612935565b92915050565b5f805f60608486031215612974576129736125e1565b5b5f6129818682870161262f565b93505060206129928682870161262f565b92505060406129a38682870161262f565b9150509250925092565b5f82825260208201905092915050565b7f496e76616c6964206170702061646472657373000000000000000000000000005f82015250565b5f6129f16013836129ad565b91506129fc826129bd565b602082019050919050565b5f6020820190508181035f830152612a1e816129e5565b9050919050565b7f416d6f756e74206d757374206265203e203000000000000000000000000000005f82015250565b5f612a596012836129ad565b9150612a6482612a25565b602082019050919050565b5f6020820190508181035f830152612a8681612a4d565b9050919050565b7f5377617020726f75746572206e6f7420736574000000000000000000000000005f82015250565b5f612ac16013836129ad565b9150612acc82612a8d565b602082019050919050565b5f6020820190508181035f830152612aee81612ab5565b9050919050565b7f557365206465706f7369745553444320666f72205553444300000000000000005f82015250565b5f612b296018836129ad565b9150612b3482612af5565b602082019050919050565b5f6020820190508181035f830152612b5681612b1d565b9050919050565b5f82825260208201905092915050565b828183375f83830152505050565b5f601f19601f8301169050919050565b5f612b968385612b5d565b9350612ba3838584612b6d565b612bac83612b7b565b840190509392505050565b5f60a082019050612bca5f8301896128fc565b612bd760208301886128fc565b612be460408301876127c4565b612bf160608301866127c4565b8181036080830152612c04818486612b8b565b9050979650505050505050565b5f81519050612c1f81612677565b92915050565b5f60208284031215612c3a57612c396125e1565b5b5f612c4784828501612c11565b91505092915050565b7f496e73756666696369656e74206f7574707574000000000000000000000000005f82015250565b5f612c846013836129ad565b9150612c8f82612c50565b602082019050919050565b5f6020820190508181035f830152612cb181612c78565b9050919050565b7f45786365656473206d6178206465706f736974000000000000000000000000005f82015250565b5f612cec6013836129ad565b9150612cf782612cb8565b602082019050919050565b5f6020820190508181035f830152612d1981612ce0565b9050919050565b7f4e487b71000000000000000000000000000000000000000000000000000000005f52601160045260245ffd5b5f612d578261266e565b9150612d628361266e565b9250828202612d708161266e565b91508282048414831517612d8757612d86612d20565b5b5092915050565b7f4e487b71000000000000000000000000000000000000000000000000000000005f52601260045260245ffd5b5f612dc58261266e565b9150612dd08361266e565b925082612de057612ddf612d8e565b5b828204905092915050565b5f612df58261266e565b9150612e008361266e565b9250828203905081811115612e1857612e17612d20565b5b92915050565b5f612e288261266e565b9150612e338361266e565b9250828201905080821115612e4b57612e4a612d20565b5b92915050565b5f604082019050612e645f8301856128fc565b612e7160208301846127c4565b9392505050565b5f608082019050612e8b5f8301876127c4565b612e9860208301866127c4565b612ea560408301856127c4565b612eb260608301846127c4565b95945050505050565b7f4465706f7369742066656520746f6f20686967680000000000000000000000005f82015250565b5f612eef6014836129ad565b9150612efa82612ebb565b602082019050919050565b5f6020820190508181035f830152612f1c81612ee3565b9050919050565b7f57697468647261772066656520746f6f206869676800000000000000000000005f82015250565b5f612f576015836129ad565b9150612f6282612f23565b602082019050919050565b5f6020820190508181035f830152612f8481612f4b565b9050919050565b5f604082019050612f9e5f8301856127c4565b612fab60208301846127c4565b9392505050565b7f4e6f206665657320746f207769746864726177000000000000000000000000005f82015250565b5f612fe66013836129ad565b9150612ff182612fb2565b602082019050919050565b5f6020820190508181035f83015261301381612fda565b9050919050565b7f416d6f756e7420746f6f20736d616c6c000000000000000000000000000000005f82015250565b5f61304e6010836129ad565b91506130598261301a565b602082019050919050565b5f6020820190508181035f83015261307b81613042565b9050919050565b7f45786365656473206d61782077697468647261770000000000000000000000005f82015250565b5f6130b66014836129ad565b91506130c182613082565b602082019050919050565b5f6020820190508181035f8301526130e3816130aa565b9050919050565b7f496e73756666696369656e7420747265617375727900000000000000000000005f82015250565b5f61311e6015836129ad565b9150613129826130ea565b602082019050919050565b5f6020820190508181035f83015261314b81613112565b9050919050565b5f6060820190506131655f8301866127c4565b61317260208301856127c4565b61317f60408301846127c4565b949350505050565b7f4e6f7420617574686f72697a65642061707000000000000000000000000000005f82015250565b5f6131bb6012836129ad565b91506131c682613187565b602082019050919050565b5f6020820190508181035f8301526131e8816131af565b9050919050565b7f496e76616c6964206164647265737300000000000000000000000000000000005f82015250565b5f613223600f836129ad565b915061322e826131ef565b602082019050919050565b5f6020820190508181035f83015261325081613217565b9050919050565b5f819050919050565b5f67ffffffffffffffff82169050919050565b5f61328d61328861328384613257565b612817565b613260565b9050919050565b61329d81613273565b82525050565b5f6020820190506132b65f830184613294565b92915050565b5f6060820190506132cf5f8301866128fc565b6132dc60208301856128fc565b6132e960408301846127c4565b949350505050565b5f6040820190506133045f8301856128fc565b61331160208301846128fc565b9392505050565b5f819050919050565b5f61333b61333661333184613318565b612817565b61266e565b9050919050565b61334b81613321565b82525050565b5f6040820190506133645f8301856128fc565b6133716020830184613342565b939250505056fea26469706673582212208093d1cccebb3d339786bfa650657d3d87f244043d9d05d079fb1257521c8c2064736f6c63430008140033",
  "linkReferences": {},
  "deployedLinkReferences": {},
  "immutableReferences": {},
  "inputSourceName": "project/src/SuiteTreasury.sol",
  "buildInfoId": "solc-0_8_20-200278806bb001d50007c06a647610fe15d62c49"
}