{"abi":[{"type":"constructor","inputs":[{"name":"_admins","type":"address[]","internalType":"address[]"}],"stateMutability":"nonpayable"},{"type":"function","name":"USDC","inputs":[],"outputs":[{"name":"","type":"address","internalType":"contract IERC20"}],"stateMutability":"view"},{"type":"function","name":"addAdmin","inputs":[{"name":"_admin","type":"address","internalType":"address"}],"outputs":[],"stateMutability":"nonpayable"},{"type":"function","name":"approveClaim","inputs":[{"name":"_user","type":"address","internalType":"address"},{"name":"_amount","type":"uint256","internalType":"uint256"}],"outputs":[],"stateMutability":"nonpayable"},{"type":"function","name":"batchApproveClaims","inputs":[{"name":"_users","type":"address[]","internalType":"address[]"},{"name":"_amounts","type":"uint256[]","internalType":"uint256[]"}],"outputs":[],"stateMutability":"nonpayable"},{"type":"function","name":"claim","inputs":[],"outputs":[],"stateMutability":"nonpayable"},{"type":"function","name":"claimableAmount","inputs":[{"name":"","type":"address","internalType":"address"}],"outputs":[{"name":"","type":"uint256","internalType":"uint256"}],"stateMutability":"view"},{"type":"function","name":"deposit","inputs":[{"name":"_amount","type":"uint256","internalType":"uint256"}],"outputs":[],"stateMutability":"nonpayable"},{"type":"function","name":"emergencyWithdraw","inputs":[],"outputs":[],"stateMutability":"nonpayable"},{"type":"function","name":"getAvailableBalance","inputs":[],"outputs":[{"name":"","type":"uint256","internalType":"uint256"}],"stateMutability":"view"},{"type":"function","name":"getBalance","inputs":[],"outputs":[{"name":"","type":"uint256","internalType":"uint256"}],"stateMutability":"view"},{"type":"function","name":"hasClaim","inputs":[{"name":"_user","type":"address","internalType":"address"}],"outputs":[{"name":"","type":"bool","internalType":"bool"}],"stateMutability":"view"},{"type":"function","name":"isAdmin","inputs":[{"name":"","type":"address","internalType":"address"}],"outputs":[{"name":"","type":"bool","internalType":"bool"}],"stateMutability":"view"},{"type":"function","name":"removeAdmin","inputs":[{"name":"_admin","type":"address","internalType":"address"}],"outputs":[],"stateMutability":"nonpayable"},{"type":"function","name":"revokeClaim","inputs":[{"name":"_user","type":"address","internalType":"address"}],"outputs":[],"stateMutability":"nonpayable"},{"type":"function","name":"totalPendingClaims","inputs":[],"outputs":[{"name":"","type":"uint256","internalType":"uint256"}],"stateMutability":"view"},{"type":"function","name":"withdrawExcess","inputs":[{"name":"_amount","type":"uint256","internalType":"uint256"}],"outputs":[],"stateMutability":"nonpayable"},{"type":"event","name":"AdminAdded","inputs":[{"name":"admin","type":"address","indexed":true,"internalType":"address"}],"anonymous":false},{"type":"event","name":"AdminRemoved","inputs":[{"name":"admin","type":"address","indexed":true,"internalType":"address"}],"anonymous":false},{"type":"event","name":"ClaimApproved","inputs":[{"name":"user","type":"address","indexed":true,"internalType":"address"},{"name":"amount","type":"uint256","indexed":false,"internalType":"uint256"}],"anonymous":false},{"type":"event","name":"ClaimRevoked","inputs":[{"name":"user","type":"address","indexed":true,"internalType":"address"},{"name":"amount","type":"uint256","indexed":false,"internalType":"uint256"}],"anonymous":false},{"type":"event","name":"Claimed","inputs":[{"name":"user","type":"address","indexed":true,"internalType":"address"},{"name":"amount","type":"uint256","indexed":false,"internalType":"uint256"}],"anonymous":false},{"type":"event","name":"Deposited","inputs":[{"name":"admin","type":"address","indexed":true,"internalType":"address"},{"name":"amount","type":"uint256","indexed":false,"internalType":"uint256"}],"anonymous":false},{"type":"event","name":"Withdrawn","inputs":[{"name":"admin","type":"address","indexed":true,"internalType":"address"},{"name":"amount","type":"uint256","indexed":false,"internalType":"uint256"}],"anonymous":false},{"type":"error","name":"ReentrancyGuardReentrantCall","inputs":[]},{"type":"error","name":"SafeERC20FailedOperation","inputs":[{"name":"token","type":"address","internalType":"address"}]}],"bytecode":{"object":"0x608060405234801562000010575f80fd5b50604051620014e5380380620014e5833981016040819052620000339162000139565b60015f9081555b815181101562000101576001805f8484815181106200005d576200005d62000206565b60200260200101516001600160a01b03166001600160a01b031681526020019081526020015f205f6101000a81548160ff021916908315150217905550818181518110620000af57620000af62000206565b60200260200101516001600160a01b03167f44d6d25963f097ad14f29f06854a01f575648a1ef82f30e562ccd3889717e33960405160405180910390a280620000f8816200021a565b9150506200003a565b50506200023f565b634e487b7160e01b5f52604160045260245ffd5b80516001600160a01b038116811462000134575f80fd5b919050565b5f60208083850312156200014b575f80fd5b82516001600160401b038082111562000162575f80fd5b818501915085601f83011262000176575f80fd5b8151818111156200018b576200018b62000109565b8060051b604051601f19603f83011681018181108582111715620001b357620001b362000109565b604052918252848201925083810185019188831115620001d1575f80fd5b938501935b82851015620001fa57620001ea856200011d565b84529385019392850192620001d6565b98975050505050505050565b634e487b7160e01b5f52603260045260245ffd5b5f600182016200023857634e487b7160e01b5f52601160045260245ffd5b5060010190565b611298806200024d5f395ff3fe608060405234801561000f575f80fd5b50600436106100fb575f3560e01c80638988504911610093578063e755ddd711610063578063e755ddd71461020d578063f130ea0614610220578063f2ad790814610233578063fa2ce79b14610246575f80fd5b806389885049146101a057806389a30271146101bf578063b6b55f25146101f2578063db2e21bc14610205575f80fd5b80634e71d92d116100ce5780634e71d92d14610174578063704802751461017c57806370bf23811461018f578063809dab6a14610198575f80fd5b80630216ee41146100ff57806312065fe0146101145780631785f53c1461012f57806324d7806c14610142575b5f80fd5b61011261010d3660046110ae565b610270565b005b61011c61036f565b6040519081526020015b60405180910390f35b61011261013d3660046110ae565b6103e7565b6101646101503660046110ae565b60016020525f908152604090205460ff1681565b6040519015158152602001610126565b6101126104e1565b61011261018a3660046110ae565b6105c1565b61011c60035481565b61011c610695565b61011c6101ae3660046110ae565b60026020525f908152604090205481565b6101da73833589fcd6edb6e08f4c7c32d4f71b54bda0291381565b6040516001600160a01b039091168152602001610126565b6101126102003660046110ce565b61072e565b6101126107f9565b61011261021b3660046110ce565b61093b565b61011261022e36600461112d565b610aa6565b610112610241366004611194565b610db2565b6101646102543660046110ae565b6001600160a01b03165f90815260026020526040902054151590565b335f9081526001602052604090205460ff166102a75760405162461bcd60e51b815260040161029e906111bc565b60405180910390fd5b6001600160a01b0381165f90815260026020526040902054806103015760405162461bcd60e51b81526020600482015260126024820152714e6f20636c61696d20746f207265766f6b6560701b604482015260640161029e565b8060035f82825461031291906111f3565b90915550506001600160a01b0382165f8181526002602052604080822091909155517ff1cb0590a2b358da7ca22ae041b390dcc5e4f125a8f0914b4ada913bcbdbb680906103639084815260200190565b60405180910390a25050565b6040516370a0823160e01b81523060048201525f9073833589fcd6edb6e08f4c7c32d4f71b54bda02913906370a0823190602401602060405180830381865afa1580156103be573d5f803e3d5ffd5b505050506040513d601f19601f820116820180604052508101906103e2919061120c565b905090565b335f9081526001602052604090205460ff166104155760405162461bcd60e51b815260040161029e906111bc565b336001600160a01b038216036104625760405162461bcd60e51b815260206004820152601260248201527121b0b73737ba103932b6b7bb329039b2b63360711b604482015260640161029e565b6001600160a01b0381165f9081526001602052604090205460ff166104995760405162461bcd60e51b815260040161029e906111bc565b6001600160a01b0381165f81815260016020526040808220805460ff19169055517fa3b62bc36326052d97ea62d63c3d60308ed4c3ea8ac079dd8499f1e9c4f80c0f9190a250565b6104e9610f5c565b335f90815260026020526040902054806105385760405162461bcd60e51b815260206004820152601060248201526f4e6f7468696e6720746f20636c61696d60801b604482015260640161029e565b335f9081526002602052604081208190556003805483929061055b9084906111f3565b90915550610580905073833589fcd6edb6e08f4c7c32d4f71b54bda029133383610f84565b60405181815233907fd8138f8a3f377c5259ca548e70e4c2de94f129f5a11036a15b69513cba2b426a9060200160405180910390a2506105bf60015f55565b565b335f9081526001602052604090205460ff166105ef5760405162461bcd60e51b815260040161029e906111bc565b6001600160a01b0381165f9081526001602052604090205460ff16156106475760405162461bcd60e51b815260206004820152600d60248201526c20b63932b0b23c9030b236b4b760991b604482015260640161029e565b6001600160a01b0381165f818152600160208190526040808320805460ff1916909217909155517f44d6d25963f097ad14f29f06854a01f575648a1ef82f30e562ccd3889717e3399190a250565b6040516370a0823160e01b81523060048201525f90819073833589fcd6edb6e08f4c7c32d4f71b54bda02913906370a0823190602401602060405180830381865afa1580156106e6573d5f803e3d5ffd5b505050506040513d601f19601f8201168201806040525081019061070a919061120c565b9050600354811161071b575f610728565b60035461072890826111f3565b91505090565b335f9081526001602052604090205460ff1661075c5760405162461bcd60e51b815260040161029e906111bc565b5f81116107a05760405162461bcd60e51b81526020600482015260126024820152710416d6f756e74206d757374206265203e20360741b604482015260640161029e565b6107c073833589fcd6edb6e08f4c7c32d4f71b54bda02913333084610fe8565b60405181815233907f2da466a7b24304f47e87fa2e1e5a81b9831ce54fec19055ce277ca2f39ba42c4906020015b60405180910390a250565b335f9081526001602052604090205460ff166108275760405162461bcd60e51b815260040161029e906111bc565b6003541561086c5760405162461bcd60e51b81526020600482015260126024820152714861732070656e64696e6720636c61696d7360701b604482015260640161029e565b6040516370a0823160e01b81523060048201525f9073833589fcd6edb6e08f4c7c32d4f71b54bda02913906370a0823190602401602060405180830381865afa1580156108bb573d5f803e3d5ffd5b505050506040513d601f19601f820116820180604052508101906108df919061120c565b905080156109385761090673833589fcd6edb6e08f4c7c32d4f71b54bda029133383610f84565b60405181815233907f7084f5476618d8e60b11ef0d7d3f06914655adb8793e28ff7f018d4c76d505d5906020016107ee565b50565b335f9081526001602052604090205460ff166109695760405162461bcd60e51b815260040161029e906111bc565b6040516370a0823160e01b81523060048201525f9073833589fcd6edb6e08f4c7c32d4f71b54bda02913906370a0823190602401602060405180830381865afa1580156109b8573d5f803e3d5ffd5b505050506040513d601f19601f820116820180604052508101906109dc919061120c565b90505f60035482116109ee575f6109fb565b6003546109fb90836111f3565b905080831115610a4d5760405162461bcd60e51b815260206004820152601e60248201527f43616e6e6f742077697468647261772070656e64696e6720636c61696d730000604482015260640161029e565b610a6c73833589fcd6edb6e08f4c7c32d4f71b54bda029133385610f84565b60405183815233907f7084f5476618d8e60b11ef0d7d3f06914655adb8793e28ff7f018d4c76d505d59060200160405180910390a2505050565b335f9081526001602052604090205460ff16610ad45760405162461bcd60e51b815260040161029e906111bc565b828114610b155760405162461bcd60e51b815260206004820152600f60248201526e098cadccee8d040dad2e6dac2e8c6d608b1b604482015260640161029e565b6003545f5b84811015610cf0575f868683818110610b3557610b35611223565b9050602002016020810190610b4a91906110ae565b6001600160a01b031603610b8f5760405162461bcd60e51b815260206004820152600c60248201526b24b73b30b634b2103ab9b2b960a11b604482015260640161029e565b838382818110610ba157610ba1611223565b9050602002013560025f888885818110610bbd57610bbd611223565b9050602002016020810190610bd291906110ae565b6001600160a01b0316815260208101919091526040015f2054610bf590846111f3565b610bff9190611237565b9150838382818110610c1357610c13611223565b9050602002013560025f888885818110610c2f57610c2f611223565b9050602002016020810190610c4491906110ae565b6001600160a01b0316815260208101919091526040015f2055858582818110610c6f57610c6f611223565b9050602002016020810190610c8491906110ae565b6001600160a01b03167f308187387164507a01d4463583bc3e8760529edc45d573acc02ed018bd4ac276858584818110610cc057610cc0611223565b90506020020135604051610cd691815260200190565b60405180910390a280610ce88161124a565b915050610b1a565b506040516370a0823160e01b8152306004820152819073833589fcd6edb6e08f4c7c32d4f71b54bda02913906370a0823190602401602060405180830381865afa158015610d40573d5f803e3d5ffd5b505050506040513d601f19601f82011682018060405250810190610d64919061120c565b1015610da95760405162461bcd60e51b8152602060048201526014602482015273496e73756666696369656e742062616c616e636560601b604482015260640161029e565b60035550505050565b335f9081526001602052604090205460ff16610de05760405162461bcd60e51b815260040161029e906111bc565b6001600160a01b038216610e255760405162461bcd60e51b815260206004820152600c60248201526b24b73b30b634b2103ab9b2b960a11b604482015260640161029e565b6001600160a01b0382165f908152600260205260409020546003548291610e4b916111f3565b610e559190611237565b60038190556040516370a0823160e01b815230600482015273833589fcd6edb6e08f4c7c32d4f71b54bda02913906370a0823190602401602060405180830381865afa158015610ea7573d5f803e3d5ffd5b505050506040513d601f19601f82011682018060405250810190610ecb919061120c565b1015610f105760405162461bcd60e51b8152602060048201526014602482015273496e73756666696369656e742062616c616e636560601b604482015260640161029e565b6001600160a01b0382165f8181526002602052604090819020839055517f308187387164507a01d4463583bc3e8760529edc45d573acc02ed018bd4ac276906103639084815260200190565b60025f5403610f7e57604051633ee5aeb560e01b815260040160405180910390fd5b60025f55565b6040516001600160a01b03838116602483015260448201839052610fe391859182169063a9059cbb906064015b604051602081830303815290604052915060e01b6020820180516001600160e01b038381831617835250505050611027565b505050565b6040516001600160a01b0384811660248301528381166044830152606482018390526110219186918216906323b872dd90608401610fb1565b50505050565b5f8060205f8451602086015f885af180611046576040513d5f823e3d81fd5b50505f513d9150811561105d57806001141561106a565b6001600160a01b0384163b155b1561102157604051635274afe760e01b81526001600160a01b038516600482015260240161029e565b80356001600160a01b03811681146110a9575f80fd5b919050565b5f602082840312156110be575f80fd5b6110c782611093565b9392505050565b5f602082840312156110de575f80fd5b5035919050565b5f8083601f8401126110f5575f80fd5b50813567ffffffffffffffff81111561110c575f80fd5b6020830191508360208260051b8501011115611126575f80fd5b9250929050565b5f805f8060408587031215611140575f80fd5b843567ffffffffffffffff80821115611157575f80fd5b611163888389016110e5565b9096509450602087013591508082111561117b575f80fd5b50611188878288016110e5565b95989497509550505050565b5f80604083850312156111a5575f80fd5b6111ae83611093565b946020939093013593505050565b6020808252600990820152682737ba1030b236b4b760b91b604082015260600190565b634e487b7160e01b5f52601160045260245ffd5b81810381811115611206576112066111df565b92915050565b5f6020828403121561121c575f80fd5b5051919050565b634e487b7160e01b5f52603260045260245ffd5b80820180821115611206576112066111df565b5f6001820161125b5761125b6111df565b506001019056fea2646970667358221220bd8eb0b3b72d7b46ee10285357f5d19bdcc6fe349326209b8a63674c909a04d264736f6c63430008140033","linkReferences":{}},"methodIdentifiers":{"USDC()":"89a30271","addAdmin(address)":"70480275","approveClaim(address,uint256)":"f2ad7908","batchApproveClaims(address[],uint256[])":"f130ea06","claim()":"4e71d92d","claimableAmount(address)":"89885049","deposit(uint256)":"b6b55f25","emergencyWithdraw()":"db2e21bc","getAvailableBalance()":"809dab6a","getBalance()":"12065fe0","hasClaim(address)":"fa2ce79b","isAdmin(address)":"24d7806c","removeAdmin(address)":"1785f53c","revokeClaim(address)":"0216ee41","totalPendingClaims()":"70bf2381","withdrawExcess(uint256)":"e755ddd7"},"id":69}