{
  "_format": "hh3-artifact-1",
  "contractName": "SuiteToken",
  "sourceName": "src/SuiteToken.sol",
  "abi": [
    {
      "inputs": [
        {
          "internalType": "address",
          "name": "initialOwner",
          "type": "address"
        }
      ],
      "stateMutability": "nonpayable",
      "type": "constructor"
    },
    {
      "inputs": [
        {
          "internalType": "address",
          "name": "spender",
          "type": "address"
        },
        {
          "internalType": "uint256",
          "name": "allowance",
          "type": "uint256"
        },
        {
          "internalType": "uint256",
          "name": "needed",
          "type": "uint256"
        }
      ],
      "name": "ERC20InsufficientAllowance",
      "type": "error"
    },
    {
      "inputs": [
        {
          "internalType": "address",
          "name": "sender",
          "type": "address"
        },
        {
          "internalType": "uint256",
          "name": "balance",
          "type": "uint256"
        },
        {
          "internalType": "uint256",
          "name": "needed",
          "type": "uint256"
        }
      ],
      "name": "ERC20InsufficientBalance",
      "type": "error"
    },
    {
      "inputs": [
        {
          "internalType": "address",
          "name": "approver",
          "type": "address"
        }
      ],
      "name": "ERC20InvalidApprover",
      "type": "error"
    },
    {
      "inputs": [
        {
          "internalType": "address",
          "name": "receiver",
          "type": "address"
        }
      ],
      "name": "ERC20InvalidReceiver",
      "type": "error"
    },
    {
      "inputs": [
        {
          "internalType": "address",
          "name": "sender",
          "type": "address"
        }
      ],
      "name": "ERC20InvalidSender",
      "type": "error"
    },
    {
      "inputs": [
        {
          "internalType": "address",
          "name": "spender",
          "type": "address"
        }
      ],
      "name": "ERC20InvalidSpender",
      "type": "error"
    },
    {
      "inputs": [
        {
          "internalType": "address",
          "name": "owner",
          "type": "address"
        }
      ],
      "name": "OwnableInvalidOwner",
      "type": "error"
    },
    {
      "inputs": [
        {
          "internalType": "address",
          "name": "account",
          "type": "address"
        }
      ],
      "name": "OwnableUnauthorizedAccount",
      "type": "error"
    },
    {
      "anonymous": false,
      "inputs": [
        {
          "indexed": true,
          "internalType": "address",
          "name": "owner",
          "type": "address"
        },
        {
          "indexed": true,
          "internalType": "address",
          "name": "spender",
          "type": "address"
        },
        {
          "indexed": false,
          "internalType": "uint256",
          "name": "value",
          "type": "uint256"
        }
      ],
      "name": "Approval",
      "type": "event"
    },
    {
      "anonymous": false,
      "inputs": [
        {
          "indexed": true,
          "internalType": "address",
          "name": "burner",
          "type": "address"
        }
      ],
      "name": "BurnerAdded",
      "type": "event"
    },
    {
      "anonymous": false,
      "inputs": [
        {
          "indexed": true,
          "internalType": "address",
          "name": "burner",
          "type": "address"
        }
      ],
      "name": "BurnerRemoved",
      "type": "event"
    },
    {
      "anonymous": false,
      "inputs": [
        {
          "indexed": true,
          "internalType": "address",
          "name": "minter",
          "type": "address"
        }
      ],
      "name": "MinterAdded",
      "type": "event"
    },
    {
      "anonymous": false,
      "inputs": [
        {
          "indexed": true,
          "internalType": "address",
          "name": "minter",
          "type": "address"
        }
      ],
      "name": "MinterRemoved",
      "type": "event"
    },
    {
      "anonymous": false,
      "inputs": [
        {
          "indexed": true,
          "internalType": "address",
          "name": "previousOwner",
          "type": "address"
        },
        {
          "indexed": true,
          "internalType": "address",
          "name": "newOwner",
          "type": "address"
        }
      ],
      "name": "OwnershipTransferred",
      "type": "event"
    },
    {
      "anonymous": false,
      "inputs": [
        {
          "indexed": true,
          "internalType": "address",
          "name": "from",
          "type": "address"
        },
        {
          "indexed": true,
          "internalType": "address",
          "name": "to",
          "type": "address"
        },
        {
          "indexed": false,
          "internalType": "uint256",
          "name": "value",
          "type": "uint256"
        }
      ],
      "name": "Transfer",
      "type": "event"
    },
    {
      "inputs": [
        {
          "internalType": "address",
          "name": "burner",
          "type": "address"
        }
      ],
      "name": "addBurner",
      "outputs": [],
      "stateMutability": "nonpayable",
      "type": "function"
    },
    {
      "inputs": [
        {
          "internalType": "address",
          "name": "minter",
          "type": "address"
        }
      ],
      "name": "addMinter",
      "outputs": [],
      "stateMutability": "nonpayable",
      "type": "function"
    },
    {
      "inputs": [
        {
          "internalType": "address",
          "name": "owner",
          "type": "address"
        },
        {
          "internalType": "address",
          "name": "spender",
          "type": "address"
        }
      ],
      "name": "allowance",
      "outputs": [
        {
          "internalType": "uint256",
          "name": "",
          "type": "uint256"
        }
      ],
      "stateMutability": "view",
      "type": "function"
    },
    {
      "inputs": [
        {
          "internalType": "address",
          "name": "spender",
          "type": "address"
        },
        {
          "internalType": "uint256",
          "name": "value",
          "type": "uint256"
        }
      ],
      "name": "approve",
      "outputs": [
        {
          "internalType": "bool",
          "name": "",
          "type": "bool"
        }
      ],
      "stateMutability": "nonpayable",
      "type": "function"
    },
    {
      "inputs": [
        {
          "internalType": "address",
          "name": "account",
          "type": "address"
        }
      ],
      "name": "balanceOf",
      "outputs": [
        {
          "internalType": "uint256",
          "name": "",
          "type": "uint256"
        }
      ],
      "stateMutability": "view",
      "type": "function"
    },
    {
      "inputs": [
        {
          "internalType": "uint256",
          "name": "value",
          "type": "uint256"
        }
      ],
      "name": "burn",
      "outputs": [],
      "stateMutability": "nonpayable",
      "type": "function"
    },
    {
      "inputs": [
        {
          "internalType": "address",
          "name": "from",
          "type": "address"
        },
        {
          "internalType": "uint256",
          "name": "amount",
          "type": "uint256"
        }
      ],
      "name": "burnFrom",
      "outputs": [],
      "stateMutability": "nonpayable",
      "type": "function"
    },
    {
      "inputs": [
        {
          "internalType": "address",
          "name": "",
          "type": "address"
        }
      ],
      "name": "burners",
      "outputs": [
        {
          "internalType": "bool",
          "name": "",
          "type": "bool"
        }
      ],
      "stateMutability": "view",
      "type": "function"
    },
    {
      "inputs": [],
      "name": "decimals",
      "outputs": [
        {
          "internalType": "uint8",
          "name": "",
          "type": "uint8"
        }
      ],
      "stateMutability": "view",
      "type": "function"
    },
    {
      "inputs": [
        {
          "internalType": "address",
          "name": "to",
          "type": "address"
        },
        {
          "internalType": "uint256",
          "name": "amount",
          "type": "uint256"
        }
      ],
      "name": "mint",
      "outputs": [],
      "stateMutability": "nonpayable",
      "type": "function"
    },
    {
      "inputs": [
        {
          "internalType": "address",
          "name": "",
          "type": "address"
        }
      ],
      "name": "minters",
      "outputs": [
        {
          "internalType": "bool",
          "name": "",
          "type": "bool"
        }
      ],
      "stateMutability": "view",
      "type": "function"
    },
    {
      "inputs": [],
      "name": "name",
      "outputs": [
        {
          "internalType": "string",
          "name": "",
          "type": "string"
        }
      ],
      "stateMutability": "view",
      "type": "function"
    },
    {
      "inputs": [],
      "name": "owner",
      "outputs": [
        {
          "internalType": "address",
          "name": "",
          "type": "address"
        }
      ],
      "stateMutability": "view",
      "type": "function"
    },
    {
      "inputs": [
        {
          "internalType": "address",
          "name": "burner",
          "type": "address"
        }
      ],
      "name": "removeBurner",
      "outputs": [],
      "stateMutability": "nonpayable",
      "type": "function"
    },
    {
      "inputs": [
        {
          "internalType": "address",
          "name": "minter",
          "type": "address"
        }
      ],
      "name": "removeMinter",
      "outputs": [],
      "stateMutability": "nonpayable",
      "type": "function"
    },
    {
      "inputs": [],
      "name": "renounceOwnership",
      "outputs": [],
      "stateMutability": "nonpayable",
      "type": "function"
    },
    {
      "inputs": [],
      "name": "symbol",
      "outputs": [
        {
          "internalType": "string",
          "name": "",
          "type": "string"
        }
      ],
      "stateMutability": "view",
      "type": "function"
    },
    {
      "inputs": [],
      "name": "totalSupply",
      "outputs": [
        {
          "internalType": "uint256",
          "name": "",
          "type": "uint256"
        }
      ],
      "stateMutability": "view",
      "type": "function"
    },
    {
      "inputs": [
        {
          "internalType": "address",
          "name": "to",
          "type": "address"
        },
        {
          "internalType": "uint256",
          "name": "value",
          "type": "uint256"
        }
      ],
      "name": "transfer",
      "outputs": [
        {
          "internalType": "bool",
          "name": "",
          "type": "bool"
        }
      ],
      "stateMutability": "nonpayable",
      "type": "function"
    },
    {
      "inputs": [
        {
          "internalType": "address",
          "name": "from",
          "type": "address"
        },
        {
          "internalType": "address",
          "name": "to",
          "type": "address"
        },
        {
          "internalType": "uint256",
          "name": "value",
          "type": "uint256"
        }
      ],
      "name": "transferFrom",
      "outputs": [
        {
          "internalType": "bool",
          "name": "",
          "type": "bool"
        }
      ],
      "stateMutability": "nonpayable",
      "type": "function"
    },
    {
      "inputs": [
        {
          "internalType": "address",
          "name": "newOwner",
          "type": "address"
        }
      ],
      "name": "transferOwnership",
      "outputs": [],
      "stateMutability": "nonpayable",
      "type": "function"
    }
  ],
  "bytecode": "0x608060405234801562000010575f80fd5b506040516200110638038062001106833981016040819052620000339162000115565b604080518082018252600580825264535549544560d81b602080840182905284518086019095529184529083015282916003620000718382620001e4565b506004620000808282620001e4565b5050506001600160a01b038116620000b157604051631e4fbdf760e01b81525f600482015260240160405180910390fd5b620000bc81620000c4565b5050620002ac565b600580546001600160a01b038381166001600160a01b0319831681179093556040519116919082907f8be0079c531659141344cd1fd0a4f28419497f9722a3daafe3b4186f6b6457e0905f90a35050565b5f6020828403121562000126575f80fd5b81516001600160a01b03811681146200013d575f80fd5b9392505050565b634e487b7160e01b5f52604160045260245ffd5b600181811c908216806200016d57607f821691505b6020821081036200018c57634e487b7160e01b5f52602260045260245ffd5b50919050565b601f821115620001df575f81815260208120601f850160051c81016020861015620001ba5750805b601f850160051c820191505b81811015620001db57828155600101620001c6565b5050505b505050565b81516001600160401b0381111562000200576200020062000144565b620002188162000211845462000158565b8462000192565b602080601f8311600181146200024e575f8415620002365750858301515b5f19600386901b1c1916600185901b178555620001db565b5f85815260208120601f198616915b828110156200027e578886015182559484019460019091019084016200025d565b50858210156200029c57878501515f19600388901b60f8161c191681555b5050505050600190811b01905550565b610e4c80620002ba5f395ff3fe608060405234801561000f575f80fd5b5060043610610132575f3560e01c806370a08231116100b4578063983b2d5611610079578063983b2d561461027d578063a9059cbb14610290578063dd62ed3e146102a3578063f2fde38b146102db578063f44637ba146102ee578063f46eccc414610301575f80fd5b806370a0823114610217578063715018a61461023f57806379cc6790146102475780638da5cb5b1461025a57806395d89b4114610275575f80fd5b806323b872dd116100fa57806323b872dd146101bc5780633092afd5146101cf578063313ce567146101e257806340c10f19146101f157806342966c6814610204575f80fd5b8063028468581461013657806303d41e0e1461014b57806306fdde0314610182578063095ea7b31461019757806318160ddd146101aa575b5f80fd5b610149610144366004610cab565b610323565b005b61016d610159366004610cab565b60076020525f908152604090205460ff1681565b60405190151581526020015b60405180910390f35b61018a6103df565b6040516101799190610ccb565b61016d6101a5366004610d16565b61046f565b6002545b604051908152602001610179565b61016d6101ca366004610d3e565b610488565b6101496101dd366004610cab565b6104ab565b60405160128152602001610179565b6101496101ff366004610d16565b610562565b610149610212366004610d77565b6105d9565b6101ae610225366004610cab565b6001600160a01b03165f9081526020819052604090205490565b6101496105e6565b610149610255366004610d16565b6105f9565b6005546040516001600160a01b039091168152602001610179565b61018a610624565b61014961028b366004610cab565b610633565b61016d61029e366004610d16565b61074f565b6101ae6102b1366004610d8e565b6001600160a01b039182165f90815260016020908152604080832093909416825291909152205490565b6101496102e9366004610cab565b61075c565b6101496102fc366004610cab565b610796565b61016d61030f366004610cab565b60066020525f908152604090205460ff1681565b61032b6108b2565b6001600160a01b0381165f9081526007602052604090205460ff166103975760405162461bcd60e51b815260206004820152601860248201527f5375697465546f6b656e3a206e6f742061206275726e6572000000000000000060448201526064015b60405180910390fd5b6001600160a01b0381165f81815260076020526040808220805460ff19169055517f90eabbc0c667db2a5029ed6bc0f5fe9f356d11684a4ca9fcfaec0e53f12b9c8e9190a250565b6060600380546103ee90610dbf565b80601f016020809104026020016040519081016040528092919081815260200182805461041a90610dbf565b80156104655780601f1061043c57610100808354040283529160200191610465565b820191905f5260205f20905b81548152906001019060200180831161044857829003601f168201915b5050505050905090565b5f3361047c8185856108df565b60019150505b92915050565b5f336104958582856108f1565b6104a085858561096d565b506001949350505050565b6104b36108b2565b6001600160a01b0381165f9081526006602052604090205460ff1661051a5760405162461bcd60e51b815260206004820152601860248201527f5375697465546f6b656e3a206e6f742061206d696e7465720000000000000000604482015260640161038e565b6001600160a01b0381165f81815260066020526040808220805460ff19169055517fe94479a9f7e1952cc78f2d6baab678adc1b772d936c6583def489e524cb666929190a250565b335f9081526006602052604090205460ff166105cb5760405162461bcd60e51b815260206004820152602260248201527f5375697465546f6b656e3a2063616c6c6572206973206e6f742061206d696e7460448201526132b960f11b606482015260840161038e565b6105d582826109ca565b5050565b6105e333826109fe565b50565b6105ee6108b2565b6105f75f610a32565b565b335f9081526007602052604090205460ff161561061a576105d582826109fe565b6105d58282610a83565b6060600480546103ee90610dbf565b61063b6108b2565b6001600160a01b03811661069c5760405162461bcd60e51b815260206004820152602260248201527f5375697465546f6b656e3a206d696e746572206973207a65726f206164647265604482015261737360f01b606482015260840161038e565b6001600160a01b0381165f9081526006602052604090205460ff16156107045760405162461bcd60e51b815260206004820152601c60248201527f5375697465546f6b656e3a20616c72656164792061206d696e74657200000000604482015260640161038e565b6001600160a01b0381165f81815260066020526040808220805460ff19166001179055517f6ae172837ea30b801fbfcdd4108aa1d5bf8ff775444fd70256b44e6bf3dfc3f69190a250565b5f3361047c81858561096d565b6107646108b2565b6001600160a01b03811661078d57604051631e4fbdf760e01b81525f600482015260240161038e565b6105e381610a32565b61079e6108b2565b6001600160a01b0381166107ff5760405162461bcd60e51b815260206004820152602260248201527f5375697465546f6b656e3a206275726e6572206973207a65726f206164647265604482015261737360f01b606482015260840161038e565b6001600160a01b0381165f9081526007602052604090205460ff16156108675760405162461bcd60e51b815260206004820152601c60248201527f5375697465546f6b656e3a20616c72656164792061206275726e657200000000604482015260640161038e565b6001600160a01b0381165f81815260076020526040808220805460ff19166001179055517f86e57fd2b90329052917118de7c3f521f400d439b9650deaa906a25b08b945609190a250565b6005546001600160a01b031633146105f75760405163118cdaa760e01b815233600482015260240161038e565b6108ec8383836001610a98565b505050565b6001600160a01b038381165f908152600160209081526040808320938616835292905220545f19811015610967578181101561095957604051637dc7a0d960e11b81526001600160a01b0384166004820152602481018290526044810183905260640161038e565b61096784848484035f610a98565b50505050565b6001600160a01b03831661099657604051634b637e8f60e11b81525f600482015260240161038e565b6001600160a01b0382166109bf5760405163ec442f0560e01b81525f600482015260240161038e565b6108ec838383610b6a565b6001600160a01b0382166109f35760405163ec442f0560e01b81525f600482015260240161038e565b6105d55f8383610b6a565b6001600160a01b038216610a2757604051634b637e8f60e11b81525f600482015260240161038e565b6105d5825f83610b6a565b600580546001600160a01b038381166001600160a01b0319831681179093556040519116919082907f8be0079c531659141344cd1fd0a4f28419497f9722a3daafe3b4186f6b6457e0905f90a35050565b610a8e8233836108f1565b6105d582826109fe565b6001600160a01b038416610ac15760405163e602df0560e01b81525f600482015260240161038e565b6001600160a01b038316610aea57604051634a1406b160e11b81525f600482015260240161038e565b6001600160a01b038085165f908152600160209081526040808320938716835292905220829055801561096757826001600160a01b0316846001600160a01b03167f8c5be1e5ebec7d5bd14f71427d1e84f3dd0314c0f7b2291e5b200ac8c7c3b92584604051610b5c91815260200190565b60405180910390a350505050565b6001600160a01b038316610b94578060025f828254610b899190610df7565b90915550610c049050565b6001600160a01b0383165f9081526020819052604090205481811015610be65760405163391434e360e21b81526001600160a01b0385166004820152602481018290526044810183905260640161038e565b6001600160a01b0384165f9081526020819052604090209082900390555b6001600160a01b038216610c2057600280548290039055610c3e565b6001600160a01b0382165f9081526020819052604090208054820190555b816001600160a01b0316836001600160a01b03167fddf252ad1be2c89b69c2b068fc378daa952ba7f163c4a11628f55a4df523b3ef83604051610c8391815260200190565b60405180910390a3505050565b80356001600160a01b0381168114610ca6575f80fd5b919050565b5f60208284031215610cbb575f80fd5b610cc482610c90565b9392505050565b5f6020808352835180828501525f5b81811015610cf657858101830151858201604001528201610cda565b505f604082860101526040601f19601f8301168501019250505092915050565b5f8060408385031215610d27575f80fd5b610d3083610c90565b946020939093013593505050565b5f805f60608486031215610d50575f80fd5b610d5984610c90565b9250610d6760208501610c90565b9150604084013590509250925092565b5f60208284031215610d87575f80fd5b5035919050565b5f8060408385031215610d9f575f80fd5b610da883610c90565b9150610db660208401610c90565b90509250929050565b600181811c90821680610dd357607f821691505b602082108103610df157634e487b7160e01b5f52602260045260245ffd5b50919050565b8082018082111561048257634e487b7160e01b5f52601160045260245ffdfea264697066735822122000676eb954b4b939c2665dbcfa9e3d4aada73e011357d8cd55f79e486d429c6564736f6c63430008140033",
  "linkReferences": {},
  "deployedLinkReferences": {},
  "immutableReferences": {},
  "inputSourceName": "project/src/SuiteToken.sol",
  "buildInfoId": "solc-0_8_20-ba41b494d89147ff774d62e4cc67130a24667b62"
}