{
  "_format": "hh3-artifact-1",
  "contractName": "SuiteToken",
  "sourceName": "src/SuiteToken.sol",
  "abi": [
    {
      "inputs": [
        {
          "internalType": "address",
          "name": "initialOwner",
          "type": "address"
        }
      ],
      "stateMutability": "nonpayable",
      "type": "constructor"
    },
    {
      "inputs": [
        {
          "internalType": "address",
          "name": "spender",
          "type": "address"
        },
        {
          "internalType": "uint256",
          "name": "allowance",
          "type": "uint256"
        },
        {
          "internalType": "uint256",
          "name": "needed",
          "type": "uint256"
        }
      ],
      "name": "ERC20InsufficientAllowance",
      "type": "error"
    },
    {
      "inputs": [
        {
          "internalType": "address",
          "name": "sender",
          "type": "address"
        },
        {
          "internalType": "uint256",
          "name": "balance",
          "type": "uint256"
        },
        {
          "internalType": "uint256",
          "name": "needed",
          "type": "uint256"
        }
      ],
      "name": "ERC20InsufficientBalance",
      "type": "error"
    },
    {
      "inputs": [
        {
          "internalType": "address",
          "name": "approver",
          "type": "address"
        }
      ],
      "name": "ERC20InvalidApprover",
      "type": "error"
    },
    {
      "inputs": [
        {
          "internalType": "address",
          "name": "receiver",
          "type": "address"
        }
      ],
      "name": "ERC20InvalidReceiver",
      "type": "error"
    },
    {
      "inputs": [
        {
          "internalType": "address",
          "name": "sender",
          "type": "address"
        }
      ],
      "name": "ERC20InvalidSender",
      "type": "error"
    },
    {
      "inputs": [
        {
          "internalType": "address",
          "name": "spender",
          "type": "address"
        }
      ],
      "name": "ERC20InvalidSpender",
      "type": "error"
    },
    {
      "inputs": [
        {
          "internalType": "address",
          "name": "owner",
          "type": "address"
        }
      ],
      "name": "OwnableInvalidOwner",
      "type": "error"
    },
    {
      "inputs": [
        {
          "internalType": "address",
          "name": "account",
          "type": "address"
        }
      ],
      "name": "OwnableUnauthorizedAccount",
      "type": "error"
    },
    {
      "anonymous": false,
      "inputs": [
        {
          "indexed": true,
          "internalType": "address",
          "name": "owner",
          "type": "address"
        },
        {
          "indexed": true,
          "internalType": "address",
          "name": "spender",
          "type": "address"
        },
        {
          "indexed": false,
          "internalType": "uint256",
          "name": "value",
          "type": "uint256"
        }
      ],
      "name": "Approval",
      "type": "event"
    },
    {
      "anonymous": false,
      "inputs": [
        {
          "indexed": true,
          "internalType": "address",
          "name": "burner",
          "type": "address"
        }
      ],
      "name": "BurnerAdded",
      "type": "event"
    },
    {
      "anonymous": false,
      "inputs": [
        {
          "indexed": true,
          "internalType": "address",
          "name": "burner",
          "type": "address"
        }
      ],
      "name": "BurnerRemoved",
      "type": "event"
    },
    {
      "anonymous": false,
      "inputs": [
        {
          "indexed": true,
          "internalType": "address",
          "name": "minter",
          "type": "address"
        }
      ],
      "name": "MinterAdded",
      "type": "event"
    },
    {
      "anonymous": false,
      "inputs": [
        {
          "indexed": true,
          "internalType": "address",
          "name": "minter",
          "type": "address"
        }
      ],
      "name": "MinterRemoved",
      "type": "event"
    },
    {
      "anonymous": false,
      "inputs": [
        {
          "indexed": true,
          "internalType": "address",
          "name": "previousOwner",
          "type": "address"
        },
        {
          "indexed": true,
          "internalType": "address",
          "name": "newOwner",
          "type": "address"
        }
      ],
      "name": "OwnershipTransferred",
      "type": "event"
    },
    {
      "anonymous": false,
      "inputs": [
        {
          "indexed": true,
          "internalType": "address",
          "name": "from",
          "type": "address"
        },
        {
          "indexed": true,
          "internalType": "address",
          "name": "to",
          "type": "address"
        },
        {
          "indexed": false,
          "internalType": "uint256",
          "name": "value",
          "type": "uint256"
        }
      ],
      "name": "Transfer",
      "type": "event"
    },
    {
      "inputs": [
        {
          "internalType": "address",
          "name": "burner",
          "type": "address"
        }
      ],
      "name": "addBurner",
      "outputs": [],
      "stateMutability": "nonpayable",
      "type": "function"
    },
    {
      "inputs": [
        {
          "internalType": "address",
          "name": "minter",
          "type": "address"
        }
      ],
      "name": "addMinter",
      "outputs": [],
      "stateMutability": "nonpayable",
      "type": "function"
    },
    {
      "inputs": [
        {
          "internalType": "address",
          "name": "owner",
          "type": "address"
        },
        {
          "internalType": "address",
          "name": "spender",
          "type": "address"
        }
      ],
      "name": "allowance",
      "outputs": [
        {
          "internalType": "uint256",
          "name": "",
          "type": "uint256"
        }
      ],
      "stateMutability": "view",
      "type": "function"
    },
    {
      "inputs": [
        {
          "internalType": "address",
          "name": "spender",
          "type": "address"
        },
        {
          "internalType": "uint256",
          "name": "value",
          "type": "uint256"
        }
      ],
      "name": "approve",
      "outputs": [
        {
          "internalType": "bool",
          "name": "",
          "type": "bool"
        }
      ],
      "stateMutability": "nonpayable",
      "type": "function"
    },
    {
      "inputs": [
        {
          "internalType": "address",
          "name": "account",
          "type": "address"
        }
      ],
      "name": "balanceOf",
      "outputs": [
        {
          "internalType": "uint256",
          "name": "",
          "type": "uint256"
        }
      ],
      "stateMutability": "view",
      "type": "function"
    },
    {
      "inputs": [
        {
          "internalType": "uint256",
          "name": "value",
          "type": "uint256"
        }
      ],
      "name": "burn",
      "outputs": [],
      "stateMutability": "nonpayable",
      "type": "function"
    },
    {
      "inputs": [
        {
          "internalType": "address",
          "name": "from",
          "type": "address"
        },
        {
          "internalType": "uint256",
          "name": "amount",
          "type": "uint256"
        }
      ],
      "name": "burnFrom",
      "outputs": [],
      "stateMutability": "nonpayable",
      "type": "function"
    },
    {
      "inputs": [
        {
          "internalType": "address",
          "name": "",
          "type": "address"
        }
      ],
      "name": "burners",
      "outputs": [
        {
          "internalType": "bool",
          "name": "",
          "type": "bool"
        }
      ],
      "stateMutability": "view",
      "type": "function"
    },
    {
      "inputs": [],
      "name": "decimals",
      "outputs": [
        {
          "internalType": "uint8",
          "name": "",
          "type": "uint8"
        }
      ],
      "stateMutability": "view",
      "type": "function"
    },
    {
      "inputs": [
        {
          "internalType": "address",
          "name": "to",
          "type": "address"
        },
        {
          "internalType": "uint256",
          "name": "amount",
          "type": "uint256"
        }
      ],
      "name": "mint",
      "outputs": [],
      "stateMutability": "nonpayable",
      "type": "function"
    },
    {
      "inputs": [
        {
          "internalType": "address",
          "name": "",
          "type": "address"
        }
      ],
      "name": "minters",
      "outputs": [
        {
          "internalType": "bool",
          "name": "",
          "type": "bool"
        }
      ],
      "stateMutability": "view",
      "type": "function"
    },
    {
      "inputs": [],
      "name": "name",
      "outputs": [
        {
          "internalType": "string",
          "name": "",
          "type": "string"
        }
      ],
      "stateMutability": "view",
      "type": "function"
    },
    {
      "inputs": [],
      "name": "owner",
      "outputs": [
        {
          "internalType": "address",
          "name": "",
          "type": "address"
        }
      ],
      "stateMutability": "view",
      "type": "function"
    },
    {
      "inputs": [
        {
          "internalType": "address",
          "name": "burner",
          "type": "address"
        }
      ],
      "name": "removeBurner",
      "outputs": [],
      "stateMutability": "nonpayable",
      "type": "function"
    },
    {
      "inputs": [
        {
          "internalType": "address",
          "name": "minter",
          "type": "address"
        }
      ],
      "name": "removeMinter",
      "outputs": [],
      "stateMutability": "nonpayable",
      "type": "function"
    },
    {
      "inputs": [],
      "name": "renounceOwnership",
      "outputs": [],
      "stateMutability": "nonpayable",
      "type": "function"
    },
    {
      "inputs": [],
      "name": "symbol",
      "outputs": [
        {
          "internalType": "string",
          "name": "",
          "type": "string"
        }
      ],
      "stateMutability": "view",
      "type": "function"
    },
    {
      "inputs": [],
      "name": "totalSupply",
      "outputs": [
        {
          "internalType": "uint256",
          "name": "",
          "type": "uint256"
        }
      ],
      "stateMutability": "view",
      "type": "function"
    },
    {
      "inputs": [
        {
          "internalType": "address",
          "name": "to",
          "type": "address"
        },
        {
          "internalType": "uint256",
          "name": "value",
          "type": "uint256"
        }
      ],
      "name": "transfer",
      "outputs": [
        {
          "internalType": "bool",
          "name": "",
          "type": "bool"
        }
      ],
      "stateMutability": "nonpayable",
      "type": "function"
    },
    {
      "inputs": [
        {
          "internalType": "address",
          "name": "from",
          "type": "address"
        },
        {
          "internalType": "address",
          "name": "to",
          "type": "address"
        },
        {
          "internalType": "uint256",
          "name": "value",
          "type": "uint256"
        }
      ],
      "name": "transferFrom",
      "outputs": [
        {
          "internalType": "bool",
          "name": "",
          "type": "bool"
        }
      ],
      "stateMutability": "nonpayable",
      "type": "function"
    },
    {
      "inputs": [
        {
          "internalType": "address",
          "name": "newOwner",
          "type": "address"
        }
      ],
      "name": "transferOwnership",
      "outputs": [],
      "stateMutability": "nonpayable",
      "type": "function"
    }
  ],
  "bytecode": "0x608060405234801562000010575f80fd5b50604051620023b1380380620023b183398181016040528101906200003691906200027d565b806040518060400160405280600581526020017f53554954450000000000000000000000000000000000000000000000000000008152506040518060400160405280600581526020017f53554954450000000000000000000000000000000000000000000000000000008152508160039081620000b4919062000511565b508060049081620000c6919062000511565b5050505f73ffffffffffffffffffffffffffffffffffffffff168173ffffffffffffffffffffffffffffffffffffffff16036200013c575f6040517f1e4fbdf700000000000000000000000000000000000000000000000000000000815260040162000133919062000606565b60405180910390fd5b6200014d816200015560201b60201c565b505062000621565b5f60055f9054906101000a900473ffffffffffffffffffffffffffffffffffffffff1690508160055f6101000a81548173ffffffffffffffffffffffffffffffffffffffff021916908373ffffffffffffffffffffffffffffffffffffffff1602179055508173ffffffffffffffffffffffffffffffffffffffff168173ffffffffffffffffffffffffffffffffffffffff167f8be0079c531659141344cd1fd0a4f28419497f9722a3daafe3b4186f6b6457e060405160405180910390a35050565b5f80fd5b5f73ffffffffffffffffffffffffffffffffffffffff82169050919050565b5f62000247826200021c565b9050919050565b62000259816200023b565b811462000264575f80fd5b50565b5f8151905062000277816200024e565b92915050565b5f6020828403121562000295576200029462000218565b5b5f620002a48482850162000267565b91505092915050565b5f81519050919050565b7f4e487b71000000000000000000000000000000000000000000000000000000005f52604160045260245ffd5b7f4e487b71000000000000000000000000000000000000000000000000000000005f52602260045260245ffd5b5f60028204905060018216806200032957607f821691505b6020821081036200033f576200033e620002e4565b5b50919050565b5f819050815f5260205f209050919050565b5f6020601f8301049050919050565b5f82821b905092915050565b5f60088302620003a37fffffffffffffffffffffffffffffffffffffffffffffffffffffffffffffffff8262000366565b620003af868362000366565b95508019841693508086168417925050509392505050565b5f819050919050565b5f819050919050565b5f620003f9620003f3620003ed84620003c7565b620003d0565b620003c7565b9050919050565b5f819050919050565b6200041483620003d9565b6200042c620004238262000400565b84845462000372565b825550505050565b5f90565b6200044262000434565b6200044f81848462000409565b505050565b5b8181101562000476576200046a5f8262000438565b60018101905062000455565b5050565b601f821115620004c5576200048f8162000345565b6200049a8462000357565b81016020851015620004aa578190505b620004c2620004b98562000357565b83018262000454565b50505b505050565b5f82821c905092915050565b5f620004e75f1984600802620004ca565b1980831691505092915050565b5f620005018383620004d6565b9150826002028217905092915050565b6200051c82620002ad565b67ffffffffffffffff811115620005385762000537620002b7565b5b62000544825462000311565b620005518282856200047a565b5f60209050601f83116001811462000587575f841562000572578287015190505b6200057e8582620004f4565b865550620005ed565b601f198416620005978662000345565b5f5b82811015620005c05784890151825560018201915060208501945060208101905062000599565b86831015620005e05784890151620005dc601f891682620004d6565b8355505b6001600288020188555050505b505050505050565b62000600816200023b565b82525050565b5f6020820190506200061b5f830184620005f5565b92915050565b611d82806200062f5f395ff3fe608060405234801561000f575f80fd5b5060043610610135575f3560e01c806370a08231116100b6578063983b2d561161007a578063983b2d5614610325578063a9059cbb14610341578063dd62ed3e14610371578063f2fde38b146103a1578063f44637ba146103bd578063f46eccc4146103d957610135565b806370a0823114610293578063715018a6146102c357806379cc6790146102cd5780638da5cb5b146102e957806395d89b411461030757610135565b806323b872dd116100fd57806323b872dd146101f15780633092afd514610221578063313ce5671461023d57806340c10f191461025b57806342966c681461027757610135565b8063028468581461013957806303d41e0e1461015557806306fdde0314610185578063095ea7b3146101a357806318160ddd146101d3575b5f80fd5b610153600480360381019061014e919061165a565b610409565b005b61016f600480360381019061016a919061165a565b610534565b60405161017c919061169f565b60405180910390f35b61018d610551565b60405161019a9190611742565b60405180910390f35b6101bd60048036038101906101b89190611795565b6105e1565b6040516101ca919061169f565b60405180910390f35b6101db610603565b6040516101e891906117e2565b60405180910390f35b61020b600480360381019061020691906117fb565b61060c565b604051610218919061169f565b60405180910390f35b61023b6004803603810190610236919061165a565b61063a565b005b610245610765565b6040516102529190611866565b60405180910390f35b61027560048036038101906102709190611795565b61076d565b005b610291600480360381019061028c919061187f565b610804565b005b6102ad60048036038101906102a8919061165a565b610818565b6040516102ba91906117e2565b60405180910390f35b6102cb61085d565b005b6102e760048036038101906102e29190611795565b610870565b005b6102f16108dd565b6040516102fe91906118b9565b60405180910390f35b61030f610905565b60405161031c9190611742565b60405180910390f35b61033f600480360381019061033a919061165a565b610995565b005b61035b60048036038101906103569190611795565b610b30565b604051610368919061169f565b60405180910390f35b61038b600480360381019061038691906118d2565b610b52565b60405161039891906117e2565b60405180910390f35b6103bb60048036038101906103b6919061165a565b610bd4565b005b6103d760048036038101906103d2919061165a565b610c58565b005b6103f360048036038101906103ee919061165a565b610df3565b604051610400919061169f565b60405180910390f35b610411610e10565b60075f8273ffffffffffffffffffffffffffffffffffffffff1673ffffffffffffffffffffffffffffffffffffffff1681526020019081526020015f205f9054906101000a900460ff1661049a576040517f08c379a00000000000000000000000000000000000000000000000000000000081526004016104919061195a565b60405180910390fd5b5f60075f8373ffffffffffffffffffffffffffffffffffffffff1673ffffffffffffffffffffffffffffffffffffffff1681526020019081526020015f205f6101000a81548160ff0219169083151502179055508073ffffffffffffffffffffffffffffffffffffffff167f90eabbc0c667db2a5029ed6bc0f5fe9f356d11684a4ca9fcfaec0e53f12b9c8e60405160405180910390a250565b6007602052805f5260405f205f915054906101000a900460ff1681565b606060038054610560906119a5565b80601f016020809104026020016040519081016040528092919081815260200182805461058c906119a5565b80156105d75780601f106105ae576101008083540402835291602001916105d7565b820191905f5260205f20905b8154815290600101906020018083116105ba57829003601f168201915b5050505050905090565b5f806105eb610e97565b90506105f8818585610e9e565b600191505092915050565b5f600254905090565b5f80610616610e97565b9050610623858285610eb0565b61062e858585610f43565b60019150509392505050565b610642610e10565b60065f8273ffffffffffffffffffffffffffffffffffffffff1673ffffffffffffffffffffffffffffffffffffffff1681526020019081526020015f205f9054906101000a900460ff166106cb576040517f08c379a00000000000000000000000000000000000000000000000000000000081526004016106c290611a1f565b60405180910390fd5b5f60065f8373ffffffffffffffffffffffffffffffffffffffff1673ffffffffffffffffffffffffffffffffffffffff1681526020019081526020015f205f6101000a81548160ff0219169083151502179055508073ffffffffffffffffffffffffffffffffffffffff167fe94479a9f7e1952cc78f2d6baab678adc1b772d936c6583def489e524cb6669260405160405180910390a250565b5f6012905090565b60065f3373ffffffffffffffffffffffffffffffffffffffff1673ffffffffffffffffffffffffffffffffffffffff1681526020019081526020015f205f9054906101000a900460ff166107f6576040517f08c379a00000000000000000000000000000000000000000000000000000000081526004016107ed90611aad565b60405180910390fd5b6108008282611033565b5050565b61081561080f610e97565b826110b2565b50565b5f805f8373ffffffffffffffffffffffffffffffffffffffff1673ffffffffffffffffffffffffffffffffffffffff1681526020019081526020015f20549050919050565b610865610e10565b61086e5f611131565b565b60075f3373ffffffffffffffffffffffffffffffffffffffff1673ffffffffffffffffffffffffffffffffffffffff1681526020019081526020015f205f9054906101000a900460ff16156108ce576108c982826110b2565b6108d9565b6108d882826111f4565b5b5050565b5f60055f9054906101000a900473ffffffffffffffffffffffffffffffffffffffff16905090565b606060048054610914906119a5565b80601f0160208091040260200160405190810160405280929190818152602001828054610940906119a5565b801561098b5780601f106109625761010080835404028352916020019161098b565b820191905f5260205f20905b81548152906001019060200180831161096e57829003601f168201915b5050505050905090565b61099d610e10565b5f73ffffffffffffffffffffffffffffffffffffffff168173ffffffffffffffffffffffffffffffffffffffff1603610a0b576040517f08c379a0000000000000000000000000000000000000000000000000000000008152600401610a0290611b3b565b60405180910390fd5b60065f8273ffffffffffffffffffffffffffffffffffffffff1673ffffffffffffffffffffffffffffffffffffffff1681526020019081526020015f205f9054906101000a900460ff1615610a95576040517f08c379a0000000000000000000000000000000000000000000000000000000008152600401610a8c90611ba3565b60405180910390fd5b600160065f8373ffffffffffffffffffffffffffffffffffffffff1673ffffffffffffffffffffffffffffffffffffffff1681526020019081526020015f205f6101000a81548160ff0219169083151502179055508073ffffffffffffffffffffffffffffffffffffffff167f6ae172837ea30b801fbfcdd4108aa1d5bf8ff775444fd70256b44e6bf3dfc3f660405160405180910390a250565b5f80610b3a610e97565b9050610b47818585610f43565b600191505092915050565b5f60015f8473ffffffffffffffffffffffffffffffffffffffff1673ffffffffffffffffffffffffffffffffffffffff1681526020019081526020015f205f8373ffffffffffffffffffffffffffffffffffffffff1673ffffffffffffffffffffffffffffffffffffffff1681526020019081526020015f2054905092915050565b610bdc610e10565b5f73ffffffffffffffffffffffffffffffffffffffff168173ffffffffffffffffffffffffffffffffffffffff1603610c4c575f6040517f1e4fbdf7000000000000000000000000000000000000000000000000000000008152600401610c4391906118b9565b60405180910390fd5b610c5581611131565b50565b610c60610e10565b5f73ffffffffffffffffffffffffffffffffffffffff168173ffffffffffffffffffffffffffffffffffffffff1603610cce576040517f08c379a0000000000000000000000000000000000000000000000000000000008152600401610cc590611c31565b60405180910390fd5b60075f8273ffffffffffffffffffffffffffffffffffffffff1673ffffffffffffffffffffffffffffffffffffffff1681526020019081526020015f205f9054906101000a900460ff1615610d58576040517f08c379a0000000000000000000000000000000000000000000000000000000008152600401610d4f90611c99565b60405180910390fd5b600160075f8373ffffffffffffffffffffffffffffffffffffffff1673ffffffffffffffffffffffffffffffffffffffff1681526020019081526020015f205f6101000a81548160ff0219169083151502179055508073ffffffffffffffffffffffffffffffffffffffff167f86e57fd2b90329052917118de7c3f521f400d439b9650deaa906a25b08b9456060405160405180910390a250565b6006602052805f5260405f205f915054906101000a900460ff1681565b610e18610e97565b73ffffffffffffffffffffffffffffffffffffffff16610e366108dd565b73ffffffffffffffffffffffffffffffffffffffff1614610e9557610e59610e97565b6040517f118cdaa7000000000000000000000000000000000000000000000000000000008152600401610e8c91906118b9565b60405180910390fd5b565b5f33905090565b610eab8383836001611214565b505050565b5f610ebb8484610b52565b90507fffffffffffffffffffffffffffffffffffffffffffffffffffffffffffffffff811015610f3d5781811015610f2e578281836040517ffb8f41b2000000000000000000000000000000000000000000000000000000008152600401610f2593929190611cb7565b60405180910390fd5b610f3c84848484035f611214565b5b50505050565b5f73ffffffffffffffffffffffffffffffffffffffff168373ffffffffffffffffffffffffffffffffffffffff1603610fb3575f6040517f96c6fd1e000000000000000000000000000000000000000000000000000000008152600401610faa91906118b9565b60405180910390fd5b5f73ffffffffffffffffffffffffffffffffffffffff168273ffffffffffffffffffffffffffffffffffffffff1603611023575f6040517fec442f0500000000000000000000000000000000000000000000000000000000815260040161101a91906118b9565b60405180910390fd5b61102e8383836113e3565b505050565b5f73ffffffffffffffffffffffffffffffffffffffff168273ffffffffffffffffffffffffffffffffffffffff16036110a3575f6040517fec442f0500000000000000000000000000000000000000000000000000000000815260040161109a91906118b9565b60405180910390fd5b6110ae5f83836113e3565b5050565b5f73ffffffffffffffffffffffffffffffffffffffff168273ffffffffffffffffffffffffffffffffffffffff1603611122575f6040517f96c6fd1e00000000000000000000000000000000000000000000000000000000815260040161111991906118b9565b60405180910390fd5b61112d825f836113e3565b5050565b5f60055f9054906101000a900473ffffffffffffffffffffffffffffffffffffffff1690508160055f6101000a81548173ffffffffffffffffffffffffffffffffffffffff021916908373ffffffffffffffffffffffffffffffffffffffff1602179055508173ffffffffffffffffffffffffffffffffffffffff168173ffffffffffffffffffffffffffffffffffffffff167f8be0079c531659141344cd1fd0a4f28419497f9722a3daafe3b4186f6b6457e060405160405180910390a35050565b61120682611200610e97565b83610eb0565b61121082826110b2565b5050565b5f73ffffffffffffffffffffffffffffffffffffffff168473ffffffffffffffffffffffffffffffffffffffff1603611284575f6040517fe602df0500000000000000000000000000000000000000000000000000000000815260040161127b91906118b9565b60405180910390fd5b5f73ffffffffffffffffffffffffffffffffffffffff168373ffffffffffffffffffffffffffffffffffffffff16036112f4575f6040517f94280d620000000000000000000000000000000000000000000000000000000081526004016112eb91906118b9565b60405180910390fd5b8160015f8673ffffffffffffffffffffffffffffffffffffffff1673ffffffffffffffffffffffffffffffffffffffff1681526020019081526020015f205f8573ffffffffffffffffffffffffffffffffffffffff1673ffffffffffffffffffffffffffffffffffffffff1681526020019081526020015f208190555080156113dd578273ffffffffffffffffffffffffffffffffffffffff168473ffffffffffffffffffffffffffffffffffffffff167f8c5be1e5ebec7d5bd14f71427d1e84f3dd0314c0f7b2291e5b200ac8c7c3b925846040516113d491906117e2565b60405180910390a35b50505050565b5f73ffffffffffffffffffffffffffffffffffffffff168373ffffffffffffffffffffffffffffffffffffffff1603611433578060025f8282546114279190611d19565b92505081905550611501565b5f805f8573ffffffffffffffffffffffffffffffffffffffff1673ffffffffffffffffffffffffffffffffffffffff1681526020019081526020015f20549050818110156114bc578381836040517fe450d38c0000000000000000000000000000000000000000000000000000000081526004016114b393929190611cb7565b60405180910390fd5b8181035f808673ffffffffffffffffffffffffffffffffffffffff1673ffffffffffffffffffffffffffffffffffffffff1681526020019081526020015f2081905550505b5f73ffffffffffffffffffffffffffffffffffffffff168273ffffffffffffffffffffffffffffffffffffffff1603611548578060025f8282540392505081905550611592565b805f808473ffffffffffffffffffffffffffffffffffffffff1673ffffffffffffffffffffffffffffffffffffffff1681526020019081526020015f205f82825401925050819055505b8173ffffffffffffffffffffffffffffffffffffffff168373ffffffffffffffffffffffffffffffffffffffff167fddf252ad1be2c89b69c2b068fc378daa952ba7f163c4a11628f55a4df523b3ef836040516115ef91906117e2565b60405180910390a3505050565b5f80fd5b5f73ffffffffffffffffffffffffffffffffffffffff82169050919050565b5f61162982611600565b9050919050565b6116398161161f565b8114611643575f80fd5b50565b5f8135905061165481611630565b92915050565b5f6020828403121561166f5761166e6115fc565b5b5f61167c84828501611646565b91505092915050565b5f8115159050919050565b61169981611685565b82525050565b5f6020820190506116b25f830184611690565b92915050565b5f81519050919050565b5f82825260208201905092915050565b5f5b838110156116ef5780820151818401526020810190506116d4565b5f8484015250505050565b5f601f19601f8301169050919050565b5f611714826116b8565b61171e81856116c2565b935061172e8185602086016116d2565b611737816116fa565b840191505092915050565b5f6020820190508181035f83015261175a818461170a565b905092915050565b5f819050919050565b61177481611762565b811461177e575f80fd5b50565b5f8135905061178f8161176b565b92915050565b5f80604083850312156117ab576117aa6115fc565b5b5f6117b885828601611646565b92505060206117c985828601611781565b9150509250929050565b6117dc81611762565b82525050565b5f6020820190506117f55f8301846117d3565b92915050565b5f805f60608486031215611812576118116115fc565b5b5f61181f86828701611646565b935050602061183086828701611646565b925050604061184186828701611781565b9150509250925092565b5f60ff82169050919050565b6118608161184b565b82525050565b5f6020820190506118795f830184611857565b92915050565b5f60208284031215611894576118936115fc565b5b5f6118a184828501611781565b91505092915050565b6118b38161161f565b82525050565b5f6020820190506118cc5f8301846118aa565b92915050565b5f80604083850312156118e8576118e76115fc565b5b5f6118f585828601611646565b925050602061190685828601611646565b9150509250929050565b7f5375697465546f6b656e3a206e6f742061206275726e657200000000000000005f82015250565b5f6119446018836116c2565b915061194f82611910565b602082019050919050565b5f6020820190508181035f83015261197181611938565b9050919050565b7f4e487b71000000000000000000000000000000000000000000000000000000005f52602260045260245ffd5b5f60028204905060018216806119bc57607f821691505b6020821081036119cf576119ce611978565b5b50919050565b7f5375697465546f6b656e3a206e6f742061206d696e74657200000000000000005f82015250565b5f611a096018836116c2565b9150611a14826119d5565b602082019050919050565b5f6020820190508181035f830152611a36816119fd565b9050919050565b7f5375697465546f6b656e3a2063616c6c6572206973206e6f742061206d696e745f8201527f6572000000000000000000000000000000000000000000000000000000000000602082015250565b5f611a976022836116c2565b9150611aa282611a3d565b604082019050919050565b5f6020820190508181035f830152611ac481611a8b565b9050919050565b7f5375697465546f6b656e3a206d696e746572206973207a65726f2061646472655f8201527f7373000000000000000000000000000000000000000000000000000000000000602082015250565b5f611b256022836116c2565b9150611b3082611acb565b604082019050919050565b5f6020820190508181035f830152611b5281611b19565b9050919050565b7f5375697465546f6b656e3a20616c72656164792061206d696e746572000000005f82015250565b5f611b8d601c836116c2565b9150611b9882611b59565b602082019050919050565b5f6020820190508181035f830152611bba81611b81565b9050919050565b7f5375697465546f6b656e3a206275726e6572206973207a65726f2061646472655f8201527f7373000000000000000000000000000000000000000000000000000000000000602082015250565b5f611c1b6022836116c2565b9150611c2682611bc1565b604082019050919050565b5f6020820190508181035f830152611c4881611c0f565b9050919050565b7f5375697465546f6b656e3a20616c72656164792061206275726e6572000000005f82015250565b5f611c83601c836116c2565b9150611c8e82611c4f565b602082019050919050565b5f6020820190508181035f830152611cb081611c77565b9050919050565b5f606082019050611cca5f8301866118aa565b611cd760208301856117d3565b611ce460408301846117d3565b949350505050565b7f4e487b71000000000000000000000000000000000000000000000000000000005f52601160045260245ffd5b5f611d2382611762565b9150611d2e83611762565b9250828201905080821115611d4657611d45611cec565b5b9291505056fea26469706673582212202f5007a1619b9fb641150c4da8c73a8285eb793eebf7a732399a4a568f19cd9f64736f6c63430008140033",
  "linkReferences": {},
  "deployedLinkReferences": {},
  "immutableReferences": {},
  "inputSourceName": "project/src/SuiteToken.sol",
  "buildInfoId": "solc-0_8_20-200278806bb001d50007c06a647610fe15d62c49"
}