{"abi":[{"type":"constructor","inputs":[{"name":"_vault","type":"address","internalType":"address"},{"name":"_owner","type":"address","internalType":"address"}],"stateMutability":"nonpayable"},{"type":"function","name":"allowance","inputs":[{"name":"owner","type":"address","internalType":"address"},{"name":"spender","type":"address","internalType":"address"}],"outputs":[{"name":"","type":"uint256","internalType":"uint256"}],"stateMutability":"view"},{"type":"function","name":"approve","inputs":[{"name":"spender","type":"address","internalType":"address"},{"name":"value","type":"uint256","internalType":"uint256"}],"outputs":[{"name":"","type":"bool","internalType":"bool"}],"stateMutability":"nonpayable"},{"type":"function","name":"authorizeApp","inputs":[{"name":"app","type":"address","internalType":"address"}],"outputs":[],"stateMutability":"nonpayable"},{"type":"function","name":"authorizedApps","inputs":[{"name":"","type":"address","internalType":"address"}],"outputs":[{"name":"","type":"bool","internalType":"bool"}],"stateMutability":"view"},{"type":"function","name":"balanceOf","inputs":[{"name":"account","type":"address","internalType":"address"}],"outputs":[{"name":"","type":"uint256","internalType":"uint256"}],"stateMutability":"view"},{"type":"function","name":"burn","inputs":[{"name":"amount","type":"uint256","internalType":"uint256"}],"outputs":[],"stateMutability":"nonpayable"},{"type":"function","name":"deauthorizeApp","inputs":[{"name":"app","type":"address","internalType":"address"}],"outputs":[],"stateMutability":"nonpayable"},{"type":"function","name":"decimals","inputs":[],"outputs":[{"name":"","type":"uint8","internalType":"uint8"}],"stateMutability":"pure"},{"type":"function","name":"mint","inputs":[{"name":"to","type":"address","internalType":"address"},{"name":"amount","type":"uint256","internalType":"uint256"}],"outputs":[],"stateMutability":"nonpayable"},{"type":"function","name":"name","inputs":[],"outputs":[{"name":"","type":"string","internalType":"string"}],"stateMutability":"view"},{"type":"function","name":"owner","inputs":[],"outputs":[{"name":"","type":"address","internalType":"address"}],"stateMutability":"view"},{"type":"function","name":"renounceOwnership","inputs":[],"outputs":[],"stateMutability":"nonpayable"},{"type":"function","name":"setVault","inputs":[{"name":"newVault","type":"address","internalType":"address"}],"outputs":[],"stateMutability":"nonpayable"},{"type":"function","name":"spendCredits","inputs":[{"name":"user","type":"address","internalType":"address"},{"name":"amount","type":"uint256","internalType":"uint256"}],"outputs":[],"stateMutability":"nonpayable"},{"type":"function","name":"symbol","inputs":[],"outputs":[{"name":"","type":"string","internalType":"string"}],"stateMutability":"view"},{"type":"function","name":"totalSupply","inputs":[],"outputs":[{"name":"","type":"uint256","internalType":"uint256"}],"stateMutability":"view"},{"type":"function","name":"transfer","inputs":[{"name":"to","type":"address","internalType":"address"},{"name":"value","type":"uint256","internalType":"uint256"}],"outputs":[{"name":"","type":"bool","internalType":"bool"}],"stateMutability":"nonpayable"},{"type":"function","name":"transferFrom","inputs":[{"name":"from","type":"address","internalType":"address"},{"name":"to","type":"address","internalType":"address"},{"name":"value","type":"uint256","internalType":"uint256"}],"outputs":[{"name":"","type":"bool","internalType":"bool"}],"stateMutability":"nonpayable"},{"type":"function","name":"transferOwnership","inputs":[{"name":"newOwner","type":"address","internalType":"address"}],"outputs":[],"stateMutability":"nonpayable"},{"type":"function","name":"vault","inputs":[],"outputs":[{"name":"","type":"address","internalType":"address"}],"stateMutability":"view"},{"type":"event","name":"AppAuthorized","inputs":[{"name":"app","type":"address","indexed":true,"internalType":"address"}],"anonymous":false},{"type":"event","name":"AppDeauthorized","inputs":[{"name":"app","type":"address","indexed":true,"internalType":"address"}],"anonymous":false},{"type":"event","name":"Approval","inputs":[{"name":"owner","type":"address","indexed":true,"internalType":"address"},{"name":"spender","type":"address","indexed":true,"internalType":"address"},{"name":"value","type":"uint256","indexed":false,"internalType":"uint256"}],"anonymous":false},{"type":"event","name":"CreditsSpent","inputs":[{"name":"user","type":"address","indexed":true,"internalType":"address"},{"name":"app","type":"address","indexed":true,"internalType":"address"},{"name":"amount","type":"uint256","indexed":false,"internalType":"uint256"}],"anonymous":false},{"type":"event","name":"OwnershipTransferred","inputs":[{"name":"previousOwner","type":"address","indexed":true,"internalType":"address"},{"name":"newOwner","type":"address","indexed":true,"internalType":"address"}],"anonymous":false},{"type":"event","name":"Transfer","inputs":[{"name":"from","type":"address","indexed":true,"internalType":"address"},{"name":"to","type":"address","indexed":true,"internalType":"address"},{"name":"value","type":"uint256","indexed":false,"internalType":"uint256"}],"anonymous":false},{"type":"event","name":"VaultUpdated","inputs":[{"name":"oldVault","type":"address","indexed":true,"internalType":"address"},{"name":"newVault","type":"address","indexed":true,"internalType":"address"}],"anonymous":false},{"type":"error","name":"ERC20InsufficientAllowance","inputs":[{"name":"spender","type":"address","internalType":"address"},{"name":"allowance","type":"uint256","internalType":"uint256"},{"name":"needed","type":"uint256","internalType":"uint256"}]},{"type":"error","name":"ERC20InsufficientBalance","inputs":[{"name":"sender","type":"address","internalType":"address"},{"name":"balance","type":"uint256","internalType":"uint256"},{"name":"needed","type":"uint256","internalType":"uint256"}]},{"type":"error","name":"ERC20InvalidApprover","inputs":[{"name":"approver","type":"address","internalType":"address"}]},{"type":"error","name":"ERC20InvalidReceiver","inputs":[{"name":"receiver","type":"address","internalType":"address"}]},{"type":"error","name":"ERC20InvalidSender","inputs":[{"name":"sender","type":"address","internalType":"address"}]},{"type":"error","name":"ERC20InvalidSpender","inputs":[{"name":"spender","type":"address","internalType":"address"}]},{"type":"error","name":"InsufficientCredits","inputs":[]},{"type":"error","name":"OnlyAuthorizedApp","inputs":[]},{"type":"error","name":"OnlyVault","inputs":[]},{"type":"error","name":"OwnableInvalidOwner","inputs":[{"name":"owner","type":"address","internalType":"address"}]},{"type":"error","name":"OwnableUnauthorizedAccount","inputs":[{"name":"account","type":"address","internalType":"address"}]},{"type":"error","name":"ZeroAddress","inputs":[]}],"bytecode":{"object":"0x608060405234801562000010575f80fd5b5060405162000f4d38038062000f4d833981016040819052620000339162000194565b806040518060400160405280600d81526020016c5355495445204372656469747360981b81525060405180604001604052806008815260200167734352454449545360c01b81525081600390816200008c91906200026a565b5060046200009b82826200026a565b5050506001600160a01b038116620000cc57604051631e4fbdf760e01b81525f600482015260240160405180910390fd5b620000d78162000127565b506001600160a01b038216620001005760405163d92e233d60e01b815260040160405180910390fd5b50600680546001600160a01b0319166001600160a01b039290921691909117905562000332565b600580546001600160a01b038381166001600160a01b0319831681179093556040519116919082907f8be0079c531659141344cd1fd0a4f28419497f9722a3daafe3b4186f6b6457e0905f90a35050565b80516001600160a01b03811681146200018f575f80fd5b919050565b5f8060408385031215620001a6575f80fd5b620001b18362000178565b9150620001c16020840162000178565b90509250929050565b634e487b7160e01b5f52604160045260245ffd5b600181811c90821680620001f357607f821691505b6020821081036200021257634e487b7160e01b5f52602260045260245ffd5b50919050565b601f82111562000265575f81815260208120601f850160051c81016020861015620002405750805b601f850160051c820191505b8181101562000261578281556001016200024c565b5050505b505050565b81516001600160401b03811115620002865762000286620001ca565b6200029e81620002978454620001de565b8462000218565b602080601f831160018114620002d4575f8415620002bc5750858301515b5f19600386901b1c1916600185901b17855562000261565b5f85815260208120601f198616915b828110156200030457888601518255948401946001909101908401620002e3565b50858210156200032257878501515f19600388901b60f8161c191681555b5050505050600190811b01905550565b610c0d80620003405f395ff3fe608060405234801561000f575f80fd5b5060043610610126575f3560e01c80636817031b116100a957806395d89b411161006e57806395d89b411461028a578063a9059cbb14610292578063dd62ed3e146102a5578063f2fde38b146102dd578063fbfa77cf146102f0575f80fd5b80636817031b1461020f5780636946d9851461022257806370a0823114610235578063715018a61461025d5780638da5cb5b14610265575f80fd5b80632614d4a4116100ef5780632614d4a4146101a5578063313ce567146101b85780633f4e46a0146101c757806340c10f19146101e957806342966c68146101fc575f80fd5b806218ff551461012a57806306fdde031461013f578063095ea7b31461015d57806318160ddd1461018057806323b872dd14610192575b5f80fd5b61013d610138366004610a6c565b610303565b005b61014761037d565b6040516101549190610a8c565b60405180910390f35b61017061016b366004610ad7565b61040d565b6040519015158152602001610154565b6002545b604051908152602001610154565b6101706101a0366004610aff565b610426565b61013d6101b3366004610ad7565b610449565b60405160128152602001610154565b6101706101d5366004610a6c565b60076020525f908152604090205460ff1681565b61013d6101f7366004610ad7565b610504565b61013d61020a366004610b38565b61053d565b61013d61021d366004610a6c565b61054a565b61013d610230366004610a6c565b6105ca565b610184610243366004610a6c565b6001600160a01b03165f9081526020819052604090205490565b61013d61061a565b6005546001600160a01b03165b6040516001600160a01b039091168152602001610154565b61014761062d565b6101706102a0366004610ad7565b61063c565b6101846102b3366004610b4f565b6001600160a01b039182165f90815260016020908152604080832093909416825291909152205490565b61013d6102eb366004610a6c565b610649565b600654610272906001600160a01b031681565b61030b610688565b6001600160a01b0381166103325760405163d92e233d60e01b815260040160405180910390fd5b6001600160a01b0381165f81815260076020526040808220805460ff19166001179055517febdf8e738c573e0b1b5071d0c2c3fdd4a06bd9de13f5d0c4eb8150e0fd01626a9190a250565b60606003805461038c90610b80565b80601f01602080910402602001604051908101604052809291908181526020018280546103b890610b80565b80156104035780601f106103da57610100808354040283529160200191610403565b820191905f5260205f20905b8154815290600101906020018083116103e657829003601f168201915b5050505050905090565b5f3361041a8185856106b5565b60019150505b92915050565b5f336104338582856106c7565b61043e858585610743565b506001949350505050565b335f9081526007602052604090205460ff166104785760405163ead7a0fd60e01b815260040160405180910390fd5b80610497836001600160a01b03165f9081526020819052604090205490565b10156104b6576040516343fb945360e01b815260040160405180910390fd5b6104c082826107a0565b60405181815233906001600160a01b038416907fe9a15344f355623cca64ed97386a91eaef9b052b96ae1e8d5b15c60f0f4178d59060200160405180910390a35050565b6006546001600160a01b0316331461052f57604051638d1af8bd60e01b815260040160405180910390fd5b61053982826107d4565b5050565b61054733826107a0565b50565b610552610688565b6001600160a01b0381166105795760405163d92e233d60e01b815260040160405180910390fd5b600680546001600160a01b038381166001600160a01b0319831681179093556040519116919082907f483bdedaaf23706a9800ac1af0d852b34927780d79f9d6ba60a80c7cad75ea39905f90a35050565b6105d2610688565b6001600160a01b0381165f81815260076020526040808220805460ff19169055517f15c3fbecb01819b1514269b3903b2e9614894b190c5cd8657d99940df0e3cac69190a250565b610622610688565b61062b5f610808565b565b60606004805461038c90610b80565b5f3361041a818585610743565b610651610688565b6001600160a01b03811661067f57604051631e4fbdf760e01b81525f60048201526024015b60405180910390fd5b61054781610808565b6005546001600160a01b0316331461062b5760405163118cdaa760e01b8152336004820152602401610676565b6106c28383836001610859565b505050565b6001600160a01b038381165f908152600160209081526040808320938616835292905220545f1981101561073d578181101561072f57604051637dc7a0d960e11b81526001600160a01b03841660048201526024810182905260448101839052606401610676565b61073d84848484035f610859565b50505050565b6001600160a01b03831661076c57604051634b637e8f60e11b81525f6004820152602401610676565b6001600160a01b0382166107955760405163ec442f0560e01b81525f6004820152602401610676565b6106c283838361092b565b6001600160a01b0382166107c957604051634b637e8f60e11b81525f6004820152602401610676565b610539825f8361092b565b6001600160a01b0382166107fd5760405163ec442f0560e01b81525f6004820152602401610676565b6105395f838361092b565b600580546001600160a01b038381166001600160a01b0319831681179093556040519116919082907f8be0079c531659141344cd1fd0a4f28419497f9722a3daafe3b4186f6b6457e0905f90a35050565b6001600160a01b0384166108825760405163e602df0560e01b81525f6004820152602401610676565b6001600160a01b0383166108ab57604051634a1406b160e11b81525f6004820152602401610676565b6001600160a01b038085165f908152600160209081526040808320938716835292905220829055801561073d57826001600160a01b0316846001600160a01b03167f8c5be1e5ebec7d5bd14f71427d1e84f3dd0314c0f7b2291e5b200ac8c7c3b9258460405161091d91815260200190565b60405180910390a350505050565b6001600160a01b038316610955578060025f82825461094a9190610bb8565b909155506109c59050565b6001600160a01b0383165f90815260208190526040902054818110156109a75760405163391434e360e21b81526001600160a01b03851660048201526024810182905260448101839052606401610676565b6001600160a01b0384165f9081526020819052604090209082900390555b6001600160a01b0382166109e1576002805482900390556109ff565b6001600160a01b0382165f9081526020819052604090208054820190555b816001600160a01b0316836001600160a01b03167fddf252ad1be2c89b69c2b068fc378daa952ba7f163c4a11628f55a4df523b3ef83604051610a4491815260200190565b60405180910390a3505050565b80356001600160a01b0381168114610a67575f80fd5b919050565b5f60208284031215610a7c575f80fd5b610a8582610a51565b9392505050565b5f6020808352835180828501525f5b81811015610ab757858101830151858201604001528201610a9b565b505f604082860101526040601f19601f8301168501019250505092915050565b5f8060408385031215610ae8575f80fd5b610af183610a51565b946020939093013593505050565b5f805f60608486031215610b11575f80fd5b610b1a84610a51565b9250610b2860208501610a51565b9150604084013590509250925092565b5f60208284031215610b48575f80fd5b5035919050565b5f8060408385031215610b60575f80fd5b610b6983610a51565b9150610b7760208401610a51565b90509250929050565b600181811c90821680610b9457607f821691505b602082108103610bb257634e487b7160e01b5f52602260045260245ffd5b50919050565b8082018082111561042057634e487b7160e01b5f52601160045260245ffdfea26469706673582212201dc68c0af211c55a6dbcceac02fece9816b4d14426daf213ea9590d5537023bc64736f6c63430008140033","linkReferences":{}},"methodIdentifiers":{"allowance(address,address)":"dd62ed3e","approve(address,uint256)":"095ea7b3","authorizeApp(address)":"0018ff55","authorizedApps(address)":"3f4e46a0","balanceOf(address)":"70a08231","burn(uint256)":"42966c68","deauthorizeApp(address)":"6946d985","decimals()":"313ce567","mint(address,uint256)":"40c10f19","name()":"06fdde03","owner()":"8da5cb5b","renounceOwnership()":"715018a6","setVault(address)":"6817031b","spendCredits(address,uint256)":"2614d4a4","symbol()":"95d89b41","totalSupply()":"18160ddd","transfer(address,uint256)":"a9059cbb","transferFrom(address,address,uint256)":"23b872dd","transferOwnership(address)":"f2fde38b","vault()":"fbfa77cf"},"id":72}