{"abi":[{"type":"constructor","inputs":[{"name":"_suiteToken","type":"address","internalType":"address"},{"name":"_usdc","type":"address","internalType":"address"},{"name":"_treasury","type":"address","internalType":"address"},{"name":"_owner","type":"address","internalType":"address"}],"stateMutability":"nonpayable"},{"type":"function","name":"authorizeApp","inputs":[{"name":"app","type":"address","internalType":"address"}],"outputs":[],"stateMutability":"nonpayable"},{"type":"function","name":"authorizedApps","inputs":[{"name":"","type":"address","internalType":"address"}],"outputs":[{"name":"","type":"bool","internalType":"bool"}],"stateMutability":"view"},{"type":"function","name":"availableCredits","inputs":[{"name":"user","type":"address","internalType":"address"}],"outputs":[{"name":"","type":"uint256","internalType":"uint256"}],"stateMutability":"view"},{"type":"function","name":"buy","inputs":[{"name":"usdcAmount","type":"uint256","internalType":"uint256"}],"outputs":[],"stateMutability":"nonpayable"},{"type":"function","name":"buyAndStake","inputs":[{"name":"usdcAmount","type":"uint256","internalType":"uint256"}],"outputs":[],"stateMutability":"nonpayable"},{"type":"function","name":"owner","inputs":[],"outputs":[{"name":"","type":"address","internalType":"address"}],"stateMutability":"view"},{"type":"function","name":"pause","inputs":[],"outputs":[],"stateMutability":"nonpayable"},{"type":"function","name":"paused","inputs":[],"outputs":[{"name":"","type":"bool","internalType":"bool"}],"stateMutability":"view"},{"type":"function","name":"renounceOwnership","inputs":[],"outputs":[],"stateMutability":"nonpayable"},{"type":"function","name":"revokeApp","inputs":[{"name":"app","type":"address","internalType":"address"}],"outputs":[],"stateMutability":"nonpayable"},{"type":"function","name":"setSuitePerUsdc","inputs":[{"name":"_suitePerUsdc","type":"uint256","internalType":"uint256"}],"outputs":[],"stateMutability":"nonpayable"},{"type":"function","name":"setTreasury","inputs":[{"name":"_treasury","type":"address","internalType":"address"}],"outputs":[],"stateMutability":"nonpayable"},{"type":"function","name":"stake","inputs":[{"name":"amount","type":"uint256","internalType":"uint256"}],"outputs":[],"stateMutability":"nonpayable"},{"type":"function","name":"stakedBalance","inputs":[{"name":"","type":"address","internalType":"address"}],"outputs":[{"name":"","type":"uint256","internalType":"uint256"}],"stateMutability":"view"},{"type":"function","name":"suitePerUsdc","inputs":[],"outputs":[{"name":"","type":"uint256","internalType":"uint256"}],"stateMutability":"view"},{"type":"function","name":"suiteToken","inputs":[],"outputs":[{"name":"","type":"address","internalType":"contract ISuiteToken"}],"stateMutability":"view"},{"type":"function","name":"transferOwnership","inputs":[{"name":"newOwner","type":"address","internalType":"address"}],"outputs":[],"stateMutability":"nonpayable"},{"type":"function","name":"treasury","inputs":[],"outputs":[{"name":"","type":"address","internalType":"address"}],"stateMutability":"view"},{"type":"function","name":"unpause","inputs":[],"outputs":[],"stateMutability":"nonpayable"},{"type":"function","name":"unstake","inputs":[{"name":"amount","type":"uint256","internalType":"uint256"}],"outputs":[],"stateMutability":"nonpayable"},{"type":"function","name":"usdc","inputs":[],"outputs":[{"name":"","type":"address","internalType":"contract IERC20"}],"stateMutability":"view"},{"type":"function","name":"useCredits","inputs":[{"name":"user","type":"address","internalType":"address"},{"name":"amount","type":"uint256","internalType":"uint256"}],"outputs":[],"stateMutability":"nonpayable"},{"type":"function","name":"usedCredits","inputs":[{"name":"","type":"address","internalType":"address"}],"outputs":[{"name":"","type":"uint256","internalType":"uint256"}],"stateMutability":"view"},{"type":"event","name":"AppAuthorized","inputs":[{"name":"app","type":"address","indexed":true,"internalType":"address"}],"anonymous":false},{"type":"event","name":"AppRevoked","inputs":[{"name":"app","type":"address","indexed":true,"internalType":"address"}],"anonymous":false},{"type":"event","name":"Bought","inputs":[{"name":"user","type":"address","indexed":true,"internalType":"address"},{"name":"usdcAmount","type":"uint256","indexed":false,"internalType":"uint256"},{"name":"suiteAmount","type":"uint256","indexed":false,"internalType":"uint256"}],"anonymous":false},{"type":"event","name":"BoughtAndStaked","inputs":[{"name":"user","type":"address","indexed":true,"internalType":"address"},{"name":"usdcAmount","type":"uint256","indexed":false,"internalType":"uint256"},{"name":"suiteAmount","type":"uint256","indexed":false,"internalType":"uint256"}],"anonymous":false},{"type":"event","name":"CreditsUsed","inputs":[{"name":"user","type":"address","indexed":true,"internalType":"address"},{"name":"app","type":"address","indexed":true,"internalType":"address"},{"name":"amount","type":"uint256","indexed":false,"internalType":"uint256"}],"anonymous":false},{"type":"event","name":"OwnershipTransferred","inputs":[{"name":"previousOwner","type":"address","indexed":true,"internalType":"address"},{"name":"newOwner","type":"address","indexed":true,"internalType":"address"}],"anonymous":false},{"type":"event","name":"Paused","inputs":[{"name":"account","type":"address","indexed":false,"internalType":"address"}],"anonymous":false},{"type":"event","name":"Staked","inputs":[{"name":"user","type":"address","indexed":true,"internalType":"address"},{"name":"amount","type":"uint256","indexed":false,"internalType":"uint256"}],"anonymous":false},{"type":"event","name":"SuitePerUsdcUpdated","inputs":[{"name":"newRate","type":"uint256","indexed":false,"internalType":"uint256"}],"anonymous":false},{"type":"event","name":"TreasuryUpdated","inputs":[{"name":"newTreasury","type":"address","indexed":true,"internalType":"address"}],"anonymous":false},{"type":"event","name":"Unpaused","inputs":[{"name":"account","type":"address","indexed":false,"internalType":"address"}],"anonymous":false},{"type":"event","name":"Unstaked","inputs":[{"name":"user","type":"address","indexed":true,"internalType":"address"},{"name":"returned","type":"uint256","indexed":false,"internalType":"uint256"},{"name":"burned","type":"uint256","indexed":false,"internalType":"uint256"}],"anonymous":false},{"type":"error","name":"AppAlreadyAuthorized","inputs":[]},{"type":"error","name":"AppNotAuthorized","inputs":[]},{"type":"error","name":"EnforcedPause","inputs":[]},{"type":"error","name":"ExpectedPause","inputs":[]},{"type":"error","name":"InsufficientCredits","inputs":[]},{"type":"error","name":"InsufficientStake","inputs":[]},{"type":"error","name":"OwnableInvalidOwner","inputs":[{"name":"owner","type":"address","internalType":"address"}]},{"type":"error","name":"OwnableUnauthorizedAccount","inputs":[{"name":"account","type":"address","internalType":"address"}]},{"type":"error","name":"ReentrancyGuardReentrantCall","inputs":[]},{"type":"error","name":"SafeERC20FailedOperation","inputs":[{"name":"token","type":"address","internalType":"address"}]},{"type":"error","name":"UnauthorizedApp","inputs":[]},{"type":"error","name":"ZeroAddress","inputs":[]},{"type":"error","name":"ZeroAmount","inputs":[]}],"bytecode":{"object":"0x60806040526103e860055534801562000016575f80fd5b506040516200116838038062001168833981016040819052620000399162000180565b806001600160a01b0381166200006857604051631e4fbdf760e01b81525f600482015260240160405180910390fd5b620000738162000115565b50600180556001600160a01b03841615806200009657506001600160a01b038316155b80620000a957506001600160a01b038216155b15620000c85760405163d92e233d60e01b815260040160405180910390fd5b50600280546001600160a01b0394851661010002610100600160a81b0319909116179055600380549284166001600160a01b031993841617905560048054919093169116179055620001da565b5f80546001600160a01b038381166001600160a01b0319831681178455604051919092169283917f8be0079c531659141344cd1fd0a4f28419497f9722a3daafe3b4186f6b6457e09190a35050565b80516001600160a01b03811681146200017b575f80fd5b919050565b5f805f806080858703121562000194575f80fd5b6200019f8562000164565b9350620001af6020860162000164565b9250620001bf6040860162000164565b9150620001cf6060860162000164565b905092959194509250565b610f8080620001e85f395ff3fe608060405234801561000f575f80fd5b5060043610610147575f3560e01c8063715018a6116100bf578063d182a16a11610079578063d182a16a146102b5578063d52bb740146102c8578063d96a094a146102e7578063f0f44260146102fa578063f2fde38b1461030d578063fd0ae7f014610320575f80fd5b8063715018a6146102615780638456cb591461026957806384bd0894146102715780638da5cb5b1461027a578063a22b6e8f1461028a578063a694fc3a146102a2575f80fd5b80633e413bee116101105780633e413bee146101bf5780633f4ba83a146101ea5780633f4e46a0146101f25780635c975abb14610224578063602172671461022f57806361d027b31461024e575f80fd5b806218ff551461014b578063046711231461016057806326691b6e146101865780632e17de78146101995780633b1e573f146101ac575b5f80fd5b61015e610159366004610e7b565b610333565b005b61017361016e366004610e7b565b6103e6565b6040519081526020015b60405180910390f35b61015e610194366004610e9b565b610419565b61015e6101a7366004610ec3565b610509565b61015e6101ba366004610ec3565b61070c565b6003546101d2906001600160a01b031681565b6040516001600160a01b03909116815260200161017d565b61015e61076f565b610214610200366004610e7b565b60086020525f908152604090205460ff1681565b604051901515815260200161017d565b60025460ff16610214565b61017361023d366004610e7b565b60066020525f908152604090205481565b6004546101d2906001600160a01b031681565b61015e610781565b61015e610792565b61017360055481565b5f546001600160a01b03166101d2565b6002546101d29061010090046001600160a01b031681565b61015e6102b0366004610ec3565b6107a2565b61015e6102c3366004610ec3565b6108b0565b6101736102d6366004610e7b565b60076020525f908152604090205481565b61015e6102f5366004610ec3565b6109de565b61015e610308366004610e7b565b610ada565b61015e61031b366004610e7b565b610b52565b61015e61032e366004610e7b565b610b91565b61033b610c19565b6001600160a01b0381166103625760405163d92e233d60e01b815260040160405180910390fd5b6001600160a01b0381165f9081526008602052604090205460ff161561039b5760405163154b7cd160e31b815260040160405180910390fd5b6001600160a01b0381165f81815260086020526040808220805460ff19166001179055517febdf8e738c573e0b1b5071d0c2c3fdd4a06bd9de13f5d0c4eb8150e0fd01626a9190a250565b6001600160a01b0381165f9081526007602090815260408083205460069092528220546104139190610eee565b92915050565b610421610c45565b335f9081526008602052604090205460ff16610450576040516387b0873360e01b815260040160405180910390fd5b805f0361047057604051631f2a200560e01b815260040160405180910390fd5b610479826103e6565b811115610499576040516343fb945360e01b815260040160405180910390fd5b6001600160a01b0382165f90815260076020526040812080548392906104c0908490610f01565b909155505060405181815233906001600160a01b038416907f3c22f5db80c5276c536dd2c880cd698095e83b906c3ad64ffe1895eee8eb9f9f9060200160405180910390a35050565b610511610c69565b610519610c45565b805f0361053957604051631f2a200560e01b815260040160405180910390fd5b335f90815260066020526040902054811115610568576040516378de4a6960e11b815260040160405180910390fd5b335f90815260076020526040812054908083831061058a57508290505f61059a565b8291506105978285610eee565b90505b335f90815260066020526040812080548692906105b8908490610eee565b9091555050335f90815260076020526040812080548492906105db908490610eee565b9091555050811561064457600254604051630852cd8d60e31b8152600481018490526101009091046001600160a01b0316906342966c68906024015f604051808303815f87803b15801561062d575f80fd5b505af115801561063f573d5f803e3d5ffd5b505050505b80156106c25760025460405163a9059cbb60e01b8152336004820152602481018390526101009091046001600160a01b03169063a9059cbb906044016020604051808303815f875af115801561069c573d5f803e3d5ffd5b505050506040513d601f19601f820116820180604052508101906106c09190610f14565b505b604080518281526020810184905233917f7fc4727e062e336010f2c282598ef5f14facb3de68cf8195c2f23e1454b2b74e910160405180910390a250505061070960018055565b50565b610714610c19565b805f0361073457604051631f2a200560e01b815260040160405180910390fd5b60058190556040518181527f09a4c42b6b6d5ec791c7581f4b2e295073166c90f8c25c0396f2206a6c787de69060200160405180910390a150565b610777610c19565b61077f610c93565b565b610789610c19565b61077f5f610ce5565b61079a610c19565b61077f610d34565b6107aa610c69565b6107b2610c45565b805f036107d257604051631f2a200560e01b815260040160405180910390fd5b6002546040516323b872dd60e01b8152336004820152306024820152604481018390526101009091046001600160a01b0316906323b872dd906064016020604051808303815f875af115801561082a573d5f803e3d5ffd5b505050506040513d601f19601f8201168201806040525081019061084e9190610f14565b50335f908152600660205260408120805483929061086d908490610f01565b909155505060405181815233907f9e71bc8eea02a63969f509818f2dafb9254532904319f9dbda79b67bd34a5f3d9060200160405180910390a261070960018055565b6108b8610c69565b6108c0610c45565b805f036108e057604051631f2a200560e01b815260040160405180910390fd5b5f600554826108ef9190610f33565b600454600354919250610911916001600160a01b039081169133911685610d71565b6002546040516340c10f1960e01b8152306004820152602481018390526101009091046001600160a01b0316906340c10f19906044015f604051808303815f87803b15801561095e575f80fd5b505af1158015610970573d5f803e3d5ffd5b5050335f9081526006602052604081208054859450909250610993908490610f01565b9091555050604080518381526020810183905233917f05503a530c8b41f2fde3a3c51e2f061a637d56b929a8b83f7e8d6eb46d350c4491015b60405180910390a25061070960018055565b6109e6610c69565b6109ee610c45565b805f03610a0e57604051631f2a200560e01b815260040160405180910390fd5b5f60055482610a1d9190610f33565b600454600354919250610a3f916001600160a01b039081169133911685610d71565b6002546040516340c10f1960e01b8152336004820152602481018390526101009091046001600160a01b0316906340c10f19906044015f604051808303815f87803b158015610a8c575f80fd5b505af1158015610a9e573d5f803e3d5ffd5b505060408051858152602081018590523393507fa9a40dec7a304e5915d11358b968c1e8d365992abf20f82285d1df1b30c8e24c9250016109cc565b610ae2610c19565b6001600160a01b038116610b095760405163d92e233d60e01b815260040160405180910390fd5b600480546001600160a01b0319166001600160a01b0383169081179091556040517f7dae230f18360d76a040c81f050aa14eb9d6dc7901b20fc5d855e2a20fe814d1905f90a250565b610b5a610c19565b6001600160a01b038116610b8857604051631e4fbdf760e01b81525f60048201526024015b60405180910390fd5b61070981610ce5565b610b99610c19565b6001600160a01b0381165f9081526008602052604090205460ff16610bd15760405163115b19a560e11b815260040160405180910390fd5b6001600160a01b0381165f81815260086020526040808220805460ff19169055517f1dfc67310a53bbdf3a121956a78c94d3592b420ac0966b5da6871caf9e8b4f399190a250565b5f546001600160a01b0316331461077f5760405163118cdaa760e01b8152336004820152602401610b7f565b60025460ff161561077f5760405163d93c066560e01b815260040160405180910390fd5b600260015403610c8c57604051633ee5aeb560e01b815260040160405180910390fd5b6002600155565b610c9b610dd1565b6002805460ff191690557f5db9ee0a495bf2e6ff9c91a7834c1ba4fdd244a5e8aa4e537bd38aeae4b073aa335b6040516001600160a01b03909116815260200160405180910390a1565b5f80546001600160a01b038381166001600160a01b0319831681178455604051919092169283917f8be0079c531659141344cd1fd0a4f28419497f9722a3daafe3b4186f6b6457e09190a35050565b610d3c610c45565b6002805460ff191660011790557f62e78cea01bee320cd4e420270b5ea74000d11b0c9f74754ebdbfc544b05a258610cc83390565b604080516001600160a01b0385811660248301528416604482015260648082018490528251808303909101815260849091019091526020810180516001600160e01b03166323b872dd60e01b179052610dcb908590610df4565b50505050565b60025460ff1661077f57604051638dfc202b60e01b815260040160405180910390fd5b5f8060205f8451602086015f885af180610e13576040513d5f823e3d81fd5b50505f513d91508115610e2a578060011415610e37565b6001600160a01b0384163b155b15610dcb57604051635274afe760e01b81526001600160a01b0385166004820152602401610b7f565b80356001600160a01b0381168114610e76575f80fd5b919050565b5f60208284031215610e8b575f80fd5b610e9482610e60565b9392505050565b5f8060408385031215610eac575f80fd5b610eb583610e60565b946020939093013593505050565b5f60208284031215610ed3575f80fd5b5035919050565b634e487b7160e01b5f52601160045260245ffd5b8181038181111561041357610413610eda565b8082018082111561041357610413610eda565b5f60208284031215610f24575f80fd5b81518015158114610e94575f80fd5b808202811582820484141761041357610413610eda56fea2646970667358221220c670b6f64f1efc98ce091b8a06560079d2814c1a25ac268562081ecd7ac8c02564736f6c63430008140033","linkReferences":{}},"methodIdentifiers":{"authorizeApp(address)":"0018ff55","authorizedApps(address)":"3f4e46a0","availableCredits(address)":"04671123","buy(uint256)":"d96a094a","buyAndStake(uint256)":"d182a16a","owner()":"8da5cb5b","pause()":"8456cb59","paused()":"5c975abb","renounceOwnership()":"715018a6","revokeApp(address)":"fd0ae7f0","setSuitePerUsdc(uint256)":"3b1e573f","setTreasury(address)":"f0f44260","stake(uint256)":"a694fc3a","stakedBalance(address)":"60217267","suitePerUsdc()":"84bd0894","suiteToken()":"a22b6e8f","transferOwnership(address)":"f2fde38b","treasury()":"61d027b3","unpause()":"3f4ba83a","unstake(uint256)":"2e17de78","usdc()":"3e413bee","useCredits(address,uint256)":"26691b6e","usedCredits(address)":"d52bb740"},"id":34}