{"abi":[{"type":"constructor","inputs":[{"name":"_suiteToken","type":"address","internalType":"address"},{"name":"_usdc","type":"address","internalType":"address"},{"name":"_treasury","type":"address","internalType":"address"},{"name":"_owner","type":"address","internalType":"address"}],"stateMutability":"nonpayable"},{"type":"function","name":"addBonusCredits","inputs":[{"name":"user","type":"address","internalType":"address"},{"name":"amount","type":"uint256","internalType":"uint256"}],"outputs":[],"stateMutability":"nonpayable"},{"type":"function","name":"addBonusCreditsBatch","inputs":[{"name":"users","type":"address[]","internalType":"address[]"},{"name":"amounts","type":"uint256[]","internalType":"uint256[]"}],"outputs":[],"stateMutability":"nonpayable"},{"type":"function","name":"addRewardDistributor","inputs":[{"name":"distributor","type":"address","internalType":"address"}],"outputs":[],"stateMutability":"nonpayable"},{"type":"function","name":"authorizeApp","inputs":[{"name":"app","type":"address","internalType":"address"}],"outputs":[],"stateMutability":"nonpayable"},{"type":"function","name":"authorizedApps","inputs":[{"name":"","type":"address","internalType":"address"}],"outputs":[{"name":"","type":"bool","internalType":"bool"}],"stateMutability":"view"},{"type":"function","name":"availableCredits","inputs":[{"name":"user","type":"address","internalType":"address"}],"outputs":[{"name":"","type":"uint256","internalType":"uint256"}],"stateMutability":"view"},{"type":"function","name":"bonusCredits","inputs":[{"name":"","type":"address","internalType":"address"}],"outputs":[{"name":"","type":"uint256","internalType":"uint256"}],"stateMutability":"view"},{"type":"function","name":"buy","inputs":[{"name":"usdcAmount","type":"uint256","internalType":"uint256"}],"outputs":[],"stateMutability":"nonpayable"},{"type":"function","name":"buyAndStake","inputs":[{"name":"usdcAmount","type":"uint256","internalType":"uint256"}],"outputs":[],"stateMutability":"nonpayable"},{"type":"function","name":"owner","inputs":[],"outputs":[{"name":"","type":"address","internalType":"address"}],"stateMutability":"view"},{"type":"function","name":"pause","inputs":[],"outputs":[],"stateMutability":"nonpayable"},{"type":"function","name":"paused","inputs":[],"outputs":[{"name":"","type":"bool","internalType":"bool"}],"stateMutability":"view"},{"type":"function","name":"redeemBonusCredits","inputs":[{"name":"user","type":"address","internalType":"address"},{"name":"amount","type":"uint256","internalType":"uint256"}],"outputs":[],"stateMutability":"nonpayable"},{"type":"function","name":"removeRewardDistributor","inputs":[{"name":"distributor","type":"address","internalType":"address"}],"outputs":[],"stateMutability":"nonpayable"},{"type":"function","name":"renounceOwnership","inputs":[],"outputs":[],"stateMutability":"nonpayable"},{"type":"function","name":"restoreBonusCredits","inputs":[{"name":"user","type":"address","internalType":"address"},{"name":"amount","type":"uint256","internalType":"uint256"}],"outputs":[],"stateMutability":"nonpayable"},{"type":"function","name":"revokeApp","inputs":[{"name":"app","type":"address","internalType":"address"}],"outputs":[],"stateMutability":"nonpayable"},{"type":"function","name":"rewardDistributors","inputs":[{"name":"","type":"address","internalType":"address"}],"outputs":[{"name":"","type":"bool","internalType":"bool"}],"stateMutability":"view"},{"type":"function","name":"setSuitePerUsdc","inputs":[{"name":"_suitePerUsdc","type":"uint256","internalType":"uint256"}],"outputs":[],"stateMutability":"nonpayable"},{"type":"function","name":"setTreasury","inputs":[{"name":"_treasury","type":"address","internalType":"address"}],"outputs":[],"stateMutability":"nonpayable"},{"type":"function","name":"setWithdrawalContract","inputs":[{"name":"_withdrawalContract","type":"address","internalType":"address"}],"outputs":[],"stateMutability":"nonpayable"},{"type":"function","name":"stake","inputs":[{"name":"amount","type":"uint256","internalType":"uint256"}],"outputs":[],"stateMutability":"nonpayable"},{"type":"function","name":"stakedBalance","inputs":[{"name":"","type":"address","internalType":"address"}],"outputs":[{"name":"","type":"uint256","internalType":"uint256"}],"stateMutability":"view"},{"type":"function","name":"suitePerUsdc","inputs":[],"outputs":[{"name":"","type":"uint256","internalType":"uint256"}],"stateMutability":"view"},{"type":"function","name":"suiteToken","inputs":[],"outputs":[{"name":"","type":"address","internalType":"contract ISuiteToken"}],"stateMutability":"view"},{"type":"function","name":"totalBonusCredits","inputs":[],"outputs":[{"name":"","type":"uint256","internalType":"uint256"}],"stateMutability":"view"},{"type":"function","name":"totalCredits","inputs":[{"name":"user","type":"address","internalType":"address"}],"outputs":[{"name":"","type":"uint256","internalType":"uint256"}],"stateMutability":"view"},{"type":"function","name":"transferOwnership","inputs":[{"name":"newOwner","type":"address","internalType":"address"}],"outputs":[],"stateMutability":"nonpayable"},{"type":"function","name":"treasury","inputs":[],"outputs":[{"name":"","type":"address","internalType":"address"}],"stateMutability":"view"},{"type":"function","name":"unpause","inputs":[],"outputs":[],"stateMutability":"nonpayable"},{"type":"function","name":"unstake","inputs":[{"name":"amount","type":"uint256","internalType":"uint256"}],"outputs":[],"stateMutability":"nonpayable"},{"type":"function","name":"usdc","inputs":[],"outputs":[{"name":"","type":"address","internalType":"contract IERC20"}],"stateMutability":"view"},{"type":"function","name":"useCredits","inputs":[{"name":"user","type":"address","internalType":"address"},{"name":"amount","type":"uint256","internalType":"uint256"}],"outputs":[],"stateMutability":"nonpayable"},{"type":"function","name":"usedCredits","inputs":[{"name":"","type":"address","internalType":"address"}],"outputs":[{"name":"","type":"uint256","internalType":"uint256"}],"stateMutability":"view"},{"type":"function","name":"withdrawalContract","inputs":[],"outputs":[{"name":"","type":"address","internalType":"address"}],"stateMutability":"view"},{"type":"event","name":"AppAuthorized","inputs":[{"name":"app","type":"address","indexed":true,"internalType":"address"}],"anonymous":false},{"type":"event","name":"AppRevoked","inputs":[{"name":"app","type":"address","indexed":true,"internalType":"address"}],"anonymous":false},{"type":"event","name":"BonusCreditsAdded","inputs":[{"name":"user","type":"address","indexed":true,"internalType":"address"},{"name":"amount","type":"uint256","indexed":false,"internalType":"uint256"},{"name":"distributor","type":"address","indexed":true,"internalType":"address"}],"anonymous":false},{"type":"event","name":"BonusCreditsRedeemed","inputs":[{"name":"user","type":"address","indexed":true,"internalType":"address"},{"name":"amount","type":"uint256","indexed":false,"internalType":"uint256"}],"anonymous":false},{"type":"event","name":"Bought","inputs":[{"name":"user","type":"address","indexed":true,"internalType":"address"},{"name":"usdcAmount","type":"uint256","indexed":false,"internalType":"uint256"},{"name":"suiteAmount","type":"uint256","indexed":false,"internalType":"uint256"}],"anonymous":false},{"type":"event","name":"BoughtAndStaked","inputs":[{"name":"user","type":"address","indexed":true,"internalType":"address"},{"name":"usdcAmount","type":"uint256","indexed":false,"internalType":"uint256"},{"name":"suiteAmount","type":"uint256","indexed":false,"internalType":"uint256"}],"anonymous":false},{"type":"event","name":"CreditsUsed","inputs":[{"name":"user","type":"address","indexed":true,"internalType":"address"},{"name":"app","type":"address","indexed":true,"internalType":"address"},{"name":"amount","type":"uint256","indexed":false,"internalType":"uint256"}],"anonymous":false},{"type":"event","name":"OwnershipTransferred","inputs":[{"name":"previousOwner","type":"address","indexed":true,"internalType":"address"},{"name":"newOwner","type":"address","indexed":true,"internalType":"address"}],"anonymous":false},{"type":"event","name":"Paused","inputs":[{"name":"account","type":"address","indexed":false,"internalType":"address"}],"anonymous":false},{"type":"event","name":"RewardDistributorAdded","inputs":[{"name":"distributor","type":"address","indexed":true,"internalType":"address"}],"anonymous":false},{"type":"event","name":"RewardDistributorRemoved","inputs":[{"name":"distributor","type":"address","indexed":true,"internalType":"address"}],"anonymous":false},{"type":"event","name":"Staked","inputs":[{"name":"user","type":"address","indexed":true,"internalType":"address"},{"name":"amount","type":"uint256","indexed":false,"internalType":"uint256"}],"anonymous":false},{"type":"event","name":"SuitePerUsdcUpdated","inputs":[{"name":"newRate","type":"uint256","indexed":false,"internalType":"uint256"}],"anonymous":false},{"type":"event","name":"TreasuryUpdated","inputs":[{"name":"newTreasury","type":"address","indexed":true,"internalType":"address"}],"anonymous":false},{"type":"event","name":"Unpaused","inputs":[{"name":"account","type":"address","indexed":false,"internalType":"address"}],"anonymous":false},{"type":"event","name":"Unstaked","inputs":[{"name":"user","type":"address","indexed":true,"internalType":"address"},{"name":"returned","type":"uint256","indexed":false,"internalType":"uint256"},{"name":"burned","type":"uint256","indexed":false,"internalType":"uint256"}],"anonymous":false},{"type":"event","name":"WithdrawalContractUpdated","inputs":[{"name":"withdrawalContract","type":"address","indexed":true,"internalType":"address"}],"anonymous":false},{"type":"error","name":"AppAlreadyAuthorized","inputs":[]},{"type":"error","name":"AppNotAuthorized","inputs":[]},{"type":"error","name":"DistributorAlreadyAdded","inputs":[]},{"type":"error","name":"DistributorNotFound","inputs":[]},{"type":"error","name":"EnforcedPause","inputs":[]},{"type":"error","name":"ExpectedPause","inputs":[]},{"type":"error","name":"InsufficientCredits","inputs":[]},{"type":"error","name":"InsufficientStake","inputs":[]},{"type":"error","name":"OwnableInvalidOwner","inputs":[{"name":"owner","type":"address","internalType":"address"}]},{"type":"error","name":"OwnableUnauthorizedAccount","inputs":[{"name":"account","type":"address","internalType":"address"}]},{"type":"error","name":"ReentrancyGuardReentrantCall","inputs":[]},{"type":"error","name":"SafeERC20FailedOperation","inputs":[{"name":"token","type":"address","internalType":"address"}]},{"type":"error","name":"UnauthorizedApp","inputs":[]},{"type":"error","name":"UnauthorizedDistributor","inputs":[]},{"type":"error","name":"UnauthorizedWithdrawalContract","inputs":[]},{"type":"error","name":"ZeroAddress","inputs":[]},{"type":"error","name":"ZeroAmount","inputs":[]}],"bytecode":{"object":"0x60806040526103e860055534801562000016575f80fd5b5060405162001a8238038062001a82833981016040819052620000399162000180565b806001600160a01b0381166200006857604051631e4fbdf760e01b81525f600482015260240160405180910390fd5b620000738162000115565b50600180556001600160a01b03841615806200009657506001600160a01b038316155b80620000a957506001600160a01b038216155b15620000c85760405163d92e233d60e01b815260040160405180910390fd5b50600280546001600160a01b0394851661010002610100600160a81b0319909116179055600380549284166001600160a01b031993841617905560048054919093169116179055620001da565b5f80546001600160a01b038381166001600160a01b0319831681178455604051919092169283917f8be0079c531659141344cd1fd0a4f28419497f9722a3daafe3b4186f6b6457e09190a35050565b80516001600160a01b03811681146200017b575f80fd5b919050565b5f805f806080858703121562000194575f80fd5b6200019f8562000164565b9350620001af6020860162000164565b9250620001bf6040860162000164565b9150620001cf6060860162000164565b905092959194509250565b61189a80620001e85f395ff3fe608060405234801561000f575f80fd5b5060043610610207575f3560e01c80637415e8031161011f578063cc89a012116100a9578063daba3e2a11610079578063daba3e2a14610493578063dcfdd73d1461049c578063f0f44260146104af578063f2fde38b146104c2578063fd0ae7f0146104d5575f80fd5b8063cc89a0121461043b578063d182a16a1461044e578063d52bb74014610461578063d96a094a14610480575f80fd5b80638da5cb5b116100ef5780638da5cb5b146103cb578063a22b6e8f146103db578063a694fc3a146103f3578063a9c12f0c14610406578063bb6d890f14610428575f80fd5b80637415e8031461039457806381842c2c146103a75780638456cb59146103ba57806384bd0894146103c2575f80fd5b80633f4ba83a116101a05780635cbae605116101705780635cbae60514610328578063602172671461034757806361d027b31461036657806369929b9a14610379578063715018a61461038c575f80fd5b80633f4ba83a146102d05780633f4e46a0146102d85780635899cb441461030a5780635c975abb1461031d575f80fd5b806326691b6e116101db57806326691b6e1461026c5780632e17de781461027f5780633b1e573f146102925780633e413bee146102a5575f80fd5b806218ff551461020b57806304671123146102205780631c96e950146102465780631dfa5bfa14610259575b5f80fd5b61021e6102193660046116ba565b6104e8565b005b61023361022e3660046116ba565b61059b565b6040519081526020015b60405180910390f35b61021e6102543660046116ba565b6105e2565b61021e6102673660046116ba565b610695565b61021e61027a3660046116da565b61070d565b61021e61028d366004611702565b6107fe565b61021e6102a0366004611702565b610a01565b6003546102b8906001600160a01b031681565b6040516001600160a01b03909116815260200161023d565b61021e610a64565b6102fa6102e63660046116ba565b600b6020525f908152604090205460ff1681565b604051901515815260200161023d565b61021e6103183660046116da565b610a76565b60025460ff166102fa565b6102336103363660046116ba565b60086020525f908152604090205481565b6102336103553660046116ba565b60066020525f908152604090205481565b6004546102b8906001600160a01b031681565b61021e6103873660046116da565b610b42565b61021e610bb0565b61021e6103a23660046116da565b610bc1565b600a546102b8906001600160a01b031681565b61021e610cca565b61023360055481565b5f546001600160a01b03166102b8565b6002546102b89061010090046001600160a01b031681565b61021e610401366004611702565b610cda565b6102fa6104143660046116ba565b600c6020525f908152604090205460ff1681565b61021e6104363660046116ba565b610de8565b6102336104493660046116ba565b610e70565b61021e61045c366004611702565b610e9d565b61023361046f3660046116ba565b60076020525f908152604090205481565b61021e61048e366004611702565b610fda565b61023360095481565b61021e6104aa366004611761565b6110e5565b61021e6104bd3660046116ba565b61131e565b61021e6104d03660046116ba565b611396565b61021e6104e33660046116ba565b6113d0565b6104f0611458565b6001600160a01b0381166105175760405163d92e233d60e01b815260040160405180910390fd5b6001600160a01b0381165f908152600b602052604090205460ff16156105505760405163154b7cd160e31b815260040160405180910390fd5b6001600160a01b0381165f818152600b6020526040808220805460ff19166001179055517febdf8e738c573e0b1b5071d0c2c3fdd4a06bd9de13f5d0c4eb8150e0fd01626a9190a250565b6001600160a01b0381165f90815260076020908152604080832054600883528184205460069093529083205490916105d2916117dc565b6105dc91906117ef565b92915050565b6105ea611458565b6001600160a01b0381166106115760405163d92e233d60e01b815260040160405180910390fd5b6001600160a01b0381165f908152600c602052604090205460ff161561064a57604051633d873e1f60e01b815260040160405180910390fd5b6001600160a01b0381165f818152600c6020526040808220805460ff19166001179055517f74f5fc8438e42d45c059bfc6e1ab488468e0110e15bd5607d559bb36622120da9190a250565b61069d611458565b6001600160a01b0381166106c45760405163d92e233d60e01b815260040160405180910390fd5b600a80546001600160a01b0319166001600160a01b0383169081179091556040517f594678c266edfa5e8763c39e8622ed8ea8dae0e5bc9c7e6399b4f5c5d113ce85905f90a250565b610715611484565b335f908152600b602052604090205460ff16610744576040516387b0873360e01b815260040160405180910390fd5b805f0361076457604051631f2a200560e01b815260040160405180910390fd5b61076d8261059b565b81111561078d576040516343fb945360e01b815260040160405180910390fd5b6001600160a01b0382165f90815260076020526040812080548392906107b49084906117dc565b909155505060405181815233906001600160a01b038416907f3c22f5db80c5276c536dd2c880cd698095e83b906c3ad64ffe1895eee8eb9f9f906020015b60405180910390a35050565b6108066114a8565b61080e611484565b805f0361082e57604051631f2a200560e01b815260040160405180910390fd5b335f9081526006602052604090205481111561085d576040516378de4a6960e11b815260040160405180910390fd5b335f90815260076020526040812054908083831061087f57508290505f61088f565b82915061088c82856117ef565b90505b335f90815260066020526040812080548692906108ad9084906117ef565b9091555050335f90815260076020526040812080548492906108d09084906117ef565b9091555050811561093957600254604051630852cd8d60e31b8152600481018490526101009091046001600160a01b0316906342966c68906024015f604051808303815f87803b158015610922575f80fd5b505af1158015610934573d5f803e3d5ffd5b505050505b80156109b75760025460405163a9059cbb60e01b8152336004820152602481018390526101009091046001600160a01b03169063a9059cbb906044016020604051808303815f875af1158015610991573d5f803e3d5ffd5b505050506040513d601f19601f820116820180604052508101906109b59190611802565b505b604080518281526020810184905233917f7fc4727e062e336010f2c282598ef5f14facb3de68cf8195c2f23e1454b2b74e910160405180910390a25050506109fe60018055565b50565b610a09611458565b805f03610a2957604051631f2a200560e01b815260040160405180910390fd5b60058190556040518181527f09a4c42b6b6d5ec791c7581f4b2e295073166c90f8c25c0396f2206a6c787de69060200160405180910390a150565b610a6c611458565b610a746114d2565b565b600a546001600160a01b03163314610aa157604051633c5410b760e11b815260040160405180910390fd5b805f03610ac157604051631f2a200560e01b815260040160405180910390fd5b6001600160a01b0382165f9081526008602052604081208054839290610ae89084906117dc565b925050819055508060095f828254610b0091906117dc565b909155505060405181815233906001600160a01b038416907ffb43b1431219270ff7d5c7b48dac538ec3045cd327b42c4f1aa3169043e529c3906020016107f2565b335f908152600c602052604090205460ff16158015610b6b57505f546001600160a01b03163314155b15610b89576040516301056e9d60e61b815260040160405180910390fd5b6001600160a01b038216610aa15760405163d92e233d60e01b815260040160405180910390fd5b610bb8611458565b610a745f611524565b600a546001600160a01b03163314610bec57604051633c5410b760e11b815260040160405180910390fd5b805f03610c0c57604051631f2a200560e01b815260040160405180910390fd5b6001600160a01b0382165f90815260086020526040902054811115610c44576040516343fb945360e01b815260040160405180910390fd5b6001600160a01b0382165f9081526008602052604081208054839290610c6b9084906117ef565b925050819055508060095f828254610c8391906117ef565b90915550506040518181526001600160a01b038316907fcb2b0cab1bdea1bba08401935acc247dbf1174df750aaa624dd1b8a3de2068789060200160405180910390a25050565b610cd2611458565b610a74611573565b610ce26114a8565b610cea611484565b805f03610d0a57604051631f2a200560e01b815260040160405180910390fd5b6002546040516323b872dd60e01b8152336004820152306024820152604481018390526101009091046001600160a01b0316906323b872dd906064016020604051808303815f875af1158015610d62573d5f803e3d5ffd5b505050506040513d601f19601f82011682018060405250810190610d869190611802565b50335f9081526006602052604081208054839290610da59084906117dc565b909155505060405181815233907f9e71bc8eea02a63969f509818f2dafb9254532904319f9dbda79b67bd34a5f3d9060200160405180910390a26109fe60018055565b610df0611458565b6001600160a01b0381165f908152600c602052604090205460ff16610e28576040516337a6369360e11b815260040160405180910390fd5b6001600160a01b0381165f818152600c6020526040808220805460ff19169055517f51493821a1424bebf150d9f396be5e9a86af464e975f17d50832d7fb9305f04b9190a250565b6001600160a01b0381165f9081526008602090815260408083205460069092528220546105dc91906117dc565b610ea56114a8565b610ead611484565b805f03610ecd57604051631f2a200560e01b815260040160405180910390fd5b5f60055482610edc9190611821565b610eeb9064e8d4a51000611821565b600454600354919250610f0d916001600160a01b0390811691339116856115b0565b6002546040516340c10f1960e01b8152306004820152602481018390526101009091046001600160a01b0316906340c10f19906044015f604051808303815f87803b158015610f5a575f80fd5b505af1158015610f6c573d5f803e3d5ffd5b5050335f9081526006602052604081208054859450909250610f8f9084906117dc565b9091555050604080518381526020810183905233917f05503a530c8b41f2fde3a3c51e2f061a637d56b929a8b83f7e8d6eb46d350c4491015b60405180910390a2506109fe60018055565b610fe26114a8565b610fea611484565b805f0361100a57604051631f2a200560e01b815260040160405180910390fd5b5f600554826110199190611821565b6110289064e8d4a51000611821565b60045460035491925061104a916001600160a01b0390811691339116856115b0565b6002546040516340c10f1960e01b8152336004820152602481018390526101009091046001600160a01b0316906340c10f19906044015f604051808303815f87803b158015611097575f80fd5b505af11580156110a9573d5f803e3d5ffd5b505060408051858152602081018590523393507fa9a40dec7a304e5915d11358b968c1e8d365992abf20f82285d1df1b30c8e24c925001610fc8565b335f908152600c602052604090205460ff1615801561110e57505f546001600160a01b03163314155b1561112c576040516301056e9d60e61b815260040160405180910390fd5b8281146111785760405162461bcd60e51b8152602060048201526015602482015274082e4e4c2f240d8cadccee8d040dad2e6dac2e8c6d605b1b60448201526064015b60405180910390fd5b5f5b83811015611317575f85858381811061119557611195611838565b90506020020160208101906111aa91906116ba565b6001600160a01b0316141580156111d857505f8383838181106111cf576111cf611838565b90506020020135115b15611305578282828181106111ef576111ef611838565b9050602002013560085f87878581811061120b5761120b611838565b905060200201602081019061122091906116ba565b6001600160a01b03166001600160a01b031681526020019081526020015f205f82825461124d91906117dc565b90915550839050828281811061126557611265611838565b9050602002013560095f82825461127c91906117dc565b9091555033905085858381811061129557611295611838565b90506020020160208101906112aa91906116ba565b6001600160a01b03167ffb43b1431219270ff7d5c7b48dac538ec3045cd327b42c4f1aa3169043e529c38585858181106112e6576112e6611838565b905060200201356040516112fc91815260200190565b60405180910390a35b8061130f8161184c565b91505061117a565b5050505050565b611326611458565b6001600160a01b03811661134d5760405163d92e233d60e01b815260040160405180910390fd5b600480546001600160a01b0319166001600160a01b0383169081179091556040517f7dae230f18360d76a040c81f050aa14eb9d6dc7901b20fc5d855e2a20fe814d1905f90a250565b61139e611458565b6001600160a01b0381166113c757604051631e4fbdf760e01b81525f600482015260240161116f565b6109fe81611524565b6113d8611458565b6001600160a01b0381165f908152600b602052604090205460ff166114105760405163115b19a560e11b815260040160405180910390fd5b6001600160a01b0381165f818152600b6020526040808220805460ff19169055517f1dfc67310a53bbdf3a121956a78c94d3592b420ac0966b5da6871caf9e8b4f399190a250565b5f546001600160a01b03163314610a745760405163118cdaa760e01b815233600482015260240161116f565b60025460ff1615610a745760405163d93c066560e01b815260040160405180910390fd5b6002600154036114cb57604051633ee5aeb560e01b815260040160405180910390fd5b6002600155565b6114da611610565b6002805460ff191690557f5db9ee0a495bf2e6ff9c91a7834c1ba4fdd244a5e8aa4e537bd38aeae4b073aa335b6040516001600160a01b03909116815260200160405180910390a1565b5f80546001600160a01b038381166001600160a01b0319831681178455604051919092169283917f8be0079c531659141344cd1fd0a4f28419497f9722a3daafe3b4186f6b6457e09190a35050565b61157b611484565b6002805460ff191660011790557f62e78cea01bee320cd4e420270b5ea74000d11b0c9f74754ebdbfc544b05a2586115073390565b604080516001600160a01b0385811660248301528416604482015260648082018490528251808303909101815260849091019091526020810180516001600160e01b03166323b872dd60e01b17905261160a908590611633565b50505050565b60025460ff16610a7457604051638dfc202b60e01b815260040160405180910390fd5b5f8060205f8451602086015f885af180611652576040513d5f823e3d81fd5b50505f513d91508115611669578060011415611676565b6001600160a01b0384163b155b1561160a57604051635274afe760e01b81526001600160a01b038516600482015260240161116f565b80356001600160a01b03811681146116b5575f80fd5b919050565b5f602082840312156116ca575f80fd5b6116d38261169f565b9392505050565b5f80604083850312156116eb575f80fd5b6116f48361169f565b946020939093013593505050565b5f60208284031215611712575f80fd5b5035919050565b5f8083601f840112611729575f80fd5b50813567ffffffffffffffff811115611740575f80fd5b6020830191508360208260051b850101111561175a575f80fd5b9250929050565b5f805f8060408587031215611774575f80fd5b843567ffffffffffffffff8082111561178b575f80fd5b61179788838901611719565b909650945060208701359150808211156117af575f80fd5b506117bc87828801611719565b95989497509550505050565b634e487b7160e01b5f52601160045260245ffd5b808201808211156105dc576105dc6117c8565b818103818111156105dc576105dc6117c8565b5f60208284031215611812575f80fd5b815180151581146116d3575f80fd5b80820281158282048414176105dc576105dc6117c8565b634e487b7160e01b5f52603260045260245ffd5b5f6001820161185d5761185d6117c8565b506001019056fea2646970667358221220dee9171133b836851e04d58dfb1b313f6e5a5e3578fee717898f9c82e83b4f5f64736f6c63430008140033","linkReferences":{}},"methodIdentifiers":{"addBonusCredits(address,uint256)":"69929b9a","addBonusCreditsBatch(address[],uint256[])":"dcfdd73d","addRewardDistributor(address)":"1c96e950","authorizeApp(address)":"0018ff55","authorizedApps(address)":"3f4e46a0","availableCredits(address)":"04671123","bonusCredits(address)":"5cbae605","buy(uint256)":"d96a094a","buyAndStake(uint256)":"d182a16a","owner()":"8da5cb5b","pause()":"8456cb59","paused()":"5c975abb","redeemBonusCredits(address,uint256)":"7415e803","removeRewardDistributor(address)":"bb6d890f","renounceOwnership()":"715018a6","restoreBonusCredits(address,uint256)":"5899cb44","revokeApp(address)":"fd0ae7f0","rewardDistributors(address)":"a9c12f0c","setSuitePerUsdc(uint256)":"3b1e573f","setTreasury(address)":"f0f44260","setWithdrawalContract(address)":"1dfa5bfa","stake(uint256)":"a694fc3a","stakedBalance(address)":"60217267","suitePerUsdc()":"84bd0894","suiteToken()":"a22b6e8f","totalBonusCredits()":"daba3e2a","totalCredits(address)":"cc89a012","transferOwnership(address)":"f2fde38b","treasury()":"61d027b3","unpause()":"3f4ba83a","unstake(uint256)":"2e17de78","usdc()":"3e413bee","useCredits(address,uint256)":"26691b6e","usedCredits(address)":"d52bb740","withdrawalContract()":"81842c2c"},"id":72}