{"abi":[{"type":"constructor","inputs":[{"name":"_usdc","type":"address","internalType":"address"},{"name":"_suiteToken","type":"address","internalType":"address"},{"name":"_stakingContract","type":"address","internalType":"address"},{"name":"_owner","type":"address","internalType":"address"}],"stateMutability":"nonpayable"},{"type":"function","name":"claimUsdc","inputs":[],"outputs":[],"stateMutability":"nonpayable"},{"type":"function","name":"depositRewards","inputs":[{"name":"amount","type":"uint256","internalType":"uint256"}],"outputs":[],"stateMutability":"nonpayable"},{"type":"function","name":"earned","inputs":[{"name":"user","type":"address","internalType":"address"}],"outputs":[{"name":"","type":"uint256","internalType":"uint256"}],"stateMutability":"view"},{"type":"function","name":"getRewardForDuration","inputs":[],"outputs":[{"name":"","type":"uint256","internalType":"uint256"}],"stateMutability":"view"},{"type":"function","name":"lastTimeRewardApplicable","inputs":[],"outputs":[{"name":"","type":"uint256","internalType":"uint256"}],"stateMutability":"view"},{"type":"function","name":"lastUpdateTime","inputs":[],"outputs":[{"name":"","type":"uint256","internalType":"uint256"}],"stateMutability":"view"},{"type":"function","name":"owner","inputs":[],"outputs":[{"name":"","type":"address","internalType":"address"}],"stateMutability":"view"},{"type":"function","name":"periodFinish","inputs":[],"outputs":[{"name":"","type":"uint256","internalType":"uint256"}],"stateMutability":"view"},{"type":"function","name":"recoverERC20","inputs":[{"name":"tokenAddress","type":"address","internalType":"address"},{"name":"tokenAmount","type":"uint256","internalType":"uint256"}],"outputs":[],"stateMutability":"nonpayable"},{"type":"function","name":"renounceOwnership","inputs":[],"outputs":[],"stateMutability":"nonpayable"},{"type":"function","name":"rewardPerToken","inputs":[],"outputs":[{"name":"","type":"uint256","internalType":"uint256"}],"stateMutability":"view"},{"type":"function","name":"rewardPerTokenStored","inputs":[],"outputs":[{"name":"","type":"uint256","internalType":"uint256"}],"stateMutability":"view"},{"type":"function","name":"rewardRate","inputs":[],"outputs":[{"name":"","type":"uint256","internalType":"uint256"}],"stateMutability":"view"},{"type":"function","name":"rewards","inputs":[{"name":"","type":"address","internalType":"address"}],"outputs":[{"name":"","type":"uint256","internalType":"uint256"}],"stateMutability":"view"},{"type":"function","name":"rewardsDuration","inputs":[],"outputs":[{"name":"","type":"uint256","internalType":"uint256"}],"stateMutability":"view"},{"type":"function","name":"setRewardsDuration","inputs":[{"name":"_rewardsDuration","type":"uint256","internalType":"uint256"}],"outputs":[],"stateMutability":"nonpayable"},{"type":"function","name":"setStakingContract","inputs":[{"name":"_stakingContract","type":"address","internalType":"address"}],"outputs":[],"stateMutability":"nonpayable"},{"type":"function","name":"stakingContract","inputs":[],"outputs":[{"name":"","type":"address","internalType":"contract ISuiteStaking"}],"stateMutability":"view"},{"type":"function","name":"suiteToken","inputs":[],"outputs":[{"name":"","type":"address","internalType":"contract IERC20"}],"stateMutability":"view"},{"type":"function","name":"totalCredits","inputs":[],"outputs":[{"name":"","type":"uint256","internalType":"uint256"}],"stateMutability":"view"},{"type":"function","name":"transferOwnership","inputs":[{"name":"newOwner","type":"address","internalType":"address"}],"outputs":[],"stateMutability":"nonpayable"},{"type":"function","name":"usdc","inputs":[],"outputs":[{"name":"","type":"address","internalType":"contract IERC20"}],"stateMutability":"view"},{"type":"function","name":"userCredits","inputs":[{"name":"user","type":"address","internalType":"address"}],"outputs":[{"name":"","type":"uint256","internalType":"uint256"}],"stateMutability":"view"},{"type":"function","name":"userRewardPerTokenPaid","inputs":[{"name":"","type":"address","internalType":"address"}],"outputs":[{"name":"","type":"uint256","internalType":"uint256"}],"stateMutability":"view"},{"type":"event","name":"OwnershipTransferred","inputs":[{"name":"previousOwner","type":"address","indexed":true,"internalType":"address"},{"name":"newOwner","type":"address","indexed":true,"internalType":"address"}],"anonymous":false},{"type":"event","name":"RewardAdded","inputs":[{"name":"reward","type":"uint256","indexed":false,"internalType":"uint256"},{"name":"depositor","type":"address","indexed":true,"internalType":"address"}],"anonymous":false},{"type":"event","name":"RewardClaimedAsUsdc","inputs":[{"name":"user","type":"address","indexed":true,"internalType":"address"},{"name":"amount","type":"uint256","indexed":false,"internalType":"uint256"}],"anonymous":false},{"type":"event","name":"RewardsDurationUpdated","inputs":[{"name":"newDuration","type":"uint256","indexed":false,"internalType":"uint256"}],"anonymous":false},{"type":"error","name":"NoRewardsToClaim","inputs":[]},{"type":"error","name":"OwnableInvalidOwner","inputs":[{"name":"owner","type":"address","internalType":"address"}]},{"type":"error","name":"OwnableUnauthorizedAccount","inputs":[{"name":"account","type":"address","internalType":"address"}]},{"type":"error","name":"ReentrancyGuardReentrantCall","inputs":[]},{"type":"error","name":"RewardPeriodNotFinished","inputs":[]},{"type":"error","name":"RewardTooHigh","inputs":[]},{"type":"error","name":"SafeERC20FailedOperation","inputs":[{"name":"token","type":"address","internalType":"address"}]},{"type":"error","name":"ZeroAddress","inputs":[]},{"type":"error","name":"ZeroAmount","inputs":[]}],"bytecode":{"object":"0x608060405262278d0060065534801562000017575f80fd5b5060405162000e9c38038062000e9c8339810160408190526200003a9162000178565b806001600160a01b0381166200006957604051631e4fbdf760e01b81525f600482015260240160405180910390fd5b62000074816200010d565b50600180556001600160a01b03841615806200009757506001600160a01b038316155b80620000aa57506001600160a01b038216155b15620000c95760405163d92e233d60e01b815260040160405180910390fd5b50600280546001600160a01b039485166001600160a01b031991821617909155600380549385169382169390931790925560048054919093169116179055620001d2565b5f80546001600160a01b038381166001600160a01b0319831681178455604051919092169283917f8be0079c531659141344cd1fd0a4f28419497f9722a3daafe3b4186f6b6457e09190a35050565b80516001600160a01b038116811462000173575f80fd5b919050565b5f805f80608085870312156200018c575f80fd5b62000197856200015c565b9350620001a7602086016200015c565b9250620001b7604086016200015c565b9150620001c7606086016200015c565b905092959194509250565b610cbc80620001e05f395ff3fe608060405234801561000f575f80fd5b5060043610610152575f3560e01c80638bdf67f2116100bf578063cc1a378f11610079578063cc1a378f14610299578063cd3daf9d146102ac578063df136d65146102b4578063ebe2b12b146102bd578063ee99205c146102c6578063f2fde38b146102d9575f80fd5b80638bdf67f21461023f5780638da5cb5b146102525780639dd373b914610262578063a22b6e8f14610275578063b5bd3eb914610288578063c8f33c9114610290575f80fd5b80633e413bee116101105780633e413bee146101c9578063715018a6146101f45780637b0a47ee146101fc57806380faa57d146102055780638980f11f1461020d5780638b87634714610220575f80fd5b80628cc262146101565780630700037d1461017c5780631c1f78eb1461019b5780631d6ee8eb146101a357806320babb92146101ad578063386a9525146101c0575b5f80fd5b610169610164366004610ba0565b6102ec565b6040519081526020015b60405180910390f35b61016961018a366004610ba0565b600b6020525f908152604090205481565b610169610358565b6101ab61036e565b005b6101696101bb366004610ba0565b61046a565b61016960065481565b6002546101dc906001600160a01b031681565b6040516001600160a01b039091168152602001610173565b6101ab6104db565b61016960055481565b6101696104ec565b6101ab61021b366004610bc0565b610502565b61016961022e366004610ba0565b600a6020525f908152604090205481565b6101ab61024d366004610be8565b610596565b5f546001600160a01b03166101dc565b6101ab610270366004610ba0565b610782565b6003546101dc906001600160a01b031681565b6101696107d3565b61016960085481565b6101ab6102a7366004610be8565b6108c4565b61016961092a565b61016960095481565b61016960075481565b6004546101dc906001600160a01b031681565b6101ab6102e7366004610ba0565b610997565b6001600160a01b0381165f908152600b6020908152604080832054600a909252822054670de0b6b3a76400009061032161092a565b61032b9190610c13565b6103348561046a565b61033e9190610c26565b6103489190610c3d565b6103529190610c5c565b92915050565b5f6006546005546103699190610c26565b905090565b6103766109d1565b3361037f61092a565b60095561038a6104ec565b6008556001600160a01b038116156103d0576103a5816102ec565b6001600160a01b0382165f908152600b6020908152604080832093909355600954600a909152919020555b335f908152600b602052604081205490819003610400576040516373380d9960e01b815260040160405180910390fd5b335f818152600b6020526040812055600254610428916001600160a01b0390911690836109fb565b60405181815233907f5947641a404be06d49cc76ec6124b76cda88fe99bca43a7957e0caf12b11219c9060200160405180910390a2505061046860018055565b565b60048054604051636644d00960e11b81526001600160a01b03848116938201939093525f929091169063cc89a01290602401602060405180830381865afa1580156104b7573d5f803e3d5ffd5b505050506040513d601f19601f820116820180604052508101906103529190610c6f565b6104e3610a5f565b6104685f610a8b565b5f60075442106104fd575060075490565b504290565b61050a610a5f565b6002546001600160a01b039081169083160361056d5760405162461bcd60e51b815260206004820152601c60248201527f43616e6e6f742077697468647261772072657761726420746f6b656e0000000060448201526064015b60405180910390fd5b6105926105815f546001600160a01b031690565b6001600160a01b03841690836109fb565b5050565b61059e6109d1565b5f6105a761092a565b6009556105b26104ec565b6008556001600160a01b038116156105f8576105cd816102ec565b6001600160a01b0382165f908152600b6020908152604080832093909355600954600a909152919020555b815f0361061857604051631f2a200560e01b815260040160405180910390fd5b600254610630906001600160a01b0316333085610ada565b600754421061064e576006546106469083610c3d565b60055561068e565b5f4260075461065d9190610c13565b90505f6005548261066e9190610c26565b60065490915061067e8286610c5c565b6106889190610c3d565b60055550505b6002546040516370a0823160e01b81523060048201525f916001600160a01b0316906370a0823190602401602060405180830381865afa1580156106d4573d5f803e3d5ffd5b505050506040513d601f19601f820116820180604052508101906106f89190610c6f565b9050600654816107089190610c3d565b600554111561072a5760405163474c247160e01b815260040160405180910390fd5b42600881905560065461073c91610c5c565b60075560405183815233907ffb5edb6eb340a01f6a67189edc978df97841c43752c212fc85995ea2300176359060200160405180910390a2505061077f60018055565b50565b61078a610a5f565b6001600160a01b0381166107b15760405163d92e233d60e01b815260040160405180910390fd5b600480546001600160a01b0319166001600160a01b0392909216919091179055565b5f60045f9054906101000a90046001600160a01b03166001600160a01b031663daba3e2a6040518163ffffffff1660e01b8152600401602060405180830381865afa158015610824573d5f803e3d5ffd5b505050506040513d601f19601f820116820180604052508101906108489190610c6f565b600354600480546040516370a0823160e01b81526001600160a01b0391821692810192909252909116906370a0823190602401602060405180830381865afa158015610896573d5f803e3d5ffd5b505050506040513d601f19601f820116820180604052508101906108ba9190610c6f565b6103699190610c5c565b6108cc610a5f565b6007544210156108ef57604051639634abc160e01b815260040160405180910390fd5b60068190556040518181527ffb46ca5a5e06d4540d6387b930a7c978bce0db5f449ec6b3f5d07c6e1d44f2d39060200160405180910390a150565b5f806109346107d3565b9050805f0361094557505060095490565b806005546008546109546104ec565b61095e9190610c13565b6109689190610c26565b61097a90670de0b6b3a7640000610c26565b6109849190610c3d565b6009546109919190610c5c565b91505090565b61099f610a5f565b6001600160a01b0381166109c857604051631e4fbdf760e01b81525f6004820152602401610564565b61077f81610a8b565b6002600154036109f457604051633ee5aeb560e01b815260040160405180910390fd5b6002600155565b6040516001600160a01b03838116602483015260448201839052610a5a91859182169063a9059cbb906064015b604051602081830303815290604052915060e01b6020820180516001600160e01b038381831617835250505050610b19565b505050565b5f546001600160a01b031633146104685760405163118cdaa760e01b8152336004820152602401610564565b5f80546001600160a01b038381166001600160a01b0319831681178455604051919092169283917f8be0079c531659141344cd1fd0a4f28419497f9722a3daafe3b4186f6b6457e09190a35050565b6040516001600160a01b038481166024830152838116604483015260648201839052610b139186918216906323b872dd90608401610a28565b50505050565b5f8060205f8451602086015f885af180610b38576040513d5f823e3d81fd5b50505f513d91508115610b4f578060011415610b5c565b6001600160a01b0384163b155b15610b1357604051635274afe760e01b81526001600160a01b0385166004820152602401610564565b80356001600160a01b0381168114610b9b575f80fd5b919050565b5f60208284031215610bb0575f80fd5b610bb982610b85565b9392505050565b5f8060408385031215610bd1575f80fd5b610bda83610b85565b946020939093013593505050565b5f60208284031215610bf8575f80fd5b5035919050565b634e487b7160e01b5f52601160045260245ffd5b8181038181111561035257610352610bff565b808202811582820484141761035257610352610bff565b5f82610c5757634e487b7160e01b5f52601260045260245ffd5b500490565b8082018082111561035257610352610bff565b5f60208284031215610c7f575f80fd5b505191905056fea2646970667358221220456c67dd41022369968b582e267eb1d43af0140741c53fd7a74db0d99b7f8d1664736f6c63430008140033","linkReferences":{}},"methodIdentifiers":{"claimUsdc()":"1d6ee8eb","depositRewards(uint256)":"8bdf67f2","earned(address)":"008cc262","getRewardForDuration()":"1c1f78eb","lastTimeRewardApplicable()":"80faa57d","lastUpdateTime()":"c8f33c91","owner()":"8da5cb5b","periodFinish()":"ebe2b12b","recoverERC20(address,uint256)":"8980f11f","renounceOwnership()":"715018a6","rewardPerToken()":"cd3daf9d","rewardPerTokenStored()":"df136d65","rewardRate()":"7b0a47ee","rewards(address)":"0700037d","rewardsDuration()":"386a9525","setRewardsDuration(uint256)":"cc1a378f","setStakingContract(address)":"9dd373b9","stakingContract()":"ee99205c","suiteToken()":"a22b6e8f","totalCredits()":"b5bd3eb9","transferOwnership(address)":"f2fde38b","usdc()":"3e413bee","userCredits(address)":"20babb92","userRewardPerTokenPaid(address)":"8b876347"},"id":71}