{"abi":[{"type":"constructor","inputs":[{"name":"_usdc","type":"address","internalType":"address"},{"name":"_suiteToken","type":"address","internalType":"address"},{"name":"_stakingContract","type":"address","internalType":"address"},{"name":"_owner","type":"address","internalType":"address"}],"stateMutability":"nonpayable"},{"type":"function","name":"claimAndCompound","inputs":[],"outputs":[],"stateMutability":"nonpayable"},{"type":"function","name":"claimUsdc","inputs":[],"outputs":[],"stateMutability":"nonpayable"},{"type":"function","name":"depositRewards","inputs":[{"name":"amount","type":"uint256","internalType":"uint256"}],"outputs":[],"stateMutability":"nonpayable"},{"type":"function","name":"earned","inputs":[{"name":"user","type":"address","internalType":"address"}],"outputs":[{"name":"","type":"uint256","internalType":"uint256"}],"stateMutability":"view"},{"type":"function","name":"getRewardForDuration","inputs":[],"outputs":[{"name":"","type":"uint256","internalType":"uint256"}],"stateMutability":"view"},{"type":"function","name":"lastTimeRewardApplicable","inputs":[],"outputs":[{"name":"","type":"uint256","internalType":"uint256"}],"stateMutability":"view"},{"type":"function","name":"lastUpdateTime","inputs":[],"outputs":[{"name":"","type":"uint256","internalType":"uint256"}],"stateMutability":"view"},{"type":"function","name":"owner","inputs":[],"outputs":[{"name":"","type":"address","internalType":"address"}],"stateMutability":"view"},{"type":"function","name":"periodFinish","inputs":[],"outputs":[{"name":"","type":"uint256","internalType":"uint256"}],"stateMutability":"view"},{"type":"function","name":"recoverERC20","inputs":[{"name":"tokenAddress","type":"address","internalType":"address"},{"name":"tokenAmount","type":"uint256","internalType":"uint256"}],"outputs":[],"stateMutability":"nonpayable"},{"type":"function","name":"renounceOwnership","inputs":[],"outputs":[],"stateMutability":"nonpayable"},{"type":"function","name":"rewardPerToken","inputs":[],"outputs":[{"name":"","type":"uint256","internalType":"uint256"}],"stateMutability":"view"},{"type":"function","name":"rewardPerTokenStored","inputs":[],"outputs":[{"name":"","type":"uint256","internalType":"uint256"}],"stateMutability":"view"},{"type":"function","name":"rewardRate","inputs":[],"outputs":[{"name":"","type":"uint256","internalType":"uint256"}],"stateMutability":"view"},{"type":"function","name":"rewards","inputs":[{"name":"","type":"address","internalType":"address"}],"outputs":[{"name":"","type":"uint256","internalType":"uint256"}],"stateMutability":"view"},{"type":"function","name":"rewardsDuration","inputs":[],"outputs":[{"name":"","type":"uint256","internalType":"uint256"}],"stateMutability":"view"},{"type":"function","name":"setRewardsDuration","inputs":[{"name":"_rewardsDuration","type":"uint256","internalType":"uint256"}],"outputs":[],"stateMutability":"nonpayable"},{"type":"function","name":"setStakingContract","inputs":[{"name":"_stakingContract","type":"address","internalType":"address"}],"outputs":[],"stateMutability":"nonpayable"},{"type":"function","name":"stakedBalance","inputs":[{"name":"user","type":"address","internalType":"address"}],"outputs":[{"name":"","type":"uint256","internalType":"uint256"}],"stateMutability":"view"},{"type":"function","name":"stakingContract","inputs":[],"outputs":[{"name":"","type":"address","internalType":"contract ISuiteStaking"}],"stateMutability":"view"},{"type":"function","name":"suiteToken","inputs":[],"outputs":[{"name":"","type":"address","internalType":"contract IERC20"}],"stateMutability":"view"},{"type":"function","name":"totalStaked","inputs":[],"outputs":[{"name":"","type":"uint256","internalType":"uint256"}],"stateMutability":"view"},{"type":"function","name":"transferOwnership","inputs":[{"name":"newOwner","type":"address","internalType":"address"}],"outputs":[],"stateMutability":"nonpayable"},{"type":"function","name":"usdc","inputs":[],"outputs":[{"name":"","type":"address","internalType":"contract IERC20"}],"stateMutability":"view"},{"type":"function","name":"userRewardPerTokenPaid","inputs":[{"name":"","type":"address","internalType":"address"}],"outputs":[{"name":"","type":"uint256","internalType":"uint256"}],"stateMutability":"view"},{"type":"event","name":"OwnershipTransferred","inputs":[{"name":"previousOwner","type":"address","indexed":true,"internalType":"address"},{"name":"newOwner","type":"address","indexed":true,"internalType":"address"}],"anonymous":false},{"type":"event","name":"RewardAdded","inputs":[{"name":"reward","type":"uint256","indexed":false,"internalType":"uint256"},{"name":"depositor","type":"address","indexed":true,"internalType":"address"}],"anonymous":false},{"type":"event","name":"RewardClaimedAsUsdc","inputs":[{"name":"user","type":"address","indexed":true,"internalType":"address"},{"name":"amount","type":"uint256","indexed":false,"internalType":"uint256"}],"anonymous":false},{"type":"event","name":"RewardCompounded","inputs":[{"name":"user","type":"address","indexed":true,"internalType":"address"},{"name":"usdcAmount","type":"uint256","indexed":false,"internalType":"uint256"},{"name":"creditsAdded","type":"uint256","indexed":false,"internalType":"uint256"}],"anonymous":false},{"type":"event","name":"RewardsDurationUpdated","inputs":[{"name":"newDuration","type":"uint256","indexed":false,"internalType":"uint256"}],"anonymous":false},{"type":"error","name":"NoRewardsToClaim","inputs":[]},{"type":"error","name":"OwnableInvalidOwner","inputs":[{"name":"owner","type":"address","internalType":"address"}]},{"type":"error","name":"OwnableUnauthorizedAccount","inputs":[{"name":"account","type":"address","internalType":"address"}]},{"type":"error","name":"ReentrancyGuardReentrantCall","inputs":[]},{"type":"error","name":"RewardPeriodNotFinished","inputs":[]},{"type":"error","name":"RewardTooHigh","inputs":[]},{"type":"error","name":"SafeERC20FailedOperation","inputs":[{"name":"token","type":"address","internalType":"address"}]},{"type":"error","name":"ZeroAddress","inputs":[]},{"type":"error","name":"ZeroAmount","inputs":[]}],"bytecode":{"object":"0x608060405262093a8060065534801562000017575f80fd5b5060405162001044380380620010448339810160408190526200003a9162000178565b806001600160a01b0381166200006957604051631e4fbdf760e01b81525f600482015260240160405180910390fd5b62000074816200010d565b50600180556001600160a01b03841615806200009757506001600160a01b038316155b80620000aa57506001600160a01b038216155b15620000c95760405163d92e233d60e01b815260040160405180910390fd5b50600280546001600160a01b039485166001600160a01b031991821617909155600380549385169382169390931790925560048054919093169116179055620001d2565b5f80546001600160a01b038381166001600160a01b0319831681178455604051919092169283917f8be0079c531659141344cd1fd0a4f28419497f9722a3daafe3b4186f6b6457e09190a35050565b80516001600160a01b038116811462000173575f80fd5b919050565b5f805f80608085870312156200018c575f80fd5b62000197856200015c565b9350620001a7602086016200015c565b9250620001b7604086016200015c565b9150620001c7606086016200015c565b905092959194509250565b610e6480620001e05f395ff3fe608060405234801561000f575f80fd5b506004361061016c575f3560e01c80638b876347116100d9578063c8f33c9111610093578063df136d651161006e578063df136d65146102d6578063ebe2b12b146102df578063ee99205c146102e8578063f2fde38b146102fb575f80fd5b8063c8f33c91146102b2578063cc1a378f146102bb578063cd3daf9d146102ce575f80fd5b80638b876347146102425780638bdf67f2146102615780638da5cb5b146102745780639b1650e3146102845780639dd373b91461028c578063a22b6e8f1461029f575f80fd5b8063602172671161012a57806360217267146101fb578063715018a61461020e5780637b0a47ee1461021657806380faa57d1461021f578063817b1cd2146102275780638980f11f1461022f575f80fd5b80628cc262146101705780630700037d146101965780631c1f78eb146101b55780631d6ee8eb146101bd578063386a9525146101c75780633e413bee146101d0575b5f80fd5b61018361017e366004610d29565b61030e565b6040519081526020015b60405180910390f35b6101836101a4366004610d29565b600b6020525f908152604090205481565b61018361037a565b6101c5610390565b005b61018360065481565b6002546101e3906001600160a01b031681565b6040516001600160a01b03909116815260200161018d565b610183610209366004610d29565b61048c565b6101c56104fd565b61018360055481565b61018361050e565b610183610524565b6101c561023d366004610d49565b610596565b610183610250366004610d29565b600a6020525f908152604090205481565b6101c561026f366004610d71565b61062a565b5f546001600160a01b03166101e3565b6101c5610816565b6101c561029a366004610d29565b6109fc565b6003546101e3906001600160a01b031681565b61018360085481565b6101c56102c9366004610d71565b610a4d565b610183610ab3565b61018360095481565b61018360075481565b6004546101e3906001600160a01b031681565b6101c5610309366004610d29565b610b20565b6001600160a01b0381165f908152600b6020908152604080832054600a909252822054670de0b6b3a764000090610343610ab3565b61034d9190610d9c565b6103568561048c565b6103609190610daf565b61036a9190610dc6565b6103749190610de5565b92915050565b5f60065460055461038b9190610daf565b905090565b610398610b5a565b336103a1610ab3565b6009556103ac61050e565b6008556001600160a01b038116156103f2576103c78161030e565b6001600160a01b0382165f908152600b6020908152604080832093909355600954600a909152919020555b335f908152600b602052604081205490819003610422576040516373380d9960e01b815260040160405180910390fd5b335f818152600b602052604081205560025461044a916001600160a01b039091169083610b84565b60405181815233907f5947641a404be06d49cc76ec6124b76cda88fe99bca43a7957e0caf12b11219c9060200160405180910390a2505061048a60018055565b565b60048054604051636021726760e01b81526001600160a01b03848116938201939093525f9290911690636021726790602401602060405180830381865afa1580156104d9573d5f803e3d5ffd5b505050506040513d601f19601f820116820180604052508101906103749190610df8565b610505610be8565b61048a5f610c14565b5f600754421061051f575060075490565b504290565b600354600480546040516370a0823160e01b81526001600160a01b03918216928101929092525f9216906370a0823190602401602060405180830381865afa158015610572573d5f803e3d5ffd5b505050506040513d601f19601f8201168201806040525081019061038b9190610df8565b61059e610be8565b6002546001600160a01b03908116908316036106015760405162461bcd60e51b815260206004820152601c60248201527f43616e6e6f742077697468647261772072657761726420746f6b656e0000000060448201526064015b60405180910390fd5b6106266106155f546001600160a01b031690565b6001600160a01b0384169083610b84565b5050565b610632610b5a565b5f61063b610ab3565b60095561064661050e565b6008556001600160a01b0381161561068c576106618161030e565b6001600160a01b0382165f908152600b6020908152604080832093909355600954600a909152919020555b815f036106ac57604051631f2a200560e01b815260040160405180910390fd5b6002546106c4906001600160a01b0316333085610c63565b60075442106106e2576006546106da9083610dc6565b600555610722565b5f426007546106f19190610d9c565b90505f600554826107029190610daf565b6006549091506107128286610de5565b61071c9190610dc6565b60055550505b6002546040516370a0823160e01b81523060048201525f916001600160a01b0316906370a0823190602401602060405180830381865afa158015610768573d5f803e3d5ffd5b505050506040513d601f19601f8201168201806040525081019061078c9190610df8565b90506006548161079c9190610dc6565b60055411156107be5760405163474c247160e01b815260040160405180910390fd5b4260088190556006546107d091610de5565b60075560405183815233907ffb5edb6eb340a01f6a67189edc978df97841c43752c212fc85995ea2300176359060200160405180910390a2505061081360018055565b50565b61081e610b5a565b33610827610ab3565b60095561083261050e565b6008556001600160a01b038116156108785761084d8161030e565b6001600160a01b0382165f908152600b6020908152604080832093909355600954600a909152919020555b335f908152600b6020526040812054908190036108a8576040516373380d9960e01b815260040160405180910390fd5b335f908152600b60205260408082209190915560025460048054925163095ea7b360e01b81526001600160a01b03938416918101919091526024810184905291169063095ea7b3906044016020604051808303815f875af115801561090f573d5f803e3d5ffd5b505050506040513d601f19601f820116820180604052508101906109339190610e0f565b5060048054604051637a7eff1b60e01b81523392810192909252602482018390526001600160a01b031690637a7eff1b906044015f604051808303815f87803b15801561097e575f80fd5b505af1158015610990573d5f803e3d5ffd5b505050505f816103e86109a39190610daf565b6109b29064e8d4a51000610daf565b604080518481526020810183905291925033917f713df1dd9e3a2f94b02f31d13a23fac9151b529a400d2960d29be7e67b09f7cf910160405180910390a250505061048a60018055565b610a04610be8565b6001600160a01b038116610a2b5760405163d92e233d60e01b815260040160405180910390fd5b600480546001600160a01b0319166001600160a01b0392909216919091179055565b610a55610be8565b600754421015610a7857604051639634abc160e01b815260040160405180910390fd5b60068190556040518181527ffb46ca5a5e06d4540d6387b930a7c978bce0db5f449ec6b3f5d07c6e1d44f2d39060200160405180910390a150565b5f80610abd610524565b9050805f03610ace57505060095490565b80600554600854610add61050e565b610ae79190610d9c565b610af19190610daf565b610b0390670de0b6b3a7640000610daf565b610b0d9190610dc6565b600954610b1a9190610de5565b91505090565b610b28610be8565b6001600160a01b038116610b5157604051631e4fbdf760e01b81525f60048201526024016105f8565b61081381610c14565b600260015403610b7d57604051633ee5aeb560e01b815260040160405180910390fd5b6002600155565b6040516001600160a01b03838116602483015260448201839052610be391859182169063a9059cbb906064015b604051602081830303815290604052915060e01b6020820180516001600160e01b038381831617835250505050610ca2565b505050565b5f546001600160a01b0316331461048a5760405163118cdaa760e01b81523360048201526024016105f8565b5f80546001600160a01b038381166001600160a01b0319831681178455604051919092169283917f8be0079c531659141344cd1fd0a4f28419497f9722a3daafe3b4186f6b6457e09190a35050565b6040516001600160a01b038481166024830152838116604483015260648201839052610c9c9186918216906323b872dd90608401610bb1565b50505050565b5f8060205f8451602086015f885af180610cc1576040513d5f823e3d81fd5b50505f513d91508115610cd8578060011415610ce5565b6001600160a01b0384163b155b15610c9c57604051635274afe760e01b81526001600160a01b03851660048201526024016105f8565b80356001600160a01b0381168114610d24575f80fd5b919050565b5f60208284031215610d39575f80fd5b610d4282610d0e565b9392505050565b5f8060408385031215610d5a575f80fd5b610d6383610d0e565b946020939093013593505050565b5f60208284031215610d81575f80fd5b5035919050565b634e487b7160e01b5f52601160045260245ffd5b8181038181111561037457610374610d88565b808202811582820484141761037457610374610d88565b5f82610de057634e487b7160e01b5f52601260045260245ffd5b500490565b8082018082111561037457610374610d88565b5f60208284031215610e08575f80fd5b5051919050565b5f60208284031215610e1f575f80fd5b81518015158114610d42575f80fdfea26469706673582212201c30636718a47c7e9d93138cce1ed8c2138bdd71fbdd19ea504757742a7c1ea064736f6c63430008140033","linkReferences":{}},"methodIdentifiers":{"claimAndCompound()":"9b1650e3","claimUsdc()":"1d6ee8eb","depositRewards(uint256)":"8bdf67f2","earned(address)":"008cc262","getRewardForDuration()":"1c1f78eb","lastTimeRewardApplicable()":"80faa57d","lastUpdateTime()":"c8f33c91","owner()":"8da5cb5b","periodFinish()":"ebe2b12b","recoverERC20(address,uint256)":"8980f11f","renounceOwnership()":"715018a6","rewardPerToken()":"cd3daf9d","rewardPerTokenStored()":"df136d65","rewardRate()":"7b0a47ee","rewards(address)":"0700037d","rewardsDuration()":"386a9525","setRewardsDuration(uint256)":"cc1a378f","setStakingContract(address)":"9dd373b9","stakedBalance(address)":"60217267","stakingContract()":"ee99205c","suiteToken()":"a22b6e8f","totalStaked()":"817b1cd2","transferOwnership(address)":"f2fde38b","usdc()":"3e413bee","userRewardPerTokenPaid(address)":"8b876347"},"id":34}