{"abi":[{"type":"constructor","inputs":[],"stateMutability":"nonpayable"},{"type":"function","name":"AI_PACK","inputs":[],"outputs":[{"name":"","type":"uint256","internalType":"uint256"}],"stateMutability":"view"},{"type":"function","name":"APP_SLOT","inputs":[],"outputs":[{"name":"","type":"uint256","internalType":"uint256"}],"stateMutability":"view"},{"type":"function","name":"DOUBLE_EARN","inputs":[],"outputs":[{"name":"","type":"uint256","internalType":"uint256"}],"stateMutability":"view"},{"type":"function","name":"FEATURED_WEEK","inputs":[],"outputs":[{"name":"","type":"uint256","internalType":"uint256"}],"stateMutability":"view"},{"type":"function","name":"PRIORITY_QUEUE","inputs":[],"outputs":[{"name":"","type":"uint256","internalType":"uint256"}],"stateMutability":"view"},{"type":"function","name":"balanceOf","inputs":[{"name":"account","type":"address","internalType":"address"},{"name":"id","type":"uint256","internalType":"uint256"}],"outputs":[{"name":"","type":"uint256","internalType":"uint256"}],"stateMutability":"view"},{"type":"function","name":"balanceOfBatch","inputs":[{"name":"accounts","type":"address[]","internalType":"address[]"},{"name":"ids","type":"uint256[]","internalType":"uint256[]"}],"outputs":[{"name":"","type":"uint256[]","internalType":"uint256[]"}],"stateMutability":"view"},{"type":"function","name":"boostNames","inputs":[{"name":"","type":"uint256","internalType":"uint256"}],"outputs":[{"name":"","type":"string","internalType":"string"}],"stateMutability":"view"},{"type":"function","name":"burn","inputs":[{"name":"account","type":"address","internalType":"address"},{"name":"id","type":"uint256","internalType":"uint256"},{"name":"value","type":"uint256","internalType":"uint256"}],"outputs":[],"stateMutability":"nonpayable"},{"type":"function","name":"burnBatch","inputs":[{"name":"account","type":"address","internalType":"address"},{"name":"ids","type":"uint256[]","internalType":"uint256[]"},{"name":"values","type":"uint256[]","internalType":"uint256[]"}],"outputs":[],"stateMutability":"nonpayable"},{"type":"function","name":"exists","inputs":[{"name":"id","type":"uint256","internalType":"uint256"}],"outputs":[{"name":"","type":"bool","internalType":"bool"}],"stateMutability":"view"},{"type":"function","name":"getAllBoostBalances","inputs":[{"name":"account","type":"address","internalType":"address"}],"outputs":[{"name":"","type":"uint256[5]","internalType":"uint256[5]"}],"stateMutability":"view"},{"type":"function","name":"hasAnyBoost","inputs":[{"name":"account","type":"address","internalType":"address"}],"outputs":[{"name":"","type":"bool","internalType":"bool"}],"stateMutability":"view"},{"type":"function","name":"isApprovedForAll","inputs":[{"name":"account","type":"address","internalType":"address"},{"name":"operator","type":"address","internalType":"address"}],"outputs":[{"name":"","type":"bool","internalType":"bool"}],"stateMutability":"view"},{"type":"function","name":"mint","inputs":[{"name":"to","type":"address","internalType":"address"},{"name":"boostType","type":"uint256","internalType":"uint256"},{"name":"amount","type":"uint256","internalType":"uint256"}],"outputs":[],"stateMutability":"nonpayable"},{"type":"function","name":"mintBatch","inputs":[{"name":"to","type":"address","internalType":"address"},{"name":"boostTypes","type":"uint256[]","internalType":"uint256[]"},{"name":"amounts","type":"uint256[]","internalType":"uint256[]"}],"outputs":[],"stateMutability":"nonpayable"},{"type":"function","name":"owner","inputs":[],"outputs":[{"name":"","type":"address","internalType":"address"}],"stateMutability":"view"},{"type":"function","name":"redeem","inputs":[{"name":"boostType","type":"uint256","internalType":"uint256"},{"name":"amount","type":"uint256","internalType":"uint256"}],"outputs":[],"stateMutability":"nonpayable"},{"type":"function","name":"renounceOwnership","inputs":[],"outputs":[],"stateMutability":"nonpayable"},{"type":"function","name":"safeBatchTransferFrom","inputs":[{"name":"from","type":"address","internalType":"address"},{"name":"to","type":"address","internalType":"address"},{"name":"ids","type":"uint256[]","internalType":"uint256[]"},{"name":"values","type":"uint256[]","internalType":"uint256[]"},{"name":"data","type":"bytes","internalType":"bytes"}],"outputs":[],"stateMutability":"nonpayable"},{"type":"function","name":"safeTransferFrom","inputs":[{"name":"from","type":"address","internalType":"address"},{"name":"to","type":"address","internalType":"address"},{"name":"id","type":"uint256","internalType":"uint256"},{"name":"value","type":"uint256","internalType":"uint256"},{"name":"data","type":"bytes","internalType":"bytes"}],"outputs":[],"stateMutability":"nonpayable"},{"type":"function","name":"setApprovalForAll","inputs":[{"name":"operator","type":"address","internalType":"address"},{"name":"approved","type":"bool","internalType":"bool"}],"outputs":[],"stateMutability":"nonpayable"},{"type":"function","name":"setURI","inputs":[{"name":"newuri","type":"string","internalType":"string"}],"outputs":[],"stateMutability":"nonpayable"},{"type":"function","name":"supportsInterface","inputs":[{"name":"interfaceId","type":"bytes4","internalType":"bytes4"}],"outputs":[{"name":"","type":"bool","internalType":"bool"}],"stateMutability":"view"},{"type":"function","name":"totalMinted","inputs":[{"name":"","type":"uint256","internalType":"uint256"}],"outputs":[{"name":"","type":"uint256","internalType":"uint256"}],"stateMutability":"view"},{"type":"function","name":"totalSupply","inputs":[],"outputs":[{"name":"","type":"uint256","internalType":"uint256"}],"stateMutability":"view"},{"type":"function","name":"totalSupply","inputs":[{"name":"id","type":"uint256","internalType":"uint256"}],"outputs":[{"name":"","type":"uint256","internalType":"uint256"}],"stateMutability":"view"},{"type":"function","name":"transferOwnership","inputs":[{"name":"newOwner","type":"address","internalType":"address"}],"outputs":[],"stateMutability":"nonpayable"},{"type":"function","name":"uri","inputs":[{"name":"","type":"uint256","internalType":"uint256"}],"outputs":[{"name":"","type":"string","internalType":"string"}],"stateMutability":"view"},{"type":"event","name":"ApprovalForAll","inputs":[{"name":"account","type":"address","indexed":true,"internalType":"address"},{"name":"operator","type":"address","indexed":true,"internalType":"address"},{"name":"approved","type":"bool","indexed":false,"internalType":"bool"}],"anonymous":false},{"type":"event","name":"BoostMinted","inputs":[{"name":"to","type":"address","indexed":true,"internalType":"address"},{"name":"boostType","type":"uint256","indexed":true,"internalType":"uint256"},{"name":"amount","type":"uint256","indexed":false,"internalType":"uint256"}],"anonymous":false},{"type":"event","name":"BoostRedeemed","inputs":[{"name":"from","type":"address","indexed":true,"internalType":"address"},{"name":"boostType","type":"uint256","indexed":true,"internalType":"uint256"},{"name":"amount","type":"uint256","indexed":false,"internalType":"uint256"}],"anonymous":false},{"type":"event","name":"OwnershipTransferred","inputs":[{"name":"previousOwner","type":"address","indexed":true,"internalType":"address"},{"name":"newOwner","type":"address","indexed":true,"internalType":"address"}],"anonymous":false},{"type":"event","name":"TransferBatch","inputs":[{"name":"operator","type":"address","indexed":true,"internalType":"address"},{"name":"from","type":"address","indexed":true,"internalType":"address"},{"name":"to","type":"address","indexed":true,"internalType":"address"},{"name":"ids","type":"uint256[]","indexed":false,"internalType":"uint256[]"},{"name":"values","type":"uint256[]","indexed":false,"internalType":"uint256[]"}],"anonymous":false},{"type":"event","name":"TransferSingle","inputs":[{"name":"operator","type":"address","indexed":true,"internalType":"address"},{"name":"from","type":"address","indexed":true,"internalType":"address"},{"name":"to","type":"address","indexed":true,"internalType":"address"},{"name":"id","type":"uint256","indexed":false,"internalType":"uint256"},{"name":"value","type":"uint256","indexed":false,"internalType":"uint256"}],"anonymous":false},{"type":"event","name":"URI","inputs":[{"name":"value","type":"string","indexed":false,"internalType":"string"},{"name":"id","type":"uint256","indexed":true,"internalType":"uint256"}],"anonymous":false},{"type":"error","name":"ERC1155InsufficientBalance","inputs":[{"name":"sender","type":"address","internalType":"address"},{"name":"balance","type":"uint256","internalType":"uint256"},{"name":"needed","type":"uint256","internalType":"uint256"},{"name":"tokenId","type":"uint256","internalType":"uint256"}]},{"type":"error","name":"ERC1155InvalidApprover","inputs":[{"name":"approver","type":"address","internalType":"address"}]},{"type":"error","name":"ERC1155InvalidArrayLength","inputs":[{"name":"idsLength","type":"uint256","internalType":"uint256"},{"name":"valuesLength","type":"uint256","internalType":"uint256"}]},{"type":"error","name":"ERC1155InvalidOperator","inputs":[{"name":"operator","type":"address","internalType":"address"}]},{"type":"error","name":"ERC1155InvalidReceiver","inputs":[{"name":"receiver","type":"address","internalType":"address"}]},{"type":"error","name":"ERC1155InvalidSender","inputs":[{"name":"sender","type":"address","internalType":"address"}]},{"type":"error","name":"ERC1155MissingApprovalForAll","inputs":[{"name":"operator","type":"address","internalType":"address"},{"name":"owner","type":"address","internalType":"address"}]},{"type":"error","name":"OwnableInvalidOwner","inputs":[{"name":"owner","type":"address","internalType":"address"}]},{"type":"error","name":"OwnableUnauthorizedAccount","inputs":[{"name":"account","type":"address","internalType":"address"}]}],"bytecode":{"object":"0x608060405234801562000010575f80fd5b50336040518060600160405280603081526020016200229c60309139620000378162000243565b506001600160a01b0381166200006657604051631e4fbdf760e01b81525f600482015260240160405180910390fd5b620000718162000255565b5060408051808201909152600e81526d5072696f7269747920517565756560901b60208083019190915260015f52600690527f3e5fec24aa4dc4e5aee2e025e51e1392c72a2500577559fae9665c6d52bd6a3190620000d1908262000346565b506040805180820190915260078152664149205061636b60c81b60208083019190915260025f52600690527f8819ef417987f8ae7a81f42cdfb18815282fe989326fbff903d13cf0e03ace29906200012a908262000346565b50604080518082019091526008815267105c1c0814db1bdd60c21b60208083019190915260035f52600690527f75f96ab15d697e93042dc45b5c896c4b27e89bb6eaf39475c5c371cb2513f7d29062000184908262000346565b5060408051808201909152600d81526c4665617475726564205765656b60981b60208083019190915260045f52600690527fc5069e24aaadb2addc3e52e868fcf3f4f8acf5a87e24300992fd4540c2a87eed90620001e3908262000346565b50604080518082019091526007815266193c1022b0b93760c91b60208083019190915260055f52600690527fbfd358e93f18da3ed276c3afdbdba00b8f0b6008a03476a6a86bd6320ee6938b906200023c908262000346565b506200040e565b600262000251828262000346565b5050565b600380546001600160a01b038381166001600160a01b0319831681179093556040519116919082907f8be0079c531659141344cd1fd0a4f28419497f9722a3daafe3b4186f6b6457e0905f90a35050565b634e487b7160e01b5f52604160045260245ffd5b600181811c90821680620002cf57607f821691505b602082108103620002ee57634e487b7160e01b5f52602260045260245ffd5b50919050565b601f82111562000341575f81815260208120601f850160051c810160208610156200031c5750805b601f850160051c820191505b818110156200033d5782815560010162000328565b5050505b505050565b81516001600160401b03811115620003625762000362620002a6565b6200037a81620003738454620002ba565b84620002f4565b602080601f831160018114620003b0575f8415620003985750858301515b5f19600386901b1c1916600185901b1785556200033d565b5f85815260208120601f198616915b82811015620003e057888601518255948401946001909101908401620003bf565b5085821015620003fe57878501515f19600388901b60f8161c191681555b5050505050600190811b01905550565b611e80806200041c5f395ff3fe608060405234801561000f575f80fd5b50600436106101c5575f3560e01c80638925a752116100fe578063bec4dad51161009e578063e985e9c51161006e578063e985e9c5146103d1578063f242432a146103e4578063f2fde38b146103f7578063f5298aca1461040a575f80fd5b8063bec4dad5146103a6578063c571e1f3146103ae578063cda2f96f146103b6578063d81d0a15146103be575f80fd5b80639d7f4ebf116100d95780639d7f4ebf1461034d578063a22cb4651461036c578063a721f2831461037f578063bd85b03914610387575f80fd5b80638925a752146103175780638da5cb5b1461032a5780639a6f774014610345575f80fd5b80632eb2c2d6116101695780634f558e79116101445780634f558e79146102c85780636b20c454146102e9578063715018a6146102fc5780637cbc237314610304575f80fd5b80632eb2c2d61461027557806337a024a8146102885780634e1273f4146102a8575f80fd5b80630e89341c116101a45780630e89341c14610227578063156e29f61461024757806318160ddd1461025a5780631e0e04df14610262575f80fd5b8062fdd58e146101c957806301ffc9a7146101ef57806302fe530514610212575b5f80fd5b6101dc6101d7366004611600565b61041d565b6040519081526020015b60405180910390f35b6102026101fd36600461163d565b610444565b60405190151581526020016101e6565b6102256102203660046116f9565b610493565b005b61023a610235366004611746565b6104a7565b6040516101e691906117a0565b6102256102553660046117b2565b610539565b6005546101dc565b6102026102703660046117e2565b6106c0565b6102256102833660046118a4565b610700565b61029b6102963660046117e2565b610767565b6040516101e69190611947565b6102bb6102b6366004611977565b6107c1565b6040516101e69190611a6a565b6102026102d6366004611746565b5f90815260046020526040902054151590565b6102256102f7366004611a7c565b610894565b6102256108f8565b610225610312366004611aeb565b61090b565b61023a610325366004611746565b6109aa565b6003546040516001600160a01b0390911681526020016101e6565b6101dc600581565b6101dc61035b366004611746565b60076020525f908152604090205481565b61022561037a366004611b0b565b610a41565b6101dc600281565b6101dc610395366004611746565b5f9081526004602052604090205490565b6101dc600481565b6101dc600181565b6101dc600381565b6102256103cc366004611a7c565b610a50565b6102026103df366004611b44565b610c0d565b6102256103f2366004611b75565b610c3a565b6102256104053660046117e2565b610c99565b6102256104183660046117b2565b610cd3565b5f818152602081815260408083206001600160a01b03861684529091529020545b92915050565b5f6001600160e01b03198216636cdb3d1360e11b148061047457506001600160e01b031982166303a24d0760e21b145b8061043e57506301ffc9a760e01b6001600160e01b031983161461043e565b61049b610d09565b6104a481610d36565b50565b6060600280546104b690611bd5565b80601f01602080910402602001604051908101604052809291908181526020018280546104e290611bd5565b801561052d5780601f106105045761010080835404028352916020019161052d565b820191905f5260205f20905b81548152906001019060200180831161051057829003601f168201915b50505050509050919050565b610541610d09565b60018210158015610553575060058211155b6105995760405162461bcd60e51b8152602060048201526012602482015271496e76616c696420626f6f7374207479706560701b60448201526064015b60405180910390fd5b6001600160a01b0383166105ef5760405162461bcd60e51b815260206004820152601b60248201527f43616e6e6f74206d696e7420746f207a65726f206164647265737300000000006044820152606401610590565b5f811161063e5760405162461bcd60e51b815260206004820152601d60248201527f416d6f756e74206d7573742062652067726561746572207468616e20300000006044820152606401610590565b61065883838360405180602001604052805f815250610d42565b5f8281526007602052604081208054839290610675908490611c21565b909155505060405181815282906001600160a01b038516907f5cfee42353f9fa181510b0aad0972213a9ce52cf92a6a802d7ef46f2fb1f3491906020015b60405180910390a3505050565b5f60015b600581116106f8575f6106d7848361041d565b11156106e65750600192915050565b806106f081611c34565b9150506106c4565b505f92915050565b336001600160a01b0386168114801590610721575061071f8682610c0d565b155b156107525760405163711bec9160e11b81526001600160a01b03808316600483015287166024820152604401610590565b61075f8686868686610d9d565b505050505050565b61076f6115c7565b6107776115c7565b5f5b60058110156107ba57610791846101d7836001611c21565b8282600581106107a3576107a3611c4c565b6020020152806107b281611c34565b915050610779565b5092915050565b606081518351146107f25781518351604051635b05999160e01b815260048101929092526024820152604401610590565b5f835167ffffffffffffffff81111561080d5761080d61165f565b604051908082528060200260200182016040528015610836578160200160208202803683370190505b5090505f5b845181101561088c5760208082028601015161085f9060208084028701015161041d565b82828151811061087157610871611c4c565b602090810291909101015261088581611c34565b905061083b565b509392505050565b6001600160a01b03831633148015906108b457506108b28333610c0d565b155b156108e857335b60405163711bec9160e11b81526001600160a01b0391821660048201529084166024820152604401610590565b6108f3838383610e02565b505050565b610900610d09565b6109095f610e45565b565b80610916338461041d565b10156109645760405162461bcd60e51b815260206004820152601a60248201527f496e73756666696369656e7420626f6f73742062616c616e63650000000000006044820152606401610590565b61096f338383610e96565b604051818152829033907f7dc1a455f8f978f54f093f3c0a5ba8c11958ba91ab9e6119818fb51c5b35f48d9060200160405180910390a35050565b60066020525f9081526040902080546109c290611bd5565b80601f01602080910402602001604051908101604052809291908181526020018280546109ee90611bd5565b8015610a395780601f10610a1057610100808354040283529160200191610a39565b820191905f5260205f20905b815481529060010190602001808311610a1c57829003601f168201915b505050505081565b610a4c338383610efc565b5050565b610a58610d09565b6001600160a01b038316610aae5760405162461bcd60e51b815260206004820152601b60248201527f43616e6e6f74206d696e7420746f207a65726f206164647265737300000000006044820152606401610590565b8051825114610af85760405162461bcd60e51b8152602060048201526016602482015275082e4e4c2f2e640d8cadccee8d040dad2e6dac2e8c6d60531b6044820152606401610590565b5f5b8251811015610bf2576001838281518110610b1757610b17611c4c565b602002602001015110158015610b4757506005838281518110610b3c57610b3c611c4c565b602002602001015111155b610b885760405162461bcd60e51b8152602060048201526012602482015271496e76616c696420626f6f7374207479706560701b6044820152606401610590565b818181518110610b9a57610b9a611c4c565b602002602001015160075f858481518110610bb757610bb7611c4c565b602002602001015181526020019081526020015f205f828254610bda9190611c21565b90915550819050610bea81611c34565b915050610afa565b506108f383838360405180602001604052805f815250610f88565b6001600160a01b039182165f90815260016020908152604080832093909416825291909152205460ff1690565b336001600160a01b0386168114801590610c5b5750610c598682610c0d565b155b15610c8c5760405163711bec9160e11b81526001600160a01b03808316600483015287166024820152604401610590565b61075f8686868686610fc4565b610ca1610d09565b6001600160a01b038116610cca57604051631e4fbdf760e01b81525f6004820152602401610590565b6104a481610e45565b6001600160a01b0383163314801590610cf35750610cf18333610c0d565b155b15610cfe57336108bb565b6108f3838383610e96565b6003546001600160a01b031633146109095760405163118cdaa760e01b8152336004820152602401610590565b6002610a4c8282611ca5565b6001600160a01b038416610d6b57604051632bfa23e760e11b81525f6004820152602401610590565b6040805160018082526020820186905281830190815260608201859052608082019092529061075f5f87848487611050565b6001600160a01b038416610dc657604051632bfa23e760e11b81525f6004820152602401610590565b6001600160a01b038516610dee57604051626a0d4560e21b81525f6004820152602401610590565b610dfb8585858585611050565b5050505050565b6001600160a01b038316610e2a57604051626a0d4560e21b81525f6004820152602401610590565b6108f3835f848460405180602001604052805f815250611050565b600380546001600160a01b038381166001600160a01b0319831681179093556040519116919082907f8be0079c531659141344cd1fd0a4f28419497f9722a3daafe3b4186f6b6457e0905f90a35050565b6001600160a01b038316610ebe57604051626a0d4560e21b81525f6004820152602401610590565b604080516001808252602082018590528183019081526060820184905260a082019092525f60808201818152919291610dfb91879185908590611050565b6001600160a01b038216610f245760405162ced3e160e81b81525f6004820152602401610590565b6001600160a01b038381165f81815260016020908152604080832094871680845294825291829020805460ff191686151590811790915591519182527f17307eab39ab6107e8899845ad3d59bd9653f200f220920489ca2b5937696c3191016106b3565b6001600160a01b038416610fb157604051632bfa23e760e11b81525f6004820152602401610590565b610fbe5f85858585611050565b50505050565b6001600160a01b038416610fed57604051632bfa23e760e11b81525f6004820152602401610590565b6001600160a01b03851661101557604051626a0d4560e21b81525f6004820152602401610590565b604080516001808252602082018690528183019081526060820185905260808201909252906110478787848487611050565b50505050505050565b61105c858585856110a3565b6001600160a01b03841615610dfb5782513390600103611095576020848101519084015161108e8389898585896110af565b505061075f565b61075f8187878787876111d0565b610fbe848484846112b7565b6001600160a01b0384163b1561075f5760405163f23a6e6160e01b81526001600160a01b0385169063f23a6e61906110f39089908990889088908890600401611d61565b6020604051808303815f875af192505050801561112d575060408051601f3d908101601f1916820190925261112a91810190611da5565b60015b611194573d80801561115a576040519150601f19603f3d011682016040523d82523d5f602084013e61115f565b606091505b5080515f0361118c57604051632bfa23e760e11b81526001600160a01b0386166004820152602401610590565b805160208201fd5b6001600160e01b0319811663f23a6e6160e01b1461104757604051632bfa23e760e11b81526001600160a01b0386166004820152602401610590565b6001600160a01b0384163b1561075f5760405163bc197c8160e01b81526001600160a01b0385169063bc197c81906112149089908990889088908890600401611dc0565b6020604051808303815f875af192505050801561124e575060408051601f3d908101601f1916820190925261124b91810190611da5565b60015b61127b573d80801561115a576040519150601f19603f3d011682016040523d82523d5f602084013e61115f565b6001600160e01b0319811663bc197c8160e01b1461104757604051632bfa23e760e11b81526001600160a01b0386166004820152602401610590565b6112c3848484846113af565b6001600160a01b038416611349575f805b83518110156113305760208181028481018201519086018201515f90815260049092526040822080549192839261130c908490611c21565b9091555061131c90508184611c21565b9250508061132990611c34565b90506112d4565b508060055f8282546113429190611c21565b9091555050505b6001600160a01b038316610fbe575f805b835181101561139e5760208181028481018201519086018201515f9081526004909252604090912080548290039055919091019061139781611c34565b905061135a565b506005805491909103905550505050565b80518251146113de5781518151604051635b05999160e01b815260048101929092526024820152604401610590565b335f5b83518110156114e9576020818102858101820151908501909101516001600160a01b03881615611492575f828152602081815260408083206001600160a01b038c1684529091529020548181101561146c576040516303dee4c560e01b81526001600160a01b038a166004820152602481018290526044810183905260648101849052608401610590565b5f838152602081815260408083206001600160a01b038d16845290915290209082900390555b6001600160a01b038716156114d6575f828152602081815260408083206001600160a01b038b168452909152812080548392906114d0908490611c21565b90915550505b5050806114e290611c34565b90506113e1565b5082516001036115695760208301515f906020840151909150856001600160a01b0316876001600160a01b0316846001600160a01b03167fc3d58168c5ae7397731d063d5bbf3d657854427343f4c083240f7aacaa2d0f62858560405161155a929190918252602082015260400190565b60405180910390a45050610dfb565b836001600160a01b0316856001600160a01b0316826001600160a01b03167f4a39dc06d4c0dbc64b70af90fd698a233a518aa5d07e595d983b8c0526c8f7fb86866040516115b8929190611e1d565b60405180910390a45050505050565b6040518060a001604052806005906020820280368337509192915050565b80356001600160a01b03811681146115fb575f80fd5b919050565b5f8060408385031215611611575f80fd5b61161a836115e5565b946020939093013593505050565b6001600160e01b0319811681146104a4575f80fd5b5f6020828403121561164d575f80fd5b813561165881611628565b9392505050565b634e487b7160e01b5f52604160045260245ffd5b604051601f8201601f1916810167ffffffffffffffff8111828210171561169c5761169c61165f565b604052919050565b5f67ffffffffffffffff8311156116bd576116bd61165f565b6116d0601f8401601f1916602001611673565b90508281528383830111156116e3575f80fd5b828260208301375f602084830101529392505050565b5f60208284031215611709575f80fd5b813567ffffffffffffffff81111561171f575f80fd5b8201601f8101841361172f575f80fd5b61173e848235602084016116a4565b949350505050565b5f60208284031215611756575f80fd5b5035919050565b5f81518084525f5b8181101561178157602081850181015186830182015201611765565b505f602082860101526020601f19601f83011685010191505092915050565b602081525f611658602083018461175d565b5f805f606084860312156117c4575f80fd5b6117cd846115e5565b95602085013595506040909401359392505050565b5f602082840312156117f2575f80fd5b611658826115e5565b5f67ffffffffffffffff8211156118145761181461165f565b5060051b60200190565b5f82601f83011261182d575f80fd5b8135602061184261183d836117fb565b611673565b82815260059290921b84018101918181019086841115611860575f80fd5b8286015b8481101561187b5780358352918301918301611864565b509695505050505050565b5f82601f830112611895575f80fd5b611658838335602085016116a4565b5f805f805f60a086880312156118b8575f80fd5b6118c1866115e5565b94506118cf602087016115e5565b9350604086013567ffffffffffffffff808211156118eb575f80fd5b6118f789838a0161181e565b9450606088013591508082111561190c575f80fd5b61191889838a0161181e565b9350608088013591508082111561192d575f80fd5b5061193a88828901611886565b9150509295509295909350565b60a0810181835f5b600581101561196e57815183526020928301929091019060010161194f565b50505092915050565b5f8060408385031215611988575f80fd5b823567ffffffffffffffff8082111561199f575f80fd5b818501915085601f8301126119b2575f80fd5b813560206119c261183d836117fb565b82815260059290921b840181019181810190898411156119e0575f80fd5b948201945b83861015611a05576119f6866115e5565b825294820194908201906119e5565b96505086013592505080821115611a1a575f80fd5b50611a278582860161181e565b9150509250929050565b5f8151808452602080850194508084015f5b83811015611a5f57815187529582019590820190600101611a43565b509495945050505050565b602081525f6116586020830184611a31565b5f805f60608486031215611a8e575f80fd5b611a97846115e5565b9250602084013567ffffffffffffffff80821115611ab3575f80fd5b611abf8783880161181e565b93506040860135915080821115611ad4575f80fd5b50611ae18682870161181e565b9150509250925092565b5f8060408385031215611afc575f80fd5b50508035926020909101359150565b5f8060408385031215611b1c575f80fd5b611b25836115e5565b915060208301358015158114611b39575f80fd5b809150509250929050565b5f8060408385031215611b55575f80fd5b611b5e836115e5565b9150611b6c602084016115e5565b90509250929050565b5f805f805f60a08688031215611b89575f80fd5b611b92866115e5565b9450611ba0602087016115e5565b93506040860135925060608601359150608086013567ffffffffffffffff811115611bc9575f80fd5b61193a88828901611886565b600181811c90821680611be957607f821691505b602082108103611c0757634e487b7160e01b5f52602260045260245ffd5b50919050565b634e487b7160e01b5f52601160045260245ffd5b8082018082111561043e5761043e611c0d565b5f60018201611c4557611c45611c0d565b5060010190565b634e487b7160e01b5f52603260045260245ffd5b601f8211156108f3575f81815260208120601f850160051c81016020861015611c865750805b601f850160051c820191505b8181101561075f57828155600101611c92565b815167ffffffffffffffff811115611cbf57611cbf61165f565b611cd381611ccd8454611bd5565b84611c60565b602080601f831160018114611d06575f8415611cef5750858301515b5f19600386901b1c1916600185901b17855561075f565b5f85815260208120601f198616915b82811015611d3457888601518255948401946001909101908401611d15565b5085821015611d5157878501515f19600388901b60f8161c191681555b5050505050600190811b01905550565b6001600160a01b03868116825285166020820152604081018490526060810183905260a0608082018190525f90611d9a9083018461175d565b979650505050505050565b5f60208284031215611db5575f80fd5b815161165881611628565b6001600160a01b0386811682528516602082015260a0604082018190525f90611deb90830186611a31565b8281036060840152611dfd8186611a31565b90508281036080840152611e11818561175d565b98975050505050505050565b604081525f611e2f6040830185611a31565b8281036020840152611e418185611a31565b9594505050505056fea2646970667358221220aed7eb3b2d806f36168c15ab843878414a2959a2f42287eec5478e1f592a370264736f6c6343000814003368747470733a2f2f73756974652e67697665732f6170692f626f6f73742d6d657461646174612f7b69647d2e6a736f6e","linkReferences":{}},"methodIdentifiers":{"AI_PACK()":"a721f283","APP_SLOT()":"cda2f96f","DOUBLE_EARN()":"9a6f7740","FEATURED_WEEK()":"bec4dad5","PRIORITY_QUEUE()":"c571e1f3","balanceOf(address,uint256)":"00fdd58e","balanceOfBatch(address[],uint256[])":"4e1273f4","boostNames(uint256)":"8925a752","burn(address,uint256,uint256)":"f5298aca","burnBatch(address,uint256[],uint256[])":"6b20c454","exists(uint256)":"4f558e79","getAllBoostBalances(address)":"37a024a8","hasAnyBoost(address)":"1e0e04df","isApprovedForAll(address,address)":"e985e9c5","mint(address,uint256,uint256)":"156e29f6","mintBatch(address,uint256[],uint256[])":"d81d0a15","owner()":"8da5cb5b","redeem(uint256,uint256)":"7cbc2373","renounceOwnership()":"715018a6","safeBatchTransferFrom(address,address,uint256[],uint256[],bytes)":"2eb2c2d6","safeTransferFrom(address,address,uint256,uint256,bytes)":"f242432a","setApprovalForAll(address,bool)":"a22cb465","setURI(string)":"02fe5305","supportsInterface(bytes4)":"01ffc9a7","totalMinted(uint256)":"9d7f4ebf","totalSupply()":"18160ddd","totalSupply(uint256)":"bd85b039","transferOwnership(address)":"f2fde38b","uri(uint256)":"0e89341c"},"id":62}